{
  "address": "0x023547324c04a59E968B1Db9de3AD5C9bF6a3b7C",
  "abi": [
    {
      "inputs": [
        {
          "internalType": "string",
          "name": "_initNotRevealedUri",
          "type": "string"
        },
        {
          "internalType": "address",
          "name": "punksContract_",
          "type": "address"
        }
      ],
      "stateMutability": "nonpayable",
      "type": "constructor"
    },
    {
      "anonymous": false,
      "inputs": [
        {
          "indexed": true,
          "internalType": "address",
          "name": "owner",
          "type": "address"
        },
        {
          "indexed": true,
          "internalType": "address",
          "name": "approved",
          "type": "address"
        },
        {
          "indexed": true,
          "internalType": "uint256",
          "name": "tokenId",
          "type": "uint256"
        }
      ],
      "name": "Approval",
      "type": "event"
    },
    {
      "anonymous": false,
      "inputs": [
        {
          "indexed": true,
          "internalType": "address",
          "name": "owner",
          "type": "address"
        },
        {
          "indexed": true,
          "internalType": "address",
          "name": "operator",
          "type": "address"
        },
        {
          "indexed": false,
          "internalType": "bool",
          "name": "approved",
          "type": "bool"
        }
      ],
      "name": "ApprovalForAll",
      "type": "event"
    },
    {
      "anonymous": false,
      "inputs": [
        {
          "indexed": true,
          "internalType": "address",
          "name": "to",
          "type": "address"
        },
        {
          "indexed": false,
          "internalType": "uint256",
          "name": "punkId",
          "type": "uint256"
        },
        {
          "indexed": false,
          "internalType": "uint256",
          "name": "nftiffId",
          "type": "uint256"
        }
      ],
      "name": "Claimed",
      "type": "event"
    },
    {
      "anonymous": false,
      "inputs": [
        {
          "indexed": true,
          "internalType": "address",
          "name": "to",
          "type": "address"
        },
        {
          "indexed": true,
          "internalType": "uint256",
          "name": "tokenId",
          "type": "uint256"
        }
      ],
      "name": "NFTiffMinted",
      "type": "event"
    },
    {
      "anonymous": false,
      "inputs": [
        {
          "indexed": true,
          "internalType": "address",
          "name": "previousOwner",
          "type": "address"
        },
        {
          "indexed": true,
          "internalType": "address",
          "name": "newOwner",
          "type": "address"
        }
      ],
      "name": "OwnershipTransferred",
      "type": "event"
    },
    {
      "anonymous": false,
      "inputs": [
        {
          "indexed": true,
          "internalType": "address",
          "name": "from",
          "type": "address"
        },
        {
          "indexed": true,
          "internalType": "address",
          "name": "to",
          "type": "address"
        },
        {
          "indexed": true,
          "internalType": "uint256",
          "name": "tokenId",
          "type": "uint256"
        }
      ],
      "name": "Transfer",
      "type": "event"
    },
    {
      "inputs": [
        {
          "internalType": "address",
          "name": "to",
          "type": "address"
        },
        {
          "internalType": "uint256",
          "name": "tokenId",
          "type": "uint256"
        }
      ],
      "name": "approve",
      "outputs": [],
      "stateMutability": "nonpayable",
      "type": "function"
    },
    {
      "inputs": [
        {
          "internalType": "address",
          "name": "owner",
          "type": "address"
        }
      ],
      "name": "balanceOf",
      "outputs": [
        {
          "internalType": "uint256",
          "name": "",
          "type": "uint256"
        }
      ],
      "stateMutability": "view",
      "type": "function"
    },
    {
      "inputs": [],
      "name": "baseExtension",
      "outputs": [
        {
          "internalType": "string",
          "name": "",
          "type": "string"
        }
      ],
      "stateMutability": "view",
      "type": "function"
    },
    {
      "inputs": [
        {
          "internalType": "address[]",
          "name": "addresses",
          "type": "address[]"
        }
      ],
      "name": "blacklistUsers",
      "outputs": [],
      "stateMutability": "nonpayable",
      "type": "function"
    },
    {
      "inputs": [
        {
          "internalType": "uint256",
          "name": "punk_",
          "type": "uint256"
        },
        {
          "internalType": "uint256",
          "name": "nftiff_",
          "type": "uint256"
        },
        {
          "internalType": "bytes",
          "name": "_signature",
          "type": "bytes"
        }
      ],
      "name": "claim",
      "outputs": [],
      "stateMutability": "payable",
      "type": "function"
    },
    {
      "inputs": [
        {
          "internalType": "uint256",
          "name": "",
          "type": "uint256"
        },
        {
          "internalType": "uint256",
          "name": "",
          "type": "uint256"
        }
      ],
      "name": "claimInfo",
      "outputs": [
        {
          "internalType": "uint256",
          "name": "timestamp",
          "type": "uint256"
        },
        {
          "internalType": "address",
          "name": "claimer",
          "type": "address"
        }
      ],
      "stateMutability": "view",
      "type": "function"
    },
    {
      "inputs": [],
      "name": "cost",
      "outputs": [
        {
          "internalType": "uint256",
          "name": "",
          "type": "uint256"
        }
      ],
      "stateMutability": "view",
      "type": "function"
    },
    {
      "inputs": [
        {
          "internalType": "uint256",
          "name": "tokenId",
          "type": "uint256"
        }
      ],
      "name": "getApproved",
      "outputs": [
        {
          "internalType": "address",
          "name": "",
          "type": "address"
        }
      ],
      "stateMutability": "view",
      "type": "function"
    },
    {
      "inputs": [],
      "name": "getBaseURI",
      "outputs": [
        {
          "internalType": "string",
          "name": "",
          "type": "string"
        }
      ],
      "stateMutability": "view",
      "type": "function"
    },
    {
      "inputs": [],
      "name": "getContractBalance",
      "outputs": [
        {
          "internalType": "uint256",
          "name": "",
          "type": "uint256"
        }
      ],
      "stateMutability": "view",
      "type": "function"
    },
    {
      "inputs": [],
      "name": "getSigner",
      "outputs": [
        {
          "internalType": "address",
          "name": "",
          "type": "address"
        }
      ],
      "stateMutability": "view",
      "type": "function"
    },
    {
      "inputs": [
        {
          "internalType": "uint256",
          "name": "_mintAmount",
          "type": "uint256"
        },
        {
          "internalType": "address",
          "name": "destination",
          "type": "address"
        }
      ],
      "name": "gift",
      "outputs": [],
      "stateMutability": "nonpayable",
      "type": "function"
    },
    {
      "inputs": [
        {
          "internalType": "address",
          "name": "owner",
          "type": "address"
        },
        {
          "internalType": "address",
          "name": "operator",
          "type": "address"
        }
      ],
      "name": "isApprovedForAll",
      "outputs": [
        {
          "internalType": "bool",
          "name": "",
          "type": "bool"
        }
      ],
      "stateMutability": "view",
      "type": "function"
    },
    {
      "inputs": [
        {
          "internalType": "address",
          "name": "_user",
          "type": "address"
        }
      ],
      "name": "isBlacklisted",
      "outputs": [
        {
          "internalType": "bool",
          "name": "",
          "type": "bool"
        }
      ],
      "stateMutability": "view",
      "type": "function"
    },
    {
      "inputs": [],
      "name": "isKycRequired",
      "outputs": [
        {
          "internalType": "bool",
          "name": "",
          "type": "bool"
        }
      ],
      "stateMutability": "view",
      "type": "function"
    },
    {
      "inputs": [
        {
          "internalType": "address",
          "name": "_user",
          "type": "address"
        }
      ],
      "name": "isWhitelisted",
      "outputs": [
        {
          "internalType": "bool",
          "name": "",
          "type": "bool"
        }
      ],
      "stateMutability": "view",
      "type": "function"
    },
    {
      "inputs": [],
      "name": "maxMintAmount",
      "outputs": [
        {
          "internalType": "uint256",
          "name": "",
          "type": "uint256"
        }
      ],
      "stateMutability": "view",
      "type": "function"
    },
    {
      "inputs": [],
      "name": "maxSupply",
      "outputs": [
        {
          "internalType": "uint256",
          "name": "",
          "type": "uint256"
        }
      ],
      "stateMutability": "view",
      "type": "function"
    },
    {
      "inputs": [
        {
          "internalType": "uint256",
          "name": "_mintAmount",
          "type": "uint256"
        },
        {
          "internalType": "bytes",
          "name": "_signature",
          "type": "bytes"
        }
      ],
      "name": "mint1",
      "outputs": [],
      "stateMutability": "payable",
      "type": "function"
    },
    {
      "inputs": [
        {
          "internalType": "uint256",
          "name": "_mintAmount",
          "type": "uint256"
        }
      ],
      "name": "mintPublic",
      "outputs": [],
      "stateMutability": "payable",
      "type": "function"
    },
    {
      "inputs": [],
      "name": "name",
      "outputs": [
        {
          "internalType": "string",
          "name": "",
          "type": "string"
        }
      ],
      "stateMutability": "view",
      "type": "function"
    },
    {
      "inputs": [],
      "name": "notRevealedUri",
      "outputs": [
        {
          "internalType": "string",
          "name": "",
          "type": "string"
        }
      ],
      "stateMutability": "view",
      "type": "function"
    },
    {
      "inputs": [],
      "name": "owner",
      "outputs": [
        {
          "internalType": "address",
          "name": "",
          "type": "address"
        }
      ],
      "stateMutability": "view",
      "type": "function"
    },
    {
      "inputs": [
        {
          "internalType": "uint256",
          "name": "tokenId",
          "type": "uint256"
        }
      ],
      "name": "ownerOf",
      "outputs": [
        {
          "internalType": "address",
          "name": "",
          "type": "address"
        }
      ],
      "stateMutability": "view",
      "type": "function"
    },
    {
      "inputs": [
        {
          "internalType": "bool",
          "name": "_state",
          "type": "bool"
        }
      ],
      "name": "pause",
      "outputs": [],
      "stateMutability": "nonpayable",
      "type": "function"
    },
    {
      "inputs": [],
      "name": "paused",
      "outputs": [
        {
          "internalType": "bool",
          "name": "",
          "type": "bool"
        }
      ],
      "stateMutability": "view",
      "type": "function"
    },
    {
      "inputs": [],
      "name": "presaleActive",
      "outputs": [
        {
          "internalType": "bool",
          "name": "",
          "type": "bool"
        }
      ],
      "stateMutability": "view",
      "type": "function"
    },
    {
      "inputs": [],
      "name": "publicSaleActive",
      "outputs": [
        {
          "internalType": "bool",
          "name": "",
          "type": "bool"
        }
      ],
      "stateMutability": "view",
      "type": "function"
    },
    {
      "inputs": [],
      "name": "punksContract",
      "outputs": [
        {
          "internalType": "address",
          "name": "",
          "type": "address"
        }
      ],
      "stateMutability": "view",
      "type": "function"
    },
    {
      "inputs": [],
      "name": "renounceOwnership",
      "outputs": [],
      "stateMutability": "nonpayable",
      "type": "function"
    },
    {
      "inputs": [],
      "name": "reveal",
      "outputs": [],
      "stateMutability": "nonpayable",
      "type": "function"
    },
    {
      "inputs": [],
      "name": "revealed",
      "outputs": [
        {
          "internalType": "bool",
          "name": "",
          "type": "bool"
        }
      ],
      "stateMutability": "view",
      "type": "function"
    },
    {
      "inputs": [
        {
          "internalType": "address",
          "name": "from",
          "type": "address"
        },
        {
          "internalType": "address",
          "name": "to",
          "type": "address"
        },
        {
          "internalType": "uint256",
          "name": "tokenId",
          "type": "uint256"
        }
      ],
      "name": "safeTransferFrom",
      "outputs": [],
      "stateMutability": "nonpayable",
      "type": "function"
    },
    {
      "inputs": [
        {
          "internalType": "address",
          "name": "from",
          "type": "address"
        },
        {
          "internalType": "address",
          "name": "to",
          "type": "address"
        },
        {
          "internalType": "uint256",
          "name": "tokenId",
          "type": "uint256"
        },
        {
          "internalType": "bytes",
          "name": "_data",
          "type": "bytes"
        }
      ],
      "name": "safeTransferFrom",
      "outputs": [],
      "stateMutability": "nonpayable",
      "type": "function"
    },
    {
      "inputs": [
        {
          "internalType": "address",
          "name": "operator",
          "type": "address"
        },
        {
          "internalType": "bool",
          "name": "approved",
          "type": "bool"
        }
      ],
      "name": "setApprovalForAll",
      "outputs": [],
      "stateMutability": "nonpayable",
      "type": "function"
    },
    {
      "inputs": [
        {
          "internalType": "string",
          "name": "_newBaseExtension",
          "type": "string"
        }
      ],
      "name": "setBaseExtension",
      "outputs": [],
      "stateMutability": "nonpayable",
      "type": "function"
    },
    {
      "inputs": [
        {
          "internalType": "string",
          "name": "_newBaseURI",
          "type": "string"
        }
      ],
      "name": "setBaseURI",
      "outputs": [],
      "stateMutability": "nonpayable",
      "type": "function"
    },
    {
      "inputs": [
        {
          "internalType": "uint256",
          "name": "_newCost",
          "type": "uint256"
        }
      ],
      "name": "setCost",
      "outputs": [],
      "stateMutability": "nonpayable",
      "type": "function"
    },
    {
      "inputs": [
        {
          "internalType": "bool",
          "name": "_required",
          "type": "bool"
        }
      ],
      "name": "setKycRequired",
      "outputs": [],
      "stateMutability": "nonpayable",
      "type": "function"
    },
    {
      "inputs": [
        {
          "internalType": "uint256",
          "name": "_maxSupply",
          "type": "uint256"
        }
      ],
      "name": "setMaxSupply",
      "outputs": [],
      "stateMutability": "nonpayable",
      "type": "function"
    },
    {
      "inputs": [
        {
          "internalType": "string",
          "name": "_notRevealedURI",
          "type": "string"
        }
      ],
      "name": "setNotRevealedURI",
      "outputs": [],
      "stateMutability": "nonpayable",
      "type": "function"
    },
    {
      "inputs": [
        {
          "internalType": "bool",
          "name": "_saleActive",
          "type": "bool"
        }
      ],
      "name": "setPresaleStatus",
      "outputs": [],
      "stateMutability": "nonpayable",
      "type": "function"
    },
    {
      "inputs": [
        {
          "internalType": "bool",
          "name": "_saleActive",
          "type": "bool"
        }
      ],
      "name": "setPublicSaleStatus",
      "outputs": [],
      "stateMutability": "nonpayable",
      "type": "function"
    },
    {
      "inputs": [
        {
          "internalType": "address",
          "name": "signer_",
          "type": "address"
        }
      ],
      "name": "setSigner",
      "outputs": [],
      "stateMutability": "nonpayable",
      "type": "function"
    },
    {
      "inputs": [
        {
          "internalType": "uint256",
          "name": "_newmaxMintAmount",
          "type": "uint256"
        }
      ],
      "name": "setmaxMintAmount",
      "outputs": [],
      "stateMutability": "nonpayable",
      "type": "function"
    },
    {
      "inputs": [],
      "name": "signer",
      "outputs": [
        {
          "internalType": "address",
          "name": "",
          "type": "address"
        }
      ],
      "stateMutability": "view",
      "type": "function"
    },
    {
      "inputs": [
        {
          "internalType": "bytes4",
          "name": "interfaceId",
          "type": "bytes4"
        }
      ],
      "name": "supportsInterface",
      "outputs": [
        {
          "internalType": "bool",
          "name": "",
          "type": "bool"
        }
      ],
      "stateMutability": "view",
      "type": "function"
    },
    {
      "inputs": [],
      "name": "symbol",
      "outputs": [
        {
          "internalType": "string",
          "name": "",
          "type": "string"
        }
      ],
      "stateMutability": "view",
      "type": "function"
    },
    {
      "inputs": [
        {
          "internalType": "uint256",
          "name": "index",
          "type": "uint256"
        }
      ],
      "name": "tokenByIndex",
      "outputs": [
        {
          "internalType": "uint256",
          "name": "",
          "type": "uint256"
        }
      ],
      "stateMutability": "view",
      "type": "function"
    },
    {
      "inputs": [
        {
          "internalType": "address",
          "name": "owner",
          "type": "address"
        },
        {
          "internalType": "uint256",
          "name": "index",
          "type": "uint256"
        }
      ],
      "name": "tokenOfOwnerByIndex",
      "outputs": [
        {
          "internalType": "uint256",
          "name": "",
          "type": "uint256"
        }
      ],
      "stateMutability": "view",
      "type": "function"
    },
    {
      "inputs": [
        {
          "internalType": "uint256",
          "name": "tokenId",
          "type": "uint256"
        }
      ],
      "name": "tokenURI",
      "outputs": [
        {
          "internalType": "string",
          "name": "",
          "type": "string"
        }
      ],
      "stateMutability": "view",
      "type": "function"
    },
    {
      "inputs": [],
      "name": "totalSupply",
      "outputs": [
        {
          "internalType": "uint256",
          "name": "",
          "type": "uint256"
        }
      ],
      "stateMutability": "view",
      "type": "function"
    },
    {
      "inputs": [
        {
          "internalType": "address",
          "name": "from",
          "type": "address"
        },
        {
          "internalType": "address",
          "name": "to",
          "type": "address"
        },
        {
          "internalType": "uint256",
          "name": "tokenId",
          "type": "uint256"
        }
      ],
      "name": "transferFrom",
      "outputs": [],
      "stateMutability": "nonpayable",
      "type": "function"
    },
    {
      "inputs": [
        {
          "internalType": "address",
          "name": "newOwner",
          "type": "address"
        }
      ],
      "name": "transferOwnership",
      "outputs": [],
      "stateMutability": "nonpayable",
      "type": "function"
    },
    {
      "inputs": [
        {
          "internalType": "address",
          "name": "_owner",
          "type": "address"
        }
      ],
      "name": "walletOfOwner",
      "outputs": [
        {
          "internalType": "uint256[]",
          "name": "",
          "type": "uint256[]"
        }
      ],
      "stateMutability": "view",
      "type": "function"
    },
    {
      "inputs": [
        {
          "internalType": "address[]",
          "name": "addresses",
          "type": "address[]"
        }
      ],
      "name": "whitelistUsers",
      "outputs": [],
      "stateMutability": "nonpayable",
      "type": "function"
    },
    {
      "inputs": [],
      "name": "withdraw",
      "outputs": [],
      "stateMutability": "payable",
      "type": "function"
    }
  ],
  "transactionHash": "0xc7c2042ed2799f2d9171c16d0b71de5945b1f097ddb0edaec96acb23a81b1a76",
  "args": [
    "",
    "0x0ece5312f66002b4103FBb6A0ff4ad90aF52f91a"
  ],
  "solcInputHash": "a2871d11f63a7a7d91633eefe4730ecf",
  "bytecode": "0x60e0604052600560a081905264173539b7b760d91b60c09081526200002891600d9190620001e3565b506801a055690d9db80000600f556101f460105560026011556012805464ffffffffff19166401000000001790553480156200006357600080fd5b506040516200453e3803806200453e833981016040819052620000869162000315565b60408051808201825260068082526527232a34b33360d11b602080840182815285518087019096529285528401528151919291620000c791600091620001e3565b508051620000dd906001906020840190620001e3565b505050620000fa620000f46200013e60201b60201c565b62000142565b6001600b556200010a8262000194565b60128054600160281b600160c81b03191633650100000000000217905560601b6001600160601b03191660805250620004e5565b3390565b600a80546001600160a01b038381166001600160a01b0319831681179093556040519116919082907f8be0079c531659141344cd1fd0a4f28419497f9722a3daafe3b4186f6b6457e090600090a35050565b600a546001600160a01b03163314620001ca5760405162461bcd60e51b8152600401620001c19062000373565b60405180910390fd5b8051620001df90600e906020840190620001e3565b5050565b828054620001f1906200043f565b90600052602060002090601f01602090048101928262000215576000855562000260565b82601f106200023057805160ff191683800117855562000260565b8280016001018555821562000260579182015b828111156200026057825182559160200191906001019062000243565b506200026e92915062000272565b5090565b5b808211156200026e576000815560010162000273565b6000620002a06200029a84620003cd565b620003ae565b905082815260208101848484011115620002bd57620002bd600080fd5b620002ca8482856200040c565b509392505050565b8051620002df81620004cb565b92915050565b600082601f830112620002fb57620002fb600080fd5b81516200030d84826020860162000289565b949350505050565b600080604083850312156200032d576200032d600080fd5b82516001600160401b03811115620003485762000348600080fd5b6200035685828601620002e5565b92505060206200036985828601620002d2565b9150509250929050565b60208082528181019081527f4f776e61626c653a2063616c6c6572206973206e6f7420746865206f776e6572604083015260608201620002df565b6000620003ba60405190565b9050620003c8828262000470565b919050565b60006001600160401b03821115620003e957620003e9620004b5565b601f19601f83011660200192915050565b60006001600160a01b038216620002df565b60005b83811015620004295781810151838201526020016200040f565b8381111562000439576000848401525b50505050565b6002810460018216806200045457607f821691505b602082108114156200046a576200046a6200049f565b50919050565b601f19601f83011681018181106001600160401b0382111715620004985762000498620004b5565b6040525050565b634e487b7160e01b600052602260045260246000fd5b634e487b7160e01b600052604160045260246000fd5b620004d681620003fa565b8114620004e257600080fd5b50565b60805160601c6140336200050b600039600081816109ab015261110901526140336000f3fe6080604052600436106103765760003560e01c80636f9fb98a116101d1578063b88d4fde11610102578063da3ef23f116100a0578063efd0cbf91161006f578063efd0cbf914610a36578063f2c4ce1e14610a49578063f2fde38b14610a69578063fe575a8714610a8957600080fd5b8063da3ef23f14610979578063e46317b514610999578063e985e9c5146109cd578063edec5f2714610a1657600080fd5b8063c6682862116100dc578063c6682862146108d8578063c87b56dd146108ed578063d17f04351461090d578063d5abeb011461096357600080fd5b8063b88d4fde14610879578063bb3d676a14610899578063bc8893b4146108b957600080fd5b80638895283f1161016f57806395d89b411161014957806395d89b411461080f578063a22cb46514610824578063a475b5dd14610844578063b423fe671461085957600080fd5b80638895283f146107be5780638b9a10d7146107de5780638da5cb5b146107f157600080fd5b8063715018a6116101ab578063715018a6146107545780637ac3c02f146107695780637f00c7a61461077e57806383a076be1461079e57600080fd5b80636f9fb98a1461070a57806370a082311461071f578063714c53981461073f57600080fd5b80633ccfd60b116102ab57806353135ca0116102495780635eddd157116102235780635eddd157146106975780636352211e146106aa5780636c19e783146106ca5780636f8b44b0146106ea57600080fd5b806353135ca01461063d57806355f804b3146106575780635c975abb1461067757600080fd5b8063438b630011610285578063438b6300146105af57806344a0d68a146105dc5780634f6ccce7146105fc578063518302271461061c57600080fd5b80633ccfd60b146105655780633e4191dc1461056d57806342842e0e1461058f57600080fd5b8063150909f711610318578063239c70ae116102f2578063239c70ae146104d657806323b872dd146104ec5780632f745c591461050c5780633af32abf1461052c57600080fd5b8063150909f71461047a57806318160ddd1461049a578063238ac933146104af57600080fd5b8063081812fc11610354578063081812fc146103f5578063081c8c4414610422578063095ea7b31461043757806313faede61461045757600080fd5b806301ffc9a71461037b57806302329a29146103b157806306fdde03146103d3575b600080fd5b34801561038757600080fd5b5061039b610396366004612e43565b610ac2565b6040516103a89190613aad565b60405180910390f35b3480156103bd57600080fd5b506103d16103cc366004612e22565b610aed565b005b3480156103df57600080fd5b506103e8610b3c565b6040516103a89190613af0565b34801561040157600080fd5b50610415610410366004612ec0565b610bce565b6040516103a89190613a4a565b34801561042e57600080fd5b506103e8610c1e565b34801561044357600080fd5b506103d1610452366004612db4565b610cac565b34801561046357600080fd5b5061046d600f5481565b6040516103a89190613d41565b34801561048657600080fd5b506103d1610495366004612e22565b610d32565b3480156104a657600080fd5b5060085461046d565b3480156104bb57600080fd5b5060125461041590600160281b90046001600160a01b031681565b3480156104e257600080fd5b5061046d60115481565b3480156104f857600080fd5b506103d1610507366004612cb2565b610d7c565b34801561051857600080fd5b5061046d610527366004612db4565b610dad565b34801561053857600080fd5b5061039b610547366004612c33565b6001600160a01b031660009081526013602052604090205460ff1690565b6103d1610dff565b34801561057957600080fd5b5060125461039b90640100000000900460ff1681565b34801561059b57600080fd5b506103d16105aa366004612cb2565b610e95565b3480156105bb57600080fd5b506105cf6105ca366004612c33565b610eb0565b6040516103a89190613a9c565b3480156105e857600080fd5b506103d16105f7366004612ec0565b610f52565b34801561060857600080fd5b5061046d610617366004612ec0565b610f81565b34801561062857600080fd5b5060125461039b906301000000900460ff1681565b34801561064957600080fd5b5060125461039b9060ff1681565b34801561066357600080fd5b506103d1610672366004612e85565b610fcf565b34801561068357600080fd5b5060125461039b9062010000900460ff1681565b6103d16106a5366004612f73565b611010565b3480156106b657600080fd5b506104156106c5366004612ec0565b6112d0565b3480156106d657600080fd5b506103d16106e5366004612c33565b611305565b3480156106f657600080fd5b506103d1610705366004612ec0565b61135d565b34801561071657600080fd5b5061046d61138c565b34801561072b57600080fd5b5061046d61073a366004612c33565b6113be565b34801561074b57600080fd5b506103e8611402565b34801561076057600080fd5b506103d161143c565b34801561077557600080fd5b50610415611472565b34801561078a57600080fd5b506103d1610799366004612ec0565b6114b6565b3480156107aa57600080fd5b506103d16107b9366004612ee1565b6114e5565b3480156107ca57600080fd5b506103d16107d9366004612e22565b6115db565b6103d16107ec366004612f03565b611618565b3480156107fd57600080fd5b50600a546001600160a01b0316610415565b34801561081b57600080fd5b506103e86117d7565b34801561083057600080fd5b506103d161083f366004612d81565b6117e6565b34801561085057600080fd5b506103d16117f1565b34801561086557600080fd5b506103d1610874366004612e22565b611830565b34801561088557600080fd5b506103d1610894366004612d02565b611874565b3480156108a557600080fd5b506103d16108b4366004612de7565b6118a6565b3480156108c557600080fd5b5060125461039b90610100900460ff1681565b3480156108e457600080fd5b506103e8611938565b3480156108f957600080fd5b506103e8610908366004612ec0565b611945565b34801561091957600080fd5b50610955610928366004612f51565b6015602090815260009283526040808420909152908252902080546001909101546001600160a01b031682565b6040516103a8929190613d4f565b34801561096f57600080fd5b5061046d60105481565b34801561098557600080fd5b506103d1610994366004612e85565b611a83565b3480156109a557600080fd5b506104157f000000000000000000000000000000000000000000000000000000000000000081565b3480156109d957600080fd5b5061039b6109e8366004612c75565b6001600160a01b03918216600090815260056020908152604080832093909416825291909152205460ff1690565b348015610a2257600080fd5b506103d1610a31366004612de7565b611ac0565b6103d1610a44366004612ec0565b611b52565b348015610a5557600080fd5b506103d1610a64366004612e85565b611d0c565b348015610a7557600080fd5b506103d1610a84366004612c33565b611d49565b348015610a9557600080fd5b5061039b610aa4366004612c33565b6001600160a01b031660009081526014602052604090205460ff1690565b60006001600160e01b0319821663780e9d6360e01b1480610ae75750610ae782611da2565b92915050565b600a546001600160a01b03163314610b205760405162461bcd60e51b8152600401610b1790613c71565b60405180910390fd5b60128054911515620100000262ff000019909216919091179055565b606060008054610b4b90613e96565b80601f0160208091040260200160405190810160405280929190818152602001828054610b7790613e96565b8015610bc45780601f10610b9957610100808354040283529160200191610bc4565b820191906000526020600020905b815481529060010190602001808311610ba757829003601f168201915b5050505050905090565b6000818152600260205260408120546001600160a01b0316610c025760405162461bcd60e51b8152600401610b1790613c61565b506000908152600460205260409020546001600160a01b031690565b600e8054610c2b90613e96565b80601f0160208091040260200160405190810160405280929190818152602001828054610c5790613e96565b8015610ca45780601f10610c7957610100808354040283529160200191610ca4565b820191906000526020600020905b815481529060010190602001808311610c8757829003601f168201915b505050505081565b6000610cb7826112d0565b9050806001600160a01b0316836001600160a01b03161415610ceb5760405162461bcd60e51b8152600401610b1790613ca1565b336001600160a01b0382161480610d075750610d0781336109e8565b610d235760405162461bcd60e51b8152600401610b1790613bf1565b610d2d8383611df2565b505050565b600a546001600160a01b03163314610d5c5760405162461bcd60e51b8152600401610b1790613c71565b601280549115156401000000000264ff0000000019909216919091179055565b610d863382611e60565b610da25760405162461bcd60e51b8152600401610b1790613cc1565b610d2d838383611f12565b6000610db8836113be565b8210610dd65760405162461bcd60e51b8152600401610b1790613b41565b506001600160a01b03919091166000908152600660209081526040808320938352929052205490565b600a546001600160a01b03163314610e295760405162461bcd60e51b8152600401610b1790613c71565b6000336001600160a01b031647604051610e4290613a42565b60006040518083038185875af1925050503d8060008114610e7f576040519150601f19603f3d011682016040523d82523d6000602084013e610e84565b606091505b5050905080610e9257600080fd5b50565b610d2d83838360405180602001604052806000815250611874565b60606000610ebd836113be565b905060008167ffffffffffffffff811115610eda57610eda613fb5565b604051908082528060200260200182016040528015610f03578160200160208202803683370190505b50905060005b82811015610f4a57610f1b8582610dad565b828281518110610f2d57610f2d613f9f565b602090810291909101015280610f4281613ef0565b915050610f09565b509392505050565b600a546001600160a01b03163314610f7c5760405162461bcd60e51b8152600401610b1790613c71565b600f55565b6000610f8c60085490565b8210610faa5760405162461bcd60e51b8152600401610b1790613cd1565b60088281548110610fbd57610fbd613f9f565b90600052602060002001549050919050565b600a546001600160a01b03163314610ff95760405162461bcd60e51b8152600401610b1790613c71565b805161100c90600c906020840190612a71565b5050565b60125462010000900460ff16156110395760405162461bcd60e51b8152600401610b1790613c81565b6002600b54141561105c5760405162461bcd60e51b8152600401610b1790613d11565b6002600b553360008181526014602052604090205460ff16156110915760405162461bcd60e51b8152600401610b1790613cf1565b6000848152601560209081526040808320868452909152902054156110c85760405162461bcd60e51b8152600401610b1790613b91565b336110d2846112d0565b6001600160a01b0316146110f85760405162461bcd60e51b8152600401610b1790613c31565b604051630b02f02d60e31b815233907f00000000000000000000000000000000000000000000000000000000000000006001600160a01b031690635817816890611146908890600401613d41565b60206040518083038186803b15801561115e57600080fd5b505afa158015611172573d6000803e3d6000fd5b505050506040513d601f19601f820116820180604052508101906111969190612c54565b6001600160a01b0316146111bc5760405162461bcd60e51b8152600401610b1790613b31565b60008484336040516020016111d3939291906139c7565b6040516020818303038152906040528051906020012090506000611200846111fa8461203f565b9061206f565b6012549091506001600160a01b03808316600160281b90920416146112375760405162461bcd60e51b8152600401610b1790613d31565b60408051808201825242815233602080830182815260008b8152601583528581208b8252909252908490209251835551600190920180546001600160a01b0319166001600160a01b039093169290921790915590517f987d620f307ff6b94d58743cb7a7509f24071586a77759b77c2d4e29f75a2f9a906112bb9089908990613d6a565b60405180910390a250506001600b5550505050565b6000818152600260205260408120546001600160a01b031680610ae75760405162461bcd60e51b8152600401610b1790613c11565b600a546001600160a01b0316331461132f5760405162461bcd60e51b8152600401610b1790613c71565b601280546001600160a01b03909216600160281b0265010000000000600160c81b0319909216919091179055565b600a546001600160a01b031633146113875760405162461bcd60e51b8152600401610b1790613c71565b601055565b600a546000906001600160a01b031633146113b95760405162461bcd60e51b8152600401610b1790613c71565b504790565b60006001600160a01b0382166113e65760405162461bcd60e51b8152600401610b1790613c01565b506001600160a01b031660009081526003602052604090205490565b600a546060906001600160a01b0316331461142f5760405162461bcd60e51b8152600401610b1790613c71565b600c8054610b4b90613e96565b600a546001600160a01b031633146114665760405162461bcd60e51b8152600401610b1790613c71565b611470600061208b565b565b600a546000906001600160a01b0316331461149f5760405162461bcd60e51b8152600401610b1790613c71565b50601254600160281b90046001600160a01b031690565b600a546001600160a01b031633146114e05760405162461bcd60e51b8152600401610b1790613c71565b601155565b600a546001600160a01b0316331461150f5760405162461bcd60e51b8152600401610b1790613c71565b6000821161152f5760405162461bcd60e51b8152600401610b1790613d21565b600061153a60085490565b60105490915061154a8483613deb565b11156115685760405162461bcd60e51b8152600401610b1790613c21565b60015b8381116115d557611585836115808385613deb565b6120dd565b61158f8183613deb565b6040516001600160a01b038516907fbb06c934d5d088f12f303c757020e73ec03ae3217e26be764425bb34855c8b9490600090a3806115cd81613ef0565b91505061156b565b50505050565b600a546001600160a01b031633146116055760405162461bcd60e51b8152600401610b1790613c71565b6012805460ff1916911515919091179055565b60125462010000900460ff16156116415760405162461bcd60e51b8152600401610b1790613c81565b6002600b5414156116645760405162461bcd60e51b8152600401610b1790613d11565b6002600b553360008181526014602052604090205460ff16156116995760405162461bcd60e51b8152600401610b1790613cf1565b60125460ff166116bb5760405162461bcd60e51b8152600401610b1790613b11565b82600f546116c99190613e17565b3410156116e85760405162461bcd60e51b8152600401610b1790613cb1565b600083116117085760405162461bcd60e51b8152600401610b1790613d21565b60115483111561172a5760405162461bcd60e51b8152600401610b1790613bd1565b600061173560085490565b6010549091506117458583613deb565b11156117635760405162461bcd60e51b8152600401610b1790613c21565b61176c836120f7565b60015b8481116117cb57611784336115808385613deb565b61178e8183613deb565b60405133907fbb06c934d5d088f12f303c757020e73ec03ae3217e26be764425bb34855c8b9490600090a3806117c381613ef0565b91505061176f565b50506001600b55505050565b606060018054610b4b90613e96565b61100c3383836121aa565b600a546001600160a01b0316331461181b5760405162461bcd60e51b8152600401610b1790613c71565b6012805463ff00000019166301000000179055565b600a546001600160a01b0316331461185a5760405162461bcd60e51b8152600401610b1790613c71565b601280549115156101000261ff0019909216919091179055565b61187e3383611e60565b61189a5760405162461bcd60e51b8152600401610b1790613cc1565b6115d58484848461224d565b600a546001600160a01b031633146118d05760405162461bcd60e51b8152600401610b1790613c71565b60005b815181101561100c576001601460008484815181106118f4576118f4613f9f565b6020908102919091018101516001600160a01b03168252810191909152604001600020805460ff19169115159190911790558061193081613ef0565b9150506118d3565b600d8054610c2b90613e96565b6000818152600260205260409020546060906001600160a01b031661197c5760405162461bcd60e51b8152600401610b1790613c91565b6012546301000000900460ff16611a1f57600e805461199a90613e96565b80601f01602080910402602001604051908101604052809291908181526020018280546119c690613e96565b8015611a135780601f106119e857610100808354040283529160200191611a13565b820191906000526020600020905b8154815290600101906020018083116119f657829003601f168201915b50505050509050919050565b6000611a29612280565b90506000815111611a495760405180602001604052806000815250611a77565b80611a538461228f565b600d604051602001611a679392919061395f565b6040516020818303038152906040525b9392505050565b919050565b600a546001600160a01b03163314611aad5760405162461bcd60e51b8152600401610b1790613c71565b805161100c90600d906020840190612a71565b600a546001600160a01b03163314611aea5760405162461bcd60e51b8152600401610b1790613c71565b60005b815181101561100c57600160136000848481518110611b0e57611b0e613f9f565b6020908102919091018101516001600160a01b03168252810191909152604001600020805460ff191691151591909117905580611b4a81613ef0565b915050611aed565b60125462010000900460ff1615611b7b5760405162461bcd60e51b8152600401610b1790613c81565b6002600b541415611b9e5760405162461bcd60e51b8152600401610b1790613d11565b6002600b553360008181526014602052604090205460ff1615611bd35760405162461bcd60e51b8152600401610b1790613cf1565b601254610100900460ff16611bfa5760405162461bcd60e51b8152600401610b1790613b11565b81600f54611c089190613e17565b341015611c275760405162461bcd60e51b8152600401610b1790613cb1565b60008211611c475760405162461bcd60e51b8152600401610b1790613d21565b601154821115611c695760405162461bcd60e51b8152600401610b1790613bd1565b6000611c7460085490565b601054909150611c848483613deb565b1115611ca25760405162461bcd60e51b8152600401610b1790613c21565b60015b838111611d0157611cba336115808385613deb565b611cc48183613deb565b60405133907fbb06c934d5d088f12f303c757020e73ec03ae3217e26be764425bb34855c8b9490600090a380611cf981613ef0565b915050611ca5565b50506001600b555050565b600a546001600160a01b03163314611d365760405162461bcd60e51b8152600401610b1790613c71565b805161100c90600e906020840190612a71565b600a546001600160a01b03163314611d735760405162461bcd60e51b8152600401610b1790613c71565b6001600160a01b038116611d995760405162461bcd60e51b8152600401610b1790613b61565b610e928161208b565b60006001600160e01b031982166380ac58cd60e01b1480611dd357506001600160e01b03198216635b5e139f60e01b145b80610ae757506301ffc9a760e01b6001600160e01b0319831614610ae7565b600081815260046020526040902080546001600160a01b0319166001600160a01b0384169081179091558190611e27826112d0565b6001600160a01b03167f8c5be1e5ebec7d5bd14f71427d1e84f3dd0314c0f7b2291e5b200ac8c7c3b92560405160405180910390a45050565b6000818152600260205260408120546001600160a01b0316611e945760405162461bcd60e51b8152600401610b1790613be1565b6000611e9f836112d0565b9050806001600160a01b0316846001600160a01b03161480611eda5750836001600160a01b0316611ecf84610bce565b6001600160a01b0316145b80611f0a57506001600160a01b0380821660009081526005602090815260408083209388168352929052205460ff165b949350505050565b826001600160a01b0316611f25826112d0565b6001600160a01b031614611f4b5760405162461bcd60e51b8152600401610b1790613b71565b6001600160a01b038216611f715760405162461bcd60e51b8152600401610b1790613ba1565b611f7c83838361238d565b611f87600082611df2565b6001600160a01b0383166000908152600360205260408120805460019290611fb0908490613e36565b90915550506001600160a01b0382166000908152600360205260408120805460019290611fde908490613deb565b909155505060008181526002602052604080822080546001600160a01b0319166001600160a01b0386811691821790925591518493918716917fddf252ad1be2c89b69c2b068fc378daa952ba7f163c4a11628f55a4df523b3ef91a4505050565b600081604051602001612052919061398c565b604051602081830303815290604052805190602001209050919050565b600080600061207e8585612445565b91509150610f4a816124b5565b600a80546001600160a01b038381166001600160a01b0319831681179093556040519116919082907f8be0079c531659141344cd1fd0a4f28419497f9722a3daafe3b4186f6b6457e090600090a35050565b61100c82826040518060200160405280600081525061259a565b3360009081526013602052604090205460ff166121265760405162461bcd60e51b8152600401610b1790613d01565b601254640100000000900460ff1615610e925760003360405160200161214c9190613a18565b6040516020818303038152906040528051906020012090506000612173836111fa8461203f565b6012549091506001600160a01b03808316600160281b9092041614610d2d5760405162461bcd60e51b8152600401610b1790613ce1565b816001600160a01b0316836001600160a01b031614156121dc5760405162461bcd60e51b8152600401610b1790613bb1565b6001600160a01b0383811660008181526005602090815260408083209487168084529490915290819020805460ff1916851515179055517f17307eab39ab6107e8899845ad3d59bd9653f200f220920489ca2b5937696c3190612240908590613aad565b60405180910390a3505050565b612258848484611f12565b612264848484846125cd565b6115d55760405162461bcd60e51b8152600401610b1790613b51565b6060600c8054610b4b90613e96565b6060816122b35750506040805180820190915260018152600360fc1b602082015290565b8160005b81156122dd57806122c781613ef0565b91506122d69050600a83613e03565b91506122b7565b60008167ffffffffffffffff8111156122f8576122f8613fb5565b6040519080825280601f01601f191660200182016040528015612322576020820181803683370190505b5090505b8415611f0a57612337600183613e36565b9150612344600a86613f1d565b61234f906030613deb565b60f81b81838151811061236457612364613f9f565b60200101906001600160f81b031916908160001a905350612386600a86613e03565b9450612326565b6001600160a01b0383166123e8576123e381600880546000838152600960205260408120829055600182018355919091527ff3f7a9fe364faab93b216da50a3214154f22a0a2b415b23a84c8169e8b636ee30155565b61240b565b816001600160a01b0316836001600160a01b03161461240b5761240b83826126da565b6001600160a01b03821661242257610d2d81612777565b826001600160a01b0316826001600160a01b031614610d2d57610d2d8282612826565b60008082516041141561247c5760208301516040840151606085015160001a6124708782858561286a565b945094505050506124ae565b8251604014156124a6576020830151604084015161249b86838361294a565b9350935050506124ae565b506000905060025b9250929050565b60008160048111156124c9576124c9613f5d565b14156124d25750565b60018160048111156124e6576124e6613f5d565b14156125045760405162461bcd60e51b8152600401610b1790613b01565b600281600481111561251857612518613f5d565b14156125365760405162461bcd60e51b8152600401610b1790613b21565b600381600481111561254a5761254a613f5d565b14156125685760405162461bcd60e51b8152600401610b1790613bc1565b600481600481111561257c5761257c613f5d565b1415610e925760405162461bcd60e51b8152600401610b1790613c41565b6125a48383612983565b6125b160008484846125cd565b610d2d5760405162461bcd60e51b8152600401610b1790613b51565b60006001600160a01b0384163b156126cf57604051630a85bd0160e11b81526001600160a01b0385169063150b7a0290612611903390899088908890600401613a58565b602060405180830381600087803b15801561262b57600080fd5b505af192505050801561265b575060408051601f3d908101601f1916820190925261265891810190612e64565b60015b6126b5573d808015612689576040519150601f19603f3d011682016040523d82523d6000602084013e61268e565b606091505b5080516126ad5760405162461bcd60e51b8152600401610b1790613b51565b805181602001fd5b6001600160e01b031916630a85bd0160e11b149050611f0a565b506001949350505050565b600060016126e7846113be565b6126f19190613e36565b600083815260076020526040902054909150808214612744576001600160a01b03841660009081526006602090815260408083208584528252808320548484528184208190558352600790915290208190555b5060009182526007602090815260408084208490556001600160a01b039094168352600681528383209183525290812055565b60085460009061278990600190613e36565b600083815260096020526040812054600880549394509092849081106127b1576127b1613f9f565b9060005260206000200154905080600883815481106127d2576127d2613f9f565b600091825260208083209091019290925582815260099091526040808220849055858252812055600880548061280a5761280a613f89565b6001900381819060005260206000200160009055905550505050565b6000612831836113be565b6001600160a01b039093166000908152600660209081526040808320868452825280832085905593825260079052919091209190915550565b6000807f7fffffffffffffffffffffffffffffff5d576e7357a4501ddfe92f46681b20a08311156128a15750600090506003612941565b8460ff16601b141580156128b957508460ff16601c14155b156128ca5750600090506004612941565b6000600187878787604051600081526020016040526040516128ef9493929190613abb565b6020604051602081039080840390855afa158015612911573d6000803e3d6000fd5b5050604051601f1901519150506001600160a01b03811661293a57600060019250925050612941565b9150600090505b94509492505050565b6000806001600160ff1b0383168161296760ff86901c601b613deb565b90506129758782888561286a565b935093505050935093915050565b6001600160a01b0382166129a95760405162461bcd60e51b8152600401610b1790613c51565b6000818152600260205260409020546001600160a01b0316156129de5760405162461bcd60e51b8152600401610b1790613b81565b6129ea6000838361238d565b6001600160a01b0382166000908152600360205260408120805460019290612a13908490613deb565b909155505060008181526002602052604080822080546001600160a01b0319166001600160a01b03861690811790915590518392907fddf252ad1be2c89b69c2b068fc378daa952ba7f163c4a11628f55a4df523b3ef908290a45050565b828054612a7d90613e96565b90600052602060002090601f016020900481019282612a9f5760008555612ae5565b82601f10612ab857805160ff1916838001178555612ae5565b82800160010185558215612ae5579182015b82811115612ae5578251825591602001919060010190612aca565b50612af1929150612af5565b5090565b5b80821115612af15760008155600101612af6565b6000612b1d612b1884613d9c565b613d85565b90508083825260208201905082856020860282011115612b3f57612b3f600080fd5b60005b85811015612b6b5781612b558882612ba9565b8452506020928301929190910190600101612b42565b5050509392505050565b6000612b83612b1884613dc0565b905082815260208101848484011115612b9e57612b9e600080fd5b610f4a848285613e5e565b8035610ae781613fcb565b8051610ae781613fcb565b600082601f830112612bd357612bd3600080fd5b8135611f0a848260208601612b0a565b8035610ae781613fdf565b8035610ae781613fe7565b8051610ae781613fe7565b600082601f830112612c1857612c18600080fd5b8135611f0a848260208601612b75565b8035610ae781613ff7565b600060208284031215612c4857612c48600080fd5b6000611f0a8484612ba9565b600060208284031215612c6957612c69600080fd5b6000611f0a8484612bb4565b60008060408385031215612c8b57612c8b600080fd5b6000612c978585612ba9565b9250506020612ca885828601612ba9565b9150509250929050565b600080600060608486031215612cca57612cca600080fd5b6000612cd68686612ba9565b9350506020612ce786828701612ba9565b9250506040612cf886828701612c28565b9150509250925092565b60008060008060808587031215612d1b57612d1b600080fd5b6000612d278787612ba9565b9450506020612d3887828801612ba9565b9350506040612d4987828801612c28565b925050606085013567ffffffffffffffff811115612d6957612d69600080fd5b612d7587828801612c04565b91505092959194509250565b60008060408385031215612d9757612d97600080fd5b6000612da38585612ba9565b9250506020612ca885828601612be3565b60008060408385031215612dca57612dca600080fd5b6000612dd68585612ba9565b9250506020612ca885828601612c28565b600060208284031215612dfc57612dfc600080fd5b813567ffffffffffffffff811115612e1657612e16600080fd5b611f0a84828501612bbf565b600060208284031215612e3757612e37600080fd5b6000611f0a8484612be3565b600060208284031215612e5857612e58600080fd5b6000611f0a8484612bee565b600060208284031215612e7957612e79600080fd5b6000611f0a8484612bf9565b600060208284031215612e9a57612e9a600080fd5b813567ffffffffffffffff811115612eb457612eb4600080fd5b611f0a84828501612c04565b600060208284031215612ed557612ed5600080fd5b6000611f0a8484612c28565b60008060408385031215612ef757612ef7600080fd5b6000612c978585612c28565b60008060408385031215612f1957612f19600080fd5b6000612f258585612c28565b925050602083013567ffffffffffffffff811115612f4557612f45600080fd5b612ca885828601612c04565b60008060408385031215612f6757612f67600080fd5b6000612dd68585612c28565b600080600060608486031215612f8b57612f8b600080fd5b6000612f978686612c28565b9350506020612fa886828701612c28565b925050604084013567ffffffffffffffff811115612fc857612fc8600080fd5b612cf886828701612c04565b6000612fe08383613059565b505060200190565b612ff181613e4d565b82525050565b612ff161300382613e4d565b613f0b565b6000613012825190565b80845260209384019383018060005b838110156130465781516130358882612fd4565b975060208301925050600101613021565b509495945050505050565b801515612ff1565b80612ff1565b6000613069825190565b808452602084019350613080818560208601613e6a565b601f01601f19169290920192915050565b600061309b825190565b6130a9818560208601613e6a565b9290920192915050565b600081546130c081613e96565b6001821680156130d757600181146130e857613118565b60ff19831686528186019350613118565b60008581526020902060005b83811015613110578154888201526001909101906020016130f4565b838801955050505b50505092915050565b601881526000602082017f45434453413a20696e76616c6964207369676e61747572650000000000000000815291505b5060200190565b601881526000602082017f53616c6520686173206e6f74207374617274656420796574000000000000000081529150613151565b601f81526000602082017f45434453413a20696e76616c6964207369676e6174757265206c656e6774680081529150613151565b600f81526000602082016e3737ba10383ab735b99037bbb732b960891b81529150613151565b602b81526000602082017f455243373231456e756d657261626c653a206f776e657220696e646578206f7581526a74206f6620626f756e647360a81b602082015291505b5060400190565b603281526000602082017f4552433732313a207472616e7366657220746f206e6f6e20455243373231526581527131b2b4bb32b91034b6b83632b6b2b73a32b960711b6020820152915061322a565b602681526000602082017f4f776e61626c653a206e6577206f776e657220697320746865207a65726f206181526564647265737360d01b6020820152915061322a565b602581526000602082017f4552433732313a207472616e736665722066726f6d20696e636f72726563742081526437bbb732b960d91b6020820152915061322a565b601c81526000602082017f4552433732313a20746f6b656e20616c7265616479206d696e7465640000000081529150613151565b600f81526000602082016e185b1c9958591e4818db185a5b5959608a1b81529150613151565b602481526000602082017f4552433732313a207472616e7366657220746f20746865207a65726f206164648152637265737360e01b6020820152915061322a565b601981526000602082017f4552433732313a20617070726f766520746f2063616c6c65720000000000000081529150613151565b602281526000602082017f45434453413a20696e76616c6964207369676e6174757265202773272076616c815261756560f01b6020820152915061322a565b602881526000602082017f6d6178206d696e7420616d6f756e7420706572207472616e73616374696f6e20815267195e18d95959195960c21b6020820152915061322a565b602c81526000602082017f4552433732313a206f70657261746f7220717565727920666f72206e6f6e657881526b34b9ba32b73a103a37b5b2b760a11b6020820152915061322a565b603881526000602082017f4552433732313a20617070726f76652063616c6c6572206973206e6f74206f7781527f6e6572206e6f7220617070726f76656420666f7220616c6c00000000000000006020820152915061322a565b602a81526000602082017f4552433732313a2062616c616e636520717565727920666f7220746865207a65815269726f206164647265737360b01b6020820152915061322a565b602981526000602082017f4552433732313a206f776e657220717565727920666f72206e6f6e657869737481526832b73a103a37b5b2b760b91b6020820152915061322a565b60168152600060208201751b585e08139195081b1a5b5a5d08195e18d95959195960521b81529150613151565b601081526000602082016f3737ba1037333a34b3331037bbb732b960811b81529150613151565b602281526000602082017f45434453413a20696e76616c6964207369676e6174757265202776272076616c815261756560f01b6020820152915061322a565b60208082527f4552433732313a206d696e7420746f20746865207a65726f206164647265737391019081526000613151565b602c81526000602082017f4552433732313a20617070726f76656420717565727920666f72206e6f6e657881526b34b9ba32b73a103a37b5b2b760a11b6020820152915061322a565b60208082527f4f776e61626c653a2063616c6c6572206973206e6f7420746865206f776e657291019081526000613151565b60168152600060208201751d1a194818dbdb9d1c9858dd081a5cc81c185d5cd95960521b81529150613151565b602f81526000602082017f4552433732314d657461646174613a2055524920717565727920666f72206e6f81526e3732bc34b9ba32b73a103a37b5b2b760891b6020820152915061322a565b602181526000602082017f4552433732313a20617070726f76616c20746f2063757272656e74206f776e658152603960f91b6020820152915061322a565b6012815260006020820171696e73756666696369656e742066756e647360701b81529150613151565b603181526000602082017f4552433732313a207472616e736665722063616c6c6572206973206e6f74206f8152701ddb995c881b9bdc88185c1c1c9bdd9959607a1b6020820152915061322a565b602c81526000602082017f455243373231456e756d657261626c653a20676c6f62616c20696e646578206f81526b7574206f6620626f756e647360a01b6020820152915061322a565b601081526000602082016f12de58c81b9bdd08185c1c1c9bdd995960821b81529150613151565b60118152600060208201701d5cd95c881a5b88189b1858dadb1a5cdd607a1b81529150613151565b601781526000602082017f75736572206973206e6f742077686974656c697374656400000000000000000081529150613151565b601f81526000602082017f5265656e7472616e637947756172643a207265656e7472616e742063616c6c0081529150613151565b601b81526000602082017f6e65656420746f206d696e74206174206c656173742031204e4654000000000081529150613151565b601581526000602082017414da1a5c1c1a5b99c81b9bdd081d995c9a599a5959605a1b81529150613151565b60ff8116612ff1565b600061396b8286613091565b91506139778285613091565b915061398382846130b3565b95945050505050565b7f19457468657265756d205369676e6564204d6573736167653a0a3332000000008152601c0160006139be8284613059565b50602001919050565b701cda1a5c1c1a5b99cb5d995c9a599a5959607a1b815260110160006139ed8286613059565b6020820191506139fd8285613059565b602082019150613a0d8284612ff7565b506014019392505050565b6b1ade58cb585c1c1c9bdd995960a21b8152600c016000613a398284612ff7565b50601401919050565b600081610ae7565b60208101610ae78284612fe8565b60808101613a668287612fe8565b613a736020830186612fe8565b613a806040830185613059565b8181036060830152613a92818461305f565b9695505050505050565b60208082528101611a778184613008565b60208101610ae78284613051565b60808101613ac98287613059565b613ad66020830186613956565b613ae36040830185613059565b6139836060830184613059565b60208082528101611a77818461305f565b60208082528101610ae781613121565b60208082528101610ae781613158565b60208082528101610ae78161318c565b60208082528101610ae7816131c0565b60208082528101610ae7816131e6565b60208082528101610ae781613231565b60208082528101610ae781613280565b60208082528101610ae7816132c3565b60208082528101610ae781613305565b60208082528101610ae781613339565b60208082528101610ae78161335f565b60208082528101610ae7816133a0565b60208082528101610ae7816133d4565b60208082528101610ae781613413565b60208082528101610ae781613458565b60208082528101610ae7816134a1565b60208082528101610ae7816134fb565b60208082528101610ae781613542565b60208082528101610ae781613588565b60208082528101610ae7816135b5565b60208082528101610ae7816135dc565b60208082528101610ae78161361b565b60208082528101610ae78161364d565b60208082528101610ae781613696565b60208082528101610ae7816136c8565b60208082528101610ae7816136f5565b60208082528101610ae781613741565b60208082528101610ae78161377f565b60208082528101610ae7816137a8565b60208082528101610ae7816137f6565b60208082528101610ae78161383f565b60208082528101610ae781613866565b60208082528101610ae78161388e565b60208082528101610ae7816138c2565b60208082528101610ae7816138f6565b60208082528101610ae78161392a565b60208101610ae78284613059565b60408101613d5d8285613059565b611a776020830184612fe8565b60408101613d788285613059565b611a776020830184613059565b6000613d9060405190565b9050611a7e8282613ec3565b600067ffffffffffffffff821115613db657613db6613fb5565b5060209081020190565b600067ffffffffffffffff821115613dda57613dda613fb5565b601f19601f83011660200192915050565b60008219821115613dfe57613dfe613f31565b500190565b600082613e1257613e12613f47565b500490565b6000816000190483118215151615613e3157613e31613f31565b500290565b600082821015613e4857613e48613f31565b500390565b60006001600160a01b038216610ae7565b82818337506000910152565b60005b83811015613e85578181015183820152602001613e6d565b838111156115d55750506000910152565b600281046001821680613eaa57607f821691505b60208210811415613ebd57613ebd613f73565b50919050565b601f19601f830116810181811067ffffffffffffffff82111715613ee957613ee9613fb5565b6040525050565b6000600019821415613f0457613f04613f31565b5060010190565b6000610ae7826000610ae78260601b90565b600082613f2c57613f2c613f47565b500690565b634e487b7160e01b600052601160045260246000fd5b634e487b7160e01b600052601260045260246000fd5b634e487b7160e01b600052602160045260246000fd5b634e487b7160e01b600052602260045260246000fd5b634e487b7160e01b600052603160045260246000fd5b634e487b7160e01b600052603260045260246000fd5b634e487b7160e01b600052604160045260246000fd5b613fd481613e4d565b8114610e9257600080fd5b801515613fd4565b6001600160e01b03198116613fd4565b80613fd456fea26469706673582212207dc269ae1a0118a8530221aaeabb665197ca47be264e7ec280e303b750d5b54d64736f6c63430008070033",
  "devdoc": {
    "kind": "dev",
    "methods": {
      "approve(address,uint256)": {
        "details": "See {IERC721-approve}."
      },
      "balanceOf(address)": {
        "details": "See {IERC721-balanceOf}."
      },
      "getApproved(uint256)": {
        "details": "See {IERC721-getApproved}."
      },
      "isApprovedForAll(address,address)": {
        "details": "See {IERC721-isApprovedForAll}."
      },
      "name()": {
        "details": "See {IERC721Metadata-name}."
      },
      "owner()": {
        "details": "Returns the address of the current owner."
      },
      "ownerOf(uint256)": {
        "details": "See {IERC721-ownerOf}."
      },
      "renounceOwnership()": {
        "details": "Leaves the contract without owner. It will not be possible to call `onlyOwner` functions anymore. Can only be called by the current owner. NOTE: Renouncing ownership will leave the contract without an owner, thereby removing any functionality that is only available to the owner."
      },
      "safeTransferFrom(address,address,uint256)": {
        "details": "See {IERC721-safeTransferFrom}."
      },
      "safeTransferFrom(address,address,uint256,bytes)": {
        "details": "See {IERC721-safeTransferFrom}."
      },
      "setApprovalForAll(address,bool)": {
        "details": "See {IERC721-setApprovalForAll}."
      },
      "supportsInterface(bytes4)": {
        "details": "See {IERC165-supportsInterface}."
      },
      "symbol()": {
        "details": "See {IERC721Metadata-symbol}."
      },
      "tokenByIndex(uint256)": {
        "details": "See {IERC721Enumerable-tokenByIndex}."
      },
      "tokenOfOwnerByIndex(address,uint256)": {
        "details": "See {IERC721Enumerable-tokenOfOwnerByIndex}."
      },
      "tokenURI(uint256)": {
        "details": "See {IERC721Metadata-tokenURI}."
      },
      "totalSupply()": {
        "details": "See {IERC721Enumerable-totalSupply}."
      },
      "transferFrom(address,address,uint256)": {
        "details": "See {IERC721-transferFrom}."
      },
      "transferOwnership(address)": {
        "details": "Transfers ownership of the contract to a new account (`newOwner`). Can only be called by the current owner."
      }
    },
    "version": 1
  },
  "userdoc": {
    "events": {
      "NFTiffMinted(address,uint256)": {
        "notice": "EVENTS "
      }
    },
    "kind": "user",
    "methods": {
      "claimInfo(uint256,uint256)": {
        "notice": "claim info: punk_id => nftiff_id => ClaimInfo"
      },
      "constructor": {
        "notice": "METHODS "
      }
    },
    "version": 1
  },
  "storageLayout": {
    "storage": [
      {
        "astId": 170,
        "contract": "contracts/NFTiff.sol:NFTiff",
        "label": "_name",
        "offset": 0,
        "slot": "0",
        "type": "t_string_storage"
      },
      {
        "astId": 172,
        "contract": "contracts/NFTiff.sol:NFTiff",
        "label": "_symbol",
        "offset": 0,
        "slot": "1",
        "type": "t_string_storage"
      },
      {
        "astId": 176,
        "contract": "contracts/NFTiff.sol:NFTiff",
        "label": "_owners",
        "offset": 0,
        "slot": "2",
        "type": "t_mapping(t_uint256,t_address)"
      },
      {
        "astId": 180,
        "contract": "contracts/NFTiff.sol:NFTiff",
        "label": "_balances",
        "offset": 0,
        "slot": "3",
        "type": "t_mapping(t_address,t_uint256)"
      },
      {
        "astId": 184,
        "contract": "contracts/NFTiff.sol:NFTiff",
        "label": "_tokenApprovals",
        "offset": 0,
        "slot": "4",
        "type": "t_mapping(t_uint256,t_address)"
      },
      {
        "astId": 190,
        "contract": "contracts/NFTiff.sol:NFTiff",
        "label": "_operatorApprovals",
        "offset": 0,
        "slot": "5",
        "type": "t_mapping(t_address,t_mapping(t_address,t_bool))"
      },
      {
        "astId": 1159,
        "contract": "contracts/NFTiff.sol:NFTiff",
        "label": "_ownedTokens",
        "offset": 0,
        "slot": "6",
        "type": "t_mapping(t_address,t_mapping(t_uint256,t_uint256))"
      },
      {
        "astId": 1163,
        "contract": "contracts/NFTiff.sol:NFTiff",
        "label": "_ownedTokensIndex",
        "offset": 0,
        "slot": "7",
        "type": "t_mapping(t_uint256,t_uint256)"
      },
      {
        "astId": 1166,
        "contract": "contracts/NFTiff.sol:NFTiff",
        "label": "_allTokens",
        "offset": 0,
        "slot": "8",
        "type": "t_array(t_uint256)dyn_storage"
      },
      {
        "astId": 1170,
        "contract": "contracts/NFTiff.sol:NFTiff",
        "label": "_allTokensIndex",
        "offset": 0,
        "slot": "9",
        "type": "t_mapping(t_uint256,t_uint256)"
      },
      {
        "astId": 7,
        "contract": "contracts/NFTiff.sol:NFTiff",
        "label": "_owner",
        "offset": 0,
        "slot": "10",
        "type": "t_address"
      },
      {
        "astId": 115,
        "contract": "contracts/NFTiff.sol:NFTiff",
        "label": "_status",
        "offset": 0,
        "slot": "11",
        "type": "t_uint256"
      },
      {
        "astId": 2919,
        "contract": "contracts/NFTiff.sol:NFTiff",
        "label": "baseURI",
        "offset": 0,
        "slot": "12",
        "type": "t_string_storage"
      },
      {
        "astId": 2922,
        "contract": "contracts/NFTiff.sol:NFTiff",
        "label": "baseExtension",
        "offset": 0,
        "slot": "13",
        "type": "t_string_storage"
      },
      {
        "astId": 2924,
        "contract": "contracts/NFTiff.sol:NFTiff",
        "label": "notRevealedUri",
        "offset": 0,
        "slot": "14",
        "type": "t_string_storage"
      },
      {
        "astId": 2927,
        "contract": "contracts/NFTiff.sol:NFTiff",
        "label": "cost",
        "offset": 0,
        "slot": "15",
        "type": "t_uint256"
      },
      {
        "astId": 2930,
        "contract": "contracts/NFTiff.sol:NFTiff",
        "label": "maxSupply",
        "offset": 0,
        "slot": "16",
        "type": "t_uint256"
      },
      {
        "astId": 2933,
        "contract": "contracts/NFTiff.sol:NFTiff",
        "label": "maxMintAmount",
        "offset": 0,
        "slot": "17",
        "type": "t_uint256"
      },
      {
        "astId": 2936,
        "contract": "contracts/NFTiff.sol:NFTiff",
        "label": "presaleActive",
        "offset": 0,
        "slot": "18",
        "type": "t_bool"
      },
      {
        "astId": 2939,
        "contract": "contracts/NFTiff.sol:NFTiff",
        "label": "publicSaleActive",
        "offset": 1,
        "slot": "18",
        "type": "t_bool"
      },
      {
        "astId": 2942,
        "contract": "contracts/NFTiff.sol:NFTiff",
        "label": "paused",
        "offset": 2,
        "slot": "18",
        "type": "t_bool"
      },
      {
        "astId": 2945,
        "contract": "contracts/NFTiff.sol:NFTiff",
        "label": "revealed",
        "offset": 3,
        "slot": "18",
        "type": "t_bool"
      },
      {
        "astId": 2948,
        "contract": "contracts/NFTiff.sol:NFTiff",
        "label": "isKycRequired",
        "offset": 4,
        "slot": "18",
        "type": "t_bool"
      },
      {
        "astId": 2950,
        "contract": "contracts/NFTiff.sol:NFTiff",
        "label": "signer",
        "offset": 5,
        "slot": "18",
        "type": "t_address"
      },
      {
        "astId": 2954,
        "contract": "contracts/NFTiff.sol:NFTiff",
        "label": "whitelistedAddresses",
        "offset": 0,
        "slot": "19",
        "type": "t_mapping(t_address,t_bool)"
      },
      {
        "astId": 2958,
        "contract": "contracts/NFTiff.sol:NFTiff",
        "label": "blacklistedAddresses",
        "offset": 0,
        "slot": "20",
        "type": "t_mapping(t_address,t_bool)"
      },
      {
        "astId": 2968,
        "contract": "contracts/NFTiff.sol:NFTiff",
        "label": "claimInfo",
        "offset": 0,
        "slot": "21",
        "type": "t_mapping(t_uint256,t_mapping(t_uint256,t_struct(ClaimInfo)2973_storage))"
      }
    ],
    "types": {
      "t_address": {
        "encoding": "inplace",
        "label": "address",
        "numberOfBytes": "20"
      },
      "t_array(t_uint256)dyn_storage": {
        "base": "t_uint256",
        "encoding": "dynamic_array",
        "label": "uint256[]",
        "numberOfBytes": "32"
      },
      "t_bool": {
        "encoding": "inplace",
        "label": "bool",
        "numberOfBytes": "1"
      },
      "t_mapping(t_address,t_bool)": {
        "encoding": "mapping",
        "key": "t_address",
        "label": "mapping(address => bool)",
        "numberOfBytes": "32",
        "value": "t_bool"
      },
      "t_mapping(t_address,t_mapping(t_address,t_bool))": {
        "encoding": "mapping",
        "key": "t_address",
        "label": "mapping(address => mapping(address => bool))",
        "numberOfBytes": "32",
        "value": "t_mapping(t_address,t_bool)"
      },
      "t_mapping(t_address,t_mapping(t_uint256,t_uint256))": {
        "encoding": "mapping",
        "key": "t_address",
        "label": "mapping(address => mapping(uint256 => uint256))",
        "numberOfBytes": "32",
        "value": "t_mapping(t_uint256,t_uint256)"
      },
      "t_mapping(t_address,t_uint256)": {
        "encoding": "mapping",
        "key": "t_address",
        "label": "mapping(address => uint256)",
        "numberOfBytes": "32",
        "value": "t_uint256"
      },
      "t_mapping(t_uint256,t_address)": {
        "encoding": "mapping",
        "key": "t_uint256",
        "label": "mapping(uint256 => address)",
        "numberOfBytes": "32",
        "value": "t_address"
      },
      "t_mapping(t_uint256,t_mapping(t_uint256,t_struct(ClaimInfo)2973_storage))": {
        "encoding": "mapping",
        "key": "t_uint256",
        "label": "mapping(uint256 => mapping(uint256 => struct NFTiff.ClaimInfo))",
        "numberOfBytes": "32",
        "value": "t_mapping(t_uint256,t_struct(ClaimInfo)2973_storage)"
      },
      "t_mapping(t_uint256,t_struct(ClaimInfo)2973_storage)": {
        "encoding": "mapping",
        "key": "t_uint256",
        "label": "mapping(uint256 => struct NFTiff.ClaimInfo)",
        "numberOfBytes": "32",
        "value": "t_struct(ClaimInfo)2973_storage"
      },
      "t_mapping(t_uint256,t_uint256)": {
        "encoding": "mapping",
        "key": "t_uint256",
        "label": "mapping(uint256 => uint256)",
        "numberOfBytes": "32",
        "value": "t_uint256"
      },
      "t_string_storage": {
        "encoding": "bytes",
        "label": "string",
        "numberOfBytes": "32"
      },
      "t_struct(ClaimInfo)2973_storage": {
        "encoding": "inplace",
        "label": "struct NFTiff.ClaimInfo",
        "members": [
          {
            "astId": 2970,
            "contract": "contracts/NFTiff.sol:NFTiff",
            "label": "timestamp",
            "offset": 0,
            "slot": "0",
            "type": "t_uint256"
          },
          {
            "astId": 2972,
            "contract": "contracts/NFTiff.sol:NFTiff",
            "label": "claimer",
            "offset": 0,
            "slot": "1",
            "type": "t_address"
          }
        ],
        "numberOfBytes": "64"
      },
      "t_uint256": {
        "encoding": "inplace",
        "label": "uint256",
        "numberOfBytes": "32"
      }
    }
  }
}