{
  "address": "0x063381890c6a22e90EF9624E0Bbb34a6AA89163d",
  "abi": [
    {
      "inputs": [
        {
          "internalType": "string",
          "name": "_initNotRevealedUri",
          "type": "string"
        },
        {
          "internalType": "address",
          "name": "punksContract_",
          "type": "address"
        }
      ],
      "stateMutability": "nonpayable",
      "type": "constructor"
    },
    {
      "anonymous": false,
      "inputs": [
        {
          "indexed": true,
          "internalType": "address",
          "name": "owner",
          "type": "address"
        },
        {
          "indexed": true,
          "internalType": "address",
          "name": "approved",
          "type": "address"
        },
        {
          "indexed": true,
          "internalType": "uint256",
          "name": "tokenId",
          "type": "uint256"
        }
      ],
      "name": "Approval",
      "type": "event"
    },
    {
      "anonymous": false,
      "inputs": [
        {
          "indexed": true,
          "internalType": "address",
          "name": "owner",
          "type": "address"
        },
        {
          "indexed": true,
          "internalType": "address",
          "name": "operator",
          "type": "address"
        },
        {
          "indexed": false,
          "internalType": "bool",
          "name": "approved",
          "type": "bool"
        }
      ],
      "name": "ApprovalForAll",
      "type": "event"
    },
    {
      "anonymous": false,
      "inputs": [
        {
          "indexed": false,
          "internalType": "uint256",
          "name": "claimId",
          "type": "uint256"
        },
        {
          "indexed": true,
          "internalType": "address",
          "name": "to",
          "type": "address"
        },
        {
          "indexed": false,
          "internalType": "uint256",
          "name": "punkId",
          "type": "uint256"
        },
        {
          "indexed": false,
          "internalType": "uint256",
          "name": "nftiffId",
          "type": "uint256"
        },
        {
          "indexed": false,
          "internalType": "uint256",
          "name": "timestamp",
          "type": "uint256"
        }
      ],
      "name": "Claimed",
      "type": "event"
    },
    {
      "anonymous": false,
      "inputs": [
        {
          "indexed": false,
          "internalType": "uint256",
          "name": "cost",
          "type": "uint256"
        }
      ],
      "name": "CostChanged",
      "type": "event"
    },
    {
      "anonymous": false,
      "inputs": [
        {
          "indexed": false,
          "internalType": "bool",
          "name": "kycRequired",
          "type": "bool"
        }
      ],
      "name": "KycRequireChanged",
      "type": "event"
    },
    {
      "anonymous": false,
      "inputs": [
        {
          "indexed": false,
          "internalType": "uint256",
          "name": "amount",
          "type": "uint256"
        }
      ],
      "name": "MaxMintAmountChanged",
      "type": "event"
    },
    {
      "anonymous": false,
      "inputs": [
        {
          "indexed": false,
          "internalType": "uint256",
          "name": "maxSupply",
          "type": "uint256"
        }
      ],
      "name": "MaxSupplyChanged",
      "type": "event"
    },
    {
      "anonymous": false,
      "inputs": [
        {
          "indexed": true,
          "internalType": "address",
          "name": "to",
          "type": "address"
        },
        {
          "indexed": true,
          "internalType": "uint256",
          "name": "tokenId",
          "type": "uint256"
        }
      ],
      "name": "NFTiffMinted",
      "type": "event"
    },
    {
      "anonymous": false,
      "inputs": [
        {
          "indexed": false,
          "internalType": "string",
          "name": "uri",
          "type": "string"
        }
      ],
      "name": "NotRevealedUriChanged",
      "type": "event"
    },
    {
      "anonymous": false,
      "inputs": [
        {
          "indexed": true,
          "internalType": "address",
          "name": "previousOwner",
          "type": "address"
        },
        {
          "indexed": true,
          "internalType": "address",
          "name": "newOwner",
          "type": "address"
        }
      ],
      "name": "OwnershipTransferred",
      "type": "event"
    },
    {
      "anonymous": false,
      "inputs": [
        {
          "indexed": false,
          "internalType": "bool",
          "name": "isPaused",
          "type": "bool"
        }
      ],
      "name": "Paused",
      "type": "event"
    },
    {
      "anonymous": false,
      "inputs": [
        {
          "indexed": false,
          "internalType": "bool",
          "name": "isActive",
          "type": "bool"
        }
      ],
      "name": "PresaleStatusChanged",
      "type": "event"
    },
    {
      "anonymous": false,
      "inputs": [
        {
          "indexed": false,
          "internalType": "bool",
          "name": "isActive",
          "type": "bool"
        }
      ],
      "name": "PublicSaleStatusChanged",
      "type": "event"
    },
    {
      "anonymous": false,
      "inputs": [],
      "name": "Revealed",
      "type": "event"
    },
    {
      "anonymous": false,
      "inputs": [
        {
          "indexed": false,
          "internalType": "address",
          "name": "signer",
          "type": "address"
        }
      ],
      "name": "SignerChanged",
      "type": "event"
    },
    {
      "anonymous": false,
      "inputs": [
        {
          "indexed": true,
          "internalType": "uint256",
          "name": "tokenId",
          "type": "uint256"
        },
        {
          "indexed": false,
          "internalType": "string",
          "name": "uri",
          "type": "string"
        }
      ],
      "name": "TokenURIUpdated",
      "type": "event"
    },
    {
      "anonymous": false,
      "inputs": [
        {
          "indexed": true,
          "internalType": "address",
          "name": "from",
          "type": "address"
        },
        {
          "indexed": true,
          "internalType": "address",
          "name": "to",
          "type": "address"
        },
        {
          "indexed": true,
          "internalType": "uint256",
          "name": "tokenId",
          "type": "uint256"
        }
      ],
      "name": "Transfer",
      "type": "event"
    },
    {
      "anonymous": false,
      "inputs": [
        {
          "indexed": false,
          "internalType": "address[]",
          "name": "users",
          "type": "address[]"
        }
      ],
      "name": "UsersBlacklisted",
      "type": "event"
    },
    {
      "anonymous": false,
      "inputs": [
        {
          "indexed": false,
          "internalType": "address[]",
          "name": "users",
          "type": "address[]"
        }
      ],
      "name": "UsersWhitelisted",
      "type": "event"
    },
    {
      "inputs": [
        {
          "internalType": "address",
          "name": "to",
          "type": "address"
        },
        {
          "internalType": "uint256",
          "name": "tokenId",
          "type": "uint256"
        }
      ],
      "name": "approve",
      "outputs": [],
      "stateMutability": "nonpayable",
      "type": "function"
    },
    {
      "inputs": [
        {
          "internalType": "address",
          "name": "owner",
          "type": "address"
        }
      ],
      "name": "balanceOf",
      "outputs": [
        {
          "internalType": "uint256",
          "name": "",
          "type": "uint256"
        }
      ],
      "stateMutability": "view",
      "type": "function"
    },
    {
      "inputs": [
        {
          "internalType": "address[]",
          "name": "addresses",
          "type": "address[]"
        }
      ],
      "name": "blacklistUsers",
      "outputs": [],
      "stateMutability": "nonpayable",
      "type": "function"
    },
    {
      "inputs": [
        {
          "internalType": "uint256",
          "name": "punk_",
          "type": "uint256"
        },
        {
          "internalType": "uint256",
          "name": "nftiff_",
          "type": "uint256"
        },
        {
          "internalType": "bytes",
          "name": "_signature",
          "type": "bytes"
        }
      ],
      "name": "claim",
      "outputs": [],
      "stateMutability": "payable",
      "type": "function"
    },
    {
      "inputs": [
        {
          "internalType": "uint256",
          "name": "",
          "type": "uint256"
        }
      ],
      "name": "claimInfo",
      "outputs": [
        {
          "internalType": "uint256",
          "name": "punkId",
          "type": "uint256"
        },
        {
          "internalType": "uint256",
          "name": "nftiffId",
          "type": "uint256"
        },
        {
          "internalType": "uint256",
          "name": "timestamp",
          "type": "uint256"
        },
        {
          "internalType": "address",
          "name": "claimer",
          "type": "address"
        }
      ],
      "stateMutability": "view",
      "type": "function"
    },
    {
      "inputs": [],
      "name": "cost",
      "outputs": [
        {
          "internalType": "uint256",
          "name": "",
          "type": "uint256"
        }
      ],
      "stateMutability": "view",
      "type": "function"
    },
    {
      "inputs": [
        {
          "internalType": "uint256",
          "name": "tokenId",
          "type": "uint256"
        }
      ],
      "name": "getApproved",
      "outputs": [
        {
          "internalType": "address",
          "name": "",
          "type": "address"
        }
      ],
      "stateMutability": "view",
      "type": "function"
    },
    {
      "inputs": [],
      "name": "getSigner",
      "outputs": [
        {
          "internalType": "address",
          "name": "",
          "type": "address"
        }
      ],
      "stateMutability": "view",
      "type": "function"
    },
    {
      "inputs": [
        {
          "internalType": "uint256",
          "name": "_mintAmount",
          "type": "uint256"
        },
        {
          "internalType": "address",
          "name": "destination",
          "type": "address"
        }
      ],
      "name": "gift",
      "outputs": [],
      "stateMutability": "nonpayable",
      "type": "function"
    },
    {
      "inputs": [
        {
          "internalType": "address",
          "name": "owner",
          "type": "address"
        },
        {
          "internalType": "address",
          "name": "operator",
          "type": "address"
        }
      ],
      "name": "isApprovedForAll",
      "outputs": [
        {
          "internalType": "bool",
          "name": "",
          "type": "bool"
        }
      ],
      "stateMutability": "view",
      "type": "function"
    },
    {
      "inputs": [
        {
          "internalType": "address",
          "name": "_user",
          "type": "address"
        }
      ],
      "name": "isBlacklisted",
      "outputs": [
        {
          "internalType": "bool",
          "name": "",
          "type": "bool"
        }
      ],
      "stateMutability": "view",
      "type": "function"
    },
    {
      "inputs": [],
      "name": "isKycRequired",
      "outputs": [
        {
          "internalType": "bool",
          "name": "",
          "type": "bool"
        }
      ],
      "stateMutability": "view",
      "type": "function"
    },
    {
      "inputs": [
        {
          "internalType": "address",
          "name": "_user",
          "type": "address"
        }
      ],
      "name": "isWhitelisted",
      "outputs": [
        {
          "internalType": "bool",
          "name": "",
          "type": "bool"
        }
      ],
      "stateMutability": "view",
      "type": "function"
    },
    {
      "inputs": [],
      "name": "maxMintAmount",
      "outputs": [
        {
          "internalType": "uint256",
          "name": "",
          "type": "uint256"
        }
      ],
      "stateMutability": "view",
      "type": "function"
    },
    {
      "inputs": [],
      "name": "maxSupply",
      "outputs": [
        {
          "internalType": "uint256",
          "name": "",
          "type": "uint256"
        }
      ],
      "stateMutability": "view",
      "type": "function"
    },
    {
      "inputs": [
        {
          "internalType": "uint256",
          "name": "_mintAmount",
          "type": "uint256"
        },
        {
          "internalType": "bytes",
          "name": "_signature",
          "type": "bytes"
        }
      ],
      "name": "mint1",
      "outputs": [],
      "stateMutability": "payable",
      "type": "function"
    },
    {
      "inputs": [
        {
          "internalType": "uint256",
          "name": "_mintAmount",
          "type": "uint256"
        }
      ],
      "name": "mintPublic",
      "outputs": [],
      "stateMutability": "payable",
      "type": "function"
    },
    {
      "inputs": [],
      "name": "name",
      "outputs": [
        {
          "internalType": "string",
          "name": "",
          "type": "string"
        }
      ],
      "stateMutability": "view",
      "type": "function"
    },
    {
      "inputs": [
        {
          "internalType": "uint256",
          "name": "",
          "type": "uint256"
        }
      ],
      "name": "nftiffClaims",
      "outputs": [
        {
          "internalType": "uint256",
          "name": "",
          "type": "uint256"
        }
      ],
      "stateMutability": "view",
      "type": "function"
    },
    {
      "inputs": [],
      "name": "notRevealedUri",
      "outputs": [
        {
          "internalType": "string",
          "name": "",
          "type": "string"
        }
      ],
      "stateMutability": "view",
      "type": "function"
    },
    {
      "inputs": [],
      "name": "owner",
      "outputs": [
        {
          "internalType": "address",
          "name": "",
          "type": "address"
        }
      ],
      "stateMutability": "view",
      "type": "function"
    },
    {
      "inputs": [
        {
          "internalType": "uint256",
          "name": "tokenId",
          "type": "uint256"
        }
      ],
      "name": "ownerOf",
      "outputs": [
        {
          "internalType": "address",
          "name": "",
          "type": "address"
        }
      ],
      "stateMutability": "view",
      "type": "function"
    },
    {
      "inputs": [
        {
          "internalType": "bool",
          "name": "_state",
          "type": "bool"
        }
      ],
      "name": "pause",
      "outputs": [],
      "stateMutability": "nonpayable",
      "type": "function"
    },
    {
      "inputs": [],
      "name": "paused",
      "outputs": [
        {
          "internalType": "bool",
          "name": "",
          "type": "bool"
        }
      ],
      "stateMutability": "view",
      "type": "function"
    },
    {
      "inputs": [],
      "name": "presaleActive",
      "outputs": [
        {
          "internalType": "bool",
          "name": "",
          "type": "bool"
        }
      ],
      "stateMutability": "view",
      "type": "function"
    },
    {
      "inputs": [],
      "name": "publicSaleActive",
      "outputs": [
        {
          "internalType": "bool",
          "name": "",
          "type": "bool"
        }
      ],
      "stateMutability": "view",
      "type": "function"
    },
    {
      "inputs": [
        {
          "internalType": "uint256",
          "name": "",
          "type": "uint256"
        }
      ],
      "name": "punkClaims",
      "outputs": [
        {
          "internalType": "uint256",
          "name": "",
          "type": "uint256"
        }
      ],
      "stateMutability": "view",
      "type": "function"
    },
    {
      "inputs": [],
      "name": "punksContract",
      "outputs": [
        {
          "internalType": "address",
          "name": "",
          "type": "address"
        }
      ],
      "stateMutability": "view",
      "type": "function"
    },
    {
      "inputs": [],
      "name": "renounceOwnership",
      "outputs": [],
      "stateMutability": "nonpayable",
      "type": "function"
    },
    {
      "inputs": [],
      "name": "reveal",
      "outputs": [],
      "stateMutability": "nonpayable",
      "type": "function"
    },
    {
      "inputs": [],
      "name": "revealed",
      "outputs": [
        {
          "internalType": "bool",
          "name": "",
          "type": "bool"
        }
      ],
      "stateMutability": "view",
      "type": "function"
    },
    {
      "inputs": [
        {
          "internalType": "address",
          "name": "from",
          "type": "address"
        },
        {
          "internalType": "address",
          "name": "to",
          "type": "address"
        },
        {
          "internalType": "uint256",
          "name": "tokenId",
          "type": "uint256"
        }
      ],
      "name": "safeTransferFrom",
      "outputs": [],
      "stateMutability": "nonpayable",
      "type": "function"
    },
    {
      "inputs": [
        {
          "internalType": "address",
          "name": "from",
          "type": "address"
        },
        {
          "internalType": "address",
          "name": "to",
          "type": "address"
        },
        {
          "internalType": "uint256",
          "name": "tokenId",
          "type": "uint256"
        },
        {
          "internalType": "bytes",
          "name": "_data",
          "type": "bytes"
        }
      ],
      "name": "safeTransferFrom",
      "outputs": [],
      "stateMutability": "nonpayable",
      "type": "function"
    },
    {
      "inputs": [
        {
          "internalType": "address",
          "name": "operator",
          "type": "address"
        },
        {
          "internalType": "bool",
          "name": "approved",
          "type": "bool"
        }
      ],
      "name": "setApprovalForAll",
      "outputs": [],
      "stateMutability": "nonpayable",
      "type": "function"
    },
    {
      "inputs": [
        {
          "internalType": "string",
          "name": "baseURI",
          "type": "string"
        }
      ],
      "name": "setBaseURI",
      "outputs": [],
      "stateMutability": "nonpayable",
      "type": "function"
    },
    {
      "inputs": [
        {
          "internalType": "uint256",
          "name": "_newCost",
          "type": "uint256"
        }
      ],
      "name": "setCost",
      "outputs": [],
      "stateMutability": "nonpayable",
      "type": "function"
    },
    {
      "inputs": [
        {
          "internalType": "bool",
          "name": "_required",
          "type": "bool"
        }
      ],
      "name": "setKycRequired",
      "outputs": [],
      "stateMutability": "nonpayable",
      "type": "function"
    },
    {
      "inputs": [
        {
          "internalType": "uint256",
          "name": "_maxSupply",
          "type": "uint256"
        }
      ],
      "name": "setMaxSupply",
      "outputs": [],
      "stateMutability": "nonpayable",
      "type": "function"
    },
    {
      "inputs": [
        {
          "internalType": "string",
          "name": "_notRevealedURI",
          "type": "string"
        }
      ],
      "name": "setNotRevealedURI",
      "outputs": [],
      "stateMutability": "nonpayable",
      "type": "function"
    },
    {
      "inputs": [
        {
          "internalType": "bool",
          "name": "_saleActive",
          "type": "bool"
        }
      ],
      "name": "setPresaleStatus",
      "outputs": [],
      "stateMutability": "nonpayable",
      "type": "function"
    },
    {
      "inputs": [
        {
          "internalType": "bool",
          "name": "_saleActive",
          "type": "bool"
        }
      ],
      "name": "setPublicSaleStatus",
      "outputs": [],
      "stateMutability": "nonpayable",
      "type": "function"
    },
    {
      "inputs": [
        {
          "internalType": "address",
          "name": "signer_",
          "type": "address"
        }
      ],
      "name": "setSigner",
      "outputs": [],
      "stateMutability": "nonpayable",
      "type": "function"
    },
    {
      "inputs": [
        {
          "internalType": "uint256",
          "name": "tokenId",
          "type": "uint256"
        },
        {
          "internalType": "string",
          "name": "_tokenURI",
          "type": "string"
        }
      ],
      "name": "setTokenURI",
      "outputs": [],
      "stateMutability": "nonpayable",
      "type": "function"
    },
    {
      "inputs": [
        {
          "internalType": "uint256",
          "name": "_newmaxMintAmount",
          "type": "uint256"
        }
      ],
      "name": "setmaxMintAmount",
      "outputs": [],
      "stateMutability": "nonpayable",
      "type": "function"
    },
    {
      "inputs": [
        {
          "internalType": "bytes4",
          "name": "interfaceId",
          "type": "bytes4"
        }
      ],
      "name": "supportsInterface",
      "outputs": [
        {
          "internalType": "bool",
          "name": "",
          "type": "bool"
        }
      ],
      "stateMutability": "view",
      "type": "function"
    },
    {
      "inputs": [],
      "name": "symbol",
      "outputs": [
        {
          "internalType": "string",
          "name": "",
          "type": "string"
        }
      ],
      "stateMutability": "view",
      "type": "function"
    },
    {
      "inputs": [
        {
          "internalType": "uint256",
          "name": "index",
          "type": "uint256"
        }
      ],
      "name": "tokenByIndex",
      "outputs": [
        {
          "internalType": "uint256",
          "name": "",
          "type": "uint256"
        }
      ],
      "stateMutability": "view",
      "type": "function"
    },
    {
      "inputs": [
        {
          "internalType": "address",
          "name": "owner",
          "type": "address"
        },
        {
          "internalType": "uint256",
          "name": "index",
          "type": "uint256"
        }
      ],
      "name": "tokenOfOwnerByIndex",
      "outputs": [
        {
          "internalType": "uint256",
          "name": "",
          "type": "uint256"
        }
      ],
      "stateMutability": "view",
      "type": "function"
    },
    {
      "inputs": [
        {
          "internalType": "uint256",
          "name": "tokenId",
          "type": "uint256"
        }
      ],
      "name": "tokenURI",
      "outputs": [
        {
          "internalType": "string",
          "name": "",
          "type": "string"
        }
      ],
      "stateMutability": "view",
      "type": "function"
    },
    {
      "inputs": [],
      "name": "totalClaimed",
      "outputs": [
        {
          "internalType": "uint256",
          "name": "",
          "type": "uint256"
        }
      ],
      "stateMutability": "view",
      "type": "function"
    },
    {
      "inputs": [],
      "name": "totalSupply",
      "outputs": [
        {
          "internalType": "uint256",
          "name": "",
          "type": "uint256"
        }
      ],
      "stateMutability": "view",
      "type": "function"
    },
    {
      "inputs": [
        {
          "internalType": "address",
          "name": "from",
          "type": "address"
        },
        {
          "internalType": "address",
          "name": "to",
          "type": "address"
        },
        {
          "internalType": "uint256",
          "name": "tokenId",
          "type": "uint256"
        }
      ],
      "name": "transferFrom",
      "outputs": [],
      "stateMutability": "nonpayable",
      "type": "function"
    },
    {
      "inputs": [
        {
          "internalType": "address",
          "name": "newOwner",
          "type": "address"
        }
      ],
      "name": "transferOwnership",
      "outputs": [],
      "stateMutability": "nonpayable",
      "type": "function"
    },
    {
      "inputs": [
        {
          "internalType": "address",
          "name": "_owner",
          "type": "address"
        }
      ],
      "name": "walletOfOwner",
      "outputs": [
        {
          "internalType": "uint256[]",
          "name": "",
          "type": "uint256[]"
        }
      ],
      "stateMutability": "view",
      "type": "function"
    },
    {
      "inputs": [
        {
          "internalType": "address",
          "name": "",
          "type": "address"
        }
      ],
      "name": "whitelistMinted",
      "outputs": [
        {
          "internalType": "uint256",
          "name": "",
          "type": "uint256"
        }
      ],
      "stateMutability": "view",
      "type": "function"
    },
    {
      "inputs": [
        {
          "internalType": "address[]",
          "name": "addresses",
          "type": "address[]"
        }
      ],
      "name": "whitelistUsers",
      "outputs": [],
      "stateMutability": "nonpayable",
      "type": "function"
    },
    {
      "inputs": [],
      "name": "withdraw",
      "outputs": [],
      "stateMutability": "payable",
      "type": "function"
    }
  ],
  "transactionHash": "0xcd9d4162447b1f8085ea9fa9b5dececa6a0396c3105ab09dfc0deeb7c27324bf",
  "args": [
    "",
    "0x0ece5312f66002b4103FBb6A0ff4ad90aF52f91a"
  ],
  "solcInputHash": "d83d0a4342b6c91f5944ebfc67408e04",
  "bytecode": "0x60a06040526801a055690d9db80000600e556101f4600f5560026010556011805464ffffffffff19166401000000001790553480156200003e57600080fd5b5060405162004b9238038062004b92833981016040819052620000619162000329565b60408051808201825260068082526527232a34b33360d11b602080840182815285518087019096529285528401528151919291620000a291600091620001f7565b508051620000b8906001906020840190620001f7565b505050620000d5620000cf6200011960201b60201c565b6200011d565b6001600b55620000e5826200016f565b60118054600160281b600160c81b03191633650100000000000217905560601b6001600160601b0319166080525062000548565b3390565b600a80546001600160a01b038381166001600160a01b0319831681179093556040519116919082907f8be0079c531659141344cd1fd0a4f28419497f9722a3daafe3b4186f6b6457e090600090a35050565b600a546001600160a01b03163314620001a55760405162461bcd60e51b81526004016200019c90620003d6565b60405180910390fd5b8051620001ba90600c906020840190620001f7565b507f5b4603fcb3d3d9b6dba69e8b60ea02082aa1d621d2cc96d5bbfab381f6164e6e81604051620001ec9190620003bc565b60405180910390a150565b8280546200020590620004a2565b90600052602060002090601f01602090048101928262000229576000855562000274565b82601f106200024457805160ff191683800117855562000274565b8280016001018555821562000274579182015b828111156200027457825182559160200191906001019062000257565b506200028292915062000286565b5090565b5b8082111562000282576000815560010162000287565b6000620002b4620002ae8462000430565b62000411565b905082815260208101848484011115620002d157620002d1600080fd5b620002de8482856200046f565b509392505050565b8051620002f3816200052e565b92915050565b600082601f8301126200030f576200030f600080fd5b8151620003218482602086016200029d565b949350505050565b60008060408385031215620003415762000341600080fd5b82516001600160401b038111156200035c576200035c600080fd5b6200036a85828601620002f9565b92505060206200037d85828601620002e6565b9150509250929050565b600062000392825190565b808452602084019350620003ab8185602086016200046f565b601f01601f19169290920192915050565b60208082528101620003cf818462000387565b9392505050565b60208082528181019081527f4f776e61626c653a2063616c6c6572206973206e6f7420746865206f776e6572604083015260608201620002f3565b60006200041d60405190565b90506200042b8282620004d3565b919050565b60006001600160401b038211156200044c576200044c62000518565b601f19601f83011660200192915050565b60006001600160a01b038216620002f3565b60005b838110156200048c57818101518382015260200162000472565b838111156200049c576000848401525b50505050565b600281046001821680620004b757607f821691505b60208210811415620004cd57620004cd62000502565b50919050565b601f19601f83011681018181106001600160401b0382111715620004fb57620004fb62000518565b6040525050565b634e487b7160e01b600052602260045260246000fd5b634e487b7160e01b600052604160045260246000fd5b62000539816200045d565b81146200054557600080fd5b50565b60805160601c6146246200056e600039600081816109f701526112a901526146246000f3fe6080604052600436106103765760003560e01c80636f8b44b0116101d1578063a475b5dd11610102578063d5abeb01116100a0578063efd0cbf91161006f578063efd0cbf914610a82578063f2c4ce1e14610a95578063f2fde38b14610ab5578063fe575a8714610ad557600080fd5b8063d5abeb01146109cf578063e46317b5146109e5578063e985e9c514610a19578063edec5f2714610a6257600080fd5b8063bb3d676a116100dc578063bb3d676a1461095a578063bc8893b41461097a578063c87b56dd14610999578063d54ad2a1146109b957600080fd5b8063a475b5dd14610905578063b423fe671461091a578063b88d4fde1461093a57600080fd5b80638895283f1161016f57806395d89b411161014957806395d89b411461087657806398a8cffe1461088b578063a1d557c5146108b8578063a22cb465146108e557600080fd5b80638895283f146108255780638b9a10d7146108455780638da5cb5b1461085857600080fd5b80637ac3c02f116101ab5780637ac3c02f146107935780637c25d647146107b85780637f00c7a6146107e557806383a076be1461080557600080fd5b80636f8b44b01461073e57806370a082311461075e578063715018a61461077e57600080fd5b80633ccfd60b116102ab57806353135ca0116102495780635c975abb116102235780635c975abb146106cb5780635eddd157146106eb5780636352211e146106fe5780636c19e7831461071e57600080fd5b806353135ca01461063657806355f804b3146106505780635c3622331461067057600080fd5b8063438b630011610285578063438b6300146105a857806344a0d68a146105d55780634f6ccce7146105f5578063518302271461061557600080fd5b80633ccfd60b1461055e5780633e4191dc1461056657806342842e0e1461058857600080fd5b8063150909f711610318578063239c70ae116102f2578063239c70ae146104cf57806323b872dd146104e55780632f745c59146105055780633af32abf1461052557600080fd5b8063150909f71461047a578063162094c41461049a57806318160ddd146104ba57600080fd5b8063081812fc11610354578063081812fc146103f5578063081c8c4414610422578063095ea7b31461043757806313faede61461045757600080fd5b806301ffc9a71461037b57806302329a29146103b157806306fdde03146103d3575b600080fd5b34801561038757600080fd5b5061039b6103963660046132db565b610b0e565b6040516103a89190614026565b60405180910390f35b3480156103bd57600080fd5b506103d16103cc3660046132ba565b610b39565b005b3480156103df57600080fd5b506103e8610bbc565b6040516103a89190614072565b34801561040157600080fd5b506104156104103660046133a0565b610c4e565b6040516103a89190613fb2565b34801561042e57600080fd5b506103e8610c91565b34801561044357600080fd5b506103d161045236600461324c565b610d1f565b34801561046357600080fd5b5061046d600e5481565b6040516103a89190614313565b34801561048657600080fd5b506103d16104953660046132ba565b610da5565b3480156104a657600080fd5b506103d16104b53660046133e3565b610e18565b3480156104c657600080fd5b5060085461046d565b3480156104db57600080fd5b5061046d60105481565b3480156104f157600080fd5b506103d161050036600461314a565b610ec3565b34801561051157600080fd5b5061046d61052036600461324c565b610ef4565b34801561053157600080fd5b5061039b6105403660046130cb565b6001600160a01b031660009081526013602052604090205460ff1690565b6103d1610f46565b34801561057257600080fd5b5060115461039b90640100000000900460ff1681565b34801561059457600080fd5b506103d16105a336600461314a565b610fef565b3480156105b457600080fd5b506105c86105c33660046130cb565b61100a565b6040516103a89190614015565b3480156105e157600080fd5b506103d16105f03660046133a0565b6110ac565b34801561060157600080fd5b5061046d6106103660046133a0565b61110b565b34801561062157600080fd5b5060115461039b906301000000900460ff1681565b34801561064257600080fd5b5060115461039b9060ff1681565b34801561065c57600080fd5b506103d161066b36600461331d565b611159565b34801561067c57600080fd5b506106bb61068b3660046133a0565b6016602052600090815260409020805460018201546002830154600390930154919290916001600160a01b031684565b6040516103a89493929190614321565b3480156106d757600080fd5b5060115461039b9062010000900460ff1681565b6103d16106f9366004613431565b61118f565b34801561070a57600080fd5b506104156107193660046133a0565b6114be565b34801561072a57600080fd5b506103d16107393660046130cb565b6114f3565b34801561074a57600080fd5b506103d16107593660046133a0565b611573565b34801561076a57600080fd5b5061046d6107793660046130cb565b6115d2565b34801561078a57600080fd5b506103d1611616565b34801561079f57600080fd5b50601154600160281b90046001600160a01b0316610415565b3480156107c457600080fd5b5061046d6107d33660046133a0565b60176020526000908152604090205481565b3480156107f157600080fd5b506103d16108003660046133a0565b61164c565b34801561081157600080fd5b506103d16108203660046133c1565b6116ab565b34801561083157600080fd5b506103d16108403660046132ba565b6117a1565b6103d16108533660046133e3565b611809565b34801561086457600080fd5b50600a546001600160a01b0316610415565b34801561088257600080fd5b506103e8611a06565b34801561089757600080fd5b5061046d6108a63660046130cb565b60126020526000908152604090205481565b3480156108c457600080fd5b5061046d6108d33660046133a0565b60186020526000908152604090205481565b3480156108f157600080fd5b506103d1610900366004613219565b611a15565b34801561091157600080fd5b506103d1611a24565b34801561092657600080fd5b506103d16109353660046132ba565b611a8c565b34801561094657600080fd5b506103d161095536600461319a565b611af9565b34801561096657600080fd5b506103d161097536600461327f565b611b2b565b34801561098657600080fd5b5060115461039b90610100900460ff1681565b3480156109a557600080fd5b506103e86109b43660046133a0565b611bed565b3480156109c557600080fd5b5061046d60155481565b3480156109db57600080fd5b5061046d600f5481565b3480156109f157600080fd5b506104157f000000000000000000000000000000000000000000000000000000000000000081565b348015610a2557600080fd5b5061039b610a3436600461310d565b6001600160a01b03918216600090815260056020908152604080832093909416825291909152205460ff1690565b348015610a6e57600080fd5b506103d1610a7d36600461327f565b611db4565b6103d1610a903660046133a0565b611e76565b348015610aa157600080fd5b506103d1610ab0366004613365565b612030565b348015610ac157600080fd5b506103d1610ad03660046130cb565b61209d565b348015610ae157600080fd5b5061039b610af03660046130cb565b6001600160a01b031660009081526014602052604090205460ff1690565b60006001600160e01b0319821663780e9d6360e01b1480610b335750610b33826120f6565b92915050565b600a546001600160a01b03163314610b6c5760405162461bcd60e51b8152600401610b6390614253565b60405180910390fd5b6011805462ff0000191662010000831515021790556040517f0e2fb031ee032dc02d8011dc50b816eb450cf856abd8261680dac74f72165bd290610bb1908390614026565b60405180910390a150565b606060008054610bcb90614487565b80601f0160208091040260200160405190810160405280929190818152602001828054610bf790614487565b8015610c445780601f10610c1957610100808354040283529160200191610c44565b820191906000526020600020905b815481529060010190602001808311610c2757829003601f168201915b5050505050905090565b6000610c5982612146565b610c755760405162461bcd60e51b8152600401610b6390614243565b506000908152600460205260409020546001600160a01b031690565b600c8054610c9e90614487565b80601f0160208091040260200160405190810160405280929190818152602001828054610cca90614487565b8015610d175780601f10610cec57610100808354040283529160200191610d17565b820191906000526020600020905b815481529060010190602001808311610cfa57829003601f168201915b505050505081565b6000610d2a826114be565b9050806001600160a01b0316836001600160a01b03161415610d5e5760405162461bcd60e51b8152600401610b6390614293565b336001600160a01b0382161480610d7a5750610d7a8133610a34565b610d965760405162461bcd60e51b8152600401610b63906141b3565b610da08383612163565b505050565b600a546001600160a01b03163314610dcf5760405162461bcd60e51b8152600401610b6390614253565b6011805464ff000000001916640100000000831515021790556040517f9c6bc9b1655d51a0ba04b966dafa4a63b361d41aea8a5bd188e79270ae78498290610bb1908390614026565b600a546001600160a01b03163314610e425760405162461bcd60e51b8152600401610b6390614253565b610e4b82612146565b610e675760405162461bcd60e51b8152600401610b6390614283565b6000828152600d602090815260409091208251610e8692840190612e4a565b50817f931f495b9a8e5d8e61946ea5d61e021f636cfe213a801f97589c18c152e408bd82604051610eb79190614072565b60405180910390a25050565b610ecd33826121d1565b610ee95760405162461bcd60e51b8152600401610b63906142a3565b610da0838383612272565b6000610eff836115d2565b8210610f1d5760405162461bcd60e51b8152600401610b63906140c3565b506001600160a01b03919091166000908152600660209081526040808320938352929052205490565b600a546001600160a01b03163314610f705760405162461bcd60e51b8152600401610b6390614253565b6000336001600160a01b031647604051610f8990613faa565b60006040518083038185875af1925050503d8060008114610fc6576040519150601f19603f3d011682016040523d82523d6000602084013e610fcb565b606091505b5050905080610fec5760405162461bcd60e51b8152600401610b63906140f3565b50565b610da083838360405180602001604052806000815250611af9565b60606000611017836115d2565b905060008167ffffffffffffffff811115611034576110346145a6565b60405190808252806020026020018201604052801561105d578160200160208202803683370190505b50905060005b828110156110a4576110758582610ef4565b82828151811061108757611087614590565b60209081029190910101528061109c816144e1565b915050611063565b509392505050565b600a546001600160a01b031633146110d65760405162461bcd60e51b8152600401610b6390614253565b600e8190556040517f5d3cc44bbc86a70941868a14a9f66a647d7f7499d4d3789f68e4486c11ea46da90610bb1908390614313565b600061111660085490565b82106111345760405162461bcd60e51b8152600401610b63906142b3565b6008828154811061114757611147614590565b90600052602060002001549050919050565b600a546001600160a01b031633146111835760405162461bcd60e51b8152600401610b6390614253565b610da060198383612ece565b60115462010000900460ff16156111b85760405162461bcd60e51b8152600401610b6390614123565b6002600b5414156111db5760405162461bcd60e51b8152600401610b63906142e3565b6002600b553360008181526014602052604090205460ff16156112105760405162461bcd60e51b8152600401610b6390614173565b6000838152601760205260409020541561123c5760405162461bcd60e51b8152600401610b6390614153565b600084815260186020526040902054156112685760405162461bcd60e51b8152600401610b6390614273565b33611272846114be565b6001600160a01b0316146112985760405162461bcd60e51b8152600401610b6390614203565b604051630b02f02d60e31b815233907f00000000000000000000000000000000000000000000000000000000000000006001600160a01b0316906358178168906112e6908890600401614313565b60206040518083038186803b1580156112fe57600080fd5b505afa158015611312573d6000803e3d6000fd5b505050506040513d601f19601f8201168201806040525081019061133691906130ec565b6001600160a01b03161461135c5760405162461bcd60e51b8152600401610b6390614223565b600084843360405160200161137393929190613f2f565b60405160208183030381529060405280519060200120905060006113a08461139a8461239f565b906123cf565b6011549091506001600160a01b03808316600160281b90920416146113d75760405162461bcd60e51b8152600401610b6390614303565b601580549060006113e7836144e1565b90915550506015805460008781526017602090815260408083208490558a83526018825280832084905580516080810182528b81528083018b81524282840181815233606085018181529888526016909652958490209251835590516001830155935160028201559351600390940180546001600160a01b0319166001600160a01b0390951694909417909355925491517f528937b330082d892a98d4e428ab2dcca7844b51d227a1c0ae67f0b5261acbd9926114a99290918b918b91614356565b60405180910390a250506001600b5550505050565b6000818152600260205260408120546001600160a01b031680610b335760405162461bcd60e51b8152600401610b63906141e3565b600a546001600160a01b0316331461151d5760405162461bcd60e51b8152600401610b6390614253565b6011805465010000000000600160c81b031916600160281b6001600160a01b038416021790556040517f5719a5656c5cfdaafa148ecf366fd3b0a7fae06449ce2a46225977fb7417e29d90610bb1908390613fb2565b600a546001600160a01b0316331461159d5760405162461bcd60e51b8152600401610b6390614253565b600f8190556040517f28a10a2e0b5582da7164754cb994f6214b8af6aa7f7e003305fbc09e7106c51390610bb1908390614313565b60006001600160a01b0382166115fa5760405162461bcd60e51b8152600401610b63906141d3565b506001600160a01b031660009081526003602052604090205490565b600a546001600160a01b031633146116405760405162461bcd60e51b8152600401610b6390614253565b61164a60006123eb565b565b600a546001600160a01b031633146116765760405162461bcd60e51b8152600401610b6390614253565b60108190556040517f71ef44637f994911a9fa6bc89bc19c9bbf6f510a992e74f90880ffbccd7b2c6b90610bb1908390614313565b600a546001600160a01b031633146116d55760405162461bcd60e51b8152600401610b6390614253565b600082116116f55760405162461bcd60e51b8152600401610b63906142f3565b600061170060085490565b600f5490915061171084836143dc565b111561172e5760405162461bcd60e51b8152600401610b63906141f3565b60015b83811161179b5761174b8361174683856143dc565b61243d565b61175581836143dc565b6040516001600160a01b038516907fbb06c934d5d088f12f303c757020e73ec03ae3217e26be764425bb34855c8b9490600090a380611793816144e1565b915050611731565b50505050565b600a546001600160a01b031633146117cb5760405162461bcd60e51b8152600401610b6390614253565b6011805460ff19168215151790556040517f1f1a6b0fcc71315f2c3aeddbd1f6d527595d21eea9b73160e78d6fa49b7897a690610bb1908390614026565b60115462010000900460ff16156118325760405162461bcd60e51b8152600401610b6390614123565b6002600b5414156118555760405162461bcd60e51b8152600401610b63906142e3565b6002600b553360008181526014602052604090205460ff161561188a5760405162461bcd60e51b8152600401610b6390614173565b60115460ff166118ac5760405162461bcd60e51b8152600401610b6390614093565b82600e546118ba9190614408565b3410156118d95760405162461bcd60e51b8152600401610b63906141a3565b600083116118f95760405162461bcd60e51b8152600401610b63906142f3565b6010543360009081526012602052604090205461191690856143dc565b11156119345760405162461bcd60e51b8152600401610b63906141c3565b600061193f60085490565b600f5490915061194f85836143dc565b111561196d5760405162461bcd60e51b8152600401610b63906141f3565b61197683612457565b33600090815260126020526040812080548692906119959084906143dc565b90915550600190505b8481116119fa576119b33361174683856143dc565b6119bd81836143dc565b60405133907fbb06c934d5d088f12f303c757020e73ec03ae3217e26be764425bb34855c8b9490600090a3806119f2816144e1565b91505061199e565b50506001600b55505050565b606060018054610bcb90614487565b611a2033838361250f565b5050565b600a546001600160a01b03163314611a4e5760405162461bcd60e51b8152600401610b6390614253565b6011805463ff000000191663010000001790556040517fe2a7169cedebe39671840370ae19ca4fc41be6191d4c77f174f189a4d8cd08c890600090a1565b600a546001600160a01b03163314611ab65760405162461bcd60e51b8152600401610b6390614253565b6011805461ff001916610100831515021790556040517f36b97db79058521017a18d3f5261657061fa019ef5637747834f022e588ec07490610bb1908390614026565b611b0333836121d1565b611b1f5760405162461bcd60e51b8152600401610b63906142a3565b61179b848484846125b2565b600a546001600160a01b03163314611b555760405162461bcd60e51b8152600401610b6390614253565b60005b8151811015611bbd57600160146000848481518110611b7957611b79614590565b6020908102919091018101516001600160a01b03168252810191909152604001600020805460ff191691151591909117905580611bb5816144e1565b915050611b58565b507fb0acc561764f1521c892494310b184e20cafc08c4d047edaeeed1b55af37fe3081604051610bb19190614004565b6060611bf882612146565b611c145760405162461bcd60e51b8152600401610b63906140b3565b6011546060906301000000900460ff16611cba57600c8054611c3590614487565b80601f0160208091040260200160405190810160405280929190818152602001828054611c6190614487565b8015611cae5780601f10611c8357610100808354040283529160200191611cae565b820191906000526020600020905b815481529060010190602001808311611c9157829003601f168201915b50505050509050611d54565b6000838152600d602052604090208054611cd390614487565b80601f0160208091040260200160405190810160405280929190818152602001828054611cff90614487565b8015611d4c5780601f10611d2157610100808354040283529160200191611d4c565b820191906000526020600020905b815481529060010190602001808311611d2f57829003601f168201915b505050505090505b6000611d5e6125e5565b9050805160001415611d71575092915050565b815115611da3578082604051602001611d8b929190613edc565b60405160208183030381529060405292505050919050565b611dac846125f4565b949350505050565b600a546001600160a01b03163314611dde5760405162461bcd60e51b8152600401610b6390614253565b60005b8151811015611e4657600160136000848481518110611e0257611e02614590565b6020908102919091018101516001600160a01b03168252810191909152604001600020805460ff191691151591909117905580611e3e816144e1565b915050611de1565b507f6141feff42f24e29d1af3d91bffa3d40521e53485e9c92e358c4d946c0adbd3881604051610bb19190614004565b60115462010000900460ff1615611e9f5760405162461bcd60e51b8152600401610b6390614123565b6002600b541415611ec25760405162461bcd60e51b8152600401610b63906142e3565b6002600b553360008181526014602052604090205460ff1615611ef75760405162461bcd60e51b8152600401610b6390614173565b601154610100900460ff16611f1e5760405162461bcd60e51b8152600401610b6390614093565b81600e54611f2c9190614408565b341015611f4b5760405162461bcd60e51b8152600401610b63906141a3565b60008211611f6b5760405162461bcd60e51b8152600401610b63906142f3565b601054821115611f8d5760405162461bcd60e51b8152600401610b6390614133565b6000611f9860085490565b600f54909150611fa884836143dc565b1115611fc65760405162461bcd60e51b8152600401610b63906141f3565b60015b83811161202557611fde3361174683856143dc565b611fe881836143dc565b60405133907fbb06c934d5d088f12f303c757020e73ec03ae3217e26be764425bb34855c8b9490600090a38061201d816144e1565b915050611fc9565b50506001600b555050565b600a546001600160a01b0316331461205a5760405162461bcd60e51b8152600401610b6390614253565b805161206d90600c906020840190612e4a565b507f5b4603fcb3d3d9b6dba69e8b60ea02082aa1d621d2cc96d5bbfab381f6164e6e81604051610bb19190614072565b600a546001600160a01b031633146120c75760405162461bcd60e51b8152600401610b6390614253565b6001600160a01b0381166120ed5760405162461bcd60e51b8152600401610b63906140e3565b610fec816123eb565b60006001600160e01b031982166380ac58cd60e01b148061212757506001600160e01b03198216635b5e139f60e01b145b80610b3357506301ffc9a760e01b6001600160e01b0319831614610b33565b6000908152600260205260409020546001600160a01b0316151590565b600081815260046020526040902080546001600160a01b0319166001600160a01b0384169081179091558190612198826114be565b6001600160a01b03167f8c5be1e5ebec7d5bd14f71427d1e84f3dd0314c0f7b2291e5b200ac8c7c3b92560405160405180910390a45050565b60006121dc82612146565b6121f85760405162461bcd60e51b8152600401610b6390614193565b6000612203836114be565b9050806001600160a01b0316846001600160a01b0316148061223e5750836001600160a01b031661223384610c4e565b6001600160a01b0316145b80611dac57506001600160a01b0380821660009081526005602090815260408083209388168352929052205460ff16611dac565b826001600160a01b0316612285826114be565b6001600160a01b0316146122ab5760405162461bcd60e51b8152600401610b6390614103565b6001600160a01b0382166122d15760405162461bcd60e51b8152600401610b6390614143565b6122dc838383612677565b6122e7600082612163565b6001600160a01b0383166000908152600360205260408120805460019290612310908490614427565b90915550506001600160a01b038216600090815260036020526040812080546001929061233e9084906143dc565b909155505060008181526002602052604080822080546001600160a01b0319166001600160a01b0386811691821790925591518493918716917fddf252ad1be2c89b69c2b068fc378daa952ba7f163c4a11628f55a4df523b3ef91a4505050565b6000816040516020016123b29190613ef4565b604051602081830303815290604052805190602001209050919050565b60008060006123de858561272f565b915091506110a48161279f565b600a80546001600160a01b038381166001600160a01b0319831681179093556040519116919082907f8be0079c531659141344cd1fd0a4f28419497f9722a3daafe3b4186f6b6457e090600090a35050565b611a20828260405180602001604052806000815250612884565b3360009081526013602052604090205460ff16151560011461248b5760405162461bcd60e51b8152600401610b63906142c3565b601154640100000000900460ff1615610fec576000336040516020016124b19190613f80565b60405160208183030381529060405280519060200120905060006124d88361139a8461239f565b6011549091506001600160a01b03808316600160281b9092041614610da05760405162461bcd60e51b8152600401610b63906142d3565b816001600160a01b0316836001600160a01b031614156125415760405162461bcd60e51b8152600401610b6390614163565b6001600160a01b0383811660008181526005602090815260408083209487168084529490915290819020805460ff1916851515179055517f17307eab39ab6107e8899845ad3d59bd9653f200f220920489ca2b5937696c31906125a5908590614026565b60405180910390a3505050565b6125bd848484612272565b6125c9848484846128b7565b61179b5760405162461bcd60e51b8152600401610b63906140d3565b606060198054610bcb90614487565b60606125ff82612146565b61261b5760405162461bcd60e51b8152600401610b6390614263565b60006126256125e5565b905060008151116126455760405180602001604052806000815250612670565b8061264f846129c4565b604051602001612660929190613edc565b6040516020818303038152906040525b9392505050565b6001600160a01b0383166126d2576126cd81600880546000838152600960205260408120829055600182018355919091527ff3f7a9fe364faab93b216da50a3214154f22a0a2b415b23a84c8169e8b636ee30155565b6126f5565b816001600160a01b0316836001600160a01b0316146126f5576126f58382612ac2565b6001600160a01b03821661270c57610da081612b5f565b826001600160a01b0316826001600160a01b031614610da057610da08282612c0e565b6000808251604114156127665760208301516040840151606085015160001a61275a87828585612c52565b94509450505050612798565b8251604014156127905760208301516040840151612785868383612d32565b935093505050612798565b506000905060025b9250929050565b60008160048111156127b3576127b361454e565b14156127bc5750565b60018160048111156127d0576127d061454e565b14156127ee5760405162461bcd60e51b8152600401610b6390614083565b60028160048111156128025761280261454e565b14156128205760405162461bcd60e51b8152600401610b63906140a3565b60038160048111156128345761283461454e565b14156128525760405162461bcd60e51b8152600401610b6390614183565b60048160048111156128665761286661454e565b1415610fec5760405162461bcd60e51b8152600401610b6390614213565b61288e8383612d6b565b61289b60008484846128b7565b610da05760405162461bcd60e51b8152600401610b63906140d3565b60006001600160a01b0384163b156129b957604051630a85bd0160e11b81526001600160a01b0385169063150b7a02906128fb903390899088908890600401613fc0565b602060405180830381600087803b15801561291557600080fd5b505af1925050508015612945575060408051601f3d908101601f19168201909252612942918101906132fc565b60015b61299f573d808015612973576040519150601f19603f3d011682016040523d82523d6000602084013e612978565b606091505b5080516129975760405162461bcd60e51b8152600401610b63906140d3565b805181602001fd5b6001600160e01b031916630a85bd0160e11b149050611dac565b506001949350505050565b6060816129e85750506040805180820190915260018152600360fc1b602082015290565b8160005b8115612a1257806129fc816144e1565b9150612a0b9050600a836143f4565b91506129ec565b60008167ffffffffffffffff811115612a2d57612a2d6145a6565b6040519080825280601f01601f191660200182016040528015612a57576020820181803683370190505b5090505b8415611dac57612a6c600183614427565b9150612a79600a8661450e565b612a849060306143dc565b60f81b818381518110612a9957612a99614590565b60200101906001600160f81b031916908160001a905350612abb600a866143f4565b9450612a5b565b60006001612acf846115d2565b612ad99190614427565b600083815260076020526040902054909150808214612b2c576001600160a01b03841660009081526006602090815260408083208584528252808320548484528184208190558352600790915290208190555b5060009182526007602090815260408084208490556001600160a01b039094168352600681528383209183525290812055565b600854600090612b7190600190614427565b60008381526009602052604081205460088054939450909284908110612b9957612b99614590565b906000526020600020015490508060088381548110612bba57612bba614590565b6000918252602080832090910192909255828152600990915260408082208490558582528120556008805480612bf257612bf261457a565b6001900381819060005260206000200160009055905550505050565b6000612c19836115d2565b6001600160a01b039093166000908152600660209081526040808320868452825280832085905593825260079052919091209190915550565b6000807f7fffffffffffffffffffffffffffffff5d576e7357a4501ddfe92f46681b20a0831115612c895750600090506003612d29565b8460ff16601b14158015612ca157508460ff16601c14155b15612cb25750600090506004612d29565b600060018787878760405160008152602001604052604051612cd79493929190614034565b6020604051602081039080840390855afa158015612cf9573d6000803e3d6000fd5b5050604051601f1901519150506001600160a01b038116612d2257600060019250925050612d29565b9150600090505b94509492505050565b6000806001600160ff1b03831681612d4f60ff86901c601b6143dc565b9050612d5d87828885612c52565b935093505050935093915050565b6001600160a01b038216612d915760405162461bcd60e51b8152600401610b6390614233565b612d9a81612146565b15612db75760405162461bcd60e51b8152600401610b6390614113565b612dc360008383612677565b6001600160a01b0382166000908152600360205260408120805460019290612dec9084906143dc565b909155505060008181526002602052604080822080546001600160a01b0319166001600160a01b03861690811790915590518392907fddf252ad1be2c89b69c2b068fc378daa952ba7f163c4a11628f55a4df523b3ef908290a45050565b828054612e5690614487565b90600052602060002090601f016020900481019282612e785760008555612ebe565b82601f10612e9157805160ff1916838001178555612ebe565b82800160010185558215612ebe579182015b82811115612ebe578251825591602001919060010190612ea3565b50612eca929150612f42565b5090565b828054612eda90614487565b90600052602060002090601f016020900481019282612efc5760008555612ebe565b82601f10612f155782800160ff19823516178555612ebe565b82800160010185558215612ebe579182015b82811115612ebe578235825591602001919060010190612f27565b5b80821115612eca5760008155600101612f43565b6000612f6a612f658461438d565b614371565b90508083825260208201905082856020860282011115612f8c57612f8c600080fd5b60005b85811015612fb85781612fa28882612ff6565b8452506020928301929190910190600101612f8f565b5050509392505050565b6000612fd0612f65846143b1565b905082815260208101848484011115612feb57612feb600080fd5b6110a484828561444f565b8035610b33816145bc565b8051610b33816145bc565b600082601f83011261302057613020600080fd5b8135611dac848260208601612f57565b8035610b33816145d0565b8035610b33816145d8565b8051610b33816145d8565b600082601f83011261306557613065600080fd5b8135611dac848260208601612fc2565b60008083601f84011261308a5761308a600080fd5b50813567ffffffffffffffff8111156130a5576130a5600080fd5b60208301915083600182028301111561279857612798600080fd5b8035610b33816145e8565b6000602082840312156130e0576130e0600080fd5b6000611dac8484612ff6565b60006020828403121561310157613101600080fd5b6000611dac8484613001565b6000806040838503121561312357613123600080fd5b600061312f8585612ff6565b925050602061314085828601612ff6565b9150509250929050565b60008060006060848603121561316257613162600080fd5b600061316e8686612ff6565b935050602061317f86828701612ff6565b9250506040613190868287016130c0565b9150509250925092565b600080600080608085870312156131b3576131b3600080fd5b60006131bf8787612ff6565b94505060206131d087828801612ff6565b93505060406131e1878288016130c0565b925050606085013567ffffffffffffffff81111561320157613201600080fd5b61320d87828801613051565b91505092959194509250565b6000806040838503121561322f5761322f600080fd5b600061323b8585612ff6565b925050602061314085828601613030565b6000806040838503121561326257613262600080fd5b600061326e8585612ff6565b9250506020613140858286016130c0565b60006020828403121561329457613294600080fd5b813567ffffffffffffffff8111156132ae576132ae600080fd5b611dac8482850161300c565b6000602082840312156132cf576132cf600080fd5b6000611dac8484613030565b6000602082840312156132f0576132f0600080fd5b6000611dac848461303b565b60006020828403121561331157613311600080fd5b6000611dac8484613046565b6000806020838503121561333357613333600080fd5b823567ffffffffffffffff81111561334d5761334d600080fd5b61335985828601613075565b92509250509250929050565b60006020828403121561337a5761337a600080fd5b813567ffffffffffffffff81111561339457613394600080fd5b611dac84828501613051565b6000602082840312156133b5576133b5600080fd5b6000611dac84846130c0565b600080604083850312156133d7576133d7600080fd5b600061312f85856130c0565b600080604083850312156133f9576133f9600080fd5b600061340585856130c0565b925050602083013567ffffffffffffffff81111561342557613425600080fd5b61314085828601613051565b60008060006060848603121561344957613449600080fd5b600061345586866130c0565b9350506020613466868287016130c0565b925050604084013567ffffffffffffffff81111561348657613486600080fd5b61319086828701613051565b600061349e83836134b2565b505060200190565b600061349e8383613561565b6134bb8161443e565b82525050565b6134bb6134cd8261443e565b6144fc565b60006134dc825190565b80845260209384019383018060005b838110156135105781516134ff8882613492565b9750602083019250506001016134eb565b509495945050505050565b6000613525825190565b80845260209384019383018060005b8381101561351057815161354888826134a6565b975060208301925050600101613534565b8015156134bb565b806134bb565b6000613571825190565b80845260208401935061358881856020860161445b565b601f01601f19169290920192915050565b60006135a3825190565b6135b181856020860161445b565b9290920192915050565b601881526000602082017f45434453413a20696e76616c6964207369676e61747572650000000000000000815291505b5060200190565b601881526000602082017f53616c6520686173206e6f742073746172746564207965740000000000000000815291506135eb565b601f81526000602082017f45434453413a20696e76616c6964207369676e6174757265206c656e67746800815291506135eb565b601f81526000602082017f55524920717565727920666f72206e6f6e6578697374656e7420746f6b656e00815291506135eb565b602b81526000602082017f455243373231456e756d657261626c653a206f776e657220696e646578206f7581526a74206f6620626f756e647360a81b602082015291505b5060400190565b603281526000602082017f4552433732313a207472616e7366657220746f206e6f6e20455243373231526581527131b2b4bb32b91034b6b83632b6b2b73a32b960711b602082015291506136d2565b602681526000602082017f4f776e61626c653a206e6577206f776e657220697320746865207a65726f206181526564647265737360d01b602082015291506136d2565b600f81526000602082016e151c985b9cd9995c8819985a5b1959608a1b815291506135eb565b602581526000602082017f4552433732313a207472616e736665722066726f6d20696e636f72726563742081526437bbb732b960d91b602082015291506136d2565b601c81526000602082017f4552433732313a20746f6b656e20616c7265616479206d696e74656400000000815291506135eb565b600f81526000602082016e10dbdb9d1c9858dd081c185d5cd959608a1b815291506135eb565b602881526000602082017f4d6178206d696e7420616d6f756e7420706572207472616e73616374696f6e20815267195e18d95959195960c21b602082015291506136d2565b602481526000602082017f4552433732313a207472616e7366657220746f20746865207a65726f206164648152637265737360e01b602082015291506136d2565b601681526000602082017520b63932b0b23c9031b630b4b6b2b21037333a34b33360511b815291506135eb565b601981526000602082017f4552433732313a20617070726f766520746f2063616c6c657200000000000000815291506135eb565b601081526000602082016f213630b1b5b634b9ba32b2103ab9b2b960811b815291506135eb565b602281526000602082017f45434453413a20696e76616c6964207369676e6174757265202773272076616c815261756560f01b602082015291506136d2565b602c81526000602082017f4552433732313a206f70657261746f7220717565727920666f72206e6f6e657881526b34b9ba32b73a103a37b5b2b760a11b602082015291506136d2565b6012815260006020820171496e73756666696369656e742066756e647360701b815291506135eb565b603881526000602082017f4552433732313a20617070726f76652063616c6c6572206973206e6f74206f7781527f6e6572206e6f7220617070726f76656420666f7220616c6c0000000000000000602082015291506136d2565b601881526000602082017f4d6178206d696e7420616d6f756e742065786365656465640000000000000000815291506135eb565b602a81526000602082017f4552433732313a2062616c616e636520717565727920666f7220746865207a65815269726f206164647265737360b01b602082015291506136d2565b602981526000602082017f4552433732313a206f776e657220717565727920666f72206e6f6e657869737481526832b73a103a37b5b2b760b91b602082015291506136d2565b601681526000602082017513585e08139195081b1a5b5a5d08195e18d95959195960521b815291506135eb565b601081526000602082016f2737ba1037333a34b3331037bbb732b960811b815291506135eb565b602281526000602082017f45434453413a20696e76616c6964207369676e6174757265202776272076616c815261756560f01b602082015291506136d2565b600f81526000602082016e2737ba10383ab735b99037bbb732b960891b815291506135eb565b60208082527f4552433732313a206d696e7420746f20746865207a65726f2061646472657373910190815260006135eb565b602c81526000602082017f4552433732313a20617070726f76656420717565727920666f72206e6f6e657881526b34b9ba32b73a103a37b5b2b760a11b602082015291506136d2565b60208082527f4f776e61626c653a2063616c6c6572206973206e6f7420746865206f776e6572910190815260006135eb565b602f81526000602082017f4552433732314d657461646174613a2055524920717565727920666f72206e6f81526e3732bc34b9ba32b73a103a37b5b2b760891b602082015291506136d2565b6014815260006020820173416c726561647920636c61696d65642070756e6b60601b815291506135eb565b601c81526000602082017f55524920736574206f66206e6f6e6578697374656e7420746f6b656e00000000815291506135eb565b602181526000602082017f4552433732313a20617070726f76616c20746f2063757272656e74206f776e658152603960f91b602082015291506136d2565b603181526000602082017f4552433732313a207472616e736665722063616c6c6572206973206e6f74206f8152701ddb995c881b9bdc88185c1c1c9bdd9959607a1b602082015291506136d2565b602c81526000602082017f455243373231456e756d657261626c653a20676c6f62616c20696e646578206f81526b7574206f6620626f756e647360a01b602082015291506136d2565b60148152600060208201732737ba103bb434ba32b634b9ba32b2103ab9b2b960611b815291506135eb565b601081526000602082016f12de58c81b9bdd08185c1c1c9bdd995960821b815291506135eb565b601f81526000602082017f5265656e7472616e637947756172643a207265656e7472616e742063616c6c00815291506135eb565b601b81526000602082017f4e65656420746f206d696e74206174206c656173742031204e46540000000000815291506135eb565b601581526000602082017414da1a5c1c1a5b99c81b9bdd081d995c9a599a5959605a1b815291506135eb565b60ff81166134bb565b6000613ee88285613599565b9150611dac8284613599565b7f19457468657265756d205369676e6564204d6573736167653a0a3332000000008152601c016000613f268284613561565b50602001919050565b701cda1a5c1c1a5b99cb5d995c9a599a5959607a1b81526011016000613f558286613561565b602082019150613f658285613561565b602082019150613f7582846134c1565b506014019392505050565b6b1ade58cb585c1c1c9bdd995960a21b8152600c016000613fa182846134c1565b50601401919050565b600081610b33565b60208101610b3382846134b2565b60808101613fce82876134b2565b613fdb60208301866134b2565b613fe86040830185613561565b8181036060830152613ffa8184613567565b9695505050505050565b6020808252810161267081846134d2565b60208082528101612670818461351b565b60208101610b338284613559565b608081016140428287613561565b61404f6020830186613ed3565b61405c6040830185613561565b6140696060830184613561565b95945050505050565b602080825281016126708184613567565b60208082528101610b33816135bb565b60208082528101610b33816135f2565b60208082528101610b3381613626565b60208082528101610b338161365a565b60208082528101610b338161368e565b60208082528101610b33816136d9565b60208082528101610b3381613728565b60208082528101610b338161376b565b60208082528101610b3381613791565b60208082528101610b33816137d3565b60208082528101610b3381613807565b60208082528101610b338161382d565b60208082528101610b3381613872565b60208082528101610b33816138b3565b60208082528101610b33816138e0565b60208082528101610b3381613914565b60208082528101610b338161393b565b60208082528101610b338161397a565b60208082528101610b33816139c3565b60208082528101610b33816139ec565b60208082528101610b3381613a46565b60208082528101610b3381613a7a565b60208082528101610b3381613ac1565b60208082528101610b3381613b07565b60208082528101610b3381613b34565b60208082528101610b3381613b5b565b60208082528101610b3381613b9a565b60208082528101610b3381613bc0565b60208082528101610b3381613bf2565b60208082528101610b3381613c3b565b60208082528101610b3381613c6d565b60208082528101610b3381613cb9565b60208082528101610b3381613ce4565b60208082528101610b3381613d18565b60208082528101610b3381613d56565b60208082528101610b3381613da4565b60208082528101610b3381613ded565b60208082528101610b3381613e18565b60208082528101610b3381613e3f565b60208082528101610b3381613e73565b60208082528101610b3381613ea7565b60208101610b338284613561565b6080810161432f8287613561565b61433c6020830186613561565b6143496040830185613561565b61406960608301846134b2565b608081016143648287613561565b61404f6020830186613561565b600061437c60405190565b905061438882826144b4565b919050565b600067ffffffffffffffff8211156143a7576143a76145a6565b5060209081020190565b600067ffffffffffffffff8211156143cb576143cb6145a6565b601f19601f83011660200192915050565b600082198211156143ef576143ef614522565b500190565b60008261440357614403614538565b500490565b600081600019048311821515161561442257614422614522565b500290565b60008282101561443957614439614522565b500390565b60006001600160a01b038216610b33565b82818337506000910152565b60005b8381101561447657818101518382015260200161445e565b8381111561179b5750506000910152565b60028104600182168061449b57607f821691505b602082108114156144ae576144ae614564565b50919050565b601f19601f830116810181811067ffffffffffffffff821117156144da576144da6145a6565b6040525050565b60006000198214156144f5576144f5614522565b5060010190565b6000610b33826000610b338260601b90565b60008261451d5761451d614538565b500690565b634e487b7160e01b600052601160045260246000fd5b634e487b7160e01b600052601260045260246000fd5b634e487b7160e01b600052602160045260246000fd5b634e487b7160e01b600052602260045260246000fd5b634e487b7160e01b600052603160045260246000fd5b634e487b7160e01b600052603260045260246000fd5b634e487b7160e01b600052604160045260246000fd5b6145c58161443e565b8114610fec57600080fd5b8015156145c5565b6001600160e01b031981166145c5565b806145c556fea2646970667358221220febed39483909f06a44f8df7ea4224ad93e4dc5224c55892161ced9d0f48b45e64736f6c63430008070033",
  "devdoc": {
    "kind": "dev",
    "methods": {
      "approve(address,uint256)": {
        "details": "See {IERC721-approve}."
      },
      "balanceOf(address)": {
        "details": "See {IERC721-balanceOf}."
      },
      "getApproved(uint256)": {
        "details": "See {IERC721-getApproved}."
      },
      "isApprovedForAll(address,address)": {
        "details": "See {IERC721-isApprovedForAll}."
      },
      "name()": {
        "details": "See {IERC721Metadata-name}."
      },
      "owner()": {
        "details": "Returns the address of the current owner."
      },
      "ownerOf(uint256)": {
        "details": "See {IERC721-ownerOf}."
      },
      "renounceOwnership()": {
        "details": "Leaves the contract without owner. It will not be possible to call `onlyOwner` functions anymore. Can only be called by the current owner. NOTE: Renouncing ownership will leave the contract without an owner, thereby removing any functionality that is only available to the owner."
      },
      "safeTransferFrom(address,address,uint256)": {
        "details": "See {IERC721-safeTransferFrom}."
      },
      "safeTransferFrom(address,address,uint256,bytes)": {
        "details": "See {IERC721-safeTransferFrom}."
      },
      "setApprovalForAll(address,bool)": {
        "details": "See {IERC721-setApprovalForAll}."
      },
      "supportsInterface(bytes4)": {
        "details": "See {IERC165-supportsInterface}."
      },
      "symbol()": {
        "details": "See {IERC721Metadata-symbol}."
      },
      "tokenByIndex(uint256)": {
        "details": "See {IERC721Enumerable-tokenByIndex}."
      },
      "tokenOfOwnerByIndex(address,uint256)": {
        "details": "See {IERC721Enumerable-tokenOfOwnerByIndex}."
      },
      "tokenURI(uint256)": {
        "details": "See {IERC721Metadata-tokenURI}."
      },
      "totalSupply()": {
        "details": "See {IERC721Enumerable-totalSupply}."
      },
      "transferFrom(address,address,uint256)": {
        "details": "See {IERC721-transferFrom}."
      },
      "transferOwnership(address)": {
        "details": "Transfers ownership of the contract to a new account (`newOwner`). Can only be called by the current owner."
      }
    },
    "version": 1
  },
  "userdoc": {
    "events": {
      "TokenURIUpdated(uint256,string)": {
        "notice": "EVENTS "
      }
    },
    "kind": "user",
    "methods": {
      "constructor": {
        "notice": "METHODS "
      }
    },
    "version": 1
  },
  "storageLayout": {
    "storage": [
      {
        "astId": 170,
        "contract": "contracts/NFTiff.sol:NFTiff",
        "label": "_name",
        "offset": 0,
        "slot": "0",
        "type": "t_string_storage"
      },
      {
        "astId": 172,
        "contract": "contracts/NFTiff.sol:NFTiff",
        "label": "_symbol",
        "offset": 0,
        "slot": "1",
        "type": "t_string_storage"
      },
      {
        "astId": 176,
        "contract": "contracts/NFTiff.sol:NFTiff",
        "label": "_owners",
        "offset": 0,
        "slot": "2",
        "type": "t_mapping(t_uint256,t_address)"
      },
      {
        "astId": 180,
        "contract": "contracts/NFTiff.sol:NFTiff",
        "label": "_balances",
        "offset": 0,
        "slot": "3",
        "type": "t_mapping(t_address,t_uint256)"
      },
      {
        "astId": 184,
        "contract": "contracts/NFTiff.sol:NFTiff",
        "label": "_tokenApprovals",
        "offset": 0,
        "slot": "4",
        "type": "t_mapping(t_uint256,t_address)"
      },
      {
        "astId": 190,
        "contract": "contracts/NFTiff.sol:NFTiff",
        "label": "_operatorApprovals",
        "offset": 0,
        "slot": "5",
        "type": "t_mapping(t_address,t_mapping(t_address,t_bool))"
      },
      {
        "astId": 1159,
        "contract": "contracts/NFTiff.sol:NFTiff",
        "label": "_ownedTokens",
        "offset": 0,
        "slot": "6",
        "type": "t_mapping(t_address,t_mapping(t_uint256,t_uint256))"
      },
      {
        "astId": 1163,
        "contract": "contracts/NFTiff.sol:NFTiff",
        "label": "_ownedTokensIndex",
        "offset": 0,
        "slot": "7",
        "type": "t_mapping(t_uint256,t_uint256)"
      },
      {
        "astId": 1166,
        "contract": "contracts/NFTiff.sol:NFTiff",
        "label": "_allTokens",
        "offset": 0,
        "slot": "8",
        "type": "t_array(t_uint256)dyn_storage"
      },
      {
        "astId": 1170,
        "contract": "contracts/NFTiff.sol:NFTiff",
        "label": "_allTokensIndex",
        "offset": 0,
        "slot": "9",
        "type": "t_mapping(t_uint256,t_uint256)"
      },
      {
        "astId": 7,
        "contract": "contracts/NFTiff.sol:NFTiff",
        "label": "_owner",
        "offset": 0,
        "slot": "10",
        "type": "t_address"
      },
      {
        "astId": 115,
        "contract": "contracts/NFTiff.sol:NFTiff",
        "label": "_status",
        "offset": 0,
        "slot": "11",
        "type": "t_uint256"
      },
      {
        "astId": 2919,
        "contract": "contracts/NFTiff.sol:NFTiff",
        "label": "notRevealedUri",
        "offset": 0,
        "slot": "12",
        "type": "t_string_storage"
      },
      {
        "astId": 2923,
        "contract": "contracts/NFTiff.sol:NFTiff",
        "label": "_tokenURIs",
        "offset": 0,
        "slot": "13",
        "type": "t_mapping(t_uint256,t_string_storage)"
      },
      {
        "astId": 2926,
        "contract": "contracts/NFTiff.sol:NFTiff",
        "label": "cost",
        "offset": 0,
        "slot": "14",
        "type": "t_uint256"
      },
      {
        "astId": 2929,
        "contract": "contracts/NFTiff.sol:NFTiff",
        "label": "maxSupply",
        "offset": 0,
        "slot": "15",
        "type": "t_uint256"
      },
      {
        "astId": 2932,
        "contract": "contracts/NFTiff.sol:NFTiff",
        "label": "maxMintAmount",
        "offset": 0,
        "slot": "16",
        "type": "t_uint256"
      },
      {
        "astId": 2935,
        "contract": "contracts/NFTiff.sol:NFTiff",
        "label": "presaleActive",
        "offset": 0,
        "slot": "17",
        "type": "t_bool"
      },
      {
        "astId": 2938,
        "contract": "contracts/NFTiff.sol:NFTiff",
        "label": "publicSaleActive",
        "offset": 1,
        "slot": "17",
        "type": "t_bool"
      },
      {
        "astId": 2941,
        "contract": "contracts/NFTiff.sol:NFTiff",
        "label": "paused",
        "offset": 2,
        "slot": "17",
        "type": "t_bool"
      },
      {
        "astId": 2944,
        "contract": "contracts/NFTiff.sol:NFTiff",
        "label": "revealed",
        "offset": 3,
        "slot": "17",
        "type": "t_bool"
      },
      {
        "astId": 2947,
        "contract": "contracts/NFTiff.sol:NFTiff",
        "label": "isKycRequired",
        "offset": 4,
        "slot": "17",
        "type": "t_bool"
      },
      {
        "astId": 2949,
        "contract": "contracts/NFTiff.sol:NFTiff",
        "label": "signer",
        "offset": 5,
        "slot": "17",
        "type": "t_address"
      },
      {
        "astId": 2953,
        "contract": "contracts/NFTiff.sol:NFTiff",
        "label": "whitelistMinted",
        "offset": 0,
        "slot": "18",
        "type": "t_mapping(t_address,t_uint256)"
      },
      {
        "astId": 2957,
        "contract": "contracts/NFTiff.sol:NFTiff",
        "label": "whitelistedAddresses",
        "offset": 0,
        "slot": "19",
        "type": "t_mapping(t_address,t_bool)"
      },
      {
        "astId": 2961,
        "contract": "contracts/NFTiff.sol:NFTiff",
        "label": "blacklistedAddresses",
        "offset": 0,
        "slot": "20",
        "type": "t_mapping(t_address,t_bool)"
      },
      {
        "astId": 2965,
        "contract": "contracts/NFTiff.sol:NFTiff",
        "label": "totalClaimed",
        "offset": 0,
        "slot": "21",
        "type": "t_uint256"
      },
      {
        "astId": 2970,
        "contract": "contracts/NFTiff.sol:NFTiff",
        "label": "claimInfo",
        "offset": 0,
        "slot": "22",
        "type": "t_mapping(t_uint256,t_struct(ClaimInfo)2987_storage)"
      },
      {
        "astId": 2974,
        "contract": "contracts/NFTiff.sol:NFTiff",
        "label": "nftiffClaims",
        "offset": 0,
        "slot": "23",
        "type": "t_mapping(t_uint256,t_uint256)"
      },
      {
        "astId": 2978,
        "contract": "contracts/NFTiff.sol:NFTiff",
        "label": "punkClaims",
        "offset": 0,
        "slot": "24",
        "type": "t_mapping(t_uint256,t_uint256)"
      },
      {
        "astId": 3976,
        "contract": "contracts/NFTiff.sol:NFTiff",
        "label": "_baseTokenURI",
        "offset": 0,
        "slot": "25",
        "type": "t_string_storage"
      }
    ],
    "types": {
      "t_address": {
        "encoding": "inplace",
        "label": "address",
        "numberOfBytes": "20"
      },
      "t_array(t_uint256)dyn_storage": {
        "base": "t_uint256",
        "encoding": "dynamic_array",
        "label": "uint256[]",
        "numberOfBytes": "32"
      },
      "t_bool": {
        "encoding": "inplace",
        "label": "bool",
        "numberOfBytes": "1"
      },
      "t_mapping(t_address,t_bool)": {
        "encoding": "mapping",
        "key": "t_address",
        "label": "mapping(address => bool)",
        "numberOfBytes": "32",
        "value": "t_bool"
      },
      "t_mapping(t_address,t_mapping(t_address,t_bool))": {
        "encoding": "mapping",
        "key": "t_address",
        "label": "mapping(address => mapping(address => bool))",
        "numberOfBytes": "32",
        "value": "t_mapping(t_address,t_bool)"
      },
      "t_mapping(t_address,t_mapping(t_uint256,t_uint256))": {
        "encoding": "mapping",
        "key": "t_address",
        "label": "mapping(address => mapping(uint256 => uint256))",
        "numberOfBytes": "32",
        "value": "t_mapping(t_uint256,t_uint256)"
      },
      "t_mapping(t_address,t_uint256)": {
        "encoding": "mapping",
        "key": "t_address",
        "label": "mapping(address => uint256)",
        "numberOfBytes": "32",
        "value": "t_uint256"
      },
      "t_mapping(t_uint256,t_address)": {
        "encoding": "mapping",
        "key": "t_uint256",
        "label": "mapping(uint256 => address)",
        "numberOfBytes": "32",
        "value": "t_address"
      },
      "t_mapping(t_uint256,t_string_storage)": {
        "encoding": "mapping",
        "key": "t_uint256",
        "label": "mapping(uint256 => string)",
        "numberOfBytes": "32",
        "value": "t_string_storage"
      },
      "t_mapping(t_uint256,t_struct(ClaimInfo)2987_storage)": {
        "encoding": "mapping",
        "key": "t_uint256",
        "label": "mapping(uint256 => struct NFTiff.ClaimInfo)",
        "numberOfBytes": "32",
        "value": "t_struct(ClaimInfo)2987_storage"
      },
      "t_mapping(t_uint256,t_uint256)": {
        "encoding": "mapping",
        "key": "t_uint256",
        "label": "mapping(uint256 => uint256)",
        "numberOfBytes": "32",
        "value": "t_uint256"
      },
      "t_string_storage": {
        "encoding": "bytes",
        "label": "string",
        "numberOfBytes": "32"
      },
      "t_struct(ClaimInfo)2987_storage": {
        "encoding": "inplace",
        "label": "struct NFTiff.ClaimInfo",
        "members": [
          {
            "astId": 2980,
            "contract": "contracts/NFTiff.sol:NFTiff",
            "label": "punkId",
            "offset": 0,
            "slot": "0",
            "type": "t_uint256"
          },
          {
            "astId": 2982,
            "contract": "contracts/NFTiff.sol:NFTiff",
            "label": "nftiffId",
            "offset": 0,
            "slot": "1",
            "type": "t_uint256"
          },
          {
            "astId": 2984,
            "contract": "contracts/NFTiff.sol:NFTiff",
            "label": "timestamp",
            "offset": 0,
            "slot": "2",
            "type": "t_uint256"
          },
          {
            "astId": 2986,
            "contract": "contracts/NFTiff.sol:NFTiff",
            "label": "claimer",
            "offset": 0,
            "slot": "3",
            "type": "t_address"
          }
        ],
        "numberOfBytes": "128"
      },
      "t_uint256": {
        "encoding": "inplace",
        "label": "uint256",
        "numberOfBytes": "32"
      }
    }
  }
}