{
  "address": "0xfaD4ab005848C73a8dDAB4b5cb0d3824815209d9",
  "abi": [
    {
      "inputs": [
        {
          "internalType": "string",
          "name": "_initNotRevealedUri",
          "type": "string"
        },
        {
          "internalType": "address",
          "name": "punksContract_",
          "type": "address"
        }
      ],
      "stateMutability": "nonpayable",
      "type": "constructor"
    },
    {
      "anonymous": false,
      "inputs": [
        {
          "indexed": true,
          "internalType": "address",
          "name": "owner",
          "type": "address"
        },
        {
          "indexed": true,
          "internalType": "address",
          "name": "approved",
          "type": "address"
        },
        {
          "indexed": true,
          "internalType": "uint256",
          "name": "tokenId",
          "type": "uint256"
        }
      ],
      "name": "Approval",
      "type": "event"
    },
    {
      "anonymous": false,
      "inputs": [
        {
          "indexed": true,
          "internalType": "address",
          "name": "owner",
          "type": "address"
        },
        {
          "indexed": true,
          "internalType": "address",
          "name": "operator",
          "type": "address"
        },
        {
          "indexed": false,
          "internalType": "bool",
          "name": "approved",
          "type": "bool"
        }
      ],
      "name": "ApprovalForAll",
      "type": "event"
    },
    {
      "anonymous": false,
      "inputs": [
        {
          "indexed": false,
          "internalType": "uint256",
          "name": "claimId",
          "type": "uint256"
        },
        {
          "indexed": true,
          "internalType": "address",
          "name": "to",
          "type": "address"
        },
        {
          "indexed": false,
          "internalType": "uint256",
          "name": "punkId",
          "type": "uint256"
        },
        {
          "indexed": false,
          "internalType": "uint256",
          "name": "nftiffId",
          "type": "uint256"
        },
        {
          "indexed": false,
          "internalType": "uint256",
          "name": "timestamp",
          "type": "uint256"
        }
      ],
      "name": "Claimed",
      "type": "event"
    },
    {
      "anonymous": false,
      "inputs": [
        {
          "indexed": true,
          "internalType": "address",
          "name": "to",
          "type": "address"
        },
        {
          "indexed": true,
          "internalType": "uint256",
          "name": "tokenId",
          "type": "uint256"
        }
      ],
      "name": "NFTiffMinted",
      "type": "event"
    },
    {
      "anonymous": false,
      "inputs": [
        {
          "indexed": true,
          "internalType": "address",
          "name": "previousOwner",
          "type": "address"
        },
        {
          "indexed": true,
          "internalType": "address",
          "name": "newOwner",
          "type": "address"
        }
      ],
      "name": "OwnershipTransferred",
      "type": "event"
    },
    {
      "anonymous": false,
      "inputs": [
        {
          "indexed": true,
          "internalType": "uint256",
          "name": "tokenId",
          "type": "uint256"
        },
        {
          "indexed": false,
          "internalType": "string",
          "name": "uri",
          "type": "string"
        }
      ],
      "name": "TokenURIUpdated",
      "type": "event"
    },
    {
      "anonymous": false,
      "inputs": [
        {
          "indexed": true,
          "internalType": "address",
          "name": "from",
          "type": "address"
        },
        {
          "indexed": true,
          "internalType": "address",
          "name": "to",
          "type": "address"
        },
        {
          "indexed": true,
          "internalType": "uint256",
          "name": "tokenId",
          "type": "uint256"
        }
      ],
      "name": "Transfer",
      "type": "event"
    },
    {
      "inputs": [
        {
          "internalType": "address",
          "name": "to",
          "type": "address"
        },
        {
          "internalType": "uint256",
          "name": "tokenId",
          "type": "uint256"
        }
      ],
      "name": "approve",
      "outputs": [],
      "stateMutability": "nonpayable",
      "type": "function"
    },
    {
      "inputs": [
        {
          "internalType": "address",
          "name": "owner",
          "type": "address"
        }
      ],
      "name": "balanceOf",
      "outputs": [
        {
          "internalType": "uint256",
          "name": "",
          "type": "uint256"
        }
      ],
      "stateMutability": "view",
      "type": "function"
    },
    {
      "inputs": [
        {
          "internalType": "address[]",
          "name": "addresses",
          "type": "address[]"
        }
      ],
      "name": "blacklistUsers",
      "outputs": [],
      "stateMutability": "nonpayable",
      "type": "function"
    },
    {
      "inputs": [
        {
          "internalType": "address",
          "name": "",
          "type": "address"
        }
      ],
      "name": "blacklistedAddresses",
      "outputs": [
        {
          "internalType": "bool",
          "name": "",
          "type": "bool"
        }
      ],
      "stateMutability": "view",
      "type": "function"
    },
    {
      "inputs": [
        {
          "internalType": "uint256",
          "name": "punk_",
          "type": "uint256"
        },
        {
          "internalType": "uint256",
          "name": "nftiff_",
          "type": "uint256"
        },
        {
          "internalType": "bytes",
          "name": "_signature",
          "type": "bytes"
        }
      ],
      "name": "claim",
      "outputs": [],
      "stateMutability": "payable",
      "type": "function"
    },
    {
      "inputs": [
        {
          "internalType": "uint256",
          "name": "",
          "type": "uint256"
        }
      ],
      "name": "claimInfo",
      "outputs": [
        {
          "internalType": "uint256",
          "name": "punkId",
          "type": "uint256"
        },
        {
          "internalType": "uint256",
          "name": "nftiffId",
          "type": "uint256"
        },
        {
          "internalType": "uint256",
          "name": "timestamp",
          "type": "uint256"
        },
        {
          "internalType": "address",
          "name": "claimer",
          "type": "address"
        }
      ],
      "stateMutability": "view",
      "type": "function"
    },
    {
      "inputs": [],
      "name": "cost",
      "outputs": [
        {
          "internalType": "uint256",
          "name": "",
          "type": "uint256"
        }
      ],
      "stateMutability": "view",
      "type": "function"
    },
    {
      "inputs": [
        {
          "internalType": "uint256",
          "name": "tokenId",
          "type": "uint256"
        }
      ],
      "name": "getApproved",
      "outputs": [
        {
          "internalType": "address",
          "name": "",
          "type": "address"
        }
      ],
      "stateMutability": "view",
      "type": "function"
    },
    {
      "inputs": [],
      "name": "getContractBalance",
      "outputs": [
        {
          "internalType": "uint256",
          "name": "",
          "type": "uint256"
        }
      ],
      "stateMutability": "view",
      "type": "function"
    },
    {
      "inputs": [],
      "name": "getSigner",
      "outputs": [
        {
          "internalType": "address",
          "name": "",
          "type": "address"
        }
      ],
      "stateMutability": "view",
      "type": "function"
    },
    {
      "inputs": [
        {
          "internalType": "address",
          "name": "_user",
          "type": "address"
        }
      ],
      "name": "getWhitelist",
      "outputs": [
        {
          "internalType": "uint256",
          "name": "",
          "type": "uint256"
        }
      ],
      "stateMutability": "view",
      "type": "function"
    },
    {
      "inputs": [
        {
          "internalType": "uint256",
          "name": "_mintAmount",
          "type": "uint256"
        },
        {
          "internalType": "address",
          "name": "destination",
          "type": "address"
        }
      ],
      "name": "gift",
      "outputs": [],
      "stateMutability": "nonpayable",
      "type": "function"
    },
    {
      "inputs": [
        {
          "internalType": "address",
          "name": "owner",
          "type": "address"
        },
        {
          "internalType": "address",
          "name": "operator",
          "type": "address"
        }
      ],
      "name": "isApprovedForAll",
      "outputs": [
        {
          "internalType": "bool",
          "name": "",
          "type": "bool"
        }
      ],
      "stateMutability": "view",
      "type": "function"
    },
    {
      "inputs": [
        {
          "internalType": "address",
          "name": "_user",
          "type": "address"
        }
      ],
      "name": "isBlacklisted",
      "outputs": [
        {
          "internalType": "bool",
          "name": "",
          "type": "bool"
        }
      ],
      "stateMutability": "view",
      "type": "function"
    },
    {
      "inputs": [],
      "name": "isKycRequired",
      "outputs": [
        {
          "internalType": "bool",
          "name": "",
          "type": "bool"
        }
      ],
      "stateMutability": "view",
      "type": "function"
    },
    {
      "inputs": [],
      "name": "maxMintAmount",
      "outputs": [
        {
          "internalType": "uint256",
          "name": "",
          "type": "uint256"
        }
      ],
      "stateMutability": "view",
      "type": "function"
    },
    {
      "inputs": [],
      "name": "maxSupply",
      "outputs": [
        {
          "internalType": "uint256",
          "name": "",
          "type": "uint256"
        }
      ],
      "stateMutability": "view",
      "type": "function"
    },
    {
      "inputs": [
        {
          "internalType": "uint256",
          "name": "_mintAmount",
          "type": "uint256"
        },
        {
          "internalType": "bytes",
          "name": "_signature",
          "type": "bytes"
        }
      ],
      "name": "mint1",
      "outputs": [],
      "stateMutability": "payable",
      "type": "function"
    },
    {
      "inputs": [
        {
          "internalType": "uint256",
          "name": "_mintAmount",
          "type": "uint256"
        }
      ],
      "name": "mintPublic",
      "outputs": [],
      "stateMutability": "payable",
      "type": "function"
    },
    {
      "inputs": [],
      "name": "name",
      "outputs": [
        {
          "internalType": "string",
          "name": "",
          "type": "string"
        }
      ],
      "stateMutability": "view",
      "type": "function"
    },
    {
      "inputs": [
        {
          "internalType": "uint256",
          "name": "",
          "type": "uint256"
        }
      ],
      "name": "nftiffClaims",
      "outputs": [
        {
          "internalType": "uint256",
          "name": "",
          "type": "uint256"
        }
      ],
      "stateMutability": "view",
      "type": "function"
    },
    {
      "inputs": [],
      "name": "notRevealedUri",
      "outputs": [
        {
          "internalType": "string",
          "name": "",
          "type": "string"
        }
      ],
      "stateMutability": "view",
      "type": "function"
    },
    {
      "inputs": [],
      "name": "owner",
      "outputs": [
        {
          "internalType": "address",
          "name": "",
          "type": "address"
        }
      ],
      "stateMutability": "view",
      "type": "function"
    },
    {
      "inputs": [
        {
          "internalType": "uint256",
          "name": "tokenId",
          "type": "uint256"
        }
      ],
      "name": "ownerOf",
      "outputs": [
        {
          "internalType": "address",
          "name": "",
          "type": "address"
        }
      ],
      "stateMutability": "view",
      "type": "function"
    },
    {
      "inputs": [
        {
          "internalType": "bool",
          "name": "_state",
          "type": "bool"
        }
      ],
      "name": "pause",
      "outputs": [],
      "stateMutability": "nonpayable",
      "type": "function"
    },
    {
      "inputs": [],
      "name": "paused",
      "outputs": [
        {
          "internalType": "bool",
          "name": "",
          "type": "bool"
        }
      ],
      "stateMutability": "view",
      "type": "function"
    },
    {
      "inputs": [],
      "name": "presaleActive",
      "outputs": [
        {
          "internalType": "bool",
          "name": "",
          "type": "bool"
        }
      ],
      "stateMutability": "view",
      "type": "function"
    },
    {
      "inputs": [],
      "name": "publicSaleActive",
      "outputs": [
        {
          "internalType": "bool",
          "name": "",
          "type": "bool"
        }
      ],
      "stateMutability": "view",
      "type": "function"
    },
    {
      "inputs": [
        {
          "internalType": "uint256",
          "name": "",
          "type": "uint256"
        }
      ],
      "name": "punkClaims",
      "outputs": [
        {
          "internalType": "uint256",
          "name": "",
          "type": "uint256"
        }
      ],
      "stateMutability": "view",
      "type": "function"
    },
    {
      "inputs": [],
      "name": "punksContract",
      "outputs": [
        {
          "internalType": "address",
          "name": "",
          "type": "address"
        }
      ],
      "stateMutability": "view",
      "type": "function"
    },
    {
      "inputs": [],
      "name": "renounceOwnership",
      "outputs": [],
      "stateMutability": "nonpayable",
      "type": "function"
    },
    {
      "inputs": [],
      "name": "reveal",
      "outputs": [],
      "stateMutability": "nonpayable",
      "type": "function"
    },
    {
      "inputs": [],
      "name": "revealed",
      "outputs": [
        {
          "internalType": "bool",
          "name": "",
          "type": "bool"
        }
      ],
      "stateMutability": "view",
      "type": "function"
    },
    {
      "inputs": [
        {
          "internalType": "address",
          "name": "from",
          "type": "address"
        },
        {
          "internalType": "address",
          "name": "to",
          "type": "address"
        },
        {
          "internalType": "uint256",
          "name": "tokenId",
          "type": "uint256"
        }
      ],
      "name": "safeTransferFrom",
      "outputs": [],
      "stateMutability": "nonpayable",
      "type": "function"
    },
    {
      "inputs": [
        {
          "internalType": "address",
          "name": "from",
          "type": "address"
        },
        {
          "internalType": "address",
          "name": "to",
          "type": "address"
        },
        {
          "internalType": "uint256",
          "name": "tokenId",
          "type": "uint256"
        },
        {
          "internalType": "bytes",
          "name": "_data",
          "type": "bytes"
        }
      ],
      "name": "safeTransferFrom",
      "outputs": [],
      "stateMutability": "nonpayable",
      "type": "function"
    },
    {
      "inputs": [
        {
          "internalType": "address",
          "name": "operator",
          "type": "address"
        },
        {
          "internalType": "bool",
          "name": "approved",
          "type": "bool"
        }
      ],
      "name": "setApprovalForAll",
      "outputs": [],
      "stateMutability": "nonpayable",
      "type": "function"
    },
    {
      "inputs": [
        {
          "internalType": "uint256",
          "name": "_newCost",
          "type": "uint256"
        }
      ],
      "name": "setCost",
      "outputs": [],
      "stateMutability": "nonpayable",
      "type": "function"
    },
    {
      "inputs": [
        {
          "internalType": "bool",
          "name": "_required",
          "type": "bool"
        }
      ],
      "name": "setKycRequired",
      "outputs": [],
      "stateMutability": "nonpayable",
      "type": "function"
    },
    {
      "inputs": [
        {
          "internalType": "uint256",
          "name": "_maxSupply",
          "type": "uint256"
        }
      ],
      "name": "setMaxSupply",
      "outputs": [],
      "stateMutability": "nonpayable",
      "type": "function"
    },
    {
      "inputs": [
        {
          "internalType": "string",
          "name": "_notRevealedURI",
          "type": "string"
        }
      ],
      "name": "setNotRevealedURI",
      "outputs": [],
      "stateMutability": "nonpayable",
      "type": "function"
    },
    {
      "inputs": [
        {
          "internalType": "bool",
          "name": "_saleActive",
          "type": "bool"
        }
      ],
      "name": "setPresaleStatus",
      "outputs": [],
      "stateMutability": "nonpayable",
      "type": "function"
    },
    {
      "inputs": [
        {
          "internalType": "bool",
          "name": "_saleActive",
          "type": "bool"
        }
      ],
      "name": "setPublicSaleStatus",
      "outputs": [],
      "stateMutability": "nonpayable",
      "type": "function"
    },
    {
      "inputs": [
        {
          "internalType": "address",
          "name": "signer_",
          "type": "address"
        }
      ],
      "name": "setSigner",
      "outputs": [],
      "stateMutability": "nonpayable",
      "type": "function"
    },
    {
      "inputs": [
        {
          "internalType": "uint256",
          "name": "tokenId",
          "type": "uint256"
        },
        {
          "internalType": "string",
          "name": "_uri",
          "type": "string"
        }
      ],
      "name": "setTokenURI",
      "outputs": [],
      "stateMutability": "nonpayable",
      "type": "function"
    },
    {
      "inputs": [
        {
          "internalType": "uint256",
          "name": "_newmaxMintAmount",
          "type": "uint256"
        }
      ],
      "name": "setmaxMintAmount",
      "outputs": [],
      "stateMutability": "nonpayable",
      "type": "function"
    },
    {
      "inputs": [],
      "name": "signer",
      "outputs": [
        {
          "internalType": "address",
          "name": "",
          "type": "address"
        }
      ],
      "stateMutability": "view",
      "type": "function"
    },
    {
      "inputs": [
        {
          "internalType": "bytes4",
          "name": "interfaceId",
          "type": "bytes4"
        }
      ],
      "name": "supportsInterface",
      "outputs": [
        {
          "internalType": "bool",
          "name": "",
          "type": "bool"
        }
      ],
      "stateMutability": "view",
      "type": "function"
    },
    {
      "inputs": [],
      "name": "symbol",
      "outputs": [
        {
          "internalType": "string",
          "name": "",
          "type": "string"
        }
      ],
      "stateMutability": "view",
      "type": "function"
    },
    {
      "inputs": [
        {
          "internalType": "uint256",
          "name": "index",
          "type": "uint256"
        }
      ],
      "name": "tokenByIndex",
      "outputs": [
        {
          "internalType": "uint256",
          "name": "",
          "type": "uint256"
        }
      ],
      "stateMutability": "view",
      "type": "function"
    },
    {
      "inputs": [
        {
          "internalType": "address",
          "name": "owner",
          "type": "address"
        },
        {
          "internalType": "uint256",
          "name": "index",
          "type": "uint256"
        }
      ],
      "name": "tokenOfOwnerByIndex",
      "outputs": [
        {
          "internalType": "uint256",
          "name": "",
          "type": "uint256"
        }
      ],
      "stateMutability": "view",
      "type": "function"
    },
    {
      "inputs": [
        {
          "internalType": "uint256",
          "name": "tokenId",
          "type": "uint256"
        }
      ],
      "name": "tokenURI",
      "outputs": [
        {
          "internalType": "string",
          "name": "",
          "type": "string"
        }
      ],
      "stateMutability": "view",
      "type": "function"
    },
    {
      "inputs": [],
      "name": "totalClaimed",
      "outputs": [
        {
          "internalType": "uint256",
          "name": "",
          "type": "uint256"
        }
      ],
      "stateMutability": "view",
      "type": "function"
    },
    {
      "inputs": [],
      "name": "totalSupply",
      "outputs": [
        {
          "internalType": "uint256",
          "name": "",
          "type": "uint256"
        }
      ],
      "stateMutability": "view",
      "type": "function"
    },
    {
      "inputs": [
        {
          "internalType": "address",
          "name": "from",
          "type": "address"
        },
        {
          "internalType": "address",
          "name": "to",
          "type": "address"
        },
        {
          "internalType": "uint256",
          "name": "tokenId",
          "type": "uint256"
        }
      ],
      "name": "transferFrom",
      "outputs": [],
      "stateMutability": "nonpayable",
      "type": "function"
    },
    {
      "inputs": [
        {
          "internalType": "address",
          "name": "newOwner",
          "type": "address"
        }
      ],
      "name": "transferOwnership",
      "outputs": [],
      "stateMutability": "nonpayable",
      "type": "function"
    },
    {
      "inputs": [
        {
          "internalType": "address",
          "name": "_owner",
          "type": "address"
        }
      ],
      "name": "walletOfOwner",
      "outputs": [
        {
          "internalType": "uint256[]",
          "name": "",
          "type": "uint256[]"
        }
      ],
      "stateMutability": "view",
      "type": "function"
    },
    {
      "inputs": [
        {
          "internalType": "address[]",
          "name": "addresses",
          "type": "address[]"
        }
      ],
      "name": "whitelistUsers",
      "outputs": [],
      "stateMutability": "nonpayable",
      "type": "function"
    },
    {
      "inputs": [
        {
          "internalType": "address",
          "name": "",
          "type": "address"
        }
      ],
      "name": "whitelists",
      "outputs": [
        {
          "internalType": "uint256",
          "name": "",
          "type": "uint256"
        }
      ],
      "stateMutability": "view",
      "type": "function"
    },
    {
      "inputs": [],
      "name": "withdraw",
      "outputs": [],
      "stateMutability": "payable",
      "type": "function"
    }
  ],
  "transactionHash": "0x3695027ff04d497ea19e437a8c6ff2cb107a77f384c42209a6c2aaec18e48e64",
  "args": [
    "",
    "0x0ece5312f66002b4103FBb6A0ff4ad90aF52f91a"
  ],
  "solcInputHash": "6128546b012650d9959c868d15d39cb5",
  "bytecode": "0x60a06040526801a055690d9db80000600e556101f4600f5560026010556011805464ffffffffff19166401000000001790553480156200003e57600080fd5b50604051620043e2380380620043e28339810160408190526200006191620002f0565b60408051808201825260068082526527232a34b33360d11b602080840182815285518087019096529285528401528151919291620000a291600091620001be565b508051620000b8906001906020840190620001be565b505050620000d5620000cf6200011960201b60201c565b6200011d565b6001600b55620000e5826200016f565b60118054600160281b600160c81b03191633650100000000000217905560601b6001600160601b03191660805250620004c0565b3390565b600a80546001600160a01b038381166001600160a01b0319831681179093556040519116919082907f8be0079c531659141344cd1fd0a4f28419497f9722a3daafe3b4186f6b6457e090600090a35050565b600a546001600160a01b03163314620001a55760405162461bcd60e51b81526004016200019c906200034e565b60405180910390fd5b8051620001ba90600c906020840190620001be565b5050565b828054620001cc906200041a565b90600052602060002090601f016020900481019282620001f057600085556200023b565b82601f106200020b57805160ff19168380011785556200023b565b828001600101855582156200023b579182015b828111156200023b5782518255916020019190600101906200021e565b50620002499291506200024d565b5090565b5b808211156200024957600081556001016200024e565b60006200027b6200027584620003a8565b62000389565b905082815260208101848484011115620002985762000298600080fd5b620002a5848285620003e7565b509392505050565b8051620002ba81620004a6565b92915050565b600082601f830112620002d657620002d6600080fd5b8151620002e884826020860162000264565b949350505050565b60008060408385031215620003085762000308600080fd5b82516001600160401b03811115620003235762000323600080fd5b6200033185828601620002c0565b92505060206200034485828601620002ad565b9150509250929050565b60208082528181019081527f4f776e61626c653a2063616c6c6572206973206e6f7420746865206f776e6572604083015260608201620002ba565b60006200039560405190565b9050620003a382826200044b565b919050565b60006001600160401b03821115620003c457620003c462000490565b601f19601f83011660200192915050565b60006001600160a01b038216620002ba565b60005b8381101562000404578181015183820152602001620003ea565b8381111562000414576000848401525b50505050565b6002810460018216806200042f57607f821691505b602082108114156200044557620004456200047a565b50919050565b601f19601f83011681018181106001600160401b038211171562000473576200047362000490565b6040525050565b634e487b7160e01b600052602260045260246000fd5b634e487b7160e01b600052604160045260246000fd5b620004b181620003d5565b8114620004bd57600080fd5b50565b60805160601c613efc620004e660003960008181610a46015261120a0152613efc6000f3fe60806040526004361061038c5760003560e01c80636f8b44b0116101dc578063b423fe6711610102578063d5abeb01116100a0578063efd0cbf91161006f578063efd0cbf914610ad1578063f2c4ce1e14610ae4578063f2fde38b14610b04578063fe575a8714610b2457600080fd5b8063d5abeb0114610a1e578063e46317b514610a34578063e985e9c514610a68578063edec5f2714610ab157600080fd5b8063bc8893b4116100dc578063bc8893b414610999578063c87b56dd146109b8578063d54ad2a1146109d8578063d5749d42146109ee57600080fd5b8063b423fe6714610939578063b88d4fde14610959578063bb3d676a1461097957600080fd5b806383a076be1161017a57806395d89b411161014957806395d89b41146108c2578063a1d557c5146108d7578063a22cb46514610904578063a475b5dd1461092457600080fd5b806383a076be146108515780638895283f146108715780638b9a10d7146108915780638da5cb5b146108a457600080fd5b8063715018a6116101b6578063715018a6146107da5780637ac3c02f146107ef5780637c25d647146108045780637f00c7a61461083157600080fd5b80636f8b44b0146107855780636f9fb98a146107a557806370a08231146107ba57600080fd5b80632f745c59116102c15780634f6ccce71161025f5780635c975abb1161022e5780635c975abb146107125780635eddd157146107325780636352211e146107455780636c19e7831461076557600080fd5b80634f6ccce71461065c578063518302271461067c57806353135ca01461069d5780635c362233146106b757600080fd5b80633e4191dc1161029b5780633e4191dc146105cd57806342842e0e146105ef578063438b63001461060f57806344a0d68a1461063c57600080fd5b80632f745c591461056f57806330edc0f51461058f5780633ccfd60b146105c557600080fd5b8063150909f71161032e5780631e7be210116103085780631e7be210146104e5578063238ac93314610512578063239c70ae1461053957806323b872dd1461054f57600080fd5b8063150909f714610490578063162094c4146104b057806318160ddd146104d057600080fd5b8063081812fc1161036a578063081812fc1461040b578063081c8c4414610438578063095ea7b31461044d57806313faede61461046d57600080fd5b806301ffc9a71461039157806302329a29146103c757806306fdde03146103e9575b600080fd5b34801561039d57600080fd5b506103b16103ac366004612dbd565b610b5d565b6040516103be9190613981565b60405180910390f35b3480156103d357600080fd5b506103e76103e2366004612d9c565b610b88565b005b3480156103f557600080fd5b506103fe610bd7565b6040516103be91906139cd565b34801561041757600080fd5b5061042b610426366004612e3a565b610c69565b6040516103be9190613917565b34801561044457600080fd5b506103fe610cb9565b34801561045957600080fd5b506103e7610468366004612d2e565b610d47565b34801561047957600080fd5b50610483600e5481565b6040516103be9190613c2e565b34801561049c57600080fd5b506103e76104ab366004612d9c565b610dcd565b3480156104bc57600080fd5b506103e76104cb366004612e7d565b610e17565b3480156104dc57600080fd5b50600854610483565b3480156104f157600080fd5b50610483610500366004612bad565b60126020526000908152604090205481565b34801561051e57600080fd5b5060115461042b90600160281b90046001600160a01b031681565b34801561054557600080fd5b5061048360105481565b34801561055b57600080fd5b506103e761056a366004612c2c565b610e9d565b34801561057b57600080fd5b5061048361058a366004612d2e565b610ece565b34801561059b57600080fd5b506104836105aa366004612bad565b6001600160a01b031660009081526012602052604090205490565b6103e7610f20565b3480156105d957600080fd5b506011546103b190640100000000900460ff1681565b3480156105fb57600080fd5b506103e761060a366004612c2c565b610fb6565b34801561061b57600080fd5b5061062f61062a366004612bad565b610fd1565b6040516103be9190613969565b34801561064857600080fd5b506103e7610657366004612e3a565b611073565b34801561066857600080fd5b50610483610677366004612e3a565b6110a2565b34801561068857600080fd5b506011546103b1906301000000900460ff1681565b3480156106a957600080fd5b506011546103b19060ff1681565b3480156106c357600080fd5b506107026106d2366004612e3a565b6015602052600090815260409020805460018201546002830154600390930154919290916001600160a01b031684565b6040516103be9493929190613c3c565b34801561071e57600080fd5b506011546103b19062010000900460ff1681565b6103e7610740366004612ecb565b6110f0565b34801561075157600080fd5b5061042b610760366004612e3a565b61141f565b34801561077157600080fd5b506103e7610780366004612bad565b611454565b34801561079157600080fd5b506103e76107a0366004612e3a565b6114ac565b3480156107b157600080fd5b506104836114db565b3480156107c657600080fd5b506104836107d5366004612bad565b61150d565b3480156107e657600080fd5b506103e7611551565b3480156107fb57600080fd5b5061042b611587565b34801561081057600080fd5b5061048361081f366004612e3a565b60166020526000908152604090205481565b34801561083d57600080fd5b506103e761084c366004612e3a565b6115cb565b34801561085d57600080fd5b506103e761086c366004612e5b565b6115fa565b34801561087d57600080fd5b506103e761088c366004612d9c565b6116f0565b6103e761089f366004612e7d565b61172d565b3480156108b057600080fd5b50600a546001600160a01b031661042b565b3480156108ce57600080fd5b506103fe61191e565b3480156108e357600080fd5b506104836108f2366004612e3a565b60176020526000908152604090205481565b34801561091057600080fd5b506103e761091f366004612cfb565b61192d565b34801561093057600080fd5b506103e761193c565b34801561094557600080fd5b506103e7610954366004612d9c565b61197b565b34801561096557600080fd5b506103e7610974366004612c7c565b6119bf565b34801561098557600080fd5b506103e7610994366004612d61565b6119f1565b3480156109a557600080fd5b506011546103b190610100900460ff1681565b3480156109c457600080fd5b506103fe6109d3366004612e3a565b611a83565b3480156109e457600080fd5b5061048360145481565b3480156109fa57600080fd5b506103b1610a09366004612bad565b60136020526000908152604090205460ff1681565b348015610a2a57600080fd5b50610483600f5481565b348015610a4057600080fd5b5061042b7f000000000000000000000000000000000000000000000000000000000000000081565b348015610a7457600080fd5b506103b1610a83366004612bef565b6001600160a01b03918216600090815260056020908152604080832093909416825291909152205460ff1690565b348015610abd57600080fd5b506103e7610acc366004612d61565b611b7b565b6103e7610adf366004612e3a565b611c08565b348015610af057600080fd5b506103e7610aff366004612dff565b611dc2565b348015610b1057600080fd5b506103e7610b1f366004612bad565b611dff565b348015610b3057600080fd5b506103b1610b3f366004612bad565b6001600160a01b031660009081526013602052604090205460ff1690565b60006001600160e01b0319821663780e9d6360e01b1480610b825750610b8282611e58565b92915050565b600a546001600160a01b03163314610bbb5760405162461bcd60e51b8152600401610bb290613b5e565b60405180910390fd5b60118054911515620100000262ff000019909216919091179055565b606060008054610be690613d89565b80601f0160208091040260200160405190810160405280929190818152602001828054610c1290613d89565b8015610c5f5780601f10610c3457610100808354040283529160200191610c5f565b820191906000526020600020905b815481529060010190602001808311610c4257829003601f168201915b5050505050905090565b6000818152600260205260408120546001600160a01b0316610c9d5760405162461bcd60e51b8152600401610bb290613b3e565b506000908152600460205260409020546001600160a01b031690565b600c8054610cc690613d89565b80601f0160208091040260200160405190810160405280929190818152602001828054610cf290613d89565b8015610d3f5780601f10610d1457610100808354040283529160200191610d3f565b820191906000526020600020905b815481529060010190602001808311610d2257829003601f168201915b505050505081565b6000610d528261141f565b9050806001600160a01b0316836001600160a01b03161415610d865760405162461bcd60e51b8152600401610bb290613b9e565b336001600160a01b0382161480610da25750610da28133610a83565b610dbe5760405162461bcd60e51b8152600401610bb290613ace565b610dc88383611ea8565b505050565b600a546001600160a01b03163314610df75760405162461bcd60e51b8152600401610bb290613b5e565b601180549115156401000000000264ff0000000019909216919091179055565b600a546001600160a01b03163314610e415760405162461bcd60e51b8152600401610bb290613b5e565b6000828152600d602090815260409091208251610e60928401906129eb565b50817f931f495b9a8e5d8e61946ea5d61e021f636cfe213a801f97589c18c152e408bd82604051610e9191906139cd565b60405180910390a25050565b610ea73382611f16565b610ec35760405162461bcd60e51b8152600401610bb290613bbe565b610dc8838383611fc8565b6000610ed98361150d565b8210610ef75760405162461bcd60e51b8152600401610bb290613a1e565b506001600160a01b03919091166000908152600660209081526040808320938352929052205490565b600a546001600160a01b03163314610f4a5760405162461bcd60e51b8152600401610bb290613b5e565b6000336001600160a01b031647604051610f639061390f565b60006040518083038185875af1925050503d8060008114610fa0576040519150601f19603f3d011682016040523d82523d6000602084013e610fa5565b606091505b5050905080610fb357600080fd5b50565b610dc8838383604051806020016040528060008152506119bf565b60606000610fde8361150d565b905060008167ffffffffffffffff811115610ffb57610ffb613e7e565b604051908082528060200260200182016040528015611024578160200160208202803683370190505b50905060005b8281101561106b5761103c8582610ece565b82828151811061104e5761104e613e68565b60209081029190910101528061106381613de3565b91505061102a565b509392505050565b600a546001600160a01b0316331461109d5760405162461bcd60e51b8152600401610bb290613b5e565b600e55565b60006110ad60085490565b82106110cb5760405162461bcd60e51b8152600401610bb290613bce565b600882815481106110de576110de613e68565b90600052602060002001549050919050565b60115462010000900460ff16156111195760405162461bcd60e51b8152600401610bb290613b7e565b6002600b54141561113c5760405162461bcd60e51b8152600401610bb290613bfe565b6002600b553360008181526013602052604090205460ff16156111715760405162461bcd60e51b8152600401610bb290613bee565b6000838152601660205260409020541561119d5760405162461bcd60e51b8152600401610bb290613b4e565b600084815260176020526040902054156111c95760405162461bcd60e51b8152600401610bb290613a8e565b336111d38461141f565b6001600160a01b0316146111f95760405162461bcd60e51b8152600401610bb290613b0e565b604051630b02f02d60e31b815233907f00000000000000000000000000000000000000000000000000000000000000006001600160a01b031690635817816890611247908890600401613c2e565b60206040518083038186803b15801561125f57600080fd5b505afa158015611273573d6000803e3d6000fd5b505050506040513d601f19601f820116820180604052508101906112979190612bce565b6001600160a01b0316146112bd5760405162461bcd60e51b8152600401610bb290613a0e565b60008484336040516020016112d493929190613894565b6040516020818303038152906040528051906020012090506000611301846112fb846120f5565b90612125565b6011549091506001600160a01b03808316600160281b90920416146113385760405162461bcd60e51b8152600401610bb290613c1e565b6014805490600061134883613de3565b90915550506014805460008781526016602090815260408083208490558a83526017825280832084905580516080810182528b81528083018b81524282840181815233606085018181529888526015909652958490209251835590516001830155935160028201559351600390940180546001600160a01b0319166001600160a01b0390951694909417909355925491517f528937b330082d892a98d4e428ab2dcca7844b51d227a1c0ae67f0b5261acbd99261140a9290918b918b91613c71565b60405180910390a250506001600b5550505050565b6000818152600260205260408120546001600160a01b031680610b825760405162461bcd60e51b8152600401610bb290613aee565b600a546001600160a01b0316331461147e5760405162461bcd60e51b8152600401610bb290613b5e565b601180546001600160a01b03909216600160281b0265010000000000600160c81b0319909216919091179055565b600a546001600160a01b031633146114d65760405162461bcd60e51b8152600401610bb290613b5e565b600f55565b600a546000906001600160a01b031633146115085760405162461bcd60e51b8152600401610bb290613b5e565b504790565b60006001600160a01b0382166115355760405162461bcd60e51b8152600401610bb290613ade565b506001600160a01b031660009081526003602052604090205490565b600a546001600160a01b0316331461157b5760405162461bcd60e51b8152600401610bb290613b5e565b6115856000612141565b565b600a546000906001600160a01b031633146115b45760405162461bcd60e51b8152600401610bb290613b5e565b50601154600160281b90046001600160a01b031690565b600a546001600160a01b031633146115f55760405162461bcd60e51b8152600401610bb290613b5e565b601055565b600a546001600160a01b031633146116245760405162461bcd60e51b8152600401610bb290613b5e565b600082116116445760405162461bcd60e51b8152600401610bb290613c0e565b600061164f60085490565b600f5490915061165f8483613cf2565b111561167d5760405162461bcd60e51b8152600401610bb290613afe565b60015b8381116116ea5761169a836116958385613cf2565b612193565b6116a48183613cf2565b6040516001600160a01b038516907fbb06c934d5d088f12f303c757020e73ec03ae3217e26be764425bb34855c8b9490600090a3806116e281613de3565b915050611680565b50505050565b600a546001600160a01b0316331461171a5760405162461bcd60e51b8152600401610bb290613b5e565b6011805460ff1916911515919091179055565b60115462010000900460ff16156117565760405162461bcd60e51b8152600401610bb290613b7e565b6002600b5414156117795760405162461bcd60e51b8152600401610bb290613bfe565b6002600b553360008181526013602052604090205460ff16156117ae5760405162461bcd60e51b8152600401610bb290613bee565b60115460ff166117d05760405162461bcd60e51b8152600401610bb2906139ee565b82600e546117de9190613d0a565b3410156117fd5760405162461bcd60e51b8152600401610bb290613bae565b6000831161181d5760405162461bcd60e51b8152600401610bb290613c0e565b3360009081526012602052604090205483111561184c5760405162461bcd60e51b8152600401610bb290613b6e565b600061185760085490565b600f549091506118678583613cf2565b11156118855760405162461bcd60e51b8152600401610bb290613afe565b61188e836121ad565b33600090815260126020526040812080548692906118ad908490613d29565b90915550600190505b848111611912576118cb336116958385613cf2565b6118d58183613cf2565b60405133907fbb06c934d5d088f12f303c757020e73ec03ae3217e26be764425bb34855c8b9490600090a38061190a81613de3565b9150506118b6565b50506001600b55505050565b606060018054610be690613d89565b611938338383612231565b5050565b600a546001600160a01b031633146119665760405162461bcd60e51b8152600401610bb290613b5e565b6011805463ff00000019166301000000179055565b600a546001600160a01b031633146119a55760405162461bcd60e51b8152600401610bb290613b5e565b601180549115156101000261ff0019909216919091179055565b6119c93383611f16565b6119e55760405162461bcd60e51b8152600401610bb290613bbe565b6116ea848484846122d4565b600a546001600160a01b03163314611a1b5760405162461bcd60e51b8152600401610bb290613b5e565b60005b815181101561193857600160136000848481518110611a3f57611a3f613e68565b6020908102919091018101516001600160a01b03168252810191909152604001600020805460ff191691151591909117905580611a7b81613de3565b915050611a1e565b6000818152600260205260409020546060906001600160a01b0316611aba5760405162461bcd60e51b8152600401610bb290613b8e565b6011546301000000900460ff16611b5d57600c8054611ad890613d89565b80601f0160208091040260200160405190810160405280929190818152602001828054611b0490613d89565b8015611b515780601f10611b2657610100808354040283529160200191611b51565b820191906000526020600020905b815481529060010190602001808311611b3457829003601f168201915b50505050509050919050565b6000828152600d602052604090208054611ad890613d89565b919050565b600a546001600160a01b03163314611ba55760405162461bcd60e51b8152600401610bb290613b5e565b60005b815181101561193857600260126000848481518110611bc957611bc9613e68565b60200260200101516001600160a01b03166001600160a01b03168152602001908152602001600020819055508080611c0090613de3565b915050611ba8565b60115462010000900460ff1615611c315760405162461bcd60e51b8152600401610bb290613b7e565b6002600b541415611c545760405162461bcd60e51b8152600401610bb290613bfe565b6002600b553360008181526013602052604090205460ff1615611c895760405162461bcd60e51b8152600401610bb290613bee565b601154610100900460ff16611cb05760405162461bcd60e51b8152600401610bb2906139ee565b81600e54611cbe9190613d0a565b341015611cdd5760405162461bcd60e51b8152600401610bb290613bae565b60008211611cfd5760405162461bcd60e51b8152600401610bb290613c0e565b601054821115611d1f5760405162461bcd60e51b8152600401610bb290613aae565b6000611d2a60085490565b600f54909150611d3a8483613cf2565b1115611d585760405162461bcd60e51b8152600401610bb290613afe565b60015b838111611db757611d70336116958385613cf2565b611d7a8183613cf2565b60405133907fbb06c934d5d088f12f303c757020e73ec03ae3217e26be764425bb34855c8b9490600090a380611daf81613de3565b915050611d5b565b50506001600b555050565b600a546001600160a01b03163314611dec5760405162461bcd60e51b8152600401610bb290613b5e565b805161193890600c9060208401906129eb565b600a546001600160a01b03163314611e295760405162461bcd60e51b8152600401610bb290613b5e565b6001600160a01b038116611e4f5760405162461bcd60e51b8152600401610bb290613a3e565b610fb381612141565b60006001600160e01b031982166380ac58cd60e01b1480611e8957506001600160e01b03198216635b5e139f60e01b145b80610b8257506301ffc9a760e01b6001600160e01b0319831614610b82565b600081815260046020526040902080546001600160a01b0319166001600160a01b0384169081179091558190611edd8261141f565b6001600160a01b03167f8c5be1e5ebec7d5bd14f71427d1e84f3dd0314c0f7b2291e5b200ac8c7c3b92560405160405180910390a45050565b6000818152600260205260408120546001600160a01b0316611f4a5760405162461bcd60e51b8152600401610bb290613abe565b6000611f558361141f565b9050806001600160a01b0316846001600160a01b03161480611f905750836001600160a01b0316611f8584610c69565b6001600160a01b0316145b80611fc057506001600160a01b0380821660009081526005602090815260408083209388168352929052205460ff165b949350505050565b826001600160a01b0316611fdb8261141f565b6001600160a01b0316146120015760405162461bcd60e51b8152600401610bb290613a4e565b6001600160a01b0382166120275760405162461bcd60e51b8152600401610bb290613a6e565b612032838383612307565b61203d600082611ea8565b6001600160a01b0383166000908152600360205260408120805460019290612066908490613d29565b90915550506001600160a01b0382166000908152600360205260408120805460019290612094908490613cf2565b909155505060008181526002602052604080822080546001600160a01b0319166001600160a01b0386811691821790925591518493918716917fddf252ad1be2c89b69c2b068fc378daa952ba7f163c4a11628f55a4df523b3ef91a4505050565b6000816040516020016121089190613859565b604051602081830303815290604052805190602001209050919050565b600080600061213485856123bf565b9150915061106b8161242f565b600a80546001600160a01b038381166001600160a01b0319831681179093556040519116919082907f8be0079c531659141344cd1fd0a4f28419497f9722a3daafe3b4186f6b6457e090600090a35050565b611938828260405180602001604052806000815250612514565b601154640100000000900460ff1615610fb3576000336040516020016121d391906138e5565b60405160208183030381529060405280519060200120905060006121fa836112fb846120f5565b6011549091506001600160a01b03808316600160281b9092041614610dc85760405162461bcd60e51b8152600401610bb290613bde565b816001600160a01b0316836001600160a01b031614156122635760405162461bcd60e51b8152600401610bb290613a7e565b6001600160a01b0383811660008181526005602090815260408083209487168084529490915290819020805460ff1916851515179055517f17307eab39ab6107e8899845ad3d59bd9653f200f220920489ca2b5937696c31906122c7908590613981565b60405180910390a3505050565b6122df848484611fc8565b6122eb84848484612547565b6116ea5760405162461bcd60e51b8152600401610bb290613a2e565b6001600160a01b0383166123625761235d81600880546000838152600960205260408120829055600182018355919091527ff3f7a9fe364faab93b216da50a3214154f22a0a2b415b23a84c8169e8b636ee30155565b612385565b816001600160a01b0316836001600160a01b031614612385576123858382612654565b6001600160a01b03821661239c57610dc8816126f1565b826001600160a01b0316826001600160a01b031614610dc857610dc882826127a0565b6000808251604114156123f65760208301516040840151606085015160001a6123ea878285856127e4565b94509450505050612428565b82516040141561242057602083015160408401516124158683836128c4565b935093505050612428565b506000905060025b9250929050565b600081600481111561244357612443613e26565b141561244c5750565b600181600481111561246057612460613e26565b141561247e5760405162461bcd60e51b8152600401610bb2906139de565b600281600481111561249257612492613e26565b14156124b05760405162461bcd60e51b8152600401610bb2906139fe565b60038160048111156124c4576124c4613e26565b14156124e25760405162461bcd60e51b8152600401610bb290613a9e565b60048160048111156124f6576124f6613e26565b1415610fb35760405162461bcd60e51b8152600401610bb290613b1e565b61251e83836128fd565b61252b6000848484612547565b610dc85760405162461bcd60e51b8152600401610bb290613a2e565b60006001600160a01b0384163b1561264957604051630a85bd0160e11b81526001600160a01b0385169063150b7a029061258b903390899088908890600401613925565b602060405180830381600087803b1580156125a557600080fd5b505af19250505080156125d5575060408051601f3d908101601f191682019092526125d291810190612dde565b60015b61262f573d808015612603576040519150601f19603f3d011682016040523d82523d6000602084013e612608565b606091505b5080516126275760405162461bcd60e51b8152600401610bb290613a2e565b805181602001fd5b6001600160e01b031916630a85bd0160e11b149050611fc0565b506001949350505050565b600060016126618461150d565b61266b9190613d29565b6000838152600760205260409020549091508082146126be576001600160a01b03841660009081526006602090815260408083208584528252808320548484528184208190558352600790915290208190555b5060009182526007602090815260408084208490556001600160a01b039094168352600681528383209183525290812055565b60085460009061270390600190613d29565b6000838152600960205260408120546008805493945090928490811061272b5761272b613e68565b90600052602060002001549050806008838154811061274c5761274c613e68565b600091825260208083209091019290925582815260099091526040808220849055858252812055600880548061278457612784613e52565b6001900381819060005260206000200160009055905550505050565b60006127ab8361150d565b6001600160a01b039093166000908152600660209081526040808320868452825280832085905593825260079052919091209190915550565b6000807f7fffffffffffffffffffffffffffffff5d576e7357a4501ddfe92f46681b20a083111561281b57506000905060036128bb565b8460ff16601b1415801561283357508460ff16601c14155b1561284457506000905060046128bb565b600060018787878760405160008152602001604052604051612869949392919061398f565b6020604051602081039080840390855afa15801561288b573d6000803e3d6000fd5b5050604051601f1901519150506001600160a01b0381166128b4576000600192509250506128bb565b9150600090505b94509492505050565b6000806001600160ff1b038316816128e160ff86901c601b613cf2565b90506128ef878288856127e4565b935093505050935093915050565b6001600160a01b0382166129235760405162461bcd60e51b8152600401610bb290613b2e565b6000818152600260205260409020546001600160a01b0316156129585760405162461bcd60e51b8152600401610bb290613a5e565b61296460008383612307565b6001600160a01b038216600090815260036020526040812080546001929061298d908490613cf2565b909155505060008181526002602052604080822080546001600160a01b0319166001600160a01b03861690811790915590518392907fddf252ad1be2c89b69c2b068fc378daa952ba7f163c4a11628f55a4df523b3ef908290a45050565b8280546129f790613d89565b90600052602060002090601f016020900481019282612a195760008555612a5f565b82601f10612a3257805160ff1916838001178555612a5f565b82800160010185558215612a5f579182015b82811115612a5f578251825591602001919060010190612a44565b50612a6b929150612a6f565b5090565b5b80821115612a6b5760008155600101612a70565b6000612a97612a9284613ca3565b613c8c565b90508083825260208201905082856020860282011115612ab957612ab9600080fd5b60005b85811015612ae55781612acf8882612b23565b8452506020928301929190910190600101612abc565b5050509392505050565b6000612afd612a9284613cc7565b905082815260208101848484011115612b1857612b18600080fd5b61106b848285613d51565b8035610b8281613e94565b8051610b8281613e94565b600082601f830112612b4d57612b4d600080fd5b8135611fc0848260208601612a84565b8035610b8281613ea8565b8035610b8281613eb0565b8051610b8281613eb0565b600082601f830112612b9257612b92600080fd5b8135611fc0848260208601612aef565b8035610b8281613ec0565b600060208284031215612bc257612bc2600080fd5b6000611fc08484612b23565b600060208284031215612be357612be3600080fd5b6000611fc08484612b2e565b60008060408385031215612c0557612c05600080fd5b6000612c118585612b23565b9250506020612c2285828601612b23565b9150509250929050565b600080600060608486031215612c4457612c44600080fd5b6000612c508686612b23565b9350506020612c6186828701612b23565b9250506040612c7286828701612ba2565b9150509250925092565b60008060008060808587031215612c9557612c95600080fd5b6000612ca18787612b23565b9450506020612cb287828801612b23565b9350506040612cc387828801612ba2565b925050606085013567ffffffffffffffff811115612ce357612ce3600080fd5b612cef87828801612b7e565b91505092959194509250565b60008060408385031215612d1157612d11600080fd5b6000612d1d8585612b23565b9250506020612c2285828601612b5d565b60008060408385031215612d4457612d44600080fd5b6000612d508585612b23565b9250506020612c2285828601612ba2565b600060208284031215612d7657612d76600080fd5b813567ffffffffffffffff811115612d9057612d90600080fd5b611fc084828501612b39565b600060208284031215612db157612db1600080fd5b6000611fc08484612b5d565b600060208284031215612dd257612dd2600080fd5b6000611fc08484612b68565b600060208284031215612df357612df3600080fd5b6000611fc08484612b73565b600060208284031215612e1457612e14600080fd5b813567ffffffffffffffff811115612e2e57612e2e600080fd5b611fc084828501612b7e565b600060208284031215612e4f57612e4f600080fd5b6000611fc08484612ba2565b60008060408385031215612e7157612e71600080fd5b6000612c118585612ba2565b60008060408385031215612e9357612e93600080fd5b6000612e9f8585612ba2565b925050602083013567ffffffffffffffff811115612ebf57612ebf600080fd5b612c2285828601612b7e565b600080600060608486031215612ee357612ee3600080fd5b6000612eef8686612ba2565b9350506020612f0086828701612ba2565b925050604084013567ffffffffffffffff811115612f2057612f20600080fd5b612c7286828701612b7e565b6000612f388383612fb1565b505060200190565b612f4981613d40565b82525050565b612f49612f5b82613d40565b613dfe565b6000612f6a825190565b80845260209384019383018060005b83811015612f9e578151612f8d8882612f2c565b975060208301925050600101612f79565b509495945050505050565b801515612f49565b80612f49565b6000612fc1825190565b808452602084019350612fd8818560208601613d5d565b601f01601f19169290920192915050565b601881526000602082017f45434453413a20696e76616c6964207369676e61747572650000000000000000815291505b5060200190565b601881526000602082017f53616c6520686173206e6f74207374617274656420796574000000000000000081529150613019565b601f81526000602082017f45434453413a20696e76616c6964207369676e6174757265206c656e6774680081529150613019565b600f81526000602082016e3737ba10383ab735b99037bbb732b960891b81529150613019565b602b81526000602082017f455243373231456e756d657261626c653a206f776e657220696e646578206f7581526a74206f6620626f756e647360a81b602082015291505b5060400190565b603281526000602082017f4552433732313a207472616e7366657220746f206e6f6e20455243373231526581527131b2b4bb32b91034b6b83632b6b2b73a32b960711b602082015291506130f2565b602681526000602082017f4f776e61626c653a206e6577206f776e657220697320746865207a65726f206181526564647265737360d01b602082015291506130f2565b602581526000602082017f4552433732313a207472616e736665722066726f6d20696e636f72726563742081526437bbb732b960d91b602082015291506130f2565b601c81526000602082017f4552433732313a20746f6b656e20616c7265616479206d696e7465640000000081529150613019565b602481526000602082017f4552433732313a207472616e7366657220746f20746865207a65726f206164648152637265737360e01b602082015291506130f2565b601981526000602082017f4552433732313a20617070726f766520746f2063616c6c65720000000000000081529150613019565b6014815260006020820173616c726561647920636c61696d65642070756e6b60601b81529150613019565b602281526000602082017f45434453413a20696e76616c6964207369676e6174757265202773272076616c815261756560f01b602082015291506130f2565b602881526000602082017f6d6178206d696e7420616d6f756e7420706572207472616e73616374696f6e20815267195e18d95959195960c21b602082015291506130f2565b602c81526000602082017f4552433732313a206f70657261746f7220717565727920666f72206e6f6e657881526b34b9ba32b73a103a37b5b2b760a11b602082015291506130f2565b603881526000602082017f4552433732313a20617070726f76652063616c6c6572206973206e6f74206f7781527f6e6572206e6f7220617070726f76656420666f7220616c6c0000000000000000602082015291506130f2565b602a81526000602082017f4552433732313a2062616c616e636520717565727920666f7220746865207a65815269726f206164647265737360b01b602082015291506130f2565b602981526000602082017f4552433732313a206f776e657220717565727920666f72206e6f6e657869737481526832b73a103a37b5b2b760b91b602082015291506130f2565b60168152600060208201751b585e08139195081b1a5b5a5d08195e18d95959195960521b81529150613019565b601081526000602082016f3737ba1037333a34b3331037bbb732b960811b81529150613019565b602281526000602082017f45434453413a20696e76616c6964207369676e6174757265202776272076616c815261756560f01b602082015291506130f2565b60208082527f4552433732313a206d696e7420746f20746865207a65726f206164647265737391019081526000613019565b602c81526000602082017f4552433732313a20617070726f76656420717565727920666f72206e6f6e657881526b34b9ba32b73a103a37b5b2b760a11b602082015291506130f2565b601681526000602082017530b63932b0b23c9031b630b4b6b2b21037333a34b33360511b81529150613019565b60208082527f4f776e61626c653a2063616c6c6572206973206e6f7420746865206f776e657291019081526000613019565b601781526000602082017f77686974656c69737420616d6f756e74206661696c656400000000000000000081529150613019565b60168152600060208201751d1a194818dbdb9d1c9858dd081a5cc81c185d5cd95960521b81529150613019565b602f81526000602082017f4552433732314d657461646174613a2055524920717565727920666f72206e6f81526e3732bc34b9ba32b73a103a37b5b2b760891b602082015291506130f2565b602181526000602082017f4552433732313a20617070726f76616c20746f2063757272656e74206f776e658152603960f91b602082015291506130f2565b6012815260006020820171696e73756666696369656e742066756e647360701b81529150613019565b603181526000602082017f4552433732313a207472616e736665722063616c6c6572206973206e6f74206f8152701ddb995c881b9bdc88185c1c1c9bdd9959607a1b602082015291506130f2565b602c81526000602082017f455243373231456e756d657261626c653a20676c6f62616c20696e646578206f81526b7574206f6620626f756e647360a01b602082015291506130f2565b601081526000602082016f12de58c81b9bdd08185c1c1c9bdd995960821b81529150613019565b60118152600060208201701d5cd95c881a5b88189b1858dadb1a5cdd607a1b81529150613019565b601f81526000602082017f5265656e7472616e637947756172643a207265656e7472616e742063616c6c0081529150613019565b601b81526000602082017f6e65656420746f206d696e74206174206c656173742031204e4654000000000081529150613019565b601581526000602082017414da1a5c1c1a5b99c81b9bdd081d995c9a599a5959605a1b81529150613019565b60ff8116612f49565b7f19457468657265756d205369676e6564204d6573736167653a0a3332000000008152601c01600061388b8284612fb1565b50602001919050565b701cda1a5c1c1a5b99cb5d995c9a599a5959607a1b815260110160006138ba8286612fb1565b6020820191506138ca8285612fb1565b6020820191506138da8284612f4f565b506014019392505050565b6b1ade58cb585c1c1c9bdd995960a21b8152600c0160006139068284612f4f565b50601401919050565b600081610b82565b60208101610b828284612f40565b608081016139338287612f40565b6139406020830186612f40565b61394d6040830185612fb1565b818103606083015261395f8184612fb7565b9695505050505050565b6020808252810161397a8184612f60565b9392505050565b60208101610b828284612fa9565b6080810161399d8287612fb1565b6139aa6020830186613850565b6139b76040830185612fb1565b6139c46060830184612fb1565b95945050505050565b6020808252810161397a8184612fb7565b60208082528101610b8281612fe9565b60208082528101610b8281613020565b60208082528101610b8281613054565b60208082528101610b8281613088565b60208082528101610b82816130ae565b60208082528101610b82816130f9565b60208082528101610b8281613148565b60208082528101610b828161318b565b60208082528101610b82816131cd565b60208082528101610b8281613201565b60208082528101610b8281613242565b60208082528101610b8281613276565b60208082528101610b82816132a1565b60208082528101610b82816132e0565b60208082528101610b8281613325565b60208082528101610b828161336e565b60208082528101610b82816133c8565b60208082528101610b828161340f565b60208082528101610b8281613455565b60208082528101610b8281613482565b60208082528101610b82816134a9565b60208082528101610b82816134e8565b60208082528101610b828161351a565b60208082528101610b8281613563565b60208082528101610b8281613590565b60208082528101610b82816135c2565b60208082528101610b82816135f6565b60208082528101610b8281613623565b60208082528101610b828161366f565b60208082528101610b82816136ad565b60208082528101610b82816136d6565b60208082528101610b8281613724565b60208082528101610b828161376d565b60208082528101610b8281613794565b60208082528101610b82816137bc565b60208082528101610b82816137f0565b60208082528101610b8281613824565b60208101610b828284612fb1565b60808101613c4a8287612fb1565b613c576020830186612fb1565b613c646040830185612fb1565b6139c46060830184612f40565b60808101613c7f8287612fb1565b6139aa6020830186612fb1565b6000613c9760405190565b9050611b768282613db6565b600067ffffffffffffffff821115613cbd57613cbd613e7e565b5060209081020190565b600067ffffffffffffffff821115613ce157613ce1613e7e565b601f19601f83011660200192915050565b60008219821115613d0557613d05613e10565b500190565b6000816000190483118215151615613d2457613d24613e10565b500290565b600082821015613d3b57613d3b613e10565b500390565b60006001600160a01b038216610b82565b82818337506000910152565b60005b83811015613d78578181015183820152602001613d60565b838111156116ea5750506000910152565b600281046001821680613d9d57607f821691505b60208210811415613db057613db0613e3c565b50919050565b601f19601f830116810181811067ffffffffffffffff82111715613ddc57613ddc613e7e565b6040525050565b6000600019821415613df757613df7613e10565b5060010190565b6000610b82826000610b828260601b90565b634e487b7160e01b600052601160045260246000fd5b634e487b7160e01b600052602160045260246000fd5b634e487b7160e01b600052602260045260246000fd5b634e487b7160e01b600052603160045260246000fd5b634e487b7160e01b600052603260045260246000fd5b634e487b7160e01b600052604160045260246000fd5b613e9d81613d40565b8114610fb357600080fd5b801515613e9d565b6001600160e01b03198116613e9d565b80613e9d56fea2646970667358221220528c66b6cf758217932c8082bf415056339a8aa9db79ded1ae34cbc512b75c8664736f6c63430008070033",
  "devdoc": {
    "kind": "dev",
    "methods": {
      "approve(address,uint256)": {
        "details": "See {IERC721-approve}."
      },
      "balanceOf(address)": {
        "details": "See {IERC721-balanceOf}."
      },
      "getApproved(uint256)": {
        "details": "See {IERC721-getApproved}."
      },
      "isApprovedForAll(address,address)": {
        "details": "See {IERC721-isApprovedForAll}."
      },
      "name()": {
        "details": "See {IERC721Metadata-name}."
      },
      "owner()": {
        "details": "Returns the address of the current owner."
      },
      "ownerOf(uint256)": {
        "details": "See {IERC721-ownerOf}."
      },
      "renounceOwnership()": {
        "details": "Leaves the contract without owner. It will not be possible to call `onlyOwner` functions anymore. Can only be called by the current owner. NOTE: Renouncing ownership will leave the contract without an owner, thereby removing any functionality that is only available to the owner."
      },
      "safeTransferFrom(address,address,uint256)": {
        "details": "See {IERC721-safeTransferFrom}."
      },
      "safeTransferFrom(address,address,uint256,bytes)": {
        "details": "See {IERC721-safeTransferFrom}."
      },
      "setApprovalForAll(address,bool)": {
        "details": "See {IERC721-setApprovalForAll}."
      },
      "supportsInterface(bytes4)": {
        "details": "See {IERC165-supportsInterface}."
      },
      "symbol()": {
        "details": "See {IERC721Metadata-symbol}."
      },
      "tokenByIndex(uint256)": {
        "details": "See {IERC721Enumerable-tokenByIndex}."
      },
      "tokenOfOwnerByIndex(address,uint256)": {
        "details": "See {IERC721Enumerable-tokenOfOwnerByIndex}."
      },
      "tokenURI(uint256)": {
        "details": "See {IERC721Metadata-tokenURI}."
      },
      "totalSupply()": {
        "details": "See {IERC721Enumerable-totalSupply}."
      },
      "transferFrom(address,address,uint256)": {
        "details": "See {IERC721-transferFrom}."
      },
      "transferOwnership(address)": {
        "details": "Transfers ownership of the contract to a new account (`newOwner`). Can only be called by the current owner."
      }
    },
    "version": 1
  },
  "userdoc": {
    "events": {
      "TokenURIUpdated(uint256,string)": {
        "notice": "EVENTS "
      }
    },
    "kind": "user",
    "methods": {
      "constructor": {
        "notice": "METHODS "
      }
    },
    "version": 1
  },
  "storageLayout": {
    "storage": [
      {
        "astId": 170,
        "contract": "contracts/NFTiff.sol:NFTiff",
        "label": "_name",
        "offset": 0,
        "slot": "0",
        "type": "t_string_storage"
      },
      {
        "astId": 172,
        "contract": "contracts/NFTiff.sol:NFTiff",
        "label": "_symbol",
        "offset": 0,
        "slot": "1",
        "type": "t_string_storage"
      },
      {
        "astId": 176,
        "contract": "contracts/NFTiff.sol:NFTiff",
        "label": "_owners",
        "offset": 0,
        "slot": "2",
        "type": "t_mapping(t_uint256,t_address)"
      },
      {
        "astId": 180,
        "contract": "contracts/NFTiff.sol:NFTiff",
        "label": "_balances",
        "offset": 0,
        "slot": "3",
        "type": "t_mapping(t_address,t_uint256)"
      },
      {
        "astId": 184,
        "contract": "contracts/NFTiff.sol:NFTiff",
        "label": "_tokenApprovals",
        "offset": 0,
        "slot": "4",
        "type": "t_mapping(t_uint256,t_address)"
      },
      {
        "astId": 190,
        "contract": "contracts/NFTiff.sol:NFTiff",
        "label": "_operatorApprovals",
        "offset": 0,
        "slot": "5",
        "type": "t_mapping(t_address,t_mapping(t_address,t_bool))"
      },
      {
        "astId": 1159,
        "contract": "contracts/NFTiff.sol:NFTiff",
        "label": "_ownedTokens",
        "offset": 0,
        "slot": "6",
        "type": "t_mapping(t_address,t_mapping(t_uint256,t_uint256))"
      },
      {
        "astId": 1163,
        "contract": "contracts/NFTiff.sol:NFTiff",
        "label": "_ownedTokensIndex",
        "offset": 0,
        "slot": "7",
        "type": "t_mapping(t_uint256,t_uint256)"
      },
      {
        "astId": 1166,
        "contract": "contracts/NFTiff.sol:NFTiff",
        "label": "_allTokens",
        "offset": 0,
        "slot": "8",
        "type": "t_array(t_uint256)dyn_storage"
      },
      {
        "astId": 1170,
        "contract": "contracts/NFTiff.sol:NFTiff",
        "label": "_allTokensIndex",
        "offset": 0,
        "slot": "9",
        "type": "t_mapping(t_uint256,t_uint256)"
      },
      {
        "astId": 7,
        "contract": "contracts/NFTiff.sol:NFTiff",
        "label": "_owner",
        "offset": 0,
        "slot": "10",
        "type": "t_address"
      },
      {
        "astId": 115,
        "contract": "contracts/NFTiff.sol:NFTiff",
        "label": "_status",
        "offset": 0,
        "slot": "11",
        "type": "t_uint256"
      },
      {
        "astId": 2919,
        "contract": "contracts/NFTiff.sol:NFTiff",
        "label": "notRevealedUri",
        "offset": 0,
        "slot": "12",
        "type": "t_string_storage"
      },
      {
        "astId": 2923,
        "contract": "contracts/NFTiff.sol:NFTiff",
        "label": "_tokenURIs",
        "offset": 0,
        "slot": "13",
        "type": "t_mapping(t_uint256,t_string_storage)"
      },
      {
        "astId": 2926,
        "contract": "contracts/NFTiff.sol:NFTiff",
        "label": "cost",
        "offset": 0,
        "slot": "14",
        "type": "t_uint256"
      },
      {
        "astId": 2929,
        "contract": "contracts/NFTiff.sol:NFTiff",
        "label": "maxSupply",
        "offset": 0,
        "slot": "15",
        "type": "t_uint256"
      },
      {
        "astId": 2932,
        "contract": "contracts/NFTiff.sol:NFTiff",
        "label": "maxMintAmount",
        "offset": 0,
        "slot": "16",
        "type": "t_uint256"
      },
      {
        "astId": 2935,
        "contract": "contracts/NFTiff.sol:NFTiff",
        "label": "presaleActive",
        "offset": 0,
        "slot": "17",
        "type": "t_bool"
      },
      {
        "astId": 2938,
        "contract": "contracts/NFTiff.sol:NFTiff",
        "label": "publicSaleActive",
        "offset": 1,
        "slot": "17",
        "type": "t_bool"
      },
      {
        "astId": 2941,
        "contract": "contracts/NFTiff.sol:NFTiff",
        "label": "paused",
        "offset": 2,
        "slot": "17",
        "type": "t_bool"
      },
      {
        "astId": 2944,
        "contract": "contracts/NFTiff.sol:NFTiff",
        "label": "revealed",
        "offset": 3,
        "slot": "17",
        "type": "t_bool"
      },
      {
        "astId": 2947,
        "contract": "contracts/NFTiff.sol:NFTiff",
        "label": "isKycRequired",
        "offset": 4,
        "slot": "17",
        "type": "t_bool"
      },
      {
        "astId": 2949,
        "contract": "contracts/NFTiff.sol:NFTiff",
        "label": "signer",
        "offset": 5,
        "slot": "17",
        "type": "t_address"
      },
      {
        "astId": 2953,
        "contract": "contracts/NFTiff.sol:NFTiff",
        "label": "whitelists",
        "offset": 0,
        "slot": "18",
        "type": "t_mapping(t_address,t_uint256)"
      },
      {
        "astId": 2957,
        "contract": "contracts/NFTiff.sol:NFTiff",
        "label": "blacklistedAddresses",
        "offset": 0,
        "slot": "19",
        "type": "t_mapping(t_address,t_bool)"
      },
      {
        "astId": 2961,
        "contract": "contracts/NFTiff.sol:NFTiff",
        "label": "totalClaimed",
        "offset": 0,
        "slot": "20",
        "type": "t_uint256"
      },
      {
        "astId": 2966,
        "contract": "contracts/NFTiff.sol:NFTiff",
        "label": "claimInfo",
        "offset": 0,
        "slot": "21",
        "type": "t_mapping(t_uint256,t_struct(ClaimInfo)2983_storage)"
      },
      {
        "astId": 2970,
        "contract": "contracts/NFTiff.sol:NFTiff",
        "label": "nftiffClaims",
        "offset": 0,
        "slot": "22",
        "type": "t_mapping(t_uint256,t_uint256)"
      },
      {
        "astId": 2974,
        "contract": "contracts/NFTiff.sol:NFTiff",
        "label": "punkClaims",
        "offset": 0,
        "slot": "23",
        "type": "t_mapping(t_uint256,t_uint256)"
      }
    ],
    "types": {
      "t_address": {
        "encoding": "inplace",
        "label": "address",
        "numberOfBytes": "20"
      },
      "t_array(t_uint256)dyn_storage": {
        "base": "t_uint256",
        "encoding": "dynamic_array",
        "label": "uint256[]",
        "numberOfBytes": "32"
      },
      "t_bool": {
        "encoding": "inplace",
        "label": "bool",
        "numberOfBytes": "1"
      },
      "t_mapping(t_address,t_bool)": {
        "encoding": "mapping",
        "key": "t_address",
        "label": "mapping(address => bool)",
        "numberOfBytes": "32",
        "value": "t_bool"
      },
      "t_mapping(t_address,t_mapping(t_address,t_bool))": {
        "encoding": "mapping",
        "key": "t_address",
        "label": "mapping(address => mapping(address => bool))",
        "numberOfBytes": "32",
        "value": "t_mapping(t_address,t_bool)"
      },
      "t_mapping(t_address,t_mapping(t_uint256,t_uint256))": {
        "encoding": "mapping",
        "key": "t_address",
        "label": "mapping(address => mapping(uint256 => uint256))",
        "numberOfBytes": "32",
        "value": "t_mapping(t_uint256,t_uint256)"
      },
      "t_mapping(t_address,t_uint256)": {
        "encoding": "mapping",
        "key": "t_address",
        "label": "mapping(address => uint256)",
        "numberOfBytes": "32",
        "value": "t_uint256"
      },
      "t_mapping(t_uint256,t_address)": {
        "encoding": "mapping",
        "key": "t_uint256",
        "label": "mapping(uint256 => address)",
        "numberOfBytes": "32",
        "value": "t_address"
      },
      "t_mapping(t_uint256,t_string_storage)": {
        "encoding": "mapping",
        "key": "t_uint256",
        "label": "mapping(uint256 => string)",
        "numberOfBytes": "32",
        "value": "t_string_storage"
      },
      "t_mapping(t_uint256,t_struct(ClaimInfo)2983_storage)": {
        "encoding": "mapping",
        "key": "t_uint256",
        "label": "mapping(uint256 => struct NFTiff.ClaimInfo)",
        "numberOfBytes": "32",
        "value": "t_struct(ClaimInfo)2983_storage"
      },
      "t_mapping(t_uint256,t_uint256)": {
        "encoding": "mapping",
        "key": "t_uint256",
        "label": "mapping(uint256 => uint256)",
        "numberOfBytes": "32",
        "value": "t_uint256"
      },
      "t_string_storage": {
        "encoding": "bytes",
        "label": "string",
        "numberOfBytes": "32"
      },
      "t_struct(ClaimInfo)2983_storage": {
        "encoding": "inplace",
        "label": "struct NFTiff.ClaimInfo",
        "members": [
          {
            "astId": 2976,
            "contract": "contracts/NFTiff.sol:NFTiff",
            "label": "punkId",
            "offset": 0,
            "slot": "0",
            "type": "t_uint256"
          },
          {
            "astId": 2978,
            "contract": "contracts/NFTiff.sol:NFTiff",
            "label": "nftiffId",
            "offset": 0,
            "slot": "1",
            "type": "t_uint256"
          },
          {
            "astId": 2980,
            "contract": "contracts/NFTiff.sol:NFTiff",
            "label": "timestamp",
            "offset": 0,
            "slot": "2",
            "type": "t_uint256"
          },
          {
            "astId": 2982,
            "contract": "contracts/NFTiff.sol:NFTiff",
            "label": "claimer",
            "offset": 0,
            "slot": "3",
            "type": "t_address"
          }
        ],
        "numberOfBytes": "128"
      },
      "t_uint256": {
        "encoding": "inplace",
        "label": "uint256",
        "numberOfBytes": "32"
      }
    }
  }
}