{
  "address": "0xc8eeF50B446Ee265cEB3e52e9877cB5984A592cE",
  "abi": [
    {
      "inputs": [
        {
          "internalType": "string",
          "name": "_initNotRevealedUri",
          "type": "string"
        },
        {
          "internalType": "address",
          "name": "punksContract_",
          "type": "address"
        }
      ],
      "stateMutability": "nonpayable",
      "type": "constructor"
    },
    {
      "anonymous": false,
      "inputs": [
        {
          "indexed": true,
          "internalType": "address",
          "name": "owner",
          "type": "address"
        },
        {
          "indexed": true,
          "internalType": "address",
          "name": "approved",
          "type": "address"
        },
        {
          "indexed": true,
          "internalType": "uint256",
          "name": "tokenId",
          "type": "uint256"
        }
      ],
      "name": "Approval",
      "type": "event"
    },
    {
      "anonymous": false,
      "inputs": [
        {
          "indexed": true,
          "internalType": "address",
          "name": "owner",
          "type": "address"
        },
        {
          "indexed": true,
          "internalType": "address",
          "name": "operator",
          "type": "address"
        },
        {
          "indexed": false,
          "internalType": "bool",
          "name": "approved",
          "type": "bool"
        }
      ],
      "name": "ApprovalForAll",
      "type": "event"
    },
    {
      "anonymous": false,
      "inputs": [
        {
          "indexed": false,
          "internalType": "uint256",
          "name": "claimId",
          "type": "uint256"
        },
        {
          "indexed": true,
          "internalType": "address",
          "name": "to",
          "type": "address"
        },
        {
          "indexed": false,
          "internalType": "uint256",
          "name": "punkId",
          "type": "uint256"
        },
        {
          "indexed": false,
          "internalType": "uint256",
          "name": "nftiffId",
          "type": "uint256"
        },
        {
          "indexed": false,
          "internalType": "uint256",
          "name": "timestamp",
          "type": "uint256"
        }
      ],
      "name": "Claimed",
      "type": "event"
    },
    {
      "anonymous": false,
      "inputs": [
        {
          "indexed": false,
          "internalType": "uint256",
          "name": "cost",
          "type": "uint256"
        }
      ],
      "name": "CostChanged",
      "type": "event"
    },
    {
      "anonymous": false,
      "inputs": [
        {
          "indexed": false,
          "internalType": "bool",
          "name": "kycRequired",
          "type": "bool"
        }
      ],
      "name": "KycRequireChanged",
      "type": "event"
    },
    {
      "anonymous": false,
      "inputs": [
        {
          "indexed": false,
          "internalType": "uint256",
          "name": "amount",
          "type": "uint256"
        }
      ],
      "name": "MaxMintAmountChanged",
      "type": "event"
    },
    {
      "anonymous": false,
      "inputs": [
        {
          "indexed": false,
          "internalType": "uint256",
          "name": "maxSupply",
          "type": "uint256"
        }
      ],
      "name": "MaxSupplyChanged",
      "type": "event"
    },
    {
      "anonymous": false,
      "inputs": [
        {
          "indexed": true,
          "internalType": "address",
          "name": "to",
          "type": "address"
        },
        {
          "indexed": true,
          "internalType": "uint256",
          "name": "tokenId",
          "type": "uint256"
        }
      ],
      "name": "NFTiffMinted",
      "type": "event"
    },
    {
      "anonymous": false,
      "inputs": [
        {
          "indexed": false,
          "internalType": "string",
          "name": "uri",
          "type": "string"
        }
      ],
      "name": "NotRevealedUriChanged",
      "type": "event"
    },
    {
      "anonymous": false,
      "inputs": [
        {
          "indexed": true,
          "internalType": "address",
          "name": "previousOwner",
          "type": "address"
        },
        {
          "indexed": true,
          "internalType": "address",
          "name": "newOwner",
          "type": "address"
        }
      ],
      "name": "OwnershipTransferred",
      "type": "event"
    },
    {
      "anonymous": false,
      "inputs": [
        {
          "indexed": false,
          "internalType": "bool",
          "name": "isPaused",
          "type": "bool"
        }
      ],
      "name": "Paused",
      "type": "event"
    },
    {
      "anonymous": false,
      "inputs": [
        {
          "indexed": false,
          "internalType": "bool",
          "name": "isActive",
          "type": "bool"
        }
      ],
      "name": "PresaleStatusChanged",
      "type": "event"
    },
    {
      "anonymous": false,
      "inputs": [
        {
          "indexed": false,
          "internalType": "bool",
          "name": "isActive",
          "type": "bool"
        }
      ],
      "name": "PublicSaleStatusChanged",
      "type": "event"
    },
    {
      "anonymous": false,
      "inputs": [],
      "name": "Revealed",
      "type": "event"
    },
    {
      "anonymous": false,
      "inputs": [
        {
          "indexed": false,
          "internalType": "address",
          "name": "signer",
          "type": "address"
        }
      ],
      "name": "SignerChanged",
      "type": "event"
    },
    {
      "anonymous": false,
      "inputs": [
        {
          "indexed": true,
          "internalType": "uint256",
          "name": "tokenId",
          "type": "uint256"
        },
        {
          "indexed": false,
          "internalType": "string",
          "name": "uri",
          "type": "string"
        }
      ],
      "name": "TokenURIUpdated",
      "type": "event"
    },
    {
      "anonymous": false,
      "inputs": [
        {
          "indexed": true,
          "internalType": "address",
          "name": "from",
          "type": "address"
        },
        {
          "indexed": true,
          "internalType": "address",
          "name": "to",
          "type": "address"
        },
        {
          "indexed": true,
          "internalType": "uint256",
          "name": "tokenId",
          "type": "uint256"
        }
      ],
      "name": "Transfer",
      "type": "event"
    },
    {
      "anonymous": false,
      "inputs": [
        {
          "indexed": false,
          "internalType": "address[]",
          "name": "users",
          "type": "address[]"
        }
      ],
      "name": "UsersBlacklisted",
      "type": "event"
    },
    {
      "inputs": [
        {
          "internalType": "address",
          "name": "to",
          "type": "address"
        },
        {
          "internalType": "uint256",
          "name": "tokenId",
          "type": "uint256"
        }
      ],
      "name": "approve",
      "outputs": [],
      "stateMutability": "nonpayable",
      "type": "function"
    },
    {
      "inputs": [
        {
          "internalType": "address",
          "name": "owner",
          "type": "address"
        }
      ],
      "name": "balanceOf",
      "outputs": [
        {
          "internalType": "uint256",
          "name": "",
          "type": "uint256"
        }
      ],
      "stateMutability": "view",
      "type": "function"
    },
    {
      "inputs": [
        {
          "internalType": "address[]",
          "name": "addresses",
          "type": "address[]"
        }
      ],
      "name": "blacklistUsers",
      "outputs": [],
      "stateMutability": "nonpayable",
      "type": "function"
    },
    {
      "inputs": [
        {
          "internalType": "uint256",
          "name": "punk_",
          "type": "uint256"
        },
        {
          "internalType": "uint256",
          "name": "nftiff_",
          "type": "uint256"
        },
        {
          "internalType": "bytes",
          "name": "_signature",
          "type": "bytes"
        }
      ],
      "name": "claim",
      "outputs": [],
      "stateMutability": "payable",
      "type": "function"
    },
    {
      "inputs": [
        {
          "internalType": "uint256",
          "name": "",
          "type": "uint256"
        }
      ],
      "name": "claimInfo",
      "outputs": [
        {
          "internalType": "uint256",
          "name": "punkId",
          "type": "uint256"
        },
        {
          "internalType": "uint256",
          "name": "nftiffId",
          "type": "uint256"
        },
        {
          "internalType": "uint256",
          "name": "timestamp",
          "type": "uint256"
        },
        {
          "internalType": "address",
          "name": "claimer",
          "type": "address"
        }
      ],
      "stateMutability": "view",
      "type": "function"
    },
    {
      "inputs": [],
      "name": "cost",
      "outputs": [
        {
          "internalType": "uint256",
          "name": "",
          "type": "uint256"
        }
      ],
      "stateMutability": "view",
      "type": "function"
    },
    {
      "inputs": [
        {
          "internalType": "uint256",
          "name": "tokenId",
          "type": "uint256"
        }
      ],
      "name": "getApproved",
      "outputs": [
        {
          "internalType": "address",
          "name": "",
          "type": "address"
        }
      ],
      "stateMutability": "view",
      "type": "function"
    },
    {
      "inputs": [],
      "name": "getSigner",
      "outputs": [
        {
          "internalType": "address",
          "name": "",
          "type": "address"
        }
      ],
      "stateMutability": "view",
      "type": "function"
    },
    {
      "inputs": [
        {
          "internalType": "uint256",
          "name": "_mintAmount",
          "type": "uint256"
        },
        {
          "internalType": "address",
          "name": "destination",
          "type": "address"
        }
      ],
      "name": "gift",
      "outputs": [],
      "stateMutability": "nonpayable",
      "type": "function"
    },
    {
      "inputs": [
        {
          "internalType": "address",
          "name": "owner",
          "type": "address"
        },
        {
          "internalType": "address",
          "name": "operator",
          "type": "address"
        }
      ],
      "name": "isApprovedForAll",
      "outputs": [
        {
          "internalType": "bool",
          "name": "",
          "type": "bool"
        }
      ],
      "stateMutability": "view",
      "type": "function"
    },
    {
      "inputs": [
        {
          "internalType": "address",
          "name": "_user",
          "type": "address"
        }
      ],
      "name": "isBlacklisted",
      "outputs": [
        {
          "internalType": "bool",
          "name": "",
          "type": "bool"
        }
      ],
      "stateMutability": "view",
      "type": "function"
    },
    {
      "inputs": [],
      "name": "isKycRequired",
      "outputs": [
        {
          "internalType": "bool",
          "name": "",
          "type": "bool"
        }
      ],
      "stateMutability": "view",
      "type": "function"
    },
    {
      "inputs": [],
      "name": "maxMintAmount",
      "outputs": [
        {
          "internalType": "uint256",
          "name": "",
          "type": "uint256"
        }
      ],
      "stateMutability": "view",
      "type": "function"
    },
    {
      "inputs": [],
      "name": "maxSupply",
      "outputs": [
        {
          "internalType": "uint256",
          "name": "",
          "type": "uint256"
        }
      ],
      "stateMutability": "view",
      "type": "function"
    },
    {
      "inputs": [
        {
          "internalType": "uint256",
          "name": "_mintAmount",
          "type": "uint256"
        },
        {
          "internalType": "bytes",
          "name": "_signature",
          "type": "bytes"
        }
      ],
      "name": "mint1",
      "outputs": [],
      "stateMutability": "payable",
      "type": "function"
    },
    {
      "inputs": [
        {
          "internalType": "uint256",
          "name": "_mintAmount",
          "type": "uint256"
        }
      ],
      "name": "mintPublic",
      "outputs": [],
      "stateMutability": "payable",
      "type": "function"
    },
    {
      "inputs": [],
      "name": "name",
      "outputs": [
        {
          "internalType": "string",
          "name": "",
          "type": "string"
        }
      ],
      "stateMutability": "view",
      "type": "function"
    },
    {
      "inputs": [
        {
          "internalType": "uint256",
          "name": "",
          "type": "uint256"
        }
      ],
      "name": "nftiffClaims",
      "outputs": [
        {
          "internalType": "uint256",
          "name": "",
          "type": "uint256"
        }
      ],
      "stateMutability": "view",
      "type": "function"
    },
    {
      "inputs": [],
      "name": "notRevealedUri",
      "outputs": [
        {
          "internalType": "string",
          "name": "",
          "type": "string"
        }
      ],
      "stateMutability": "view",
      "type": "function"
    },
    {
      "inputs": [],
      "name": "owner",
      "outputs": [
        {
          "internalType": "address",
          "name": "",
          "type": "address"
        }
      ],
      "stateMutability": "view",
      "type": "function"
    },
    {
      "inputs": [
        {
          "internalType": "uint256",
          "name": "tokenId",
          "type": "uint256"
        }
      ],
      "name": "ownerOf",
      "outputs": [
        {
          "internalType": "address",
          "name": "",
          "type": "address"
        }
      ],
      "stateMutability": "view",
      "type": "function"
    },
    {
      "inputs": [
        {
          "internalType": "bool",
          "name": "_state",
          "type": "bool"
        }
      ],
      "name": "pause",
      "outputs": [],
      "stateMutability": "nonpayable",
      "type": "function"
    },
    {
      "inputs": [],
      "name": "paused",
      "outputs": [
        {
          "internalType": "bool",
          "name": "",
          "type": "bool"
        }
      ],
      "stateMutability": "view",
      "type": "function"
    },
    {
      "inputs": [],
      "name": "presaleActive",
      "outputs": [
        {
          "internalType": "bool",
          "name": "",
          "type": "bool"
        }
      ],
      "stateMutability": "view",
      "type": "function"
    },
    {
      "inputs": [],
      "name": "publicSaleActive",
      "outputs": [
        {
          "internalType": "bool",
          "name": "",
          "type": "bool"
        }
      ],
      "stateMutability": "view",
      "type": "function"
    },
    {
      "inputs": [
        {
          "internalType": "uint256",
          "name": "",
          "type": "uint256"
        }
      ],
      "name": "punkClaims",
      "outputs": [
        {
          "internalType": "uint256",
          "name": "",
          "type": "uint256"
        }
      ],
      "stateMutability": "view",
      "type": "function"
    },
    {
      "inputs": [],
      "name": "punksContract",
      "outputs": [
        {
          "internalType": "address",
          "name": "",
          "type": "address"
        }
      ],
      "stateMutability": "view",
      "type": "function"
    },
    {
      "inputs": [],
      "name": "renounceOwnership",
      "outputs": [],
      "stateMutability": "nonpayable",
      "type": "function"
    },
    {
      "inputs": [],
      "name": "reveal",
      "outputs": [],
      "stateMutability": "nonpayable",
      "type": "function"
    },
    {
      "inputs": [],
      "name": "revealed",
      "outputs": [
        {
          "internalType": "bool",
          "name": "",
          "type": "bool"
        }
      ],
      "stateMutability": "view",
      "type": "function"
    },
    {
      "inputs": [
        {
          "internalType": "address",
          "name": "from",
          "type": "address"
        },
        {
          "internalType": "address",
          "name": "to",
          "type": "address"
        },
        {
          "internalType": "uint256",
          "name": "tokenId",
          "type": "uint256"
        }
      ],
      "name": "safeTransferFrom",
      "outputs": [],
      "stateMutability": "nonpayable",
      "type": "function"
    },
    {
      "inputs": [
        {
          "internalType": "address",
          "name": "from",
          "type": "address"
        },
        {
          "internalType": "address",
          "name": "to",
          "type": "address"
        },
        {
          "internalType": "uint256",
          "name": "tokenId",
          "type": "uint256"
        },
        {
          "internalType": "bytes",
          "name": "_data",
          "type": "bytes"
        }
      ],
      "name": "safeTransferFrom",
      "outputs": [],
      "stateMutability": "nonpayable",
      "type": "function"
    },
    {
      "inputs": [
        {
          "internalType": "address",
          "name": "operator",
          "type": "address"
        },
        {
          "internalType": "bool",
          "name": "approved",
          "type": "bool"
        }
      ],
      "name": "setApprovalForAll",
      "outputs": [],
      "stateMutability": "nonpayable",
      "type": "function"
    },
    {
      "inputs": [
        {
          "internalType": "string",
          "name": "baseURI",
          "type": "string"
        }
      ],
      "name": "setBaseURI",
      "outputs": [],
      "stateMutability": "nonpayable",
      "type": "function"
    },
    {
      "inputs": [
        {
          "internalType": "uint256",
          "name": "_newCost",
          "type": "uint256"
        }
      ],
      "name": "setCost",
      "outputs": [],
      "stateMutability": "nonpayable",
      "type": "function"
    },
    {
      "inputs": [
        {
          "internalType": "bool",
          "name": "_required",
          "type": "bool"
        }
      ],
      "name": "setKycRequired",
      "outputs": [],
      "stateMutability": "nonpayable",
      "type": "function"
    },
    {
      "inputs": [
        {
          "internalType": "uint256",
          "name": "_maxSupply",
          "type": "uint256"
        }
      ],
      "name": "setMaxSupply",
      "outputs": [],
      "stateMutability": "nonpayable",
      "type": "function"
    },
    {
      "inputs": [
        {
          "internalType": "string",
          "name": "_notRevealedURI",
          "type": "string"
        }
      ],
      "name": "setNotRevealedURI",
      "outputs": [],
      "stateMutability": "nonpayable",
      "type": "function"
    },
    {
      "inputs": [
        {
          "internalType": "bool",
          "name": "_saleActive",
          "type": "bool"
        }
      ],
      "name": "setPresaleStatus",
      "outputs": [],
      "stateMutability": "nonpayable",
      "type": "function"
    },
    {
      "inputs": [
        {
          "internalType": "bool",
          "name": "_saleActive",
          "type": "bool"
        }
      ],
      "name": "setPublicSaleStatus",
      "outputs": [],
      "stateMutability": "nonpayable",
      "type": "function"
    },
    {
      "inputs": [
        {
          "internalType": "address",
          "name": "signer_",
          "type": "address"
        }
      ],
      "name": "setSigner",
      "outputs": [],
      "stateMutability": "nonpayable",
      "type": "function"
    },
    {
      "inputs": [
        {
          "internalType": "uint256",
          "name": "tokenId",
          "type": "uint256"
        },
        {
          "internalType": "string",
          "name": "_tokenURI",
          "type": "string"
        }
      ],
      "name": "setTokenURI",
      "outputs": [],
      "stateMutability": "nonpayable",
      "type": "function"
    },
    {
      "inputs": [
        {
          "internalType": "uint256",
          "name": "_newmaxMintAmount",
          "type": "uint256"
        }
      ],
      "name": "setmaxMintAmount",
      "outputs": [],
      "stateMutability": "nonpayable",
      "type": "function"
    },
    {
      "inputs": [
        {
          "internalType": "bytes4",
          "name": "interfaceId",
          "type": "bytes4"
        }
      ],
      "name": "supportsInterface",
      "outputs": [
        {
          "internalType": "bool",
          "name": "",
          "type": "bool"
        }
      ],
      "stateMutability": "view",
      "type": "function"
    },
    {
      "inputs": [],
      "name": "symbol",
      "outputs": [
        {
          "internalType": "string",
          "name": "",
          "type": "string"
        }
      ],
      "stateMutability": "view",
      "type": "function"
    },
    {
      "inputs": [
        {
          "internalType": "uint256",
          "name": "index",
          "type": "uint256"
        }
      ],
      "name": "tokenByIndex",
      "outputs": [
        {
          "internalType": "uint256",
          "name": "",
          "type": "uint256"
        }
      ],
      "stateMutability": "view",
      "type": "function"
    },
    {
      "inputs": [
        {
          "internalType": "address",
          "name": "owner",
          "type": "address"
        },
        {
          "internalType": "uint256",
          "name": "index",
          "type": "uint256"
        }
      ],
      "name": "tokenOfOwnerByIndex",
      "outputs": [
        {
          "internalType": "uint256",
          "name": "",
          "type": "uint256"
        }
      ],
      "stateMutability": "view",
      "type": "function"
    },
    {
      "inputs": [
        {
          "internalType": "uint256",
          "name": "tokenId",
          "type": "uint256"
        }
      ],
      "name": "tokenURI",
      "outputs": [
        {
          "internalType": "string",
          "name": "",
          "type": "string"
        }
      ],
      "stateMutability": "view",
      "type": "function"
    },
    {
      "inputs": [],
      "name": "totalClaimed",
      "outputs": [
        {
          "internalType": "uint256",
          "name": "",
          "type": "uint256"
        }
      ],
      "stateMutability": "view",
      "type": "function"
    },
    {
      "inputs": [],
      "name": "totalSupply",
      "outputs": [
        {
          "internalType": "uint256",
          "name": "",
          "type": "uint256"
        }
      ],
      "stateMutability": "view",
      "type": "function"
    },
    {
      "inputs": [
        {
          "internalType": "address",
          "name": "from",
          "type": "address"
        },
        {
          "internalType": "address",
          "name": "to",
          "type": "address"
        },
        {
          "internalType": "uint256",
          "name": "tokenId",
          "type": "uint256"
        }
      ],
      "name": "transferFrom",
      "outputs": [],
      "stateMutability": "nonpayable",
      "type": "function"
    },
    {
      "inputs": [
        {
          "internalType": "address",
          "name": "newOwner",
          "type": "address"
        }
      ],
      "name": "transferOwnership",
      "outputs": [],
      "stateMutability": "nonpayable",
      "type": "function"
    },
    {
      "inputs": [
        {
          "internalType": "address",
          "name": "_owner",
          "type": "address"
        }
      ],
      "name": "walletOfOwner",
      "outputs": [
        {
          "internalType": "uint256[]",
          "name": "",
          "type": "uint256[]"
        }
      ],
      "stateMutability": "view",
      "type": "function"
    },
    {
      "inputs": [
        {
          "internalType": "address",
          "name": "",
          "type": "address"
        }
      ],
      "name": "whitelistMinted",
      "outputs": [
        {
          "internalType": "uint256",
          "name": "",
          "type": "uint256"
        }
      ],
      "stateMutability": "view",
      "type": "function"
    },
    {
      "inputs": [],
      "name": "withdraw",
      "outputs": [],
      "stateMutability": "payable",
      "type": "function"
    }
  ],
  "transactionHash": "0x97a82018b4287a0846166881a7846de71a692cbf3484c394fd92f4cad2ac7756",
  "args": [
    "",
    "0x0ece5312f66002b4103FBb6A0ff4ad90aF52f91a"
  ],
  "solcInputHash": "aa2d6217cac87cf9b3ba6671b1e21471",
  "bytecode": "0x60a06040526801a055690d9db80000600e556101f4600f5560026010556011805464ffffffffff19166401000000001790553480156200003e57600080fd5b50604051620049e2380380620049e2833981016040819052620000619162000329565b60408051808201825260068082526527232a34b33360d11b602080840182815285518087019096529285528401528151919291620000a291600091620001f7565b508051620000b8906001906020840190620001f7565b505050620000d5620000cf6200011960201b60201c565b6200011d565b6001600b55620000e5826200016f565b60118054600160281b600160c81b03191633650100000000000217905560601b6001600160601b0319166080525062000548565b3390565b600a80546001600160a01b038381166001600160a01b0319831681179093556040519116919082907f8be0079c531659141344cd1fd0a4f28419497f9722a3daafe3b4186f6b6457e090600090a35050565b600a546001600160a01b03163314620001a55760405162461bcd60e51b81526004016200019c90620003d6565b60405180910390fd5b8051620001ba90600c906020840190620001f7565b507f5b4603fcb3d3d9b6dba69e8b60ea02082aa1d621d2cc96d5bbfab381f6164e6e81604051620001ec9190620003bc565b60405180910390a150565b8280546200020590620004a2565b90600052602060002090601f01602090048101928262000229576000855562000274565b82601f106200024457805160ff191683800117855562000274565b8280016001018555821562000274579182015b828111156200027457825182559160200191906001019062000257565b506200028292915062000286565b5090565b5b8082111562000282576000815560010162000287565b6000620002b4620002ae8462000430565b62000411565b905082815260208101848484011115620002d157620002d1600080fd5b620002de8482856200046f565b509392505050565b8051620002f3816200052e565b92915050565b600082601f8301126200030f576200030f600080fd5b8151620003218482602086016200029d565b949350505050565b60008060408385031215620003415762000341600080fd5b82516001600160401b038111156200035c576200035c600080fd5b6200036a85828601620002f9565b92505060206200037d85828601620002e6565b9150509250929050565b600062000392825190565b808452602084019350620003ab8185602086016200046f565b601f01601f19169290920192915050565b60208082528101620003cf818462000387565b9392505050565b60208082528181019081527f4f776e61626c653a2063616c6c6572206973206e6f7420746865206f776e6572604083015260608201620002f3565b60006200041d60405190565b90506200042b8282620004d3565b919050565b60006001600160401b038211156200044c576200044c62000518565b601f19601f83011660200192915050565b60006001600160a01b038216620002f3565b60005b838110156200048c57818101518382015260200162000472565b838111156200049c576000848401525b50505050565b600281046001821680620004b757607f821691505b60208210811415620004cd57620004cd62000502565b50919050565b601f19601f83011681018181106001600160401b0382111715620004fb57620004fb62000518565b6040525050565b634e487b7160e01b600052602260045260246000fd5b634e487b7160e01b600052604160045260246000fd5b62000539816200045d565b81146200054557600080fd5b50565b60805160601c6144746200056e60003960008181610998015261122a01526144746000f3fe6080604052600436106103505760003560e01c80636f8b44b0116101c6578063a475b5dd116100f7578063d5abeb0111610095578063efd0cbf91161006f578063efd0cbf914610a03578063f2c4ce1e14610a16578063f2fde38b14610a36578063fe575a8714610a5657600080fd5b8063d5abeb0114610970578063e46317b514610986578063e985e9c5146109ba57600080fd5b8063bb3d676a116100d1578063bb3d676a146108fb578063bc8893b41461091b578063c87b56dd1461093a578063d54ad2a11461095a57600080fd5b8063a475b5dd146108a6578063b423fe67146108bb578063b88d4fde146108db57600080fd5b80638895283f1161016457806395d89b411161013e57806395d89b411461081757806398a8cffe1461082c578063a1d557c514610859578063a22cb4651461088657600080fd5b80638895283f146107c65780638b9a10d7146107e65780638da5cb5b146107f957600080fd5b80637ac3c02f116101a05780637ac3c02f146107345780637c25d647146107595780637f00c7a61461078657806383a076be146107a657600080fd5b80636f8b44b0146106df57806370a08231146106ff578063715018a61461071f57600080fd5b80633ccfd60b116102a057806353135ca01161023e5780635c975abb116102185780635c975abb1461066c5780635eddd1571461068c5780636352211e1461069f5780636c19e783146106bf57600080fd5b806353135ca0146105d757806355f804b3146105f15780635c3622331461061157600080fd5b8063438b63001161027a578063438b63001461054957806344a0d68a146105765780634f6ccce71461059657806351830227146105b657600080fd5b80633ccfd60b146104ff5780633e4191dc1461050757806342842e0e1461052957600080fd5b806313faede61161030d57806318160ddd116102e757806318160ddd14610494578063239c70ae146104a957806323b872dd146104bf5780632f745c59146104df57600080fd5b806313faede614610431578063150909f714610454578063162094c41461047457600080fd5b806301ffc9a71461035557806302329a291461038b57806306fdde03146103ad578063081812fc146103cf578063081c8c44146103fc578063095ea7b314610411575b600080fd5b34801561036157600080fd5b50610375610370366004613166565b610a8f565b6040516103829190613e86565b60405180910390f35b34801561039757600080fd5b506103ab6103a6366004613145565b610aba565b005b3480156103b957600080fd5b506103c2610b3d565b6040516103829190613ed2565b3480156103db57600080fd5b506103ef6103ea36600461322b565b610bcf565b6040516103829190613e12565b34801561040857600080fd5b506103c2610c12565b34801561041d57600080fd5b506103ab61042c3660046130d7565b610ca0565b34801561043d57600080fd5b50610447600e5481565b6040516103829190614163565b34801561046057600080fd5b506103ab61046f366004613145565b610d26565b34801561048057600080fd5b506103ab61048f36600461326e565b610d99565b3480156104a057600080fd5b50600854610447565b3480156104b557600080fd5b5061044760105481565b3480156104cb57600080fd5b506103ab6104da366004612fd5565b610e44565b3480156104eb57600080fd5b506104476104fa3660046130d7565b610e75565b6103ab610ec7565b34801561051357600080fd5b5060115461037590640100000000900460ff1681565b34801561053557600080fd5b506103ab610544366004612fd5565b610f70565b34801561055557600080fd5b50610569610564366004612f56565b610f8b565b6040516103829190613e75565b34801561058257600080fd5b506103ab61059136600461322b565b61102d565b3480156105a257600080fd5b506104476105b136600461322b565b61108c565b3480156105c257600080fd5b50601154610375906301000000900460ff1681565b3480156105e357600080fd5b506011546103759060ff1681565b3480156105fd57600080fd5b506103ab61060c3660046131a8565b6110da565b34801561061d57600080fd5b5061065c61062c36600461322b565b6015602052600090815260409020805460018201546002830154600390930154919290916001600160a01b031684565b6040516103829493929190614171565b34801561067857600080fd5b506011546103759062010000900460ff1681565b6103ab61069a3660046132bc565b611110565b3480156106ab57600080fd5b506103ef6106ba36600461322b565b61143f565b3480156106cb57600080fd5b506103ab6106da366004612f56565b611474565b3480156106eb57600080fd5b506103ab6106fa36600461322b565b6114f4565b34801561070b57600080fd5b5061044761071a366004612f56565b611553565b34801561072b57600080fd5b506103ab611597565b34801561074057600080fd5b50601154600160281b90046001600160a01b03166103ef565b34801561076557600080fd5b5061044761077436600461322b565b60166020526000908152604090205481565b34801561079257600080fd5b506103ab6107a136600461322b565b6115cd565b3480156107b257600080fd5b506103ab6107c136600461324c565b61162c565b3480156107d257600080fd5b506103ab6107e1366004613145565b611722565b6103ab6107f436600461326e565b61178a565b34801561080557600080fd5b50600a546001600160a01b03166103ef565b34801561082357600080fd5b506103c2611987565b34801561083857600080fd5b50610447610847366004612f56565b60126020526000908152604090205481565b34801561086557600080fd5b5061044761087436600461322b565b60176020526000908152604090205481565b34801561089257600080fd5b506103ab6108a13660046130a4565b611996565b3480156108b257600080fd5b506103ab6119a5565b3480156108c757600080fd5b506103ab6108d6366004613145565b611a0d565b3480156108e757600080fd5b506103ab6108f6366004613025565b611a7a565b34801561090757600080fd5b506103ab61091636600461310a565b611aac565b34801561092757600080fd5b5060115461037590610100900460ff1681565b34801561094657600080fd5b506103c261095536600461322b565b611b6e565b34801561096657600080fd5b5061044760145481565b34801561097c57600080fd5b50610447600f5481565b34801561099257600080fd5b506103ef7f000000000000000000000000000000000000000000000000000000000000000081565b3480156109c657600080fd5b506103756109d5366004612f98565b6001600160a01b03918216600090815260056020908152604080832093909416825291909152205460ff1690565b6103ab610a1136600461322b565b611d35565b348015610a2257600080fd5b506103ab610a313660046131f0565b611eef565b348015610a4257600080fd5b506103ab610a51366004612f56565b611f5c565b348015610a6257600080fd5b50610375610a71366004612f56565b6001600160a01b031660009081526013602052604090205460ff1690565b60006001600160e01b0319821663780e9d6360e01b1480610ab45750610ab482611fb5565b92915050565b600a546001600160a01b03163314610aed5760405162461bcd60e51b8152600401610ae4906140b3565b60405180910390fd5b6011805462ff0000191662010000831515021790556040517f0e2fb031ee032dc02d8011dc50b816eb450cf856abd8261680dac74f72165bd290610b32908390613e86565b60405180910390a150565b606060008054610b4c906142d7565b80601f0160208091040260200160405190810160405280929190818152602001828054610b78906142d7565b8015610bc55780601f10610b9a57610100808354040283529160200191610bc5565b820191906000526020600020905b815481529060010190602001808311610ba857829003601f168201915b5050505050905090565b6000610bda82612005565b610bf65760405162461bcd60e51b8152600401610ae4906140a3565b506000908152600460205260409020546001600160a01b031690565b600c8054610c1f906142d7565b80601f0160208091040260200160405190810160405280929190818152602001828054610c4b906142d7565b8015610c985780601f10610c6d57610100808354040283529160200191610c98565b820191906000526020600020905b815481529060010190602001808311610c7b57829003601f168201915b505050505081565b6000610cab8261143f565b9050806001600160a01b0316836001600160a01b03161415610cdf5760405162461bcd60e51b8152600401610ae4906140f3565b336001600160a01b0382161480610cfb5750610cfb81336109d5565b610d175760405162461bcd60e51b8152600401610ae490614013565b610d218383612022565b505050565b600a546001600160a01b03163314610d505760405162461bcd60e51b8152600401610ae4906140b3565b6011805464ff000000001916640100000000831515021790556040517f9c6bc9b1655d51a0ba04b966dafa4a63b361d41aea8a5bd188e79270ae78498290610b32908390613e86565b600a546001600160a01b03163314610dc35760405162461bcd60e51b8152600401610ae4906140b3565b610dcc82612005565b610de85760405162461bcd60e51b8152600401610ae4906140e3565b6000828152600d602090815260409091208251610e0792840190612cd5565b50817f931f495b9a8e5d8e61946ea5d61e021f636cfe213a801f97589c18c152e408bd82604051610e389190613ed2565b60405180910390a25050565b610e4e3382612090565b610e6a5760405162461bcd60e51b8152600401610ae490614103565b610d21838383612131565b6000610e8083611553565b8210610e9e5760405162461bcd60e51b8152600401610ae490613f23565b506001600160a01b03919091166000908152600660209081526040808320938352929052205490565b600a546001600160a01b03163314610ef15760405162461bcd60e51b8152600401610ae4906140b3565b6000336001600160a01b031647604051610f0a90613e0a565b60006040518083038185875af1925050503d8060008114610f47576040519150601f19603f3d011682016040523d82523d6000602084013e610f4c565b606091505b5050905080610f6d5760405162461bcd60e51b8152600401610ae490613f53565b50565b610d2183838360405180602001604052806000815250611a7a565b60606000610f9883611553565b905060008167ffffffffffffffff811115610fb557610fb56143f6565b604051908082528060200260200182016040528015610fde578160200160208202803683370190505b50905060005b8281101561102557610ff68582610e75565b828281518110611008576110086143e0565b60209081029190910101528061101d81614331565b915050610fe4565b509392505050565b600a546001600160a01b031633146110575760405162461bcd60e51b8152600401610ae4906140b3565b600e8190556040517f5d3cc44bbc86a70941868a14a9f66a647d7f7499d4d3789f68e4486c11ea46da90610b32908390614163565b600061109760085490565b82106110b55760405162461bcd60e51b8152600401610ae490614113565b600882815481106110c8576110c86143e0565b90600052602060002001549050919050565b600a546001600160a01b031633146111045760405162461bcd60e51b8152600401610ae4906140b3565b610d2160188383612d59565b60115462010000900460ff16156111395760405162461bcd60e51b8152600401610ae490613f83565b6002600b54141561115c5760405162461bcd60e51b8152600401610ae490614133565b6002600b553360008181526013602052604090205460ff16156111915760405162461bcd60e51b8152600401610ae490613fd3565b600083815260166020526040902054156111bd5760405162461bcd60e51b8152600401610ae490613fb3565b600084815260176020526040902054156111e95760405162461bcd60e51b8152600401610ae4906140d3565b336111f38461143f565b6001600160a01b0316146112195760405162461bcd60e51b8152600401610ae490614063565b604051630b02f02d60e31b815233907f00000000000000000000000000000000000000000000000000000000000000006001600160a01b031690635817816890611267908890600401614163565b60206040518083038186803b15801561127f57600080fd5b505afa158015611293573d6000803e3d6000fd5b505050506040513d601f19601f820116820180604052508101906112b79190612f77565b6001600160a01b0316146112dd5760405162461bcd60e51b8152600401610ae490614083565b60008484336040516020016112f493929190613d8f565b60405160208183030381529060405280519060200120905060006113218461131b8461225e565b9061228e565b6011549091506001600160a01b03808316600160281b90920416146113585760405162461bcd60e51b8152600401610ae490614153565b6014805490600061136883614331565b90915550506014805460008781526016602090815260408083208490558a83526017825280832084905580516080810182528b81528083018b81524282840181815233606085018181529888526015909652958490209251835590516001830155935160028201559351600390940180546001600160a01b0319166001600160a01b0390951694909417909355925491517f528937b330082d892a98d4e428ab2dcca7844b51d227a1c0ae67f0b5261acbd99261142a9290918b918b916141a6565b60405180910390a250506001600b5550505050565b6000818152600260205260408120546001600160a01b031680610ab45760405162461bcd60e51b8152600401610ae490614043565b600a546001600160a01b0316331461149e5760405162461bcd60e51b8152600401610ae4906140b3565b6011805465010000000000600160c81b031916600160281b6001600160a01b038416021790556040517f5719a5656c5cfdaafa148ecf366fd3b0a7fae06449ce2a46225977fb7417e29d90610b32908390613e12565b600a546001600160a01b0316331461151e5760405162461bcd60e51b8152600401610ae4906140b3565b600f8190556040517f28a10a2e0b5582da7164754cb994f6214b8af6aa7f7e003305fbc09e7106c51390610b32908390614163565b60006001600160a01b03821661157b5760405162461bcd60e51b8152600401610ae490614033565b506001600160a01b031660009081526003602052604090205490565b600a546001600160a01b031633146115c15760405162461bcd60e51b8152600401610ae4906140b3565b6115cb60006122aa565b565b600a546001600160a01b031633146115f75760405162461bcd60e51b8152600401610ae4906140b3565b60108190556040517f71ef44637f994911a9fa6bc89bc19c9bbf6f510a992e74f90880ffbccd7b2c6b90610b32908390614163565b600a546001600160a01b031633146116565760405162461bcd60e51b8152600401610ae4906140b3565b600082116116765760405162461bcd60e51b8152600401610ae490614143565b600061168160085490565b600f54909150611691848361422c565b11156116af5760405162461bcd60e51b8152600401610ae490614053565b60015b83811161171c576116cc836116c7838561422c565b6122fc565b6116d6818361422c565b6040516001600160a01b038516907fbb06c934d5d088f12f303c757020e73ec03ae3217e26be764425bb34855c8b9490600090a38061171481614331565b9150506116b2565b50505050565b600a546001600160a01b0316331461174c5760405162461bcd60e51b8152600401610ae4906140b3565b6011805460ff19168215151790556040517f1f1a6b0fcc71315f2c3aeddbd1f6d527595d21eea9b73160e78d6fa49b7897a690610b32908390613e86565b60115462010000900460ff16156117b35760405162461bcd60e51b8152600401610ae490613f83565b6002600b5414156117d65760405162461bcd60e51b8152600401610ae490614133565b6002600b553360008181526013602052604090205460ff161561180b5760405162461bcd60e51b8152600401610ae490613fd3565b60115460ff1661182d5760405162461bcd60e51b8152600401610ae490613ef3565b82600e5461183b9190614258565b34101561185a5760405162461bcd60e51b8152600401610ae490614003565b6000831161187a5760405162461bcd60e51b8152600401610ae490614143565b60105433600090815260126020526040902054611897908561422c565b11156118b55760405162461bcd60e51b8152600401610ae490614023565b60006118c060085490565b600f549091506118d0858361422c565b11156118ee5760405162461bcd60e51b8152600401610ae490614053565b6118f783612316565b336000908152601260205260408120805486929061191690849061422c565b90915550600190505b84811161197b57611934336116c7838561422c565b61193e818361422c565b60405133907fbb06c934d5d088f12f303c757020e73ec03ae3217e26be764425bb34855c8b9490600090a38061197381614331565b91505061191f565b50506001600b55505050565b606060018054610b4c906142d7565b6119a133838361239a565b5050565b600a546001600160a01b031633146119cf5760405162461bcd60e51b8152600401610ae4906140b3565b6011805463ff000000191663010000001790556040517fe2a7169cedebe39671840370ae19ca4fc41be6191d4c77f174f189a4d8cd08c890600090a1565b600a546001600160a01b03163314611a375760405162461bcd60e51b8152600401610ae4906140b3565b6011805461ff001916610100831515021790556040517f36b97db79058521017a18d3f5261657061fa019ef5637747834f022e588ec07490610b32908390613e86565b611a843383612090565b611aa05760405162461bcd60e51b8152600401610ae490614103565b61171c8484848461243d565b600a546001600160a01b03163314611ad65760405162461bcd60e51b8152600401610ae4906140b3565b60005b8151811015611b3e57600160136000848481518110611afa57611afa6143e0565b6020908102919091018101516001600160a01b03168252810191909152604001600020805460ff191691151591909117905580611b3681614331565b915050611ad9565b507fb0acc561764f1521c892494310b184e20cafc08c4d047edaeeed1b55af37fe3081604051610b329190613e64565b6060611b7982612005565b611b955760405162461bcd60e51b8152600401610ae490613f13565b6011546060906301000000900460ff16611c3b57600c8054611bb6906142d7565b80601f0160208091040260200160405190810160405280929190818152602001828054611be2906142d7565b8015611c2f5780601f10611c0457610100808354040283529160200191611c2f565b820191906000526020600020905b815481529060010190602001808311611c1257829003601f168201915b50505050509050611cd5565b6000838152600d602052604090208054611c54906142d7565b80601f0160208091040260200160405190810160405280929190818152602001828054611c80906142d7565b8015611ccd5780601f10611ca257610100808354040283529160200191611ccd565b820191906000526020600020905b815481529060010190602001808311611cb057829003601f168201915b505050505090505b6000611cdf612470565b9050805160001415611cf2575092915050565b815115611d24578082604051602001611d0c929190613d3c565b60405160208183030381529060405292505050919050565b611d2d8461247f565b949350505050565b60115462010000900460ff1615611d5e5760405162461bcd60e51b8152600401610ae490613f83565b6002600b541415611d815760405162461bcd60e51b8152600401610ae490614133565b6002600b553360008181526013602052604090205460ff1615611db65760405162461bcd60e51b8152600401610ae490613fd3565b601154610100900460ff16611ddd5760405162461bcd60e51b8152600401610ae490613ef3565b81600e54611deb9190614258565b341015611e0a5760405162461bcd60e51b8152600401610ae490614003565b60008211611e2a5760405162461bcd60e51b8152600401610ae490614143565b601054821115611e4c5760405162461bcd60e51b8152600401610ae490613f93565b6000611e5760085490565b600f54909150611e67848361422c565b1115611e855760405162461bcd60e51b8152600401610ae490614053565b60015b838111611ee457611e9d336116c7838561422c565b611ea7818361422c565b60405133907fbb06c934d5d088f12f303c757020e73ec03ae3217e26be764425bb34855c8b9490600090a380611edc81614331565b915050611e88565b50506001600b555050565b600a546001600160a01b03163314611f195760405162461bcd60e51b8152600401610ae4906140b3565b8051611f2c90600c906020840190612cd5565b507f5b4603fcb3d3d9b6dba69e8b60ea02082aa1d621d2cc96d5bbfab381f6164e6e81604051610b329190613ed2565b600a546001600160a01b03163314611f865760405162461bcd60e51b8152600401610ae4906140b3565b6001600160a01b038116611fac5760405162461bcd60e51b8152600401610ae490613f43565b610f6d816122aa565b60006001600160e01b031982166380ac58cd60e01b1480611fe657506001600160e01b03198216635b5e139f60e01b145b80610ab457506301ffc9a760e01b6001600160e01b0319831614610ab4565b6000908152600260205260409020546001600160a01b0316151590565b600081815260046020526040902080546001600160a01b0319166001600160a01b03841690811790915581906120578261143f565b6001600160a01b03167f8c5be1e5ebec7d5bd14f71427d1e84f3dd0314c0f7b2291e5b200ac8c7c3b92560405160405180910390a45050565b600061209b82612005565b6120b75760405162461bcd60e51b8152600401610ae490613ff3565b60006120c28361143f565b9050806001600160a01b0316846001600160a01b031614806120fd5750836001600160a01b03166120f284610bcf565b6001600160a01b0316145b80611d2d57506001600160a01b0380821660009081526005602090815260408083209388168352929052205460ff16611d2d565b826001600160a01b03166121448261143f565b6001600160a01b03161461216a5760405162461bcd60e51b8152600401610ae490613f63565b6001600160a01b0382166121905760405162461bcd60e51b8152600401610ae490613fa3565b61219b838383612502565b6121a6600082612022565b6001600160a01b03831660009081526003602052604081208054600192906121cf908490614277565b90915550506001600160a01b03821660009081526003602052604081208054600192906121fd90849061422c565b909155505060008181526002602052604080822080546001600160a01b0319166001600160a01b0386811691821790925591518493918716917fddf252ad1be2c89b69c2b068fc378daa952ba7f163c4a11628f55a4df523b3ef91a4505050565b6000816040516020016122719190613d54565b604051602081830303815290604052805190602001209050919050565b600080600061229d85856125ba565b915091506110258161262a565b600a80546001600160a01b038381166001600160a01b0319831681179093556040519116919082907f8be0079c531659141344cd1fd0a4f28419497f9722a3daafe3b4186f6b6457e090600090a35050565b6119a182826040518060200160405280600081525061270f565b601154640100000000900460ff1615610f6d5760003360405160200161233c9190613de0565b60405160208183030381529060405280519060200120905060006123638361131b8461225e565b6011549091506001600160a01b03808316600160281b9092041614610d215760405162461bcd60e51b8152600401610ae490614123565b816001600160a01b0316836001600160a01b031614156123cc5760405162461bcd60e51b8152600401610ae490613fc3565b6001600160a01b0383811660008181526005602090815260408083209487168084529490915290819020805460ff1916851515179055517f17307eab39ab6107e8899845ad3d59bd9653f200f220920489ca2b5937696c3190612430908590613e86565b60405180910390a3505050565b612448848484612131565b61245484848484612742565b61171c5760405162461bcd60e51b8152600401610ae490613f33565b606060188054610b4c906142d7565b606061248a82612005565b6124a65760405162461bcd60e51b8152600401610ae4906140c3565b60006124b0612470565b905060008151116124d057604051806020016040528060008152506124fb565b806124da8461284f565b6040516020016124eb929190613d3c565b6040516020818303038152906040525b9392505050565b6001600160a01b03831661255d5761255881600880546000838152600960205260408120829055600182018355919091527ff3f7a9fe364faab93b216da50a3214154f22a0a2b415b23a84c8169e8b636ee30155565b612580565b816001600160a01b0316836001600160a01b03161461258057612580838261294d565b6001600160a01b03821661259757610d21816129ea565b826001600160a01b0316826001600160a01b031614610d2157610d218282612a99565b6000808251604114156125f15760208301516040840151606085015160001a6125e587828585612add565b94509450505050612623565b82516040141561261b5760208301516040840151612610868383612bbd565b935093505050612623565b506000905060025b9250929050565b600081600481111561263e5761263e61439e565b14156126475750565b600181600481111561265b5761265b61439e565b14156126795760405162461bcd60e51b8152600401610ae490613ee3565b600281600481111561268d5761268d61439e565b14156126ab5760405162461bcd60e51b8152600401610ae490613f03565b60038160048111156126bf576126bf61439e565b14156126dd5760405162461bcd60e51b8152600401610ae490613fe3565b60048160048111156126f1576126f161439e565b1415610f6d5760405162461bcd60e51b8152600401610ae490614073565b6127198383612bf6565b6127266000848484612742565b610d215760405162461bcd60e51b8152600401610ae490613f33565b60006001600160a01b0384163b1561284457604051630a85bd0160e11b81526001600160a01b0385169063150b7a0290612786903390899088908890600401613e20565b602060405180830381600087803b1580156127a057600080fd5b505af19250505080156127d0575060408051601f3d908101601f191682019092526127cd91810190613187565b60015b61282a573d8080156127fe576040519150601f19603f3d011682016040523d82523d6000602084013e612803565b606091505b5080516128225760405162461bcd60e51b8152600401610ae490613f33565b805181602001fd5b6001600160e01b031916630a85bd0160e11b149050611d2d565b506001949350505050565b6060816128735750506040805180820190915260018152600360fc1b602082015290565b8160005b811561289d578061288781614331565b91506128969050600a83614244565b9150612877565b60008167ffffffffffffffff8111156128b8576128b86143f6565b6040519080825280601f01601f1916602001820160405280156128e2576020820181803683370190505b5090505b8415611d2d576128f7600183614277565b9150612904600a8661435e565b61290f90603061422c565b60f81b818381518110612924576129246143e0565b60200101906001600160f81b031916908160001a905350612946600a86614244565b94506128e6565b6000600161295a84611553565b6129649190614277565b6000838152600760205260409020549091508082146129b7576001600160a01b03841660009081526006602090815260408083208584528252808320548484528184208190558352600790915290208190555b5060009182526007602090815260408084208490556001600160a01b039094168352600681528383209183525290812055565b6008546000906129fc90600190614277565b60008381526009602052604081205460088054939450909284908110612a2457612a246143e0565b906000526020600020015490508060088381548110612a4557612a456143e0565b6000918252602080832090910192909255828152600990915260408082208490558582528120556008805480612a7d57612a7d6143ca565b6001900381819060005260206000200160009055905550505050565b6000612aa483611553565b6001600160a01b039093166000908152600660209081526040808320868452825280832085905593825260079052919091209190915550565b6000807f7fffffffffffffffffffffffffffffff5d576e7357a4501ddfe92f46681b20a0831115612b145750600090506003612bb4565b8460ff16601b14158015612b2c57508460ff16601c14155b15612b3d5750600090506004612bb4565b600060018787878760405160008152602001604052604051612b629493929190613e94565b6020604051602081039080840390855afa158015612b84573d6000803e3d6000fd5b5050604051601f1901519150506001600160a01b038116612bad57600060019250925050612bb4565b9150600090505b94509492505050565b6000806001600160ff1b03831681612bda60ff86901c601b61422c565b9050612be887828885612add565b935093505050935093915050565b6001600160a01b038216612c1c5760405162461bcd60e51b8152600401610ae490614093565b612c2581612005565b15612c425760405162461bcd60e51b8152600401610ae490613f73565b612c4e60008383612502565b6001600160a01b0382166000908152600360205260408120805460019290612c7790849061422c565b909155505060008181526002602052604080822080546001600160a01b0319166001600160a01b03861690811790915590518392907fddf252ad1be2c89b69c2b068fc378daa952ba7f163c4a11628f55a4df523b3ef908290a45050565b828054612ce1906142d7565b90600052602060002090601f016020900481019282612d035760008555612d49565b82601f10612d1c57805160ff1916838001178555612d49565b82800160010185558215612d49579182015b82811115612d49578251825591602001919060010190612d2e565b50612d55929150612dcd565b5090565b828054612d65906142d7565b90600052602060002090601f016020900481019282612d875760008555612d49565b82601f10612da05782800160ff19823516178555612d49565b82800160010185558215612d49579182015b82811115612d49578235825591602001919060010190612db2565b5b80821115612d555760008155600101612dce565b6000612df5612df0846141dd565b6141c1565b90508083825260208201905082856020860282011115612e1757612e17600080fd5b60005b85811015612e435781612e2d8882612e81565b8452506020928301929190910190600101612e1a565b5050509392505050565b6000612e5b612df084614201565b905082815260208101848484011115612e7657612e76600080fd5b61102584828561429f565b8035610ab48161440c565b8051610ab48161440c565b600082601f830112612eab57612eab600080fd5b8135611d2d848260208601612de2565b8035610ab481614420565b8035610ab481614428565b8051610ab481614428565b600082601f830112612ef057612ef0600080fd5b8135611d2d848260208601612e4d565b60008083601f840112612f1557612f15600080fd5b50813567ffffffffffffffff811115612f3057612f30600080fd5b60208301915083600182028301111561262357612623600080fd5b8035610ab481614438565b600060208284031215612f6b57612f6b600080fd5b6000611d2d8484612e81565b600060208284031215612f8c57612f8c600080fd5b6000611d2d8484612e8c565b60008060408385031215612fae57612fae600080fd5b6000612fba8585612e81565b9250506020612fcb85828601612e81565b9150509250929050565b600080600060608486031215612fed57612fed600080fd5b6000612ff98686612e81565b935050602061300a86828701612e81565b925050604061301b86828701612f4b565b9150509250925092565b6000806000806080858703121561303e5761303e600080fd5b600061304a8787612e81565b945050602061305b87828801612e81565b935050604061306c87828801612f4b565b925050606085013567ffffffffffffffff81111561308c5761308c600080fd5b61309887828801612edc565b91505092959194509250565b600080604083850312156130ba576130ba600080fd5b60006130c68585612e81565b9250506020612fcb85828601612ebb565b600080604083850312156130ed576130ed600080fd5b60006130f98585612e81565b9250506020612fcb85828601612f4b565b60006020828403121561311f5761311f600080fd5b813567ffffffffffffffff81111561313957613139600080fd5b611d2d84828501612e97565b60006020828403121561315a5761315a600080fd5b6000611d2d8484612ebb565b60006020828403121561317b5761317b600080fd5b6000611d2d8484612ec6565b60006020828403121561319c5761319c600080fd5b6000611d2d8484612ed1565b600080602083850312156131be576131be600080fd5b823567ffffffffffffffff8111156131d8576131d8600080fd5b6131e485828601612f00565b92509250509250929050565b60006020828403121561320557613205600080fd5b813567ffffffffffffffff81111561321f5761321f600080fd5b611d2d84828501612edc565b60006020828403121561324057613240600080fd5b6000611d2d8484612f4b565b6000806040838503121561326257613262600080fd5b6000612fba8585612f4b565b6000806040838503121561328457613284600080fd5b60006132908585612f4b565b925050602083013567ffffffffffffffff8111156132b0576132b0600080fd5b612fcb85828601612edc565b6000806000606084860312156132d4576132d4600080fd5b60006132e08686612f4b565b93505060206132f186828701612f4b565b925050604084013567ffffffffffffffff81111561331157613311600080fd5b61301b86828701612edc565b6000613329838361333d565b505060200190565b600061332983836133ec565b6133468161428e565b82525050565b6133466133588261428e565b61434c565b6000613367825190565b80845260209384019383018060005b8381101561339b57815161338a888261331d565b975060208301925050600101613376565b509495945050505050565b60006133b0825190565b80845260209384019383018060005b8381101561339b5781516133d38882613331565b9750602083019250506001016133bf565b801515613346565b80613346565b60006133fc825190565b8084526020840193506134138185602086016142ab565b601f01601f19169290920192915050565b600061342e825190565b61343c8185602086016142ab565b9290920192915050565b601881526000602082017f45434453413a20696e76616c6964207369676e61747572650000000000000000815291505b5060200190565b601881526000602082017f53616c6520686173206e6f74207374617274656420796574000000000000000081529150613476565b601f81526000602082017f45434453413a20696e76616c6964207369676e6174757265206c656e6774680081529150613476565b601f81526000602082017f55524920717565727920666f72206e6f6e6578697374656e7420746f6b656e0081529150613476565b602b81526000602082017f455243373231456e756d657261626c653a206f776e657220696e646578206f7581526a74206f6620626f756e647360a81b602082015291505b5060400190565b603281526000602082017f4552433732313a207472616e7366657220746f206e6f6e20455243373231526581527131b2b4bb32b91034b6b83632b6b2b73a32b960711b6020820152915061355d565b602681526000602082017f4f776e61626c653a206e6577206f776e657220697320746865207a65726f206181526564647265737360d01b6020820152915061355d565b600f81526000602082016e151c985b9cd9995c8819985a5b1959608a1b81529150613476565b602581526000602082017f4552433732313a207472616e736665722066726f6d20696e636f72726563742081526437bbb732b960d91b6020820152915061355d565b601c81526000602082017f4552433732313a20746f6b656e20616c7265616479206d696e7465640000000081529150613476565b600f81526000602082016e10dbdb9d1c9858dd081c185d5cd959608a1b81529150613476565b602881526000602082017f4d6178206d696e7420616d6f756e7420706572207472616e73616374696f6e20815267195e18d95959195960c21b6020820152915061355d565b602481526000602082017f4552433732313a207472616e7366657220746f20746865207a65726f206164648152637265737360e01b6020820152915061355d565b601681526000602082017520b63932b0b23c9031b630b4b6b2b21037333a34b33360511b81529150613476565b601981526000602082017f4552433732313a20617070726f766520746f2063616c6c65720000000000000081529150613476565b601081526000602082016f213630b1b5b634b9ba32b2103ab9b2b960811b81529150613476565b602281526000602082017f45434453413a20696e76616c6964207369676e6174757265202773272076616c815261756560f01b6020820152915061355d565b602c81526000602082017f4552433732313a206f70657261746f7220717565727920666f72206e6f6e657881526b34b9ba32b73a103a37b5b2b760a11b6020820152915061355d565b6012815260006020820171496e73756666696369656e742066756e647360701b81529150613476565b603881526000602082017f4552433732313a20617070726f76652063616c6c6572206973206e6f74206f7781527f6e6572206e6f7220617070726f76656420666f7220616c6c00000000000000006020820152915061355d565b601881526000602082017f4d6178206d696e7420616d6f756e74206578636565646564000000000000000081529150613476565b602a81526000602082017f4552433732313a2062616c616e636520717565727920666f7220746865207a65815269726f206164647265737360b01b6020820152915061355d565b602981526000602082017f4552433732313a206f776e657220717565727920666f72206e6f6e657869737481526832b73a103a37b5b2b760b91b6020820152915061355d565b601681526000602082017513585e08139195081b1a5b5a5d08195e18d95959195960521b81529150613476565b601081526000602082016f2737ba1037333a34b3331037bbb732b960811b81529150613476565b602281526000602082017f45434453413a20696e76616c6964207369676e6174757265202776272076616c815261756560f01b6020820152915061355d565b600f81526000602082016e2737ba10383ab735b99037bbb732b960891b81529150613476565b60208082527f4552433732313a206d696e7420746f20746865207a65726f206164647265737391019081526000613476565b602c81526000602082017f4552433732313a20617070726f76656420717565727920666f72206e6f6e657881526b34b9ba32b73a103a37b5b2b760a11b6020820152915061355d565b60208082527f4f776e61626c653a2063616c6c6572206973206e6f7420746865206f776e657291019081526000613476565b602f81526000602082017f4552433732314d657461646174613a2055524920717565727920666f72206e6f81526e3732bc34b9ba32b73a103a37b5b2b760891b6020820152915061355d565b6014815260006020820173416c726561647920636c61696d65642070756e6b60601b81529150613476565b601c81526000602082017f55524920736574206f66206e6f6e6578697374656e7420746f6b656e0000000081529150613476565b602181526000602082017f4552433732313a20617070726f76616c20746f2063757272656e74206f776e658152603960f91b6020820152915061355d565b603181526000602082017f4552433732313a207472616e736665722063616c6c6572206973206e6f74206f8152701ddb995c881b9bdc88185c1c1c9bdd9959607a1b6020820152915061355d565b602c81526000602082017f455243373231456e756d657261626c653a20676c6f62616c20696e646578206f81526b7574206f6620626f756e647360a01b6020820152915061355d565b601081526000602082016f12de58c81b9bdd08185c1c1c9bdd995960821b81529150613476565b601f81526000602082017f5265656e7472616e637947756172643a207265656e7472616e742063616c6c0081529150613476565b601b81526000602082017f4e65656420746f206d696e74206174206c656173742031204e4654000000000081529150613476565b601581526000602082017414da1a5c1c1a5b99c81b9bdd081d995c9a599a5959605a1b81529150613476565b60ff8116613346565b6000613d488285613424565b9150611d2d8284613424565b7f19457468657265756d205369676e6564204d6573736167653a0a3332000000008152601c016000613d8682846133ec565b50602001919050565b701cda1a5c1c1a5b99cb5d995c9a599a5959607a1b81526011016000613db582866133ec565b602082019150613dc582856133ec565b602082019150613dd5828461334c565b506014019392505050565b6b1ade58cb585c1c1c9bdd995960a21b8152600c016000613e01828461334c565b50601401919050565b600081610ab4565b60208101610ab4828461333d565b60808101613e2e828761333d565b613e3b602083018661333d565b613e4860408301856133ec565b8181036060830152613e5a81846133f2565b9695505050505050565b602080825281016124fb818461335d565b602080825281016124fb81846133a6565b60208101610ab482846133e4565b60808101613ea282876133ec565b613eaf6020830186613d33565b613ebc60408301856133ec565b613ec960608301846133ec565b95945050505050565b602080825281016124fb81846133f2565b60208082528101610ab481613446565b60208082528101610ab48161347d565b60208082528101610ab4816134b1565b60208082528101610ab4816134e5565b60208082528101610ab481613519565b60208082528101610ab481613564565b60208082528101610ab4816135b3565b60208082528101610ab4816135f6565b60208082528101610ab48161361c565b60208082528101610ab48161365e565b60208082528101610ab481613692565b60208082528101610ab4816136b8565b60208082528101610ab4816136fd565b60208082528101610ab48161373e565b60208082528101610ab48161376b565b60208082528101610ab48161379f565b60208082528101610ab4816137c6565b60208082528101610ab481613805565b60208082528101610ab48161384e565b60208082528101610ab481613877565b60208082528101610ab4816138d1565b60208082528101610ab481613905565b60208082528101610ab48161394c565b60208082528101610ab481613992565b60208082528101610ab4816139bf565b60208082528101610ab4816139e6565b60208082528101610ab481613a25565b60208082528101610ab481613a4b565b60208082528101610ab481613a7d565b60208082528101610ab481613ac6565b60208082528101610ab481613af8565b60208082528101610ab481613b44565b60208082528101610ab481613b6f565b60208082528101610ab481613ba3565b60208082528101610ab481613be1565b60208082528101610ab481613c2f565b60208082528101610ab481613c78565b60208082528101610ab481613c9f565b60208082528101610ab481613cd3565b60208082528101610ab481613d07565b60208101610ab482846133ec565b6080810161417f82876133ec565b61418c60208301866133ec565b61419960408301856133ec565b613ec9606083018461333d565b608081016141b482876133ec565b613eaf60208301866133ec565b60006141cc60405190565b90506141d88282614304565b919050565b600067ffffffffffffffff8211156141f7576141f76143f6565b5060209081020190565b600067ffffffffffffffff82111561421b5761421b6143f6565b601f19601f83011660200192915050565b6000821982111561423f5761423f614372565b500190565b60008261425357614253614388565b500490565b600081600019048311821515161561427257614272614372565b500290565b60008282101561428957614289614372565b500390565b60006001600160a01b038216610ab4565b82818337506000910152565b60005b838110156142c65781810151838201526020016142ae565b8381111561171c5750506000910152565b6002810460018216806142eb57607f821691505b602082108114156142fe576142fe6143b4565b50919050565b601f19601f830116810181811067ffffffffffffffff8211171561432a5761432a6143f6565b6040525050565b600060001982141561434557614345614372565b5060010190565b6000610ab4826000610ab48260601b90565b60008261436d5761436d614388565b500690565b634e487b7160e01b600052601160045260246000fd5b634e487b7160e01b600052601260045260246000fd5b634e487b7160e01b600052602160045260246000fd5b634e487b7160e01b600052602260045260246000fd5b634e487b7160e01b600052603160045260246000fd5b634e487b7160e01b600052603260045260246000fd5b634e487b7160e01b600052604160045260246000fd5b6144158161428e565b8114610f6d57600080fd5b801515614415565b6001600160e01b03198116614415565b8061441556fea264697066735822122057cd89ac509bf22e356da7c80a4e8099275ec89442d931ef760e1fd38c2c1be564736f6c63430008070033",
  "devdoc": {
    "kind": "dev",
    "methods": {
      "approve(address,uint256)": {
        "details": "See {IERC721-approve}."
      },
      "balanceOf(address)": {
        "details": "See {IERC721-balanceOf}."
      },
      "getApproved(uint256)": {
        "details": "See {IERC721-getApproved}."
      },
      "isApprovedForAll(address,address)": {
        "details": "See {IERC721-isApprovedForAll}."
      },
      "name()": {
        "details": "See {IERC721Metadata-name}."
      },
      "owner()": {
        "details": "Returns the address of the current owner."
      },
      "ownerOf(uint256)": {
        "details": "See {IERC721-ownerOf}."
      },
      "renounceOwnership()": {
        "details": "Leaves the contract without owner. It will not be possible to call `onlyOwner` functions anymore. Can only be called by the current owner. NOTE: Renouncing ownership will leave the contract without an owner, thereby removing any functionality that is only available to the owner."
      },
      "safeTransferFrom(address,address,uint256)": {
        "details": "See {IERC721-safeTransferFrom}."
      },
      "safeTransferFrom(address,address,uint256,bytes)": {
        "details": "See {IERC721-safeTransferFrom}."
      },
      "setApprovalForAll(address,bool)": {
        "details": "See {IERC721-setApprovalForAll}."
      },
      "supportsInterface(bytes4)": {
        "details": "See {IERC165-supportsInterface}."
      },
      "symbol()": {
        "details": "See {IERC721Metadata-symbol}."
      },
      "tokenByIndex(uint256)": {
        "details": "See {IERC721Enumerable-tokenByIndex}."
      },
      "tokenOfOwnerByIndex(address,uint256)": {
        "details": "See {IERC721Enumerable-tokenOfOwnerByIndex}."
      },
      "tokenURI(uint256)": {
        "details": "See {IERC721Metadata-tokenURI}."
      },
      "totalSupply()": {
        "details": "See {IERC721Enumerable-totalSupply}."
      },
      "transferFrom(address,address,uint256)": {
        "details": "See {IERC721-transferFrom}."
      },
      "transferOwnership(address)": {
        "details": "Transfers ownership of the contract to a new account (`newOwner`). Can only be called by the current owner."
      }
    },
    "version": 1
  },
  "userdoc": {
    "events": {
      "TokenURIUpdated(uint256,string)": {
        "notice": "EVENTS "
      }
    },
    "kind": "user",
    "methods": {
      "constructor": {
        "notice": "METHODS "
      }
    },
    "version": 1
  },
  "storageLayout": {
    "storage": [
      {
        "astId": 170,
        "contract": "contracts/NFTiff.sol:NFTiff",
        "label": "_name",
        "offset": 0,
        "slot": "0",
        "type": "t_string_storage"
      },
      {
        "astId": 172,
        "contract": "contracts/NFTiff.sol:NFTiff",
        "label": "_symbol",
        "offset": 0,
        "slot": "1",
        "type": "t_string_storage"
      },
      {
        "astId": 176,
        "contract": "contracts/NFTiff.sol:NFTiff",
        "label": "_owners",
        "offset": 0,
        "slot": "2",
        "type": "t_mapping(t_uint256,t_address)"
      },
      {
        "astId": 180,
        "contract": "contracts/NFTiff.sol:NFTiff",
        "label": "_balances",
        "offset": 0,
        "slot": "3",
        "type": "t_mapping(t_address,t_uint256)"
      },
      {
        "astId": 184,
        "contract": "contracts/NFTiff.sol:NFTiff",
        "label": "_tokenApprovals",
        "offset": 0,
        "slot": "4",
        "type": "t_mapping(t_uint256,t_address)"
      },
      {
        "astId": 190,
        "contract": "contracts/NFTiff.sol:NFTiff",
        "label": "_operatorApprovals",
        "offset": 0,
        "slot": "5",
        "type": "t_mapping(t_address,t_mapping(t_address,t_bool))"
      },
      {
        "astId": 1159,
        "contract": "contracts/NFTiff.sol:NFTiff",
        "label": "_ownedTokens",
        "offset": 0,
        "slot": "6",
        "type": "t_mapping(t_address,t_mapping(t_uint256,t_uint256))"
      },
      {
        "astId": 1163,
        "contract": "contracts/NFTiff.sol:NFTiff",
        "label": "_ownedTokensIndex",
        "offset": 0,
        "slot": "7",
        "type": "t_mapping(t_uint256,t_uint256)"
      },
      {
        "astId": 1166,
        "contract": "contracts/NFTiff.sol:NFTiff",
        "label": "_allTokens",
        "offset": 0,
        "slot": "8",
        "type": "t_array(t_uint256)dyn_storage"
      },
      {
        "astId": 1170,
        "contract": "contracts/NFTiff.sol:NFTiff",
        "label": "_allTokensIndex",
        "offset": 0,
        "slot": "9",
        "type": "t_mapping(t_uint256,t_uint256)"
      },
      {
        "astId": 7,
        "contract": "contracts/NFTiff.sol:NFTiff",
        "label": "_owner",
        "offset": 0,
        "slot": "10",
        "type": "t_address"
      },
      {
        "astId": 115,
        "contract": "contracts/NFTiff.sol:NFTiff",
        "label": "_status",
        "offset": 0,
        "slot": "11",
        "type": "t_uint256"
      },
      {
        "astId": 2919,
        "contract": "contracts/NFTiff.sol:NFTiff",
        "label": "notRevealedUri",
        "offset": 0,
        "slot": "12",
        "type": "t_string_storage"
      },
      {
        "astId": 2923,
        "contract": "contracts/NFTiff.sol:NFTiff",
        "label": "_tokenURIs",
        "offset": 0,
        "slot": "13",
        "type": "t_mapping(t_uint256,t_string_storage)"
      },
      {
        "astId": 2926,
        "contract": "contracts/NFTiff.sol:NFTiff",
        "label": "cost",
        "offset": 0,
        "slot": "14",
        "type": "t_uint256"
      },
      {
        "astId": 2929,
        "contract": "contracts/NFTiff.sol:NFTiff",
        "label": "maxSupply",
        "offset": 0,
        "slot": "15",
        "type": "t_uint256"
      },
      {
        "astId": 2932,
        "contract": "contracts/NFTiff.sol:NFTiff",
        "label": "maxMintAmount",
        "offset": 0,
        "slot": "16",
        "type": "t_uint256"
      },
      {
        "astId": 2935,
        "contract": "contracts/NFTiff.sol:NFTiff",
        "label": "presaleActive",
        "offset": 0,
        "slot": "17",
        "type": "t_bool"
      },
      {
        "astId": 2938,
        "contract": "contracts/NFTiff.sol:NFTiff",
        "label": "publicSaleActive",
        "offset": 1,
        "slot": "17",
        "type": "t_bool"
      },
      {
        "astId": 2941,
        "contract": "contracts/NFTiff.sol:NFTiff",
        "label": "paused",
        "offset": 2,
        "slot": "17",
        "type": "t_bool"
      },
      {
        "astId": 2944,
        "contract": "contracts/NFTiff.sol:NFTiff",
        "label": "revealed",
        "offset": 3,
        "slot": "17",
        "type": "t_bool"
      },
      {
        "astId": 2947,
        "contract": "contracts/NFTiff.sol:NFTiff",
        "label": "isKycRequired",
        "offset": 4,
        "slot": "17",
        "type": "t_bool"
      },
      {
        "astId": 2949,
        "contract": "contracts/NFTiff.sol:NFTiff",
        "label": "signer",
        "offset": 5,
        "slot": "17",
        "type": "t_address"
      },
      {
        "astId": 2953,
        "contract": "contracts/NFTiff.sol:NFTiff",
        "label": "whitelistMinted",
        "offset": 0,
        "slot": "18",
        "type": "t_mapping(t_address,t_uint256)"
      },
      {
        "astId": 2957,
        "contract": "contracts/NFTiff.sol:NFTiff",
        "label": "blacklistedAddresses",
        "offset": 0,
        "slot": "19",
        "type": "t_mapping(t_address,t_bool)"
      },
      {
        "astId": 2961,
        "contract": "contracts/NFTiff.sol:NFTiff",
        "label": "totalClaimed",
        "offset": 0,
        "slot": "20",
        "type": "t_uint256"
      },
      {
        "astId": 2966,
        "contract": "contracts/NFTiff.sol:NFTiff",
        "label": "claimInfo",
        "offset": 0,
        "slot": "21",
        "type": "t_mapping(t_uint256,t_struct(ClaimInfo)2983_storage)"
      },
      {
        "astId": 2970,
        "contract": "contracts/NFTiff.sol:NFTiff",
        "label": "nftiffClaims",
        "offset": 0,
        "slot": "22",
        "type": "t_mapping(t_uint256,t_uint256)"
      },
      {
        "astId": 2974,
        "contract": "contracts/NFTiff.sol:NFTiff",
        "label": "punkClaims",
        "offset": 0,
        "slot": "23",
        "type": "t_mapping(t_uint256,t_uint256)"
      },
      {
        "astId": 3911,
        "contract": "contracts/NFTiff.sol:NFTiff",
        "label": "_baseTokenURI",
        "offset": 0,
        "slot": "24",
        "type": "t_string_storage"
      }
    ],
    "types": {
      "t_address": {
        "encoding": "inplace",
        "label": "address",
        "numberOfBytes": "20"
      },
      "t_array(t_uint256)dyn_storage": {
        "base": "t_uint256",
        "encoding": "dynamic_array",
        "label": "uint256[]",
        "numberOfBytes": "32"
      },
      "t_bool": {
        "encoding": "inplace",
        "label": "bool",
        "numberOfBytes": "1"
      },
      "t_mapping(t_address,t_bool)": {
        "encoding": "mapping",
        "key": "t_address",
        "label": "mapping(address => bool)",
        "numberOfBytes": "32",
        "value": "t_bool"
      },
      "t_mapping(t_address,t_mapping(t_address,t_bool))": {
        "encoding": "mapping",
        "key": "t_address",
        "label": "mapping(address => mapping(address => bool))",
        "numberOfBytes": "32",
        "value": "t_mapping(t_address,t_bool)"
      },
      "t_mapping(t_address,t_mapping(t_uint256,t_uint256))": {
        "encoding": "mapping",
        "key": "t_address",
        "label": "mapping(address => mapping(uint256 => uint256))",
        "numberOfBytes": "32",
        "value": "t_mapping(t_uint256,t_uint256)"
      },
      "t_mapping(t_address,t_uint256)": {
        "encoding": "mapping",
        "key": "t_address",
        "label": "mapping(address => uint256)",
        "numberOfBytes": "32",
        "value": "t_uint256"
      },
      "t_mapping(t_uint256,t_address)": {
        "encoding": "mapping",
        "key": "t_uint256",
        "label": "mapping(uint256 => address)",
        "numberOfBytes": "32",
        "value": "t_address"
      },
      "t_mapping(t_uint256,t_string_storage)": {
        "encoding": "mapping",
        "key": "t_uint256",
        "label": "mapping(uint256 => string)",
        "numberOfBytes": "32",
        "value": "t_string_storage"
      },
      "t_mapping(t_uint256,t_struct(ClaimInfo)2983_storage)": {
        "encoding": "mapping",
        "key": "t_uint256",
        "label": "mapping(uint256 => struct NFTiff.ClaimInfo)",
        "numberOfBytes": "32",
        "value": "t_struct(ClaimInfo)2983_storage"
      },
      "t_mapping(t_uint256,t_uint256)": {
        "encoding": "mapping",
        "key": "t_uint256",
        "label": "mapping(uint256 => uint256)",
        "numberOfBytes": "32",
        "value": "t_uint256"
      },
      "t_string_storage": {
        "encoding": "bytes",
        "label": "string",
        "numberOfBytes": "32"
      },
      "t_struct(ClaimInfo)2983_storage": {
        "encoding": "inplace",
        "label": "struct NFTiff.ClaimInfo",
        "members": [
          {
            "astId": 2976,
            "contract": "contracts/NFTiff.sol:NFTiff",
            "label": "punkId",
            "offset": 0,
            "slot": "0",
            "type": "t_uint256"
          },
          {
            "astId": 2978,
            "contract": "contracts/NFTiff.sol:NFTiff",
            "label": "nftiffId",
            "offset": 0,
            "slot": "1",
            "type": "t_uint256"
          },
          {
            "astId": 2980,
            "contract": "contracts/NFTiff.sol:NFTiff",
            "label": "timestamp",
            "offset": 0,
            "slot": "2",
            "type": "t_uint256"
          },
          {
            "astId": 2982,
            "contract": "contracts/NFTiff.sol:NFTiff",
            "label": "claimer",
            "offset": 0,
            "slot": "3",
            "type": "t_address"
          }
        ],
        "numberOfBytes": "128"
      },
      "t_uint256": {
        "encoding": "inplace",
        "label": "uint256",
        "numberOfBytes": "32"
      }
    }
  }
}