{
  "address": "0xA6bD9f651316e25CCD50B76Da1359B709435c234",
  "abi": [
    {
      "inputs": [
        {
          "internalType": "string",
          "name": "_initNotRevealedUri",
          "type": "string"
        },
        {
          "internalType": "address",
          "name": "punksContract_",
          "type": "address"
        }
      ],
      "stateMutability": "nonpayable",
      "type": "constructor"
    },
    {
      "anonymous": false,
      "inputs": [
        {
          "indexed": true,
          "internalType": "address",
          "name": "owner",
          "type": "address"
        },
        {
          "indexed": true,
          "internalType": "address",
          "name": "approved",
          "type": "address"
        },
        {
          "indexed": true,
          "internalType": "uint256",
          "name": "tokenId",
          "type": "uint256"
        }
      ],
      "name": "Approval",
      "type": "event"
    },
    {
      "anonymous": false,
      "inputs": [
        {
          "indexed": true,
          "internalType": "address",
          "name": "owner",
          "type": "address"
        },
        {
          "indexed": true,
          "internalType": "address",
          "name": "operator",
          "type": "address"
        },
        {
          "indexed": false,
          "internalType": "bool",
          "name": "approved",
          "type": "bool"
        }
      ],
      "name": "ApprovalForAll",
      "type": "event"
    },
    {
      "anonymous": false,
      "inputs": [
        {
          "indexed": true,
          "internalType": "address",
          "name": "to",
          "type": "address"
        },
        {
          "indexed": false,
          "internalType": "uint256",
          "name": "punkId",
          "type": "uint256"
        },
        {
          "indexed": false,
          "internalType": "uint256",
          "name": "nftiffId",
          "type": "uint256"
        }
      ],
      "name": "Claimed",
      "type": "event"
    },
    {
      "anonymous": false,
      "inputs": [
        {
          "indexed": true,
          "internalType": "address",
          "name": "to",
          "type": "address"
        },
        {
          "indexed": true,
          "internalType": "uint256",
          "name": "tokenId",
          "type": "uint256"
        }
      ],
      "name": "NFTiffMinted",
      "type": "event"
    },
    {
      "anonymous": false,
      "inputs": [
        {
          "indexed": true,
          "internalType": "address",
          "name": "previousOwner",
          "type": "address"
        },
        {
          "indexed": true,
          "internalType": "address",
          "name": "newOwner",
          "type": "address"
        }
      ],
      "name": "OwnershipTransferred",
      "type": "event"
    },
    {
      "anonymous": false,
      "inputs": [
        {
          "indexed": true,
          "internalType": "address",
          "name": "from",
          "type": "address"
        },
        {
          "indexed": true,
          "internalType": "address",
          "name": "to",
          "type": "address"
        },
        {
          "indexed": true,
          "internalType": "uint256",
          "name": "tokenId",
          "type": "uint256"
        }
      ],
      "name": "Transfer",
      "type": "event"
    },
    {
      "inputs": [
        {
          "internalType": "address",
          "name": "to",
          "type": "address"
        },
        {
          "internalType": "uint256",
          "name": "tokenId",
          "type": "uint256"
        }
      ],
      "name": "approve",
      "outputs": [],
      "stateMutability": "nonpayable",
      "type": "function"
    },
    {
      "inputs": [
        {
          "internalType": "address",
          "name": "owner",
          "type": "address"
        }
      ],
      "name": "balanceOf",
      "outputs": [
        {
          "internalType": "uint256",
          "name": "",
          "type": "uint256"
        }
      ],
      "stateMutability": "view",
      "type": "function"
    },
    {
      "inputs": [],
      "name": "baseExtension",
      "outputs": [
        {
          "internalType": "string",
          "name": "",
          "type": "string"
        }
      ],
      "stateMutability": "view",
      "type": "function"
    },
    {
      "inputs": [
        {
          "internalType": "address[]",
          "name": "addresses",
          "type": "address[]"
        }
      ],
      "name": "blacklistUsers",
      "outputs": [],
      "stateMutability": "nonpayable",
      "type": "function"
    },
    {
      "inputs": [
        {
          "internalType": "uint256",
          "name": "punk_",
          "type": "uint256"
        },
        {
          "internalType": "uint256",
          "name": "nftiff_",
          "type": "uint256"
        },
        {
          "internalType": "bytes",
          "name": "_signature",
          "type": "bytes"
        }
      ],
      "name": "claim",
      "outputs": [],
      "stateMutability": "payable",
      "type": "function"
    },
    {
      "inputs": [],
      "name": "cost",
      "outputs": [
        {
          "internalType": "uint256",
          "name": "",
          "type": "uint256"
        }
      ],
      "stateMutability": "view",
      "type": "function"
    },
    {
      "inputs": [
        {
          "internalType": "uint256",
          "name": "tokenId",
          "type": "uint256"
        }
      ],
      "name": "getApproved",
      "outputs": [
        {
          "internalType": "address",
          "name": "",
          "type": "address"
        }
      ],
      "stateMutability": "view",
      "type": "function"
    },
    {
      "inputs": [],
      "name": "getBaseURI",
      "outputs": [
        {
          "internalType": "string",
          "name": "",
          "type": "string"
        }
      ],
      "stateMutability": "view",
      "type": "function"
    },
    {
      "inputs": [],
      "name": "getContractBalance",
      "outputs": [
        {
          "internalType": "uint256",
          "name": "",
          "type": "uint256"
        }
      ],
      "stateMutability": "view",
      "type": "function"
    },
    {
      "inputs": [],
      "name": "getSigner",
      "outputs": [
        {
          "internalType": "address",
          "name": "",
          "type": "address"
        }
      ],
      "stateMutability": "view",
      "type": "function"
    },
    {
      "inputs": [
        {
          "internalType": "uint256",
          "name": "_mintAmount",
          "type": "uint256"
        },
        {
          "internalType": "address",
          "name": "destination",
          "type": "address"
        }
      ],
      "name": "gift",
      "outputs": [],
      "stateMutability": "nonpayable",
      "type": "function"
    },
    {
      "inputs": [
        {
          "internalType": "address",
          "name": "owner",
          "type": "address"
        },
        {
          "internalType": "address",
          "name": "operator",
          "type": "address"
        }
      ],
      "name": "isApprovedForAll",
      "outputs": [
        {
          "internalType": "bool",
          "name": "",
          "type": "bool"
        }
      ],
      "stateMutability": "view",
      "type": "function"
    },
    {
      "inputs": [
        {
          "internalType": "address",
          "name": "_user",
          "type": "address"
        }
      ],
      "name": "isBlacklisted",
      "outputs": [
        {
          "internalType": "bool",
          "name": "",
          "type": "bool"
        }
      ],
      "stateMutability": "view",
      "type": "function"
    },
    {
      "inputs": [],
      "name": "isKycRequired",
      "outputs": [
        {
          "internalType": "bool",
          "name": "",
          "type": "bool"
        }
      ],
      "stateMutability": "view",
      "type": "function"
    },
    {
      "inputs": [
        {
          "internalType": "address",
          "name": "_user",
          "type": "address"
        }
      ],
      "name": "isWhitelisted",
      "outputs": [
        {
          "internalType": "bool",
          "name": "",
          "type": "bool"
        }
      ],
      "stateMutability": "view",
      "type": "function"
    },
    {
      "inputs": [],
      "name": "maxMintAmount",
      "outputs": [
        {
          "internalType": "uint256",
          "name": "",
          "type": "uint256"
        }
      ],
      "stateMutability": "view",
      "type": "function"
    },
    {
      "inputs": [],
      "name": "maxSupply",
      "outputs": [
        {
          "internalType": "uint256",
          "name": "",
          "type": "uint256"
        }
      ],
      "stateMutability": "view",
      "type": "function"
    },
    {
      "inputs": [
        {
          "internalType": "uint256",
          "name": "_mintAmount",
          "type": "uint256"
        },
        {
          "internalType": "bytes",
          "name": "_signature",
          "type": "bytes"
        }
      ],
      "name": "mint1",
      "outputs": [],
      "stateMutability": "payable",
      "type": "function"
    },
    {
      "inputs": [
        {
          "internalType": "uint256",
          "name": "_mintAmount",
          "type": "uint256"
        }
      ],
      "name": "mintPublic",
      "outputs": [],
      "stateMutability": "payable",
      "type": "function"
    },
    {
      "inputs": [],
      "name": "name",
      "outputs": [
        {
          "internalType": "string",
          "name": "",
          "type": "string"
        }
      ],
      "stateMutability": "view",
      "type": "function"
    },
    {
      "inputs": [],
      "name": "notRevealedUri",
      "outputs": [
        {
          "internalType": "string",
          "name": "",
          "type": "string"
        }
      ],
      "stateMutability": "view",
      "type": "function"
    },
    {
      "inputs": [],
      "name": "owner",
      "outputs": [
        {
          "internalType": "address",
          "name": "",
          "type": "address"
        }
      ],
      "stateMutability": "view",
      "type": "function"
    },
    {
      "inputs": [
        {
          "internalType": "uint256",
          "name": "tokenId",
          "type": "uint256"
        }
      ],
      "name": "ownerOf",
      "outputs": [
        {
          "internalType": "address",
          "name": "",
          "type": "address"
        }
      ],
      "stateMutability": "view",
      "type": "function"
    },
    {
      "inputs": [
        {
          "internalType": "bool",
          "name": "_state",
          "type": "bool"
        }
      ],
      "name": "pause",
      "outputs": [],
      "stateMutability": "nonpayable",
      "type": "function"
    },
    {
      "inputs": [],
      "name": "paused",
      "outputs": [
        {
          "internalType": "bool",
          "name": "",
          "type": "bool"
        }
      ],
      "stateMutability": "view",
      "type": "function"
    },
    {
      "inputs": [],
      "name": "presaleActive",
      "outputs": [
        {
          "internalType": "bool",
          "name": "",
          "type": "bool"
        }
      ],
      "stateMutability": "view",
      "type": "function"
    },
    {
      "inputs": [],
      "name": "publicSaleActive",
      "outputs": [
        {
          "internalType": "bool",
          "name": "",
          "type": "bool"
        }
      ],
      "stateMutability": "view",
      "type": "function"
    },
    {
      "inputs": [],
      "name": "punksContract",
      "outputs": [
        {
          "internalType": "address",
          "name": "",
          "type": "address"
        }
      ],
      "stateMutability": "view",
      "type": "function"
    },
    {
      "inputs": [],
      "name": "renounceOwnership",
      "outputs": [],
      "stateMutability": "nonpayable",
      "type": "function"
    },
    {
      "inputs": [],
      "name": "reveal",
      "outputs": [],
      "stateMutability": "nonpayable",
      "type": "function"
    },
    {
      "inputs": [],
      "name": "revealed",
      "outputs": [
        {
          "internalType": "bool",
          "name": "",
          "type": "bool"
        }
      ],
      "stateMutability": "view",
      "type": "function"
    },
    {
      "inputs": [
        {
          "internalType": "address",
          "name": "from",
          "type": "address"
        },
        {
          "internalType": "address",
          "name": "to",
          "type": "address"
        },
        {
          "internalType": "uint256",
          "name": "tokenId",
          "type": "uint256"
        }
      ],
      "name": "safeTransferFrom",
      "outputs": [],
      "stateMutability": "nonpayable",
      "type": "function"
    },
    {
      "inputs": [
        {
          "internalType": "address",
          "name": "from",
          "type": "address"
        },
        {
          "internalType": "address",
          "name": "to",
          "type": "address"
        },
        {
          "internalType": "uint256",
          "name": "tokenId",
          "type": "uint256"
        },
        {
          "internalType": "bytes",
          "name": "_data",
          "type": "bytes"
        }
      ],
      "name": "safeTransferFrom",
      "outputs": [],
      "stateMutability": "nonpayable",
      "type": "function"
    },
    {
      "inputs": [
        {
          "internalType": "address",
          "name": "operator",
          "type": "address"
        },
        {
          "internalType": "bool",
          "name": "approved",
          "type": "bool"
        }
      ],
      "name": "setApprovalForAll",
      "outputs": [],
      "stateMutability": "nonpayable",
      "type": "function"
    },
    {
      "inputs": [
        {
          "internalType": "string",
          "name": "_newBaseExtension",
          "type": "string"
        }
      ],
      "name": "setBaseExtension",
      "outputs": [],
      "stateMutability": "nonpayable",
      "type": "function"
    },
    {
      "inputs": [
        {
          "internalType": "string",
          "name": "_newBaseURI",
          "type": "string"
        }
      ],
      "name": "setBaseURI",
      "outputs": [],
      "stateMutability": "nonpayable",
      "type": "function"
    },
    {
      "inputs": [
        {
          "internalType": "uint256",
          "name": "_newCost",
          "type": "uint256"
        }
      ],
      "name": "setCost",
      "outputs": [],
      "stateMutability": "nonpayable",
      "type": "function"
    },
    {
      "inputs": [
        {
          "internalType": "bool",
          "name": "_required",
          "type": "bool"
        }
      ],
      "name": "setKycRequired",
      "outputs": [],
      "stateMutability": "nonpayable",
      "type": "function"
    },
    {
      "inputs": [
        {
          "internalType": "uint256",
          "name": "_maxSupply",
          "type": "uint256"
        }
      ],
      "name": "setMaxSupply",
      "outputs": [],
      "stateMutability": "nonpayable",
      "type": "function"
    },
    {
      "inputs": [
        {
          "internalType": "string",
          "name": "_notRevealedURI",
          "type": "string"
        }
      ],
      "name": "setNotRevealedURI",
      "outputs": [],
      "stateMutability": "nonpayable",
      "type": "function"
    },
    {
      "inputs": [
        {
          "internalType": "bool",
          "name": "_saleActive",
          "type": "bool"
        }
      ],
      "name": "setPresaleStatus",
      "outputs": [],
      "stateMutability": "nonpayable",
      "type": "function"
    },
    {
      "inputs": [
        {
          "internalType": "bool",
          "name": "_saleActive",
          "type": "bool"
        }
      ],
      "name": "setPublicSaleStatus",
      "outputs": [],
      "stateMutability": "nonpayable",
      "type": "function"
    },
    {
      "inputs": [
        {
          "internalType": "address",
          "name": "signer_",
          "type": "address"
        }
      ],
      "name": "setSigner",
      "outputs": [],
      "stateMutability": "nonpayable",
      "type": "function"
    },
    {
      "inputs": [
        {
          "internalType": "uint256",
          "name": "_newmaxMintAmount",
          "type": "uint256"
        }
      ],
      "name": "setmaxMintAmount",
      "outputs": [],
      "stateMutability": "nonpayable",
      "type": "function"
    },
    {
      "inputs": [],
      "name": "signer",
      "outputs": [
        {
          "internalType": "address",
          "name": "",
          "type": "address"
        }
      ],
      "stateMutability": "view",
      "type": "function"
    },
    {
      "inputs": [
        {
          "internalType": "bytes4",
          "name": "interfaceId",
          "type": "bytes4"
        }
      ],
      "name": "supportsInterface",
      "outputs": [
        {
          "internalType": "bool",
          "name": "",
          "type": "bool"
        }
      ],
      "stateMutability": "view",
      "type": "function"
    },
    {
      "inputs": [],
      "name": "symbol",
      "outputs": [
        {
          "internalType": "string",
          "name": "",
          "type": "string"
        }
      ],
      "stateMutability": "view",
      "type": "function"
    },
    {
      "inputs": [
        {
          "internalType": "uint256",
          "name": "index",
          "type": "uint256"
        }
      ],
      "name": "tokenByIndex",
      "outputs": [
        {
          "internalType": "uint256",
          "name": "",
          "type": "uint256"
        }
      ],
      "stateMutability": "view",
      "type": "function"
    },
    {
      "inputs": [
        {
          "internalType": "address",
          "name": "owner",
          "type": "address"
        },
        {
          "internalType": "uint256",
          "name": "index",
          "type": "uint256"
        }
      ],
      "name": "tokenOfOwnerByIndex",
      "outputs": [
        {
          "internalType": "uint256",
          "name": "",
          "type": "uint256"
        }
      ],
      "stateMutability": "view",
      "type": "function"
    },
    {
      "inputs": [
        {
          "internalType": "uint256",
          "name": "tokenId",
          "type": "uint256"
        }
      ],
      "name": "tokenURI",
      "outputs": [
        {
          "internalType": "string",
          "name": "",
          "type": "string"
        }
      ],
      "stateMutability": "view",
      "type": "function"
    },
    {
      "inputs": [],
      "name": "totalSupply",
      "outputs": [
        {
          "internalType": "uint256",
          "name": "",
          "type": "uint256"
        }
      ],
      "stateMutability": "view",
      "type": "function"
    },
    {
      "inputs": [
        {
          "internalType": "address",
          "name": "from",
          "type": "address"
        },
        {
          "internalType": "address",
          "name": "to",
          "type": "address"
        },
        {
          "internalType": "uint256",
          "name": "tokenId",
          "type": "uint256"
        }
      ],
      "name": "transferFrom",
      "outputs": [],
      "stateMutability": "nonpayable",
      "type": "function"
    },
    {
      "inputs": [
        {
          "internalType": "address",
          "name": "newOwner",
          "type": "address"
        }
      ],
      "name": "transferOwnership",
      "outputs": [],
      "stateMutability": "nonpayable",
      "type": "function"
    },
    {
      "inputs": [
        {
          "internalType": "address",
          "name": "_owner",
          "type": "address"
        }
      ],
      "name": "walletOfOwner",
      "outputs": [
        {
          "internalType": "uint256[]",
          "name": "",
          "type": "uint256[]"
        }
      ],
      "stateMutability": "view",
      "type": "function"
    },
    {
      "inputs": [
        {
          "internalType": "address[]",
          "name": "addresses",
          "type": "address[]"
        }
      ],
      "name": "whitelistUsers",
      "outputs": [],
      "stateMutability": "nonpayable",
      "type": "function"
    },
    {
      "inputs": [],
      "name": "withdraw",
      "outputs": [],
      "stateMutability": "payable",
      "type": "function"
    }
  ],
  "transactionHash": "0x09bc34cfbf78a7faddde61875f2985ecaeff2c8f9a909bb627d43389c1ec2bf4",
  "args": [
    "",
    "0x0ece5312f66002b4103FBb6A0ff4ad90aF52f91a"
  ],
  "solcInputHash": "f0dddaf64f902fa6627f9d8666133cea",
  "bytecode": "0x60e0604052600560a081905264173539b7b760d91b60c09081526200002891600d9190620001e3565b506801a055690d9db80000600f556101f460105560026011556012805464ffffffffff19166401000000001790553480156200006357600080fd5b50604051620044a0380380620044a0833981016040819052620000869162000315565b60408051808201825260068082526527232a34b33360d11b602080840182815285518087019096529285528401528151919291620000c791600091620001e3565b508051620000dd906001906020840190620001e3565b505050620000fa620000f46200013e60201b60201c565b62000142565b6001600b556200010a8262000194565b60128054600160281b600160c81b03191633650100000000000217905560601b6001600160601b03191660805250620004e5565b3390565b600a80546001600160a01b038381166001600160a01b0319831681179093556040519116919082907f8be0079c531659141344cd1fd0a4f28419497f9722a3daafe3b4186f6b6457e090600090a35050565b600a546001600160a01b03163314620001ca5760405162461bcd60e51b8152600401620001c19062000373565b60405180910390fd5b8051620001df90600e906020840190620001e3565b5050565b828054620001f1906200043f565b90600052602060002090601f01602090048101928262000215576000855562000260565b82601f106200023057805160ff191683800117855562000260565b8280016001018555821562000260579182015b828111156200026057825182559160200191906001019062000243565b506200026e92915062000272565b5090565b5b808211156200026e576000815560010162000273565b6000620002a06200029a84620003cd565b620003ae565b905082815260208101848484011115620002bd57620002bd600080fd5b620002ca8482856200040c565b509392505050565b8051620002df81620004cb565b92915050565b600082601f830112620002fb57620002fb600080fd5b81516200030d84826020860162000289565b949350505050565b600080604083850312156200032d576200032d600080fd5b82516001600160401b03811115620003485762000348600080fd5b6200035685828601620002e5565b92505060206200036985828601620002d2565b9150509250929050565b60208082528181019081527f4f776e61626c653a2063616c6c6572206973206e6f7420746865206f776e6572604083015260608201620002df565b6000620003ba60405190565b9050620003c8828262000470565b919050565b60006001600160401b03821115620003e957620003e9620004b5565b601f19601f83011660200192915050565b60006001600160a01b038216620002df565b60005b83811015620004295781810151838201526020016200040f565b8381111562000439576000848401525b50505050565b6002810460018216806200045457607f821691505b602082108114156200046a576200046a6200049f565b50919050565b601f19601f83011681018181106001600160401b0382111715620004985762000498620004b5565b6040525050565b634e487b7160e01b600052602260045260246000fd5b634e487b7160e01b600052604160045260246000fd5b620004d681620003fa565b8114620004e257600080fd5b50565b60805160601c613f956200050b6000396000818161094a01526110a80152613f956000f3fe60806040526004361061036b5760003560e01c80636f9fb98a116101c6578063b88d4fde116100f7578063e46317b511610095578063efd0cbf91161006f578063efd0cbf9146109d5578063f2c4ce1e146109e8578063f2fde38b14610a08578063fe575a8714610a2857600080fd5b8063e46317b514610938578063e985e9c51461096c578063edec5f27146109b557600080fd5b8063c6682862116100d1578063c6682862146108cd578063c87b56dd146108e2578063d5abeb0114610902578063da3ef23f1461091857600080fd5b8063b88d4fde1461086e578063bb3d676a1461088e578063bc8893b4146108ae57600080fd5b80638895283f1161016457806395d89b411161013e57806395d89b4114610804578063a22cb46514610819578063a475b5dd14610839578063b423fe671461084e57600080fd5b80638895283f146107b35780638b9a10d7146107d35780638da5cb5b146107e657600080fd5b8063715018a6116101a0578063715018a6146107495780637ac3c02f1461075e5780637f00c7a61461077357806383a076be1461079357600080fd5b80636f9fb98a146106ff57806370a0823114610714578063714c53981461073457600080fd5b80633ccfd60b116102a057806353135ca01161023e5780635eddd157116102185780635eddd1571461068c5780636352211e1461069f5780636c19e783146106bf5780636f8b44b0146106df57600080fd5b806353135ca01461063257806355f804b31461064c5780635c975abb1461066c57600080fd5b8063438b63001161027a578063438b6300146105a457806344a0d68a146105d15780634f6ccce7146105f1578063518302271461061157600080fd5b80633ccfd60b1461055a5780633e4191dc1461056257806342842e0e1461058457600080fd5b8063150909f71161030d578063239c70ae116102e7578063239c70ae146104cb57806323b872dd146104e15780632f745c59146105015780633af32abf1461052157600080fd5b8063150909f71461046f57806318160ddd1461048f578063238ac933146104a457600080fd5b8063081812fc11610349578063081812fc146103ea578063081c8c4414610417578063095ea7b31461042c57806313faede61461044c57600080fd5b806301ffc9a71461037057806302329a29146103a657806306fdde03146103c8575b600080fd5b34801561037c57600080fd5b5061039061038b366004612de2565b610a61565b60405161039d9190613a2a565b60405180910390f35b3480156103b257600080fd5b506103c66103c1366004612dc1565b610a8c565b005b3480156103d457600080fd5b506103dd610adb565b60405161039d9190613a6d565b3480156103f657600080fd5b5061040a610405366004612e5f565b610b6d565b60405161039d91906139c7565b34801561042357600080fd5b506103dd610bbd565b34801561043857600080fd5b506103c6610447366004612d53565b610c4b565b34801561045857600080fd5b50610462600f5481565b60405161039d9190613cbe565b34801561047b57600080fd5b506103c661048a366004612dc1565b610cd1565b34801561049b57600080fd5b50600854610462565b3480156104b057600080fd5b5060125461040a90600160281b90046001600160a01b031681565b3480156104d757600080fd5b5061046260115481565b3480156104ed57600080fd5b506103c66104fc366004612c51565b610d1b565b34801561050d57600080fd5b5061046261051c366004612d53565b610d4c565b34801561052d57600080fd5b5061039061053c366004612bd2565b6001600160a01b031660009081526013602052604090205460ff1690565b6103c6610d9e565b34801561056e57600080fd5b5060125461039090640100000000900460ff1681565b34801561059057600080fd5b506103c661059f366004612c51565b610e34565b3480156105b057600080fd5b506105c46105bf366004612bd2565b610e4f565b60405161039d9190613a19565b3480156105dd57600080fd5b506103c66105ec366004612e5f565b610ef1565b3480156105fd57600080fd5b5061046261060c366004612e5f565b610f20565b34801561061d57600080fd5b50601254610390906301000000900460ff1681565b34801561063e57600080fd5b506012546103909060ff1681565b34801561065857600080fd5b506103c6610667366004612e24565b610f6e565b34801561067857600080fd5b506012546103909062010000900460ff1681565b6103c661069a366004612ef0565b610faf565b3480156106ab57600080fd5b5061040a6106ba366004612e5f565b61126f565b3480156106cb57600080fd5b506103c66106da366004612bd2565b6112a4565b3480156106eb57600080fd5b506103c66106fa366004612e5f565b6112fc565b34801561070b57600080fd5b5061046261132b565b34801561072057600080fd5b5061046261072f366004612bd2565b61135d565b34801561074057600080fd5b506103dd6113a1565b34801561075557600080fd5b506103c66113db565b34801561076a57600080fd5b5061040a611411565b34801561077f57600080fd5b506103c661078e366004612e5f565b611455565b34801561079f57600080fd5b506103c66107ae366004612e80565b611484565b3480156107bf57600080fd5b506103c66107ce366004612dc1565b61157a565b6103c66107e1366004612ea2565b6115b7565b3480156107f257600080fd5b50600a546001600160a01b031661040a565b34801561081057600080fd5b506103dd611776565b34801561082557600080fd5b506103c6610834366004612d20565b611785565b34801561084557600080fd5b506103c6611790565b34801561085a57600080fd5b506103c6610869366004612dc1565b6117cf565b34801561087a57600080fd5b506103c6610889366004612ca1565b611813565b34801561089a57600080fd5b506103c66108a9366004612d86565b611845565b3480156108ba57600080fd5b5060125461039090610100900460ff1681565b3480156108d957600080fd5b506103dd6118d7565b3480156108ee57600080fd5b506103dd6108fd366004612e5f565b6118e4565b34801561090e57600080fd5b5061046260105481565b34801561092457600080fd5b506103c6610933366004612e24565b611a22565b34801561094457600080fd5b5061040a7f000000000000000000000000000000000000000000000000000000000000000081565b34801561097857600080fd5b50610390610987366004612c14565b6001600160a01b03918216600090815260056020908152604080832093909416825291909152205460ff1690565b3480156109c157600080fd5b506103c66109d0366004612d86565b611a5f565b6103c66109e3366004612e5f565b611af1565b3480156109f457600080fd5b506103c6610a03366004612e24565b611cab565b348015610a1457600080fd5b506103c6610a23366004612bd2565b611ce8565b348015610a3457600080fd5b50610390610a43366004612bd2565b6001600160a01b031660009081526014602052604090205460ff1690565b60006001600160e01b0319821663780e9d6360e01b1480610a865750610a8682611d41565b92915050565b600a546001600160a01b03163314610abf5760405162461bcd60e51b8152600401610ab690613bee565b60405180910390fd5b60128054911515620100000262ff000019909216919091179055565b606060008054610aea90613df8565b80601f0160208091040260200160405190810160405280929190818152602001828054610b1690613df8565b8015610b635780601f10610b3857610100808354040283529160200191610b63565b820191906000526020600020905b815481529060010190602001808311610b4657829003601f168201915b5050505050905090565b6000818152600260205260408120546001600160a01b0316610ba15760405162461bcd60e51b8152600401610ab690613bde565b506000908152600460205260409020546001600160a01b031690565b600e8054610bca90613df8565b80601f0160208091040260200160405190810160405280929190818152602001828054610bf690613df8565b8015610c435780601f10610c1857610100808354040283529160200191610c43565b820191906000526020600020905b815481529060010190602001808311610c2657829003601f168201915b505050505081565b6000610c568261126f565b9050806001600160a01b0316836001600160a01b03161415610c8a5760405162461bcd60e51b8152600401610ab690613c1e565b336001600160a01b0382161480610ca65750610ca68133610987565b610cc25760405162461bcd60e51b8152600401610ab690613b6e565b610ccc8383611d91565b505050565b600a546001600160a01b03163314610cfb5760405162461bcd60e51b8152600401610ab690613bee565b601280549115156401000000000264ff0000000019909216919091179055565b610d253382611dff565b610d415760405162461bcd60e51b8152600401610ab690613c3e565b610ccc838383611eb1565b6000610d578361135d565b8210610d755760405162461bcd60e51b8152600401610ab690613abe565b506001600160a01b03919091166000908152600660209081526040808320938352929052205490565b600a546001600160a01b03163314610dc85760405162461bcd60e51b8152600401610ab690613bee565b6000336001600160a01b031647604051610de1906139bf565b60006040518083038185875af1925050503d8060008114610e1e576040519150601f19603f3d011682016040523d82523d6000602084013e610e23565b606091505b5050905080610e3157600080fd5b50565b610ccc83838360405180602001604052806000815250611813565b60606000610e5c8361135d565b905060008167ffffffffffffffff811115610e7957610e79613f17565b604051908082528060200260200182016040528015610ea2578160200160208202803683370190505b50905060005b82811015610ee957610eba8582610d4c565b828281518110610ecc57610ecc613f01565b602090810291909101015280610ee181613e52565b915050610ea8565b509392505050565b600a546001600160a01b03163314610f1b5760405162461bcd60e51b8152600401610ab690613bee565b600f55565b6000610f2b60085490565b8210610f495760405162461bcd60e51b8152600401610ab690613c4e565b60088281548110610f5c57610f5c613f01565b90600052602060002001549050919050565b600a546001600160a01b03163314610f985760405162461bcd60e51b8152600401610ab690613bee565b8051610fab90600c906020840190612a10565b5050565b60125462010000900460ff1615610fd85760405162461bcd60e51b8152600401610ab690613bfe565b6002600b541415610ffb5760405162461bcd60e51b8152600401610ab690613c8e565b6002600b553360008181526014602052604090205460ff16156110305760405162461bcd60e51b8152600401610ab690613c6e565b6000848152601560209081526040808320868452909152902054156110675760405162461bcd60e51b8152600401610ab690613b0e565b336110718461126f565b6001600160a01b0316146110975760405162461bcd60e51b8152600401610ab690613bae565b604051630b02f02d60e31b815233907f00000000000000000000000000000000000000000000000000000000000000006001600160a01b0316906358178168906110e5908890600401613cbe565b60206040518083038186803b1580156110fd57600080fd5b505afa158015611111573d6000803e3d6000fd5b505050506040513d601f19601f820116820180604052508101906111359190612bf3565b6001600160a01b03161461115b5760405162461bcd60e51b8152600401610ab690613aae565b600084843360405160200161117293929190613944565b604051602081830303815290604052805190602001209050600061119f8461119984611fde565b9061200e565b6012549091506001600160a01b03808316600160281b90920416146111d65760405162461bcd60e51b8152600401610ab690613cae565b60408051808201825242815233602080830182815260008b8152601583528581208b8252909252908490209251835551600190920180546001600160a01b0319166001600160a01b039093169290921790915590517f987d620f307ff6b94d58743cb7a7509f24071586a77759b77c2d4e29f75a2f9a9061125a9089908990613ccc565b60405180910390a250506001600b5550505050565b6000818152600260205260408120546001600160a01b031680610a865760405162461bcd60e51b8152600401610ab690613b8e565b600a546001600160a01b031633146112ce5760405162461bcd60e51b8152600401610ab690613bee565b601280546001600160a01b03909216600160281b0265010000000000600160c81b0319909216919091179055565b600a546001600160a01b031633146113265760405162461bcd60e51b8152600401610ab690613bee565b601055565b600a546000906001600160a01b031633146113585760405162461bcd60e51b8152600401610ab690613bee565b504790565b60006001600160a01b0382166113855760405162461bcd60e51b8152600401610ab690613b7e565b506001600160a01b031660009081526003602052604090205490565b600a546060906001600160a01b031633146113ce5760405162461bcd60e51b8152600401610ab690613bee565b600c8054610aea90613df8565b600a546001600160a01b031633146114055760405162461bcd60e51b8152600401610ab690613bee565b61140f600061202a565b565b600a546000906001600160a01b0316331461143e5760405162461bcd60e51b8152600401610ab690613bee565b50601254600160281b90046001600160a01b031690565b600a546001600160a01b0316331461147f5760405162461bcd60e51b8152600401610ab690613bee565b601155565b600a546001600160a01b031633146114ae5760405162461bcd60e51b8152600401610ab690613bee565b600082116114ce5760405162461bcd60e51b8152600401610ab690613c9e565b60006114d960085490565b6010549091506114e98483613d4d565b11156115075760405162461bcd60e51b8152600401610ab690613b9e565b60015b838111611574576115248361151f8385613d4d565b61207c565b61152e8183613d4d565b6040516001600160a01b038516907fbb06c934d5d088f12f303c757020e73ec03ae3217e26be764425bb34855c8b9490600090a38061156c81613e52565b91505061150a565b50505050565b600a546001600160a01b031633146115a45760405162461bcd60e51b8152600401610ab690613bee565b6012805460ff1916911515919091179055565b60125462010000900460ff16156115e05760405162461bcd60e51b8152600401610ab690613bfe565b6002600b5414156116035760405162461bcd60e51b8152600401610ab690613c8e565b6002600b553360008181526014602052604090205460ff16156116385760405162461bcd60e51b8152600401610ab690613c6e565b60125460ff1661165a5760405162461bcd60e51b8152600401610ab690613a8e565b82600f546116689190613d79565b3410156116875760405162461bcd60e51b8152600401610ab690613c2e565b600083116116a75760405162461bcd60e51b8152600401610ab690613c9e565b6011548311156116c95760405162461bcd60e51b8152600401610ab690613b4e565b60006116d460085490565b6010549091506116e48583613d4d565b11156117025760405162461bcd60e51b8152600401610ab690613b9e565b61170b83612096565b60015b84811161176a576117233361151f8385613d4d565b61172d8183613d4d565b60405133907fbb06c934d5d088f12f303c757020e73ec03ae3217e26be764425bb34855c8b9490600090a38061176281613e52565b91505061170e565b50506001600b55505050565b606060018054610aea90613df8565b610fab338383612149565b600a546001600160a01b031633146117ba5760405162461bcd60e51b8152600401610ab690613bee565b6012805463ff00000019166301000000179055565b600a546001600160a01b031633146117f95760405162461bcd60e51b8152600401610ab690613bee565b601280549115156101000261ff0019909216919091179055565b61181d3383611dff565b6118395760405162461bcd60e51b8152600401610ab690613c3e565b611574848484846121ec565b600a546001600160a01b0316331461186f5760405162461bcd60e51b8152600401610ab690613bee565b60005b8151811015610fab5760016014600084848151811061189357611893613f01565b6020908102919091018101516001600160a01b03168252810191909152604001600020805460ff1916911515919091179055806118cf81613e52565b915050611872565b600d8054610bca90613df8565b6000818152600260205260409020546060906001600160a01b031661191b5760405162461bcd60e51b8152600401610ab690613c0e565b6012546301000000900460ff166119be57600e805461193990613df8565b80601f016020809104026020016040519081016040528092919081815260200182805461196590613df8565b80156119b25780601f10611987576101008083540402835291602001916119b2565b820191906000526020600020905b81548152906001019060200180831161199557829003601f168201915b50505050509050919050565b60006119c861221f565b905060008151116119e85760405180602001604052806000815250611a16565b806119f28461222e565b600d604051602001611a06939291906138dc565b6040516020818303038152906040525b9392505050565b919050565b600a546001600160a01b03163314611a4c5760405162461bcd60e51b8152600401610ab690613bee565b8051610fab90600d906020840190612a10565b600a546001600160a01b03163314611a895760405162461bcd60e51b8152600401610ab690613bee565b60005b8151811015610fab57600160136000848481518110611aad57611aad613f01565b6020908102919091018101516001600160a01b03168252810191909152604001600020805460ff191691151591909117905580611ae981613e52565b915050611a8c565b60125462010000900460ff1615611b1a5760405162461bcd60e51b8152600401610ab690613bfe565b6002600b541415611b3d5760405162461bcd60e51b8152600401610ab690613c8e565b6002600b553360008181526014602052604090205460ff1615611b725760405162461bcd60e51b8152600401610ab690613c6e565b601254610100900460ff16611b995760405162461bcd60e51b8152600401610ab690613a8e565b81600f54611ba79190613d79565b341015611bc65760405162461bcd60e51b8152600401610ab690613c2e565b60008211611be65760405162461bcd60e51b8152600401610ab690613c9e565b601154821115611c085760405162461bcd60e51b8152600401610ab690613b4e565b6000611c1360085490565b601054909150611c238483613d4d565b1115611c415760405162461bcd60e51b8152600401610ab690613b9e565b60015b838111611ca057611c593361151f8385613d4d565b611c638183613d4d565b60405133907fbb06c934d5d088f12f303c757020e73ec03ae3217e26be764425bb34855c8b9490600090a380611c9881613e52565b915050611c44565b50506001600b555050565b600a546001600160a01b03163314611cd55760405162461bcd60e51b8152600401610ab690613bee565b8051610fab90600e906020840190612a10565b600a546001600160a01b03163314611d125760405162461bcd60e51b8152600401610ab690613bee565b6001600160a01b038116611d385760405162461bcd60e51b8152600401610ab690613ade565b610e318161202a565b60006001600160e01b031982166380ac58cd60e01b1480611d7257506001600160e01b03198216635b5e139f60e01b145b80610a8657506301ffc9a760e01b6001600160e01b0319831614610a86565b600081815260046020526040902080546001600160a01b0319166001600160a01b0384169081179091558190611dc68261126f565b6001600160a01b03167f8c5be1e5ebec7d5bd14f71427d1e84f3dd0314c0f7b2291e5b200ac8c7c3b92560405160405180910390a45050565b6000818152600260205260408120546001600160a01b0316611e335760405162461bcd60e51b8152600401610ab690613b5e565b6000611e3e8361126f565b9050806001600160a01b0316846001600160a01b03161480611e795750836001600160a01b0316611e6e84610b6d565b6001600160a01b0316145b80611ea957506001600160a01b0380821660009081526005602090815260408083209388168352929052205460ff165b949350505050565b826001600160a01b0316611ec48261126f565b6001600160a01b031614611eea5760405162461bcd60e51b8152600401610ab690613aee565b6001600160a01b038216611f105760405162461bcd60e51b8152600401610ab690613b1e565b611f1b83838361232c565b611f26600082611d91565b6001600160a01b0383166000908152600360205260408120805460019290611f4f908490613d98565b90915550506001600160a01b0382166000908152600360205260408120805460019290611f7d908490613d4d565b909155505060008181526002602052604080822080546001600160a01b0319166001600160a01b0386811691821790925591518493918716917fddf252ad1be2c89b69c2b068fc378daa952ba7f163c4a11628f55a4df523b3ef91a4505050565b600081604051602001611ff19190613909565b604051602081830303815290604052805190602001209050919050565b600080600061201d85856123e4565b91509150610ee981612454565b600a80546001600160a01b038381166001600160a01b0319831681179093556040519116919082907f8be0079c531659141344cd1fd0a4f28419497f9722a3daafe3b4186f6b6457e090600090a35050565b610fab828260405180602001604052806000815250612539565b3360009081526013602052604090205460ff166120c55760405162461bcd60e51b8152600401610ab690613c7e565b601254640100000000900460ff1615610e31576000336040516020016120eb9190613995565b60405160208183030381529060405280519060200120905060006121128361119984611fde565b6012549091506001600160a01b03808316600160281b9092041614610ccc5760405162461bcd60e51b8152600401610ab690613c5e565b816001600160a01b0316836001600160a01b0316141561217b5760405162461bcd60e51b8152600401610ab690613b2e565b6001600160a01b0383811660008181526005602090815260408083209487168084529490915290819020805460ff1916851515179055517f17307eab39ab6107e8899845ad3d59bd9653f200f220920489ca2b5937696c31906121df908590613a2a565b60405180910390a3505050565b6121f7848484611eb1565b6122038484848461256c565b6115745760405162461bcd60e51b8152600401610ab690613ace565b6060600c8054610aea90613df8565b6060816122525750506040805180820190915260018152600360fc1b602082015290565b8160005b811561227c578061226681613e52565b91506122759050600a83613d65565b9150612256565b60008167ffffffffffffffff81111561229757612297613f17565b6040519080825280601f01601f1916602001820160405280156122c1576020820181803683370190505b5090505b8415611ea9576122d6600183613d98565b91506122e3600a86613e7f565b6122ee906030613d4d565b60f81b81838151811061230357612303613f01565b60200101906001600160f81b031916908160001a905350612325600a86613d65565b94506122c5565b6001600160a01b0383166123875761238281600880546000838152600960205260408120829055600182018355919091527ff3f7a9fe364faab93b216da50a3214154f22a0a2b415b23a84c8169e8b636ee30155565b6123aa565b816001600160a01b0316836001600160a01b0316146123aa576123aa8382612679565b6001600160a01b0382166123c157610ccc81612716565b826001600160a01b0316826001600160a01b031614610ccc57610ccc82826127c5565b60008082516041141561241b5760208301516040840151606085015160001a61240f87828585612809565b9450945050505061244d565b825160401415612445576020830151604084015161243a8683836128e9565b93509350505061244d565b506000905060025b9250929050565b600081600481111561246857612468613ebf565b14156124715750565b600181600481111561248557612485613ebf565b14156124a35760405162461bcd60e51b8152600401610ab690613a7e565b60028160048111156124b7576124b7613ebf565b14156124d55760405162461bcd60e51b8152600401610ab690613a9e565b60038160048111156124e9576124e9613ebf565b14156125075760405162461bcd60e51b8152600401610ab690613b3e565b600481600481111561251b5761251b613ebf565b1415610e315760405162461bcd60e51b8152600401610ab690613bbe565b6125438383612922565b612550600084848461256c565b610ccc5760405162461bcd60e51b8152600401610ab690613ace565b60006001600160a01b0384163b1561266e57604051630a85bd0160e11b81526001600160a01b0385169063150b7a02906125b09033908990889088906004016139d5565b602060405180830381600087803b1580156125ca57600080fd5b505af19250505080156125fa575060408051601f3d908101601f191682019092526125f791810190612e03565b60015b612654573d808015612628576040519150601f19603f3d011682016040523d82523d6000602084013e61262d565b606091505b50805161264c5760405162461bcd60e51b8152600401610ab690613ace565b805181602001fd5b6001600160e01b031916630a85bd0160e11b149050611ea9565b506001949350505050565b600060016126868461135d565b6126909190613d98565b6000838152600760205260409020549091508082146126e3576001600160a01b03841660009081526006602090815260408083208584528252808320548484528184208190558352600790915290208190555b5060009182526007602090815260408084208490556001600160a01b039094168352600681528383209183525290812055565b60085460009061272890600190613d98565b6000838152600960205260408120546008805493945090928490811061275057612750613f01565b90600052602060002001549050806008838154811061277157612771613f01565b60009182526020808320909101929092558281526009909152604080822084905585825281205560088054806127a9576127a9613eeb565b6001900381819060005260206000200160009055905550505050565b60006127d08361135d565b6001600160a01b039093166000908152600660209081526040808320868452825280832085905593825260079052919091209190915550565b6000807f7fffffffffffffffffffffffffffffff5d576e7357a4501ddfe92f46681b20a083111561284057506000905060036128e0565b8460ff16601b1415801561285857508460ff16601c14155b1561286957506000905060046128e0565b60006001878787876040516000815260200160405260405161288e9493929190613a38565b6020604051602081039080840390855afa1580156128b0573d6000803e3d6000fd5b5050604051601f1901519150506001600160a01b0381166128d9576000600192509250506128e0565b9150600090505b94509492505050565b6000806001600160ff1b0383168161290660ff86901c601b613d4d565b905061291487828885612809565b935093505050935093915050565b6001600160a01b0382166129485760405162461bcd60e51b8152600401610ab690613bce565b6000818152600260205260409020546001600160a01b03161561297d5760405162461bcd60e51b8152600401610ab690613afe565b6129896000838361232c565b6001600160a01b03821660009081526003602052604081208054600192906129b2908490613d4d565b909155505060008181526002602052604080822080546001600160a01b0319166001600160a01b03861690811790915590518392907fddf252ad1be2c89b69c2b068fc378daa952ba7f163c4a11628f55a4df523b3ef908290a45050565b828054612a1c90613df8565b90600052602060002090601f016020900481019282612a3e5760008555612a84565b82601f10612a5757805160ff1916838001178555612a84565b82800160010185558215612a84579182015b82811115612a84578251825591602001919060010190612a69565b50612a90929150612a94565b5090565b5b80821115612a905760008155600101612a95565b6000612abc612ab784613cfe565b613ce7565b90508083825260208201905082856020860282011115612ade57612ade600080fd5b60005b85811015612b0a5781612af48882612b48565b8452506020928301929190910190600101612ae1565b5050509392505050565b6000612b22612ab784613d22565b905082815260208101848484011115612b3d57612b3d600080fd5b610ee9848285613dc0565b8035610a8681613f2d565b8051610a8681613f2d565b600082601f830112612b7257612b72600080fd5b8135611ea9848260208601612aa9565b8035610a8681613f41565b8035610a8681613f49565b8051610a8681613f49565b600082601f830112612bb757612bb7600080fd5b8135611ea9848260208601612b14565b8035610a8681613f59565b600060208284031215612be757612be7600080fd5b6000611ea98484612b48565b600060208284031215612c0857612c08600080fd5b6000611ea98484612b53565b60008060408385031215612c2a57612c2a600080fd5b6000612c368585612b48565b9250506020612c4785828601612b48565b9150509250929050565b600080600060608486031215612c6957612c69600080fd5b6000612c758686612b48565b9350506020612c8686828701612b48565b9250506040612c9786828701612bc7565b9150509250925092565b60008060008060808587031215612cba57612cba600080fd5b6000612cc68787612b48565b9450506020612cd787828801612b48565b9350506040612ce887828801612bc7565b925050606085013567ffffffffffffffff811115612d0857612d08600080fd5b612d1487828801612ba3565b91505092959194509250565b60008060408385031215612d3657612d36600080fd5b6000612d428585612b48565b9250506020612c4785828601612b82565b60008060408385031215612d6957612d69600080fd5b6000612d758585612b48565b9250506020612c4785828601612bc7565b600060208284031215612d9b57612d9b600080fd5b813567ffffffffffffffff811115612db557612db5600080fd5b611ea984828501612b5e565b600060208284031215612dd657612dd6600080fd5b6000611ea98484612b82565b600060208284031215612df757612df7600080fd5b6000611ea98484612b8d565b600060208284031215612e1857612e18600080fd5b6000611ea98484612b98565b600060208284031215612e3957612e39600080fd5b813567ffffffffffffffff811115612e5357612e53600080fd5b611ea984828501612ba3565b600060208284031215612e7457612e74600080fd5b6000611ea98484612bc7565b60008060408385031215612e9657612e96600080fd5b6000612c368585612bc7565b60008060408385031215612eb857612eb8600080fd5b6000612ec48585612bc7565b925050602083013567ffffffffffffffff811115612ee457612ee4600080fd5b612c4785828601612ba3565b600080600060608486031215612f0857612f08600080fd5b6000612f148686612bc7565b9350506020612f2586828701612bc7565b925050604084013567ffffffffffffffff811115612f4557612f45600080fd5b612c9786828701612ba3565b6000612f5d8383612fd6565b505060200190565b612f6e81613daf565b82525050565b612f6e612f8082613daf565b613e6d565b6000612f8f825190565b80845260209384019383018060005b83811015612fc3578151612fb28882612f51565b975060208301925050600101612f9e565b509495945050505050565b801515612f6e565b80612f6e565b6000612fe6825190565b808452602084019350612ffd818560208601613dcc565b601f01601f19169290920192915050565b6000613018825190565b613026818560208601613dcc565b9290920192915050565b6000815461303d81613df8565b600182168015613054576001811461306557613095565b60ff19831686528186019350613095565b60008581526020902060005b8381101561308d57815488820152600190910190602001613071565b838801955050505b50505092915050565b601881526000602082017f45434453413a20696e76616c6964207369676e61747572650000000000000000815291505b5060200190565b601881526000602082017f53616c6520686173206e6f742073746172746564207965740000000000000000815291506130ce565b601f81526000602082017f45434453413a20696e76616c6964207369676e6174757265206c656e67746800815291506130ce565b600f81526000602082016e3737ba10383ab735b99037bbb732b960891b815291506130ce565b602b81526000602082017f455243373231456e756d657261626c653a206f776e657220696e646578206f7581526a74206f6620626f756e647360a81b602082015291505b5060400190565b603281526000602082017f4552433732313a207472616e7366657220746f206e6f6e20455243373231526581527131b2b4bb32b91034b6b83632b6b2b73a32b960711b602082015291506131a7565b602681526000602082017f4f776e61626c653a206e6577206f776e657220697320746865207a65726f206181526564647265737360d01b602082015291506131a7565b602581526000602082017f4552433732313a207472616e736665722066726f6d20696e636f72726563742081526437bbb732b960d91b602082015291506131a7565b601c81526000602082017f4552433732313a20746f6b656e20616c7265616479206d696e74656400000000815291506130ce565b600f81526000602082016e185b1c9958591e4818db185a5b5959608a1b815291506130ce565b602481526000602082017f4552433732313a207472616e7366657220746f20746865207a65726f206164648152637265737360e01b602082015291506131a7565b601981526000602082017f4552433732313a20617070726f766520746f2063616c6c657200000000000000815291506130ce565b602281526000602082017f45434453413a20696e76616c6964207369676e6174757265202773272076616c815261756560f01b602082015291506131a7565b602881526000602082017f6d6178206d696e7420616d6f756e7420706572207472616e73616374696f6e20815267195e18d95959195960c21b602082015291506131a7565b602c81526000602082017f4552433732313a206f70657261746f7220717565727920666f72206e6f6e657881526b34b9ba32b73a103a37b5b2b760a11b602082015291506131a7565b603881526000602082017f4552433732313a20617070726f76652063616c6c6572206973206e6f74206f7781527f6e6572206e6f7220617070726f76656420666f7220616c6c0000000000000000602082015291506131a7565b602a81526000602082017f4552433732313a2062616c616e636520717565727920666f7220746865207a65815269726f206164647265737360b01b602082015291506131a7565b602981526000602082017f4552433732313a206f776e657220717565727920666f72206e6f6e657869737481526832b73a103a37b5b2b760b91b602082015291506131a7565b60168152600060208201751b585e08139195081b1a5b5a5d08195e18d95959195960521b815291506130ce565b601081526000602082016f3737ba1037333a34b3331037bbb732b960811b815291506130ce565b602281526000602082017f45434453413a20696e76616c6964207369676e6174757265202776272076616c815261756560f01b602082015291506131a7565b60208082527f4552433732313a206d696e7420746f20746865207a65726f2061646472657373910190815260006130ce565b602c81526000602082017f4552433732313a20617070726f76656420717565727920666f72206e6f6e657881526b34b9ba32b73a103a37b5b2b760a11b602082015291506131a7565b60208082527f4f776e61626c653a2063616c6c6572206973206e6f7420746865206f776e6572910190815260006130ce565b60168152600060208201751d1a194818dbdb9d1c9858dd081a5cc81c185d5cd95960521b815291506130ce565b602f81526000602082017f4552433732314d657461646174613a2055524920717565727920666f72206e6f81526e3732bc34b9ba32b73a103a37b5b2b760891b602082015291506131a7565b602181526000602082017f4552433732313a20617070726f76616c20746f2063757272656e74206f776e658152603960f91b602082015291506131a7565b6012815260006020820171696e73756666696369656e742066756e647360701b815291506130ce565b603181526000602082017f4552433732313a207472616e736665722063616c6c6572206973206e6f74206f8152701ddb995c881b9bdc88185c1c1c9bdd9959607a1b602082015291506131a7565b602c81526000602082017f455243373231456e756d657261626c653a20676c6f62616c20696e646578206f81526b7574206f6620626f756e647360a01b602082015291506131a7565b601081526000602082016f12de58c81b9bdd08185c1c1c9bdd995960821b815291506130ce565b60118152600060208201701d5cd95c881a5b88189b1858dadb1a5cdd607a1b815291506130ce565b601781526000602082017f75736572206973206e6f742077686974656c6973746564000000000000000000815291506130ce565b601f81526000602082017f5265656e7472616e637947756172643a207265656e7472616e742063616c6c00815291506130ce565b601b81526000602082017f6e65656420746f206d696e74206174206c656173742031204e46540000000000815291506130ce565b601581526000602082017414da1a5c1c1a5b99c81b9bdd081d995c9a599a5959605a1b815291506130ce565b60ff8116612f6e565b60006138e8828661300e565b91506138f4828561300e565b91506139008284613030565b95945050505050565b7f19457468657265756d205369676e6564204d6573736167653a0a3332000000008152601c01600061393b8284612fd6565b50602001919050565b701cda1a5c1c1a5b99cb5d995c9a599a5959607a1b8152601101600061396a8286612fd6565b60208201915061397a8285612fd6565b60208201915061398a8284612f74565b506014019392505050565b6b1ade58cb585c1c1c9bdd995960a21b8152600c0160006139b68284612f74565b50601401919050565b600081610a86565b60208101610a868284612f65565b608081016139e38287612f65565b6139f06020830186612f65565b6139fd6040830185612fd6565b8181036060830152613a0f8184612fdc565b9695505050505050565b60208082528101611a168184612f85565b60208101610a868284612fce565b60808101613a468287612fd6565b613a5360208301866138d3565b613a606040830185612fd6565b6139006060830184612fd6565b60208082528101611a168184612fdc565b60208082528101610a868161309e565b60208082528101610a86816130d5565b60208082528101610a8681613109565b60208082528101610a868161313d565b60208082528101610a8681613163565b60208082528101610a86816131ae565b60208082528101610a86816131fd565b60208082528101610a8681613240565b60208082528101610a8681613282565b60208082528101610a86816132b6565b60208082528101610a86816132dc565b60208082528101610a868161331d565b60208082528101610a8681613351565b60208082528101610a8681613390565b60208082528101610a86816133d5565b60208082528101610a868161341e565b60208082528101610a8681613478565b60208082528101610a86816134bf565b60208082528101610a8681613505565b60208082528101610a8681613532565b60208082528101610a8681613559565b60208082528101610a8681613598565b60208082528101610a86816135ca565b60208082528101610a8681613613565b60208082528101610a8681613645565b60208082528101610a8681613672565b60208082528101610a86816136be565b60208082528101610a86816136fc565b60208082528101610a8681613725565b60208082528101610a8681613773565b60208082528101610a86816137bc565b60208082528101610a86816137e3565b60208082528101610a868161380b565b60208082528101610a868161383f565b60208082528101610a8681613873565b60208082528101610a86816138a7565b60208101610a868284612fd6565b60408101613cda8285612fd6565b611a166020830184612fd6565b6000613cf260405190565b9050611a1d8282613e25565b600067ffffffffffffffff821115613d1857613d18613f17565b5060209081020190565b600067ffffffffffffffff821115613d3c57613d3c613f17565b601f19601f83011660200192915050565b60008219821115613d6057613d60613e93565b500190565b600082613d7457613d74613ea9565b500490565b6000816000190483118215151615613d9357613d93613e93565b500290565b600082821015613daa57613daa613e93565b500390565b60006001600160a01b038216610a86565b82818337506000910152565b60005b83811015613de7578181015183820152602001613dcf565b838111156115745750506000910152565b600281046001821680613e0c57607f821691505b60208210811415613e1f57613e1f613ed5565b50919050565b601f19601f830116810181811067ffffffffffffffff82111715613e4b57613e4b613f17565b6040525050565b6000600019821415613e6657613e66613e93565b5060010190565b6000610a86826000610a868260601b90565b600082613e8e57613e8e613ea9565b500690565b634e487b7160e01b600052601160045260246000fd5b634e487b7160e01b600052601260045260246000fd5b634e487b7160e01b600052602160045260246000fd5b634e487b7160e01b600052602260045260246000fd5b634e487b7160e01b600052603160045260246000fd5b634e487b7160e01b600052603260045260246000fd5b634e487b7160e01b600052604160045260246000fd5b613f3681613daf565b8114610e3157600080fd5b801515613f36565b6001600160e01b03198116613f36565b80613f3656fea2646970667358221220b8229996c084401c907369ab2ad2e2938e52deff5e096fbf97e0bd3934b926f564736f6c63430008070033",
  "devdoc": {
    "kind": "dev",
    "methods": {
      "approve(address,uint256)": {
        "details": "See {IERC721-approve}."
      },
      "balanceOf(address)": {
        "details": "See {IERC721-balanceOf}."
      },
      "getApproved(uint256)": {
        "details": "See {IERC721-getApproved}."
      },
      "isApprovedForAll(address,address)": {
        "details": "See {IERC721-isApprovedForAll}."
      },
      "name()": {
        "details": "See {IERC721Metadata-name}."
      },
      "owner()": {
        "details": "Returns the address of the current owner."
      },
      "ownerOf(uint256)": {
        "details": "See {IERC721-ownerOf}."
      },
      "renounceOwnership()": {
        "details": "Leaves the contract without owner. It will not be possible to call `onlyOwner` functions anymore. Can only be called by the current owner. NOTE: Renouncing ownership will leave the contract without an owner, thereby removing any functionality that is only available to the owner."
      },
      "safeTransferFrom(address,address,uint256)": {
        "details": "See {IERC721-safeTransferFrom}."
      },
      "safeTransferFrom(address,address,uint256,bytes)": {
        "details": "See {IERC721-safeTransferFrom}."
      },
      "setApprovalForAll(address,bool)": {
        "details": "See {IERC721-setApprovalForAll}."
      },
      "supportsInterface(bytes4)": {
        "details": "See {IERC165-supportsInterface}."
      },
      "symbol()": {
        "details": "See {IERC721Metadata-symbol}."
      },
      "tokenByIndex(uint256)": {
        "details": "See {IERC721Enumerable-tokenByIndex}."
      },
      "tokenOfOwnerByIndex(address,uint256)": {
        "details": "See {IERC721Enumerable-tokenOfOwnerByIndex}."
      },
      "tokenURI(uint256)": {
        "details": "See {IERC721Metadata-tokenURI}."
      },
      "totalSupply()": {
        "details": "See {IERC721Enumerable-totalSupply}."
      },
      "transferFrom(address,address,uint256)": {
        "details": "See {IERC721-transferFrom}."
      },
      "transferOwnership(address)": {
        "details": "Transfers ownership of the contract to a new account (`newOwner`). Can only be called by the current owner."
      }
    },
    "version": 1
  },
  "userdoc": {
    "events": {
      "NFTiffMinted(address,uint256)": {
        "notice": "EVENTS "
      }
    },
    "kind": "user",
    "methods": {
      "constructor": {
        "notice": "METHODS "
      }
    },
    "version": 1
  },
  "storageLayout": {
    "storage": [
      {
        "astId": 170,
        "contract": "contracts/NFTiff.sol:NFTiff",
        "label": "_name",
        "offset": 0,
        "slot": "0",
        "type": "t_string_storage"
      },
      {
        "astId": 172,
        "contract": "contracts/NFTiff.sol:NFTiff",
        "label": "_symbol",
        "offset": 0,
        "slot": "1",
        "type": "t_string_storage"
      },
      {
        "astId": 176,
        "contract": "contracts/NFTiff.sol:NFTiff",
        "label": "_owners",
        "offset": 0,
        "slot": "2",
        "type": "t_mapping(t_uint256,t_address)"
      },
      {
        "astId": 180,
        "contract": "contracts/NFTiff.sol:NFTiff",
        "label": "_balances",
        "offset": 0,
        "slot": "3",
        "type": "t_mapping(t_address,t_uint256)"
      },
      {
        "astId": 184,
        "contract": "contracts/NFTiff.sol:NFTiff",
        "label": "_tokenApprovals",
        "offset": 0,
        "slot": "4",
        "type": "t_mapping(t_uint256,t_address)"
      },
      {
        "astId": 190,
        "contract": "contracts/NFTiff.sol:NFTiff",
        "label": "_operatorApprovals",
        "offset": 0,
        "slot": "5",
        "type": "t_mapping(t_address,t_mapping(t_address,t_bool))"
      },
      {
        "astId": 1159,
        "contract": "contracts/NFTiff.sol:NFTiff",
        "label": "_ownedTokens",
        "offset": 0,
        "slot": "6",
        "type": "t_mapping(t_address,t_mapping(t_uint256,t_uint256))"
      },
      {
        "astId": 1163,
        "contract": "contracts/NFTiff.sol:NFTiff",
        "label": "_ownedTokensIndex",
        "offset": 0,
        "slot": "7",
        "type": "t_mapping(t_uint256,t_uint256)"
      },
      {
        "astId": 1166,
        "contract": "contracts/NFTiff.sol:NFTiff",
        "label": "_allTokens",
        "offset": 0,
        "slot": "8",
        "type": "t_array(t_uint256)dyn_storage"
      },
      {
        "astId": 1170,
        "contract": "contracts/NFTiff.sol:NFTiff",
        "label": "_allTokensIndex",
        "offset": 0,
        "slot": "9",
        "type": "t_mapping(t_uint256,t_uint256)"
      },
      {
        "astId": 7,
        "contract": "contracts/NFTiff.sol:NFTiff",
        "label": "_owner",
        "offset": 0,
        "slot": "10",
        "type": "t_address"
      },
      {
        "astId": 115,
        "contract": "contracts/NFTiff.sol:NFTiff",
        "label": "_status",
        "offset": 0,
        "slot": "11",
        "type": "t_uint256"
      },
      {
        "astId": 2919,
        "contract": "contracts/NFTiff.sol:NFTiff",
        "label": "baseURI",
        "offset": 0,
        "slot": "12",
        "type": "t_string_storage"
      },
      {
        "astId": 2922,
        "contract": "contracts/NFTiff.sol:NFTiff",
        "label": "baseExtension",
        "offset": 0,
        "slot": "13",
        "type": "t_string_storage"
      },
      {
        "astId": 2924,
        "contract": "contracts/NFTiff.sol:NFTiff",
        "label": "notRevealedUri",
        "offset": 0,
        "slot": "14",
        "type": "t_string_storage"
      },
      {
        "astId": 2927,
        "contract": "contracts/NFTiff.sol:NFTiff",
        "label": "cost",
        "offset": 0,
        "slot": "15",
        "type": "t_uint256"
      },
      {
        "astId": 2930,
        "contract": "contracts/NFTiff.sol:NFTiff",
        "label": "maxSupply",
        "offset": 0,
        "slot": "16",
        "type": "t_uint256"
      },
      {
        "astId": 2933,
        "contract": "contracts/NFTiff.sol:NFTiff",
        "label": "maxMintAmount",
        "offset": 0,
        "slot": "17",
        "type": "t_uint256"
      },
      {
        "astId": 2936,
        "contract": "contracts/NFTiff.sol:NFTiff",
        "label": "presaleActive",
        "offset": 0,
        "slot": "18",
        "type": "t_bool"
      },
      {
        "astId": 2939,
        "contract": "contracts/NFTiff.sol:NFTiff",
        "label": "publicSaleActive",
        "offset": 1,
        "slot": "18",
        "type": "t_bool"
      },
      {
        "astId": 2942,
        "contract": "contracts/NFTiff.sol:NFTiff",
        "label": "paused",
        "offset": 2,
        "slot": "18",
        "type": "t_bool"
      },
      {
        "astId": 2945,
        "contract": "contracts/NFTiff.sol:NFTiff",
        "label": "revealed",
        "offset": 3,
        "slot": "18",
        "type": "t_bool"
      },
      {
        "astId": 2948,
        "contract": "contracts/NFTiff.sol:NFTiff",
        "label": "isKycRequired",
        "offset": 4,
        "slot": "18",
        "type": "t_bool"
      },
      {
        "astId": 2950,
        "contract": "contracts/NFTiff.sol:NFTiff",
        "label": "signer",
        "offset": 5,
        "slot": "18",
        "type": "t_address"
      },
      {
        "astId": 2954,
        "contract": "contracts/NFTiff.sol:NFTiff",
        "label": "whitelistedAddresses",
        "offset": 0,
        "slot": "19",
        "type": "t_mapping(t_address,t_bool)"
      },
      {
        "astId": 2958,
        "contract": "contracts/NFTiff.sol:NFTiff",
        "label": "blacklistedAddresses",
        "offset": 0,
        "slot": "20",
        "type": "t_mapping(t_address,t_bool)"
      },
      {
        "astId": 2968,
        "contract": "contracts/NFTiff.sol:NFTiff",
        "label": "claimInfo",
        "offset": 0,
        "slot": "21",
        "type": "t_mapping(t_uint256,t_mapping(t_uint256,t_struct(ClaimInfo)2973_storage))"
      }
    ],
    "types": {
      "t_address": {
        "encoding": "inplace",
        "label": "address",
        "numberOfBytes": "20"
      },
      "t_array(t_uint256)dyn_storage": {
        "base": "t_uint256",
        "encoding": "dynamic_array",
        "label": "uint256[]",
        "numberOfBytes": "32"
      },
      "t_bool": {
        "encoding": "inplace",
        "label": "bool",
        "numberOfBytes": "1"
      },
      "t_mapping(t_address,t_bool)": {
        "encoding": "mapping",
        "key": "t_address",
        "label": "mapping(address => bool)",
        "numberOfBytes": "32",
        "value": "t_bool"
      },
      "t_mapping(t_address,t_mapping(t_address,t_bool))": {
        "encoding": "mapping",
        "key": "t_address",
        "label": "mapping(address => mapping(address => bool))",
        "numberOfBytes": "32",
        "value": "t_mapping(t_address,t_bool)"
      },
      "t_mapping(t_address,t_mapping(t_uint256,t_uint256))": {
        "encoding": "mapping",
        "key": "t_address",
        "label": "mapping(address => mapping(uint256 => uint256))",
        "numberOfBytes": "32",
        "value": "t_mapping(t_uint256,t_uint256)"
      },
      "t_mapping(t_address,t_uint256)": {
        "encoding": "mapping",
        "key": "t_address",
        "label": "mapping(address => uint256)",
        "numberOfBytes": "32",
        "value": "t_uint256"
      },
      "t_mapping(t_uint256,t_address)": {
        "encoding": "mapping",
        "key": "t_uint256",
        "label": "mapping(uint256 => address)",
        "numberOfBytes": "32",
        "value": "t_address"
      },
      "t_mapping(t_uint256,t_mapping(t_uint256,t_struct(ClaimInfo)2973_storage))": {
        "encoding": "mapping",
        "key": "t_uint256",
        "label": "mapping(uint256 => mapping(uint256 => struct NFTiff.ClaimInfo))",
        "numberOfBytes": "32",
        "value": "t_mapping(t_uint256,t_struct(ClaimInfo)2973_storage)"
      },
      "t_mapping(t_uint256,t_struct(ClaimInfo)2973_storage)": {
        "encoding": "mapping",
        "key": "t_uint256",
        "label": "mapping(uint256 => struct NFTiff.ClaimInfo)",
        "numberOfBytes": "32",
        "value": "t_struct(ClaimInfo)2973_storage"
      },
      "t_mapping(t_uint256,t_uint256)": {
        "encoding": "mapping",
        "key": "t_uint256",
        "label": "mapping(uint256 => uint256)",
        "numberOfBytes": "32",
        "value": "t_uint256"
      },
      "t_string_storage": {
        "encoding": "bytes",
        "label": "string",
        "numberOfBytes": "32"
      },
      "t_struct(ClaimInfo)2973_storage": {
        "encoding": "inplace",
        "label": "struct NFTiff.ClaimInfo",
        "members": [
          {
            "astId": 2970,
            "contract": "contracts/NFTiff.sol:NFTiff",
            "label": "timestamp",
            "offset": 0,
            "slot": "0",
            "type": "t_uint256"
          },
          {
            "astId": 2972,
            "contract": "contracts/NFTiff.sol:NFTiff",
            "label": "claimer",
            "offset": 0,
            "slot": "1",
            "type": "t_address"
          }
        ],
        "numberOfBytes": "64"
      },
      "t_uint256": {
        "encoding": "inplace",
        "label": "uint256",
        "numberOfBytes": "32"
      }
    }
  }
}