{
  "address": "0xE183f4567902b983FeFA8B8787C2711dF9bC37f0",
  "abi": [
    {
      "inputs": [
        {
          "internalType": "string",
          "name": "_initNotRevealedUri",
          "type": "string"
        },
        {
          "internalType": "address",
          "name": "punksContract_",
          "type": "address"
        }
      ],
      "stateMutability": "nonpayable",
      "type": "constructor"
    },
    {
      "anonymous": false,
      "inputs": [
        {
          "indexed": true,
          "internalType": "address",
          "name": "owner",
          "type": "address"
        },
        {
          "indexed": true,
          "internalType": "address",
          "name": "approved",
          "type": "address"
        },
        {
          "indexed": true,
          "internalType": "uint256",
          "name": "tokenId",
          "type": "uint256"
        }
      ],
      "name": "Approval",
      "type": "event"
    },
    {
      "anonymous": false,
      "inputs": [
        {
          "indexed": true,
          "internalType": "address",
          "name": "owner",
          "type": "address"
        },
        {
          "indexed": true,
          "internalType": "address",
          "name": "operator",
          "type": "address"
        },
        {
          "indexed": false,
          "internalType": "bool",
          "name": "approved",
          "type": "bool"
        }
      ],
      "name": "ApprovalForAll",
      "type": "event"
    },
    {
      "anonymous": false,
      "inputs": [
        {
          "indexed": false,
          "internalType": "uint256",
          "name": "claimId",
          "type": "uint256"
        },
        {
          "indexed": true,
          "internalType": "address",
          "name": "to",
          "type": "address"
        },
        {
          "indexed": false,
          "internalType": "uint256",
          "name": "punkId",
          "type": "uint256"
        },
        {
          "indexed": false,
          "internalType": "uint256",
          "name": "nftiffId",
          "type": "uint256"
        },
        {
          "indexed": false,
          "internalType": "uint256",
          "name": "timestamp",
          "type": "uint256"
        }
      ],
      "name": "Claimed",
      "type": "event"
    },
    {
      "anonymous": false,
      "inputs": [
        {
          "indexed": true,
          "internalType": "address",
          "name": "to",
          "type": "address"
        },
        {
          "indexed": true,
          "internalType": "uint256",
          "name": "tokenId",
          "type": "uint256"
        }
      ],
      "name": "NFTiffMinted",
      "type": "event"
    },
    {
      "anonymous": false,
      "inputs": [
        {
          "indexed": true,
          "internalType": "address",
          "name": "previousOwner",
          "type": "address"
        },
        {
          "indexed": true,
          "internalType": "address",
          "name": "newOwner",
          "type": "address"
        }
      ],
      "name": "OwnershipTransferred",
      "type": "event"
    },
    {
      "anonymous": false,
      "inputs": [
        {
          "indexed": true,
          "internalType": "uint256",
          "name": "tokenId",
          "type": "uint256"
        },
        {
          "indexed": false,
          "internalType": "string",
          "name": "uri",
          "type": "string"
        }
      ],
      "name": "TokenURIUpdated",
      "type": "event"
    },
    {
      "anonymous": false,
      "inputs": [
        {
          "indexed": true,
          "internalType": "address",
          "name": "from",
          "type": "address"
        },
        {
          "indexed": true,
          "internalType": "address",
          "name": "to",
          "type": "address"
        },
        {
          "indexed": true,
          "internalType": "uint256",
          "name": "tokenId",
          "type": "uint256"
        }
      ],
      "name": "Transfer",
      "type": "event"
    },
    {
      "inputs": [
        {
          "internalType": "address",
          "name": "to",
          "type": "address"
        },
        {
          "internalType": "uint256",
          "name": "tokenId",
          "type": "uint256"
        }
      ],
      "name": "approve",
      "outputs": [],
      "stateMutability": "nonpayable",
      "type": "function"
    },
    {
      "inputs": [
        {
          "internalType": "address",
          "name": "owner",
          "type": "address"
        }
      ],
      "name": "balanceOf",
      "outputs": [
        {
          "internalType": "uint256",
          "name": "",
          "type": "uint256"
        }
      ],
      "stateMutability": "view",
      "type": "function"
    },
    {
      "inputs": [
        {
          "internalType": "address[]",
          "name": "addresses",
          "type": "address[]"
        }
      ],
      "name": "blacklistUsers",
      "outputs": [],
      "stateMutability": "nonpayable",
      "type": "function"
    },
    {
      "inputs": [
        {
          "internalType": "uint256",
          "name": "punk_",
          "type": "uint256"
        },
        {
          "internalType": "uint256",
          "name": "nftiff_",
          "type": "uint256"
        },
        {
          "internalType": "bytes",
          "name": "_signature",
          "type": "bytes"
        }
      ],
      "name": "claim",
      "outputs": [],
      "stateMutability": "payable",
      "type": "function"
    },
    {
      "inputs": [
        {
          "internalType": "uint256",
          "name": "",
          "type": "uint256"
        }
      ],
      "name": "claimInfo",
      "outputs": [
        {
          "internalType": "uint256",
          "name": "punkId",
          "type": "uint256"
        },
        {
          "internalType": "uint256",
          "name": "nftiffId",
          "type": "uint256"
        },
        {
          "internalType": "uint256",
          "name": "timestamp",
          "type": "uint256"
        },
        {
          "internalType": "address",
          "name": "claimer",
          "type": "address"
        }
      ],
      "stateMutability": "view",
      "type": "function"
    },
    {
      "inputs": [],
      "name": "cost",
      "outputs": [
        {
          "internalType": "uint256",
          "name": "",
          "type": "uint256"
        }
      ],
      "stateMutability": "view",
      "type": "function"
    },
    {
      "inputs": [
        {
          "internalType": "uint256",
          "name": "tokenId",
          "type": "uint256"
        }
      ],
      "name": "getApproved",
      "outputs": [
        {
          "internalType": "address",
          "name": "",
          "type": "address"
        }
      ],
      "stateMutability": "view",
      "type": "function"
    },
    {
      "inputs": [],
      "name": "getContractBalance",
      "outputs": [
        {
          "internalType": "uint256",
          "name": "",
          "type": "uint256"
        }
      ],
      "stateMutability": "view",
      "type": "function"
    },
    {
      "inputs": [],
      "name": "getSigner",
      "outputs": [
        {
          "internalType": "address",
          "name": "",
          "type": "address"
        }
      ],
      "stateMutability": "view",
      "type": "function"
    },
    {
      "inputs": [
        {
          "internalType": "uint256",
          "name": "_mintAmount",
          "type": "uint256"
        },
        {
          "internalType": "address",
          "name": "destination",
          "type": "address"
        }
      ],
      "name": "gift",
      "outputs": [],
      "stateMutability": "nonpayable",
      "type": "function"
    },
    {
      "inputs": [
        {
          "internalType": "address",
          "name": "owner",
          "type": "address"
        },
        {
          "internalType": "address",
          "name": "operator",
          "type": "address"
        }
      ],
      "name": "isApprovedForAll",
      "outputs": [
        {
          "internalType": "bool",
          "name": "",
          "type": "bool"
        }
      ],
      "stateMutability": "view",
      "type": "function"
    },
    {
      "inputs": [
        {
          "internalType": "address",
          "name": "_user",
          "type": "address"
        }
      ],
      "name": "isBlacklisted",
      "outputs": [
        {
          "internalType": "bool",
          "name": "",
          "type": "bool"
        }
      ],
      "stateMutability": "view",
      "type": "function"
    },
    {
      "inputs": [],
      "name": "isKycRequired",
      "outputs": [
        {
          "internalType": "bool",
          "name": "",
          "type": "bool"
        }
      ],
      "stateMutability": "view",
      "type": "function"
    },
    {
      "inputs": [
        {
          "internalType": "address",
          "name": "_user",
          "type": "address"
        }
      ],
      "name": "isWhitelisted",
      "outputs": [
        {
          "internalType": "bool",
          "name": "",
          "type": "bool"
        }
      ],
      "stateMutability": "view",
      "type": "function"
    },
    {
      "inputs": [],
      "name": "maxMintAmount",
      "outputs": [
        {
          "internalType": "uint256",
          "name": "",
          "type": "uint256"
        }
      ],
      "stateMutability": "view",
      "type": "function"
    },
    {
      "inputs": [],
      "name": "maxSupply",
      "outputs": [
        {
          "internalType": "uint256",
          "name": "",
          "type": "uint256"
        }
      ],
      "stateMutability": "view",
      "type": "function"
    },
    {
      "inputs": [
        {
          "internalType": "uint256",
          "name": "_mintAmount",
          "type": "uint256"
        },
        {
          "internalType": "bytes",
          "name": "_signature",
          "type": "bytes"
        }
      ],
      "name": "mint1",
      "outputs": [],
      "stateMutability": "payable",
      "type": "function"
    },
    {
      "inputs": [
        {
          "internalType": "uint256",
          "name": "_mintAmount",
          "type": "uint256"
        }
      ],
      "name": "mintPublic",
      "outputs": [],
      "stateMutability": "payable",
      "type": "function"
    },
    {
      "inputs": [],
      "name": "name",
      "outputs": [
        {
          "internalType": "string",
          "name": "",
          "type": "string"
        }
      ],
      "stateMutability": "view",
      "type": "function"
    },
    {
      "inputs": [
        {
          "internalType": "uint256",
          "name": "",
          "type": "uint256"
        }
      ],
      "name": "nftiffClaimed",
      "outputs": [
        {
          "internalType": "bool",
          "name": "",
          "type": "bool"
        }
      ],
      "stateMutability": "view",
      "type": "function"
    },
    {
      "inputs": [],
      "name": "notRevealedUri",
      "outputs": [
        {
          "internalType": "string",
          "name": "",
          "type": "string"
        }
      ],
      "stateMutability": "view",
      "type": "function"
    },
    {
      "inputs": [],
      "name": "owner",
      "outputs": [
        {
          "internalType": "address",
          "name": "",
          "type": "address"
        }
      ],
      "stateMutability": "view",
      "type": "function"
    },
    {
      "inputs": [
        {
          "internalType": "uint256",
          "name": "tokenId",
          "type": "uint256"
        }
      ],
      "name": "ownerOf",
      "outputs": [
        {
          "internalType": "address",
          "name": "",
          "type": "address"
        }
      ],
      "stateMutability": "view",
      "type": "function"
    },
    {
      "inputs": [
        {
          "internalType": "bool",
          "name": "_state",
          "type": "bool"
        }
      ],
      "name": "pause",
      "outputs": [],
      "stateMutability": "nonpayable",
      "type": "function"
    },
    {
      "inputs": [],
      "name": "paused",
      "outputs": [
        {
          "internalType": "bool",
          "name": "",
          "type": "bool"
        }
      ],
      "stateMutability": "view",
      "type": "function"
    },
    {
      "inputs": [],
      "name": "presaleActive",
      "outputs": [
        {
          "internalType": "bool",
          "name": "",
          "type": "bool"
        }
      ],
      "stateMutability": "view",
      "type": "function"
    },
    {
      "inputs": [],
      "name": "publicSaleActive",
      "outputs": [
        {
          "internalType": "bool",
          "name": "",
          "type": "bool"
        }
      ],
      "stateMutability": "view",
      "type": "function"
    },
    {
      "inputs": [
        {
          "internalType": "uint256",
          "name": "",
          "type": "uint256"
        }
      ],
      "name": "punkClaimed",
      "outputs": [
        {
          "internalType": "bool",
          "name": "",
          "type": "bool"
        }
      ],
      "stateMutability": "view",
      "type": "function"
    },
    {
      "inputs": [],
      "name": "punksContract",
      "outputs": [
        {
          "internalType": "address",
          "name": "",
          "type": "address"
        }
      ],
      "stateMutability": "view",
      "type": "function"
    },
    {
      "inputs": [],
      "name": "renounceOwnership",
      "outputs": [],
      "stateMutability": "nonpayable",
      "type": "function"
    },
    {
      "inputs": [],
      "name": "reveal",
      "outputs": [],
      "stateMutability": "nonpayable",
      "type": "function"
    },
    {
      "inputs": [],
      "name": "revealed",
      "outputs": [
        {
          "internalType": "bool",
          "name": "",
          "type": "bool"
        }
      ],
      "stateMutability": "view",
      "type": "function"
    },
    {
      "inputs": [
        {
          "internalType": "address",
          "name": "from",
          "type": "address"
        },
        {
          "internalType": "address",
          "name": "to",
          "type": "address"
        },
        {
          "internalType": "uint256",
          "name": "tokenId",
          "type": "uint256"
        }
      ],
      "name": "safeTransferFrom",
      "outputs": [],
      "stateMutability": "nonpayable",
      "type": "function"
    },
    {
      "inputs": [
        {
          "internalType": "address",
          "name": "from",
          "type": "address"
        },
        {
          "internalType": "address",
          "name": "to",
          "type": "address"
        },
        {
          "internalType": "uint256",
          "name": "tokenId",
          "type": "uint256"
        },
        {
          "internalType": "bytes",
          "name": "_data",
          "type": "bytes"
        }
      ],
      "name": "safeTransferFrom",
      "outputs": [],
      "stateMutability": "nonpayable",
      "type": "function"
    },
    {
      "inputs": [
        {
          "internalType": "address",
          "name": "operator",
          "type": "address"
        },
        {
          "internalType": "bool",
          "name": "approved",
          "type": "bool"
        }
      ],
      "name": "setApprovalForAll",
      "outputs": [],
      "stateMutability": "nonpayable",
      "type": "function"
    },
    {
      "inputs": [
        {
          "internalType": "uint256",
          "name": "_newCost",
          "type": "uint256"
        }
      ],
      "name": "setCost",
      "outputs": [],
      "stateMutability": "nonpayable",
      "type": "function"
    },
    {
      "inputs": [
        {
          "internalType": "bool",
          "name": "_required",
          "type": "bool"
        }
      ],
      "name": "setKycRequired",
      "outputs": [],
      "stateMutability": "nonpayable",
      "type": "function"
    },
    {
      "inputs": [
        {
          "internalType": "uint256",
          "name": "_maxSupply",
          "type": "uint256"
        }
      ],
      "name": "setMaxSupply",
      "outputs": [],
      "stateMutability": "nonpayable",
      "type": "function"
    },
    {
      "inputs": [
        {
          "internalType": "string",
          "name": "_notRevealedURI",
          "type": "string"
        }
      ],
      "name": "setNotRevealedURI",
      "outputs": [],
      "stateMutability": "nonpayable",
      "type": "function"
    },
    {
      "inputs": [
        {
          "internalType": "bool",
          "name": "_saleActive",
          "type": "bool"
        }
      ],
      "name": "setPresaleStatus",
      "outputs": [],
      "stateMutability": "nonpayable",
      "type": "function"
    },
    {
      "inputs": [
        {
          "internalType": "bool",
          "name": "_saleActive",
          "type": "bool"
        }
      ],
      "name": "setPublicSaleStatus",
      "outputs": [],
      "stateMutability": "nonpayable",
      "type": "function"
    },
    {
      "inputs": [
        {
          "internalType": "address",
          "name": "signer_",
          "type": "address"
        }
      ],
      "name": "setSigner",
      "outputs": [],
      "stateMutability": "nonpayable",
      "type": "function"
    },
    {
      "inputs": [
        {
          "internalType": "uint256",
          "name": "tokenId",
          "type": "uint256"
        },
        {
          "internalType": "string",
          "name": "_uri",
          "type": "string"
        }
      ],
      "name": "setTokenURI",
      "outputs": [],
      "stateMutability": "nonpayable",
      "type": "function"
    },
    {
      "inputs": [
        {
          "internalType": "uint256",
          "name": "_newmaxMintAmount",
          "type": "uint256"
        }
      ],
      "name": "setmaxMintAmount",
      "outputs": [],
      "stateMutability": "nonpayable",
      "type": "function"
    },
    {
      "inputs": [],
      "name": "signer",
      "outputs": [
        {
          "internalType": "address",
          "name": "",
          "type": "address"
        }
      ],
      "stateMutability": "view",
      "type": "function"
    },
    {
      "inputs": [
        {
          "internalType": "bytes4",
          "name": "interfaceId",
          "type": "bytes4"
        }
      ],
      "name": "supportsInterface",
      "outputs": [
        {
          "internalType": "bool",
          "name": "",
          "type": "bool"
        }
      ],
      "stateMutability": "view",
      "type": "function"
    },
    {
      "inputs": [],
      "name": "symbol",
      "outputs": [
        {
          "internalType": "string",
          "name": "",
          "type": "string"
        }
      ],
      "stateMutability": "view",
      "type": "function"
    },
    {
      "inputs": [
        {
          "internalType": "uint256",
          "name": "index",
          "type": "uint256"
        }
      ],
      "name": "tokenByIndex",
      "outputs": [
        {
          "internalType": "uint256",
          "name": "",
          "type": "uint256"
        }
      ],
      "stateMutability": "view",
      "type": "function"
    },
    {
      "inputs": [
        {
          "internalType": "address",
          "name": "owner",
          "type": "address"
        },
        {
          "internalType": "uint256",
          "name": "index",
          "type": "uint256"
        }
      ],
      "name": "tokenOfOwnerByIndex",
      "outputs": [
        {
          "internalType": "uint256",
          "name": "",
          "type": "uint256"
        }
      ],
      "stateMutability": "view",
      "type": "function"
    },
    {
      "inputs": [
        {
          "internalType": "uint256",
          "name": "tokenId",
          "type": "uint256"
        }
      ],
      "name": "tokenURI",
      "outputs": [
        {
          "internalType": "string",
          "name": "",
          "type": "string"
        }
      ],
      "stateMutability": "view",
      "type": "function"
    },
    {
      "inputs": [],
      "name": "totalClaimed",
      "outputs": [
        {
          "internalType": "uint256",
          "name": "",
          "type": "uint256"
        }
      ],
      "stateMutability": "view",
      "type": "function"
    },
    {
      "inputs": [],
      "name": "totalSupply",
      "outputs": [
        {
          "internalType": "uint256",
          "name": "",
          "type": "uint256"
        }
      ],
      "stateMutability": "view",
      "type": "function"
    },
    {
      "inputs": [
        {
          "internalType": "address",
          "name": "from",
          "type": "address"
        },
        {
          "internalType": "address",
          "name": "to",
          "type": "address"
        },
        {
          "internalType": "uint256",
          "name": "tokenId",
          "type": "uint256"
        }
      ],
      "name": "transferFrom",
      "outputs": [],
      "stateMutability": "nonpayable",
      "type": "function"
    },
    {
      "inputs": [
        {
          "internalType": "address",
          "name": "newOwner",
          "type": "address"
        }
      ],
      "name": "transferOwnership",
      "outputs": [],
      "stateMutability": "nonpayable",
      "type": "function"
    },
    {
      "inputs": [
        {
          "internalType": "address",
          "name": "_owner",
          "type": "address"
        }
      ],
      "name": "walletOfOwner",
      "outputs": [
        {
          "internalType": "uint256[]",
          "name": "",
          "type": "uint256[]"
        }
      ],
      "stateMutability": "view",
      "type": "function"
    },
    {
      "inputs": [
        {
          "internalType": "address[]",
          "name": "addresses",
          "type": "address[]"
        }
      ],
      "name": "whitelistUsers",
      "outputs": [],
      "stateMutability": "nonpayable",
      "type": "function"
    },
    {
      "inputs": [],
      "name": "withdraw",
      "outputs": [],
      "stateMutability": "payable",
      "type": "function"
    }
  ],
  "transactionHash": "0xad857e8e98f2d2b8b975c1134a56e316df1244be691a5111dec73d0aefe555db",
  "args": [
    "",
    "0x0ece5312f66002b4103FBb6A0ff4ad90aF52f91a"
  ],
  "solcInputHash": "768b7a71090b4bfcb61b2b69b302a3b3",
  "bytecode": "0x60a06040526801a055690d9db80000600e556101f4600f5560026010556011805464ffffffffff19166401000000001790553480156200003e57600080fd5b5060405162004396380380620043968339810160408190526200006191620002f0565b60408051808201825260068082526527232a34b33360d11b602080840182815285518087019096529285528401528151919291620000a291600091620001be565b508051620000b8906001906020840190620001be565b505050620000d5620000cf6200011960201b60201c565b6200011d565b6001600b55620000e5826200016f565b60118054600160281b600160c81b03191633650100000000000217905560601b6001600160601b03191660805250620004c0565b3390565b600a80546001600160a01b038381166001600160a01b0319831681179093556040519116919082907f8be0079c531659141344cd1fd0a4f28419497f9722a3daafe3b4186f6b6457e090600090a35050565b600a546001600160a01b03163314620001a55760405162461bcd60e51b81526004016200019c906200034e565b60405180910390fd5b8051620001ba90600c906020840190620001be565b5050565b828054620001cc906200041a565b90600052602060002090601f016020900481019282620001f057600085556200023b565b82601f106200020b57805160ff19168380011785556200023b565b828001600101855582156200023b579182015b828111156200023b5782518255916020019190600101906200021e565b50620002499291506200024d565b5090565b5b808211156200024957600081556001016200024e565b60006200027b6200027584620003a8565b62000389565b905082815260208101848484011115620002985762000298600080fd5b620002a5848285620003e7565b509392505050565b8051620002ba81620004a6565b92915050565b600082601f830112620002d657620002d6600080fd5b8151620002e884826020860162000264565b949350505050565b60008060408385031215620003085762000308600080fd5b82516001600160401b03811115620003235762000323600080fd5b6200033185828601620002c0565b92505060206200034485828601620002ad565b9150509250929050565b60208082528181019081527f4f776e61626c653a2063616c6c6572206973206e6f7420746865206f776e6572604083015260608201620002ba565b60006200039560405190565b9050620003a382826200044b565b919050565b60006001600160401b03821115620003c457620003c462000490565b601f19601f83011660200192915050565b60006001600160a01b038216620002ba565b60005b8381101562000404578181015183820152602001620003ea565b8381111562000414576000848401525b50505050565b6002810460018216806200042f57607f821691505b602082108114156200044557620004456200047a565b50919050565b601f19601f83011681018181106001600160401b038211171562000473576200047362000490565b6040525050565b634e487b7160e01b600052602260045260246000fd5b634e487b7160e01b600052604160045260246000fd5b620004b181620003d5565b8114620004bd57600080fd5b50565b60805160601c613eb0620004e6600039600081816109ac01526111a60152613eb06000f3fe6080604052600436106103765760003560e01c80636c19e783116101d1578063b423fe6711610102578063e46317b5116100a0578063f2c4ce1e1161006f578063f2c4ce1e14610a4a578063f2fde38b14610a6a578063fa88c3be14610a8a578063fe575a8714610aba57600080fd5b8063e46317b51461099a578063e985e9c5146109ce578063edec5f2714610a17578063efd0cbf914610a3757600080fd5b8063bc8893b4116100dc578063bc8893b41461092f578063c87b56dd1461094e578063d54ad2a11461096e578063d5abeb011461098457600080fd5b8063b423fe67146108cf578063b88d4fde146108ef578063bb3d676a1461090f57600080fd5b806383a076be1161016f5780638da5cb5b116101495780638da5cb5b1461086757806395d89b4114610885578063a22cb4651461089a578063a475b5dd146108ba57600080fd5b806383a076be146108145780638895283f146108345780638b9a10d71461085457600080fd5b806370a08231116101ab57806370a08231146107aa578063715018a6146107ca5780637ac3c02f146107df5780637f00c7a6146107f457600080fd5b80636c19e783146107555780636f8b44b0146107755780636f9fb98a1461079557600080fd5b80633af32abf116102ab5780634f6ccce7116102495780635c362233116102235780635c362233146106a75780635c975abb146107025780635eddd157146107225780636352211e1461073557600080fd5b80634f6ccce71461064c578063518302271461066c57806353135ca01461068d57600080fd5b806341bae2131161028557806341bae213146105af57806342842e0e146105df578063438b6300146105ff57806344a0d68a1461062c57600080fd5b80633af32abf1461054c5780633ccfd60b146105855780633e4191dc1461058d57600080fd5b8063150909f711610318578063238ac933116102f2578063238ac933146104cf578063239c70ae146104f657806323b872dd1461050c5780632f745c591461052c57600080fd5b8063150909f71461047a578063162094c41461049a57806318160ddd146104ba57600080fd5b8063081812fc11610354578063081812fc146103f5578063081c8c4414610422578063095ea7b31461043757806313faede61461045757600080fd5b806301ffc9a71461037b57806302329a29146103b157806306fdde03146103d3575b600080fd5b34801561038757600080fd5b5061039b610396366004612d71565b610af3565b6040516103a89190613935565b60405180910390f35b3480156103bd57600080fd5b506103d16103cc366004612d50565b610b1e565b005b3480156103df57600080fd5b506103e8610b6d565b6040516103a89190613981565b34801561040157600080fd5b50610415610410366004612dee565b610bff565b6040516103a891906138cb565b34801561042e57600080fd5b506103e8610c4f565b34801561044357600080fd5b506103d1610452366004612ce2565b610cdd565b34801561046357600080fd5b5061046d600e5481565b6040516103a89190613be2565b34801561048657600080fd5b506103d1610495366004612d50565b610d63565b3480156104a657600080fd5b506103d16104b5366004612e31565b610dad565b3480156104c657600080fd5b5060085461046d565b3480156104db57600080fd5b5060115461041590600160281b90046001600160a01b031681565b34801561050257600080fd5b5061046d60105481565b34801561051857600080fd5b506103d1610527366004612be0565b610e33565b34801561053857600080fd5b5061046d610547366004612ce2565b610e64565b34801561055857600080fd5b5061039b610567366004612b61565b6001600160a01b031660009081526012602052604090205460ff1690565b6103d1610eb6565b34801561059957600080fd5b5060115461039b90640100000000900460ff1681565b3480156105bb57600080fd5b5061039b6105ca366004612dee565b60166020526000908152604090205460ff1681565b3480156105eb57600080fd5b506103d16105fa366004612be0565b610f4c565b34801561060b57600080fd5b5061061f61061a366004612b61565b610f67565b6040516103a8919061391d565b34801561063857600080fd5b506103d1610647366004612dee565b611009565b34801561065857600080fd5b5061046d610667366004612dee565b611038565b34801561067857600080fd5b5060115461039b906301000000900460ff1681565b34801561069957600080fd5b5060115461039b9060ff1681565b3480156106b357600080fd5b506106f26106c2366004612dee565b6015602052600090815260409020805460018201546002830154600390930154919290916001600160a01b031684565b6040516103a89493929190613bf0565b34801561070e57600080fd5b5060115461039b9062010000900460ff1681565b6103d1610730366004612e7f565b611086565b34801561074157600080fd5b50610415610750366004612dee565b6113d1565b34801561076157600080fd5b506103d1610770366004612b61565b611406565b34801561078157600080fd5b506103d1610790366004612dee565b61145e565b3480156107a157600080fd5b5061046d61148d565b3480156107b657600080fd5b5061046d6107c5366004612b61565b6114bf565b3480156107d657600080fd5b506103d1611503565b3480156107eb57600080fd5b50610415611539565b34801561080057600080fd5b506103d161080f366004612dee565b61157d565b34801561082057600080fd5b506103d161082f366004612e0f565b6115ac565b34801561084057600080fd5b506103d161084f366004612d50565b6116a2565b6103d1610862366004612e31565b6116df565b34801561087357600080fd5b50600a546001600160a01b0316610415565b34801561089157600080fd5b506103e861189e565b3480156108a657600080fd5b506103d16108b5366004612caf565b6118ad565b3480156108c657600080fd5b506103d16118bc565b3480156108db57600080fd5b506103d16108ea366004612d50565b6118fb565b3480156108fb57600080fd5b506103d161090a366004612c30565b61193f565b34801561091b57600080fd5b506103d161092a366004612d15565b611971565b34801561093b57600080fd5b5060115461039b90610100900460ff1681565b34801561095a57600080fd5b506103e8610969366004612dee565b611a03565b34801561097a57600080fd5b5061046d60145481565b34801561099057600080fd5b5061046d600f5481565b3480156109a657600080fd5b506104157f000000000000000000000000000000000000000000000000000000000000000081565b3480156109da57600080fd5b5061039b6109e9366004612ba3565b6001600160a01b03918216600090815260056020908152604080832093909416825291909152205460ff1690565b348015610a2357600080fd5b506103d1610a32366004612d15565b611afb565b6103d1610a45366004612dee565b611b8d565b348015610a5657600080fd5b506103d1610a65366004612db3565b611d47565b348015610a7657600080fd5b506103d1610a85366004612b61565b611d84565b348015610a9657600080fd5b5061039b610aa5366004612dee565b60176020526000908152604090205460ff1681565b348015610ac657600080fd5b5061039b610ad5366004612b61565b6001600160a01b031660009081526013602052604090205460ff1690565b60006001600160e01b0319821663780e9d6360e01b1480610b185750610b1882611ddd565b92915050565b600a546001600160a01b03163314610b515760405162461bcd60e51b8152600401610b4890613b12565b60405180910390fd5b60118054911515620100000262ff000019909216919091179055565b606060008054610b7c90613d3d565b80601f0160208091040260200160405190810160405280929190818152602001828054610ba890613d3d565b8015610bf55780601f10610bca57610100808354040283529160200191610bf5565b820191906000526020600020905b815481529060010190602001808311610bd857829003601f168201915b5050505050905090565b6000818152600260205260408120546001600160a01b0316610c335760405162461bcd60e51b8152600401610b4890613af2565b506000908152600460205260409020546001600160a01b031690565b600c8054610c5c90613d3d565b80601f0160208091040260200160405190810160405280929190818152602001828054610c8890613d3d565b8015610cd55780601f10610caa57610100808354040283529160200191610cd5565b820191906000526020600020905b815481529060010190602001808311610cb857829003601f168201915b505050505081565b6000610ce8826113d1565b9050806001600160a01b0316836001600160a01b03161415610d1c5760405162461bcd60e51b8152600401610b4890613b42565b336001600160a01b0382161480610d385750610d3881336109e9565b610d545760405162461bcd60e51b8152600401610b4890613a82565b610d5e8383611e2d565b505050565b600a546001600160a01b03163314610d8d5760405162461bcd60e51b8152600401610b4890613b12565b601180549115156401000000000264ff0000000019909216919091179055565b600a546001600160a01b03163314610dd75760405162461bcd60e51b8152600401610b4890613b12565b6000828152600d602090815260409091208251610df69284019061299f565b50817f931f495b9a8e5d8e61946ea5d61e021f636cfe213a801f97589c18c152e408bd82604051610e279190613981565b60405180910390a25050565b610e3d3382611e9b565b610e595760405162461bcd60e51b8152600401610b4890613b62565b610d5e838383611f4d565b6000610e6f836114bf565b8210610e8d5760405162461bcd60e51b8152600401610b48906139d2565b506001600160a01b03919091166000908152600660209081526040808320938352929052205490565b600a546001600160a01b03163314610ee05760405162461bcd60e51b8152600401610b4890613b12565b6000336001600160a01b031647604051610ef9906138c3565b60006040518083038185875af1925050503d8060008114610f36576040519150601f19603f3d011682016040523d82523d6000602084013e610f3b565b606091505b5050905080610f4957600080fd5b50565b610d5e8383836040518060200160405280600081525061193f565b60606000610f74836114bf565b905060008167ffffffffffffffff811115610f9157610f91613e32565b604051908082528060200260200182016040528015610fba578160200160208202803683370190505b50905060005b8281101561100157610fd28582610e64565b828281518110610fe457610fe4613e1c565b602090810291909101015280610ff981613d97565b915050610fc0565b509392505050565b600a546001600160a01b031633146110335760405162461bcd60e51b8152600401610b4890613b12565b600e55565b600061104360085490565b82106110615760405162461bcd60e51b8152600401610b4890613b72565b6008828154811061107457611074613e1c565b90600052602060002001549050919050565b60115462010000900460ff16156110af5760405162461bcd60e51b8152600401610b4890613b22565b6002600b5414156110d25760405162461bcd60e51b8152600401610b4890613bb2565b6002600b553360008181526013602052604090205460ff16156111075760405162461bcd60e51b8152600401610b4890613b92565b60008381526016602052604090205460ff16156111365760405162461bcd60e51b8152600401610b4890613b02565b60008481526017602052604090205460ff16156111655760405162461bcd60e51b8152600401610b4890613a42565b3361116f846113d1565b6001600160a01b0316146111955760405162461bcd60e51b8152600401610b4890613ac2565b604051630b02f02d60e31b815233907f00000000000000000000000000000000000000000000000000000000000000006001600160a01b0316906358178168906111e3908890600401613be2565b60206040518083038186803b1580156111fb57600080fd5b505afa15801561120f573d6000803e3d6000fd5b505050506040513d601f19601f820116820180604052508101906112339190612b82565b6001600160a01b0316146112595760405162461bcd60e51b8152600401610b48906139c2565b600084843360405160200161127093929190613848565b604051602081830303815290604052805190602001209050600061129d846112978461207a565b906120aa565b6011549091506001600160a01b03808316600160281b90920416146112d45760405162461bcd60e51b8152600401610b4890613bd2565b60008581526016602090815260408083208054600160ff1991821681179092558a855260179093529083208054909216179055601480549161131583613d97565b90915550506040805160808101825287815260208082018881524283850181815233606086018181526014805460009081526015909752958890209651875593516001870155905160028601559151600390940180546001600160a01b0319166001600160a01b03909516949094179093559054925190927f528937b330082d892a98d4e428ab2dcca7844b51d227a1c0ae67f0b5261acbd9926113bc928b918b91613c25565b60405180910390a250506001600b5550505050565b6000818152600260205260408120546001600160a01b031680610b185760405162461bcd60e51b8152600401610b4890613aa2565b600a546001600160a01b031633146114305760405162461bcd60e51b8152600401610b4890613b12565b601180546001600160a01b03909216600160281b0265010000000000600160c81b0319909216919091179055565b600a546001600160a01b031633146114885760405162461bcd60e51b8152600401610b4890613b12565b600f55565b600a546000906001600160a01b031633146114ba5760405162461bcd60e51b8152600401610b4890613b12565b504790565b60006001600160a01b0382166114e75760405162461bcd60e51b8152600401610b4890613a92565b506001600160a01b031660009081526003602052604090205490565b600a546001600160a01b0316331461152d5760405162461bcd60e51b8152600401610b4890613b12565b61153760006120c6565b565b600a546000906001600160a01b031633146115665760405162461bcd60e51b8152600401610b4890613b12565b50601154600160281b90046001600160a01b031690565b600a546001600160a01b031633146115a75760405162461bcd60e51b8152600401610b4890613b12565b601055565b600a546001600160a01b031633146115d65760405162461bcd60e51b8152600401610b4890613b12565b600082116115f65760405162461bcd60e51b8152600401610b4890613bc2565b600061160160085490565b600f549091506116118483613ca6565b111561162f5760405162461bcd60e51b8152600401610b4890613ab2565b60015b83811161169c5761164c836116478385613ca6565b612118565b6116568183613ca6565b6040516001600160a01b038516907fbb06c934d5d088f12f303c757020e73ec03ae3217e26be764425bb34855c8b9490600090a38061169481613d97565b915050611632565b50505050565b600a546001600160a01b031633146116cc5760405162461bcd60e51b8152600401610b4890613b12565b6011805460ff1916911515919091179055565b60115462010000900460ff16156117085760405162461bcd60e51b8152600401610b4890613b22565b6002600b54141561172b5760405162461bcd60e51b8152600401610b4890613bb2565b6002600b553360008181526013602052604090205460ff16156117605760405162461bcd60e51b8152600401610b4890613b92565b60115460ff166117825760405162461bcd60e51b8152600401610b48906139a2565b82600e546117909190613cbe565b3410156117af5760405162461bcd60e51b8152600401610b4890613b52565b600083116117cf5760405162461bcd60e51b8152600401610b4890613bc2565b6010548311156117f15760405162461bcd60e51b8152600401610b4890613a62565b60006117fc60085490565b600f5490915061180c8583613ca6565b111561182a5760405162461bcd60e51b8152600401610b4890613ab2565b61183383612132565b60015b8481116118925761184b336116478385613ca6565b6118558183613ca6565b60405133907fbb06c934d5d088f12f303c757020e73ec03ae3217e26be764425bb34855c8b9490600090a38061188a81613d97565b915050611836565b50506001600b55505050565b606060018054610b7c90613d3d565b6118b83383836121e5565b5050565b600a546001600160a01b031633146118e65760405162461bcd60e51b8152600401610b4890613b12565b6011805463ff00000019166301000000179055565b600a546001600160a01b031633146119255760405162461bcd60e51b8152600401610b4890613b12565b601180549115156101000261ff0019909216919091179055565b6119493383611e9b565b6119655760405162461bcd60e51b8152600401610b4890613b62565b61169c84848484612288565b600a546001600160a01b0316331461199b5760405162461bcd60e51b8152600401610b4890613b12565b60005b81518110156118b8576001601360008484815181106119bf576119bf613e1c565b6020908102919091018101516001600160a01b03168252810191909152604001600020805460ff1916911515919091179055806119fb81613d97565b91505061199e565b6000818152600260205260409020546060906001600160a01b0316611a3a5760405162461bcd60e51b8152600401610b4890613b32565b6011546301000000900460ff16611add57600c8054611a5890613d3d565b80601f0160208091040260200160405190810160405280929190818152602001828054611a8490613d3d565b8015611ad15780601f10611aa657610100808354040283529160200191611ad1565b820191906000526020600020905b815481529060010190602001808311611ab457829003601f168201915b50505050509050919050565b6000828152600d602052604090208054611a5890613d3d565b919050565b600a546001600160a01b03163314611b255760405162461bcd60e51b8152600401610b4890613b12565b60005b81518110156118b857600160126000848481518110611b4957611b49613e1c565b6020908102919091018101516001600160a01b03168252810191909152604001600020805460ff191691151591909117905580611b8581613d97565b915050611b28565b60115462010000900460ff1615611bb65760405162461bcd60e51b8152600401610b4890613b22565b6002600b541415611bd95760405162461bcd60e51b8152600401610b4890613bb2565b6002600b553360008181526013602052604090205460ff1615611c0e5760405162461bcd60e51b8152600401610b4890613b92565b601154610100900460ff16611c355760405162461bcd60e51b8152600401610b48906139a2565b81600e54611c439190613cbe565b341015611c625760405162461bcd60e51b8152600401610b4890613b52565b60008211611c825760405162461bcd60e51b8152600401610b4890613bc2565b601054821115611ca45760405162461bcd60e51b8152600401610b4890613a62565b6000611caf60085490565b600f54909150611cbf8483613ca6565b1115611cdd5760405162461bcd60e51b8152600401610b4890613ab2565b60015b838111611d3c57611cf5336116478385613ca6565b611cff8183613ca6565b60405133907fbb06c934d5d088f12f303c757020e73ec03ae3217e26be764425bb34855c8b9490600090a380611d3481613d97565b915050611ce0565b50506001600b555050565b600a546001600160a01b03163314611d715760405162461bcd60e51b8152600401610b4890613b12565b80516118b890600c90602084019061299f565b600a546001600160a01b03163314611dae5760405162461bcd60e51b8152600401610b4890613b12565b6001600160a01b038116611dd45760405162461bcd60e51b8152600401610b48906139f2565b610f49816120c6565b60006001600160e01b031982166380ac58cd60e01b1480611e0e57506001600160e01b03198216635b5e139f60e01b145b80610b1857506301ffc9a760e01b6001600160e01b0319831614610b18565b600081815260046020526040902080546001600160a01b0319166001600160a01b0384169081179091558190611e62826113d1565b6001600160a01b03167f8c5be1e5ebec7d5bd14f71427d1e84f3dd0314c0f7b2291e5b200ac8c7c3b92560405160405180910390a45050565b6000818152600260205260408120546001600160a01b0316611ecf5760405162461bcd60e51b8152600401610b4890613a72565b6000611eda836113d1565b9050806001600160a01b0316846001600160a01b03161480611f155750836001600160a01b0316611f0a84610bff565b6001600160a01b0316145b80611f4557506001600160a01b0380821660009081526005602090815260408083209388168352929052205460ff165b949350505050565b826001600160a01b0316611f60826113d1565b6001600160a01b031614611f865760405162461bcd60e51b8152600401610b4890613a02565b6001600160a01b038216611fac5760405162461bcd60e51b8152600401610b4890613a22565b611fb78383836122bb565b611fc2600082611e2d565b6001600160a01b0383166000908152600360205260408120805460019290611feb908490613cdd565b90915550506001600160a01b0382166000908152600360205260408120805460019290612019908490613ca6565b909155505060008181526002602052604080822080546001600160a01b0319166001600160a01b0386811691821790925591518493918716917fddf252ad1be2c89b69c2b068fc378daa952ba7f163c4a11628f55a4df523b3ef91a4505050565b60008160405160200161208d919061380d565b604051602081830303815290604052805190602001209050919050565b60008060006120b98585612373565b91509150611001816123e3565b600a80546001600160a01b038381166001600160a01b0319831681179093556040519116919082907f8be0079c531659141344cd1fd0a4f28419497f9722a3daafe3b4186f6b6457e090600090a35050565b6118b88282604051806020016040528060008152506124c8565b3360009081526012602052604090205460ff166121615760405162461bcd60e51b8152600401610b4890613ba2565b601154640100000000900460ff1615610f49576000336040516020016121879190613899565b60405160208183030381529060405280519060200120905060006121ae836112978461207a565b6011549091506001600160a01b03808316600160281b9092041614610d5e5760405162461bcd60e51b8152600401610b4890613b82565b816001600160a01b0316836001600160a01b031614156122175760405162461bcd60e51b8152600401610b4890613a32565b6001600160a01b0383811660008181526005602090815260408083209487168084529490915290819020805460ff1916851515179055517f17307eab39ab6107e8899845ad3d59bd9653f200f220920489ca2b5937696c319061227b908590613935565b60405180910390a3505050565b612293848484611f4d565b61229f848484846124fb565b61169c5760405162461bcd60e51b8152600401610b48906139e2565b6001600160a01b0383166123165761231181600880546000838152600960205260408120829055600182018355919091527ff3f7a9fe364faab93b216da50a3214154f22a0a2b415b23a84c8169e8b636ee30155565b612339565b816001600160a01b0316836001600160a01b031614612339576123398382612608565b6001600160a01b03821661235057610d5e816126a5565b826001600160a01b0316826001600160a01b031614610d5e57610d5e8282612754565b6000808251604114156123aa5760208301516040840151606085015160001a61239e87828585612798565b945094505050506123dc565b8251604014156123d457602083015160408401516123c9868383612878565b9350935050506123dc565b506000905060025b9250929050565b60008160048111156123f7576123f7613dda565b14156124005750565b600181600481111561241457612414613dda565b14156124325760405162461bcd60e51b8152600401610b4890613992565b600281600481111561244657612446613dda565b14156124645760405162461bcd60e51b8152600401610b48906139b2565b600381600481111561247857612478613dda565b14156124965760405162461bcd60e51b8152600401610b4890613a52565b60048160048111156124aa576124aa613dda565b1415610f495760405162461bcd60e51b8152600401610b4890613ad2565b6124d283836128b1565b6124df60008484846124fb565b610d5e5760405162461bcd60e51b8152600401610b48906139e2565b60006001600160a01b0384163b156125fd57604051630a85bd0160e11b81526001600160a01b0385169063150b7a029061253f9033908990889088906004016138d9565b602060405180830381600087803b15801561255957600080fd5b505af1925050508015612589575060408051601f3d908101601f1916820190925261258691810190612d92565b60015b6125e3573d8080156125b7576040519150601f19603f3d011682016040523d82523d6000602084013e6125bc565b606091505b5080516125db5760405162461bcd60e51b8152600401610b48906139e2565b805181602001fd5b6001600160e01b031916630a85bd0160e11b149050611f45565b506001949350505050565b60006001612615846114bf565b61261f9190613cdd565b600083815260076020526040902054909150808214612672576001600160a01b03841660009081526006602090815260408083208584528252808320548484528184208190558352600790915290208190555b5060009182526007602090815260408084208490556001600160a01b039094168352600681528383209183525290812055565b6008546000906126b790600190613cdd565b600083815260096020526040812054600880549394509092849081106126df576126df613e1c565b90600052602060002001549050806008838154811061270057612700613e1c565b600091825260208083209091019290925582815260099091526040808220849055858252812055600880548061273857612738613e06565b6001900381819060005260206000200160009055905550505050565b600061275f836114bf565b6001600160a01b039093166000908152600660209081526040808320868452825280832085905593825260079052919091209190915550565b6000807f7fffffffffffffffffffffffffffffff5d576e7357a4501ddfe92f46681b20a08311156127cf575060009050600361286f565b8460ff16601b141580156127e757508460ff16601c14155b156127f8575060009050600461286f565b60006001878787876040516000815260200160405260405161281d9493929190613943565b6020604051602081039080840390855afa15801561283f573d6000803e3d6000fd5b5050604051601f1901519150506001600160a01b0381166128685760006001925092505061286f565b9150600090505b94509492505050565b6000806001600160ff1b0383168161289560ff86901c601b613ca6565b90506128a387828885612798565b935093505050935093915050565b6001600160a01b0382166128d75760405162461bcd60e51b8152600401610b4890613ae2565b6000818152600260205260409020546001600160a01b03161561290c5760405162461bcd60e51b8152600401610b4890613a12565b612918600083836122bb565b6001600160a01b0382166000908152600360205260408120805460019290612941908490613ca6565b909155505060008181526002602052604080822080546001600160a01b0319166001600160a01b03861690811790915590518392907fddf252ad1be2c89b69c2b068fc378daa952ba7f163c4a11628f55a4df523b3ef908290a45050565b8280546129ab90613d3d565b90600052602060002090601f0160209004810192826129cd5760008555612a13565b82601f106129e657805160ff1916838001178555612a13565b82800160010185558215612a13579182015b82811115612a135782518255916020019190600101906129f8565b50612a1f929150612a23565b5090565b5b80821115612a1f5760008155600101612a24565b6000612a4b612a4684613c57565b613c40565b90508083825260208201905082856020860282011115612a6d57612a6d600080fd5b60005b85811015612a995781612a838882612ad7565b8452506020928301929190910190600101612a70565b5050509392505050565b6000612ab1612a4684613c7b565b905082815260208101848484011115612acc57612acc600080fd5b611001848285613d05565b8035610b1881613e48565b8051610b1881613e48565b600082601f830112612b0157612b01600080fd5b8135611f45848260208601612a38565b8035610b1881613e5c565b8035610b1881613e64565b8051610b1881613e64565b600082601f830112612b4657612b46600080fd5b8135611f45848260208601612aa3565b8035610b1881613e74565b600060208284031215612b7657612b76600080fd5b6000611f458484612ad7565b600060208284031215612b9757612b97600080fd5b6000611f458484612ae2565b60008060408385031215612bb957612bb9600080fd5b6000612bc58585612ad7565b9250506020612bd685828601612ad7565b9150509250929050565b600080600060608486031215612bf857612bf8600080fd5b6000612c048686612ad7565b9350506020612c1586828701612ad7565b9250506040612c2686828701612b56565b9150509250925092565b60008060008060808587031215612c4957612c49600080fd5b6000612c558787612ad7565b9450506020612c6687828801612ad7565b9350506040612c7787828801612b56565b925050606085013567ffffffffffffffff811115612c9757612c97600080fd5b612ca387828801612b32565b91505092959194509250565b60008060408385031215612cc557612cc5600080fd5b6000612cd18585612ad7565b9250506020612bd685828601612b11565b60008060408385031215612cf857612cf8600080fd5b6000612d048585612ad7565b9250506020612bd685828601612b56565b600060208284031215612d2a57612d2a600080fd5b813567ffffffffffffffff811115612d4457612d44600080fd5b611f4584828501612aed565b600060208284031215612d6557612d65600080fd5b6000611f458484612b11565b600060208284031215612d8657612d86600080fd5b6000611f458484612b1c565b600060208284031215612da757612da7600080fd5b6000611f458484612b27565b600060208284031215612dc857612dc8600080fd5b813567ffffffffffffffff811115612de257612de2600080fd5b611f4584828501612b32565b600060208284031215612e0357612e03600080fd5b6000611f458484612b56565b60008060408385031215612e2557612e25600080fd5b6000612bc58585612b56565b60008060408385031215612e4757612e47600080fd5b6000612e538585612b56565b925050602083013567ffffffffffffffff811115612e7357612e73600080fd5b612bd685828601612b32565b600080600060608486031215612e9757612e97600080fd5b6000612ea38686612b56565b9350506020612eb486828701612b56565b925050604084013567ffffffffffffffff811115612ed457612ed4600080fd5b612c2686828701612b32565b6000612eec8383612f65565b505060200190565b612efd81613cf4565b82525050565b612efd612f0f82613cf4565b613db2565b6000612f1e825190565b80845260209384019383018060005b83811015612f52578151612f418882612ee0565b975060208301925050600101612f2d565b509495945050505050565b801515612efd565b80612efd565b6000612f75825190565b808452602084019350612f8c818560208601613d11565b601f01601f19169290920192915050565b601881526000602082017f45434453413a20696e76616c6964207369676e61747572650000000000000000815291505b5060200190565b601881526000602082017f53616c6520686173206e6f74207374617274656420796574000000000000000081529150612fcd565b601f81526000602082017f45434453413a20696e76616c6964207369676e6174757265206c656e6774680081529150612fcd565b600f81526000602082016e3737ba10383ab735b99037bbb732b960891b81529150612fcd565b602b81526000602082017f455243373231456e756d657261626c653a206f776e657220696e646578206f7581526a74206f6620626f756e647360a81b602082015291505b5060400190565b603281526000602082017f4552433732313a207472616e7366657220746f206e6f6e20455243373231526581527131b2b4bb32b91034b6b83632b6b2b73a32b960711b602082015291506130a6565b602681526000602082017f4f776e61626c653a206e6577206f776e657220697320746865207a65726f206181526564647265737360d01b602082015291506130a6565b602581526000602082017f4552433732313a207472616e736665722066726f6d20696e636f72726563742081526437bbb732b960d91b602082015291506130a6565b601c81526000602082017f4552433732313a20746f6b656e20616c7265616479206d696e7465640000000081529150612fcd565b602481526000602082017f4552433732313a207472616e7366657220746f20746865207a65726f206164648152637265737360e01b602082015291506130a6565b601981526000602082017f4552433732313a20617070726f766520746f2063616c6c65720000000000000081529150612fcd565b6014815260006020820173616c726561647920636c61696d65642070756e6b60601b81529150612fcd565b602281526000602082017f45434453413a20696e76616c6964207369676e6174757265202773272076616c815261756560f01b602082015291506130a6565b602881526000602082017f6d6178206d696e7420616d6f756e7420706572207472616e73616374696f6e20815267195e18d95959195960c21b602082015291506130a6565b602c81526000602082017f4552433732313a206f70657261746f7220717565727920666f72206e6f6e657881526b34b9ba32b73a103a37b5b2b760a11b602082015291506130a6565b603881526000602082017f4552433732313a20617070726f76652063616c6c6572206973206e6f74206f7781527f6e6572206e6f7220617070726f76656420666f7220616c6c0000000000000000602082015291506130a6565b602a81526000602082017f4552433732313a2062616c616e636520717565727920666f7220746865207a65815269726f206164647265737360b01b602082015291506130a6565b602981526000602082017f4552433732313a206f776e657220717565727920666f72206e6f6e657869737481526832b73a103a37b5b2b760b91b602082015291506130a6565b60168152600060208201751b585e08139195081b1a5b5a5d08195e18d95959195960521b81529150612fcd565b601081526000602082016f3737ba1037333a34b3331037bbb732b960811b81529150612fcd565b602281526000602082017f45434453413a20696e76616c6964207369676e6174757265202776272076616c815261756560f01b602082015291506130a6565b60208082527f4552433732313a206d696e7420746f20746865207a65726f206164647265737391019081526000612fcd565b602c81526000602082017f4552433732313a20617070726f76656420717565727920666f72206e6f6e657881526b34b9ba32b73a103a37b5b2b760a11b602082015291506130a6565b601681526000602082017530b63932b0b23c9031b630b4b6b2b21037333a34b33360511b81529150612fcd565b60208082527f4f776e61626c653a2063616c6c6572206973206e6f7420746865206f776e657291019081526000612fcd565b60168152600060208201751d1a194818dbdb9d1c9858dd081a5cc81c185d5cd95960521b81529150612fcd565b602f81526000602082017f4552433732314d657461646174613a2055524920717565727920666f72206e6f81526e3732bc34b9ba32b73a103a37b5b2b760891b602082015291506130a6565b602181526000602082017f4552433732313a20617070726f76616c20746f2063757272656e74206f776e658152603960f91b602082015291506130a6565b6012815260006020820171696e73756666696369656e742066756e647360701b81529150612fcd565b603181526000602082017f4552433732313a207472616e736665722063616c6c6572206973206e6f74206f8152701ddb995c881b9bdc88185c1c1c9bdd9959607a1b602082015291506130a6565b602c81526000602082017f455243373231456e756d657261626c653a20676c6f62616c20696e646578206f81526b7574206f6620626f756e647360a01b602082015291506130a6565b601081526000602082016f12de58c81b9bdd08185c1c1c9bdd995960821b81529150612fcd565b60118152600060208201701d5cd95c881a5b88189b1858dadb1a5cdd607a1b81529150612fcd565b601781526000602082017f75736572206973206e6f742077686974656c697374656400000000000000000081529150612fcd565b601f81526000602082017f5265656e7472616e637947756172643a207265656e7472616e742063616c6c0081529150612fcd565b601b81526000602082017f6e65656420746f206d696e74206174206c656173742031204e4654000000000081529150612fcd565b601581526000602082017414da1a5c1c1a5b99c81b9bdd081d995c9a599a5959605a1b81529150612fcd565b60ff8116612efd565b7f19457468657265756d205369676e6564204d6573736167653a0a3332000000008152601c01600061383f8284612f65565b50602001919050565b701cda1a5c1c1a5b99cb5d995c9a599a5959607a1b8152601101600061386e8286612f65565b60208201915061387e8285612f65565b60208201915061388e8284612f03565b506014019392505050565b6b1ade58cb585c1c1c9bdd995960a21b8152600c0160006138ba8284612f03565b50601401919050565b600081610b18565b60208101610b188284612ef4565b608081016138e78287612ef4565b6138f46020830186612ef4565b6139016040830185612f65565b81810360608301526139138184612f6b565b9695505050505050565b6020808252810161392e8184612f14565b9392505050565b60208101610b188284612f5d565b608081016139518287612f65565b61395e6020830186613804565b61396b6040830185612f65565b6139786060830184612f65565b95945050505050565b6020808252810161392e8184612f6b565b60208082528101610b1881612f9d565b60208082528101610b1881612fd4565b60208082528101610b1881613008565b60208082528101610b188161303c565b60208082528101610b1881613062565b60208082528101610b18816130ad565b60208082528101610b18816130fc565b60208082528101610b188161313f565b60208082528101610b1881613181565b60208082528101610b18816131b5565b60208082528101610b18816131f6565b60208082528101610b188161322a565b60208082528101610b1881613255565b60208082528101610b1881613294565b60208082528101610b18816132d9565b60208082528101610b1881613322565b60208082528101610b188161337c565b60208082528101610b18816133c3565b60208082528101610b1881613409565b60208082528101610b1881613436565b60208082528101610b188161345d565b60208082528101610b188161349c565b60208082528101610b18816134ce565b60208082528101610b1881613517565b60208082528101610b1881613544565b60208082528101610b1881613576565b60208082528101610b18816135a3565b60208082528101610b18816135ef565b60208082528101610b188161362d565b60208082528101610b1881613656565b60208082528101610b18816136a4565b60208082528101610b18816136ed565b60208082528101610b1881613714565b60208082528101610b188161373c565b60208082528101610b1881613770565b60208082528101610b18816137a4565b60208082528101610b18816137d8565b60208101610b188284612f65565b60808101613bfe8287612f65565b613c0b6020830186612f65565b613c186040830185612f65565b6139786060830184612ef4565b60808101613c338287612f65565b61395e6020830186612f65565b6000613c4b60405190565b9050611af68282613d6a565b600067ffffffffffffffff821115613c7157613c71613e32565b5060209081020190565b600067ffffffffffffffff821115613c9557613c95613e32565b601f19601f83011660200192915050565b60008219821115613cb957613cb9613dc4565b500190565b6000816000190483118215151615613cd857613cd8613dc4565b500290565b600082821015613cef57613cef613dc4565b500390565b60006001600160a01b038216610b18565b82818337506000910152565b60005b83811015613d2c578181015183820152602001613d14565b8381111561169c5750506000910152565b600281046001821680613d5157607f821691505b60208210811415613d6457613d64613df0565b50919050565b601f19601f830116810181811067ffffffffffffffff82111715613d9057613d90613e32565b6040525050565b6000600019821415613dab57613dab613dc4565b5060010190565b6000610b18826000610b188260601b90565b634e487b7160e01b600052601160045260246000fd5b634e487b7160e01b600052602160045260246000fd5b634e487b7160e01b600052602260045260246000fd5b634e487b7160e01b600052603160045260246000fd5b634e487b7160e01b600052603260045260246000fd5b634e487b7160e01b600052604160045260246000fd5b613e5181613cf4565b8114610f4957600080fd5b801515613e51565b6001600160e01b03198116613e51565b80613e5156fea2646970667358221220e5191fe64910dbc24443517618ddd684c67833e8403e4832d2ff2ac3c7c5319264736f6c63430008070033",
  "devdoc": {
    "kind": "dev",
    "methods": {
      "approve(address,uint256)": {
        "details": "See {IERC721-approve}."
      },
      "balanceOf(address)": {
        "details": "See {IERC721-balanceOf}."
      },
      "getApproved(uint256)": {
        "details": "See {IERC721-getApproved}."
      },
      "isApprovedForAll(address,address)": {
        "details": "See {IERC721-isApprovedForAll}."
      },
      "name()": {
        "details": "See {IERC721Metadata-name}."
      },
      "owner()": {
        "details": "Returns the address of the current owner."
      },
      "ownerOf(uint256)": {
        "details": "See {IERC721-ownerOf}."
      },
      "renounceOwnership()": {
        "details": "Leaves the contract without owner. It will not be possible to call `onlyOwner` functions anymore. Can only be called by the current owner. NOTE: Renouncing ownership will leave the contract without an owner, thereby removing any functionality that is only available to the owner."
      },
      "safeTransferFrom(address,address,uint256)": {
        "details": "See {IERC721-safeTransferFrom}."
      },
      "safeTransferFrom(address,address,uint256,bytes)": {
        "details": "See {IERC721-safeTransferFrom}."
      },
      "setApprovalForAll(address,bool)": {
        "details": "See {IERC721-setApprovalForAll}."
      },
      "supportsInterface(bytes4)": {
        "details": "See {IERC165-supportsInterface}."
      },
      "symbol()": {
        "details": "See {IERC721Metadata-symbol}."
      },
      "tokenByIndex(uint256)": {
        "details": "See {IERC721Enumerable-tokenByIndex}."
      },
      "tokenOfOwnerByIndex(address,uint256)": {
        "details": "See {IERC721Enumerable-tokenOfOwnerByIndex}."
      },
      "tokenURI(uint256)": {
        "details": "See {IERC721Metadata-tokenURI}."
      },
      "totalSupply()": {
        "details": "See {IERC721Enumerable-totalSupply}."
      },
      "transferFrom(address,address,uint256)": {
        "details": "See {IERC721-transferFrom}."
      },
      "transferOwnership(address)": {
        "details": "Transfers ownership of the contract to a new account (`newOwner`). Can only be called by the current owner."
      }
    },
    "version": 1
  },
  "userdoc": {
    "events": {
      "TokenURIUpdated(uint256,string)": {
        "notice": "EVENTS "
      }
    },
    "kind": "user",
    "methods": {
      "constructor": {
        "notice": "METHODS "
      }
    },
    "version": 1
  },
  "storageLayout": {
    "storage": [
      {
        "astId": 170,
        "contract": "contracts/NFTiff.sol:NFTiff",
        "label": "_name",
        "offset": 0,
        "slot": "0",
        "type": "t_string_storage"
      },
      {
        "astId": 172,
        "contract": "contracts/NFTiff.sol:NFTiff",
        "label": "_symbol",
        "offset": 0,
        "slot": "1",
        "type": "t_string_storage"
      },
      {
        "astId": 176,
        "contract": "contracts/NFTiff.sol:NFTiff",
        "label": "_owners",
        "offset": 0,
        "slot": "2",
        "type": "t_mapping(t_uint256,t_address)"
      },
      {
        "astId": 180,
        "contract": "contracts/NFTiff.sol:NFTiff",
        "label": "_balances",
        "offset": 0,
        "slot": "3",
        "type": "t_mapping(t_address,t_uint256)"
      },
      {
        "astId": 184,
        "contract": "contracts/NFTiff.sol:NFTiff",
        "label": "_tokenApprovals",
        "offset": 0,
        "slot": "4",
        "type": "t_mapping(t_uint256,t_address)"
      },
      {
        "astId": 190,
        "contract": "contracts/NFTiff.sol:NFTiff",
        "label": "_operatorApprovals",
        "offset": 0,
        "slot": "5",
        "type": "t_mapping(t_address,t_mapping(t_address,t_bool))"
      },
      {
        "astId": 1159,
        "contract": "contracts/NFTiff.sol:NFTiff",
        "label": "_ownedTokens",
        "offset": 0,
        "slot": "6",
        "type": "t_mapping(t_address,t_mapping(t_uint256,t_uint256))"
      },
      {
        "astId": 1163,
        "contract": "contracts/NFTiff.sol:NFTiff",
        "label": "_ownedTokensIndex",
        "offset": 0,
        "slot": "7",
        "type": "t_mapping(t_uint256,t_uint256)"
      },
      {
        "astId": 1166,
        "contract": "contracts/NFTiff.sol:NFTiff",
        "label": "_allTokens",
        "offset": 0,
        "slot": "8",
        "type": "t_array(t_uint256)dyn_storage"
      },
      {
        "astId": 1170,
        "contract": "contracts/NFTiff.sol:NFTiff",
        "label": "_allTokensIndex",
        "offset": 0,
        "slot": "9",
        "type": "t_mapping(t_uint256,t_uint256)"
      },
      {
        "astId": 7,
        "contract": "contracts/NFTiff.sol:NFTiff",
        "label": "_owner",
        "offset": 0,
        "slot": "10",
        "type": "t_address"
      },
      {
        "astId": 115,
        "contract": "contracts/NFTiff.sol:NFTiff",
        "label": "_status",
        "offset": 0,
        "slot": "11",
        "type": "t_uint256"
      },
      {
        "astId": 2919,
        "contract": "contracts/NFTiff.sol:NFTiff",
        "label": "notRevealedUri",
        "offset": 0,
        "slot": "12",
        "type": "t_string_storage"
      },
      {
        "astId": 2923,
        "contract": "contracts/NFTiff.sol:NFTiff",
        "label": "_tokenURIs",
        "offset": 0,
        "slot": "13",
        "type": "t_mapping(t_uint256,t_string_storage)"
      },
      {
        "astId": 2926,
        "contract": "contracts/NFTiff.sol:NFTiff",
        "label": "cost",
        "offset": 0,
        "slot": "14",
        "type": "t_uint256"
      },
      {
        "astId": 2929,
        "contract": "contracts/NFTiff.sol:NFTiff",
        "label": "maxSupply",
        "offset": 0,
        "slot": "15",
        "type": "t_uint256"
      },
      {
        "astId": 2932,
        "contract": "contracts/NFTiff.sol:NFTiff",
        "label": "maxMintAmount",
        "offset": 0,
        "slot": "16",
        "type": "t_uint256"
      },
      {
        "astId": 2935,
        "contract": "contracts/NFTiff.sol:NFTiff",
        "label": "presaleActive",
        "offset": 0,
        "slot": "17",
        "type": "t_bool"
      },
      {
        "astId": 2938,
        "contract": "contracts/NFTiff.sol:NFTiff",
        "label": "publicSaleActive",
        "offset": 1,
        "slot": "17",
        "type": "t_bool"
      },
      {
        "astId": 2941,
        "contract": "contracts/NFTiff.sol:NFTiff",
        "label": "paused",
        "offset": 2,
        "slot": "17",
        "type": "t_bool"
      },
      {
        "astId": 2944,
        "contract": "contracts/NFTiff.sol:NFTiff",
        "label": "revealed",
        "offset": 3,
        "slot": "17",
        "type": "t_bool"
      },
      {
        "astId": 2947,
        "contract": "contracts/NFTiff.sol:NFTiff",
        "label": "isKycRequired",
        "offset": 4,
        "slot": "17",
        "type": "t_bool"
      },
      {
        "astId": 2949,
        "contract": "contracts/NFTiff.sol:NFTiff",
        "label": "signer",
        "offset": 5,
        "slot": "17",
        "type": "t_address"
      },
      {
        "astId": 2953,
        "contract": "contracts/NFTiff.sol:NFTiff",
        "label": "whitelistedAddresses",
        "offset": 0,
        "slot": "18",
        "type": "t_mapping(t_address,t_bool)"
      },
      {
        "astId": 2957,
        "contract": "contracts/NFTiff.sol:NFTiff",
        "label": "blacklistedAddresses",
        "offset": 0,
        "slot": "19",
        "type": "t_mapping(t_address,t_bool)"
      },
      {
        "astId": 2961,
        "contract": "contracts/NFTiff.sol:NFTiff",
        "label": "totalClaimed",
        "offset": 0,
        "slot": "20",
        "type": "t_uint256"
      },
      {
        "astId": 2966,
        "contract": "contracts/NFTiff.sol:NFTiff",
        "label": "claimInfo",
        "offset": 0,
        "slot": "21",
        "type": "t_mapping(t_uint256,t_struct(ClaimInfo)2983_storage)"
      },
      {
        "astId": 2970,
        "contract": "contracts/NFTiff.sol:NFTiff",
        "label": "nftiffClaimed",
        "offset": 0,
        "slot": "22",
        "type": "t_mapping(t_uint256,t_bool)"
      },
      {
        "astId": 2974,
        "contract": "contracts/NFTiff.sol:NFTiff",
        "label": "punkClaimed",
        "offset": 0,
        "slot": "23",
        "type": "t_mapping(t_uint256,t_bool)"
      }
    ],
    "types": {
      "t_address": {
        "encoding": "inplace",
        "label": "address",
        "numberOfBytes": "20"
      },
      "t_array(t_uint256)dyn_storage": {
        "base": "t_uint256",
        "encoding": "dynamic_array",
        "label": "uint256[]",
        "numberOfBytes": "32"
      },
      "t_bool": {
        "encoding": "inplace",
        "label": "bool",
        "numberOfBytes": "1"
      },
      "t_mapping(t_address,t_bool)": {
        "encoding": "mapping",
        "key": "t_address",
        "label": "mapping(address => bool)",
        "numberOfBytes": "32",
        "value": "t_bool"
      },
      "t_mapping(t_address,t_mapping(t_address,t_bool))": {
        "encoding": "mapping",
        "key": "t_address",
        "label": "mapping(address => mapping(address => bool))",
        "numberOfBytes": "32",
        "value": "t_mapping(t_address,t_bool)"
      },
      "t_mapping(t_address,t_mapping(t_uint256,t_uint256))": {
        "encoding": "mapping",
        "key": "t_address",
        "label": "mapping(address => mapping(uint256 => uint256))",
        "numberOfBytes": "32",
        "value": "t_mapping(t_uint256,t_uint256)"
      },
      "t_mapping(t_address,t_uint256)": {
        "encoding": "mapping",
        "key": "t_address",
        "label": "mapping(address => uint256)",
        "numberOfBytes": "32",
        "value": "t_uint256"
      },
      "t_mapping(t_uint256,t_address)": {
        "encoding": "mapping",
        "key": "t_uint256",
        "label": "mapping(uint256 => address)",
        "numberOfBytes": "32",
        "value": "t_address"
      },
      "t_mapping(t_uint256,t_bool)": {
        "encoding": "mapping",
        "key": "t_uint256",
        "label": "mapping(uint256 => bool)",
        "numberOfBytes": "32",
        "value": "t_bool"
      },
      "t_mapping(t_uint256,t_string_storage)": {
        "encoding": "mapping",
        "key": "t_uint256",
        "label": "mapping(uint256 => string)",
        "numberOfBytes": "32",
        "value": "t_string_storage"
      },
      "t_mapping(t_uint256,t_struct(ClaimInfo)2983_storage)": {
        "encoding": "mapping",
        "key": "t_uint256",
        "label": "mapping(uint256 => struct NFTiff.ClaimInfo)",
        "numberOfBytes": "32",
        "value": "t_struct(ClaimInfo)2983_storage"
      },
      "t_mapping(t_uint256,t_uint256)": {
        "encoding": "mapping",
        "key": "t_uint256",
        "label": "mapping(uint256 => uint256)",
        "numberOfBytes": "32",
        "value": "t_uint256"
      },
      "t_string_storage": {
        "encoding": "bytes",
        "label": "string",
        "numberOfBytes": "32"
      },
      "t_struct(ClaimInfo)2983_storage": {
        "encoding": "inplace",
        "label": "struct NFTiff.ClaimInfo",
        "members": [
          {
            "astId": 2976,
            "contract": "contracts/NFTiff.sol:NFTiff",
            "label": "punkId",
            "offset": 0,
            "slot": "0",
            "type": "t_uint256"
          },
          {
            "astId": 2978,
            "contract": "contracts/NFTiff.sol:NFTiff",
            "label": "nftiffId",
            "offset": 0,
            "slot": "1",
            "type": "t_uint256"
          },
          {
            "astId": 2980,
            "contract": "contracts/NFTiff.sol:NFTiff",
            "label": "timestamp",
            "offset": 0,
            "slot": "2",
            "type": "t_uint256"
          },
          {
            "astId": 2982,
            "contract": "contracts/NFTiff.sol:NFTiff",
            "label": "claimer",
            "offset": 0,
            "slot": "3",
            "type": "t_address"
          }
        ],
        "numberOfBytes": "128"
      },
      "t_uint256": {
        "encoding": "inplace",
        "label": "uint256",
        "numberOfBytes": "32"
      }
    }
  }
}