{
  "address": "0x3C7AB161bdEdF6933c0e643Fc788eB21680B91fD",
  "abi": [
    {
      "inputs": [
        {
          "internalType": "string",
          "name": "_initNotRevealedUri",
          "type": "string"
        },
        {
          "internalType": "address",
          "name": "punksContract_",
          "type": "address"
        }
      ],
      "stateMutability": "nonpayable",
      "type": "constructor"
    },
    {
      "anonymous": false,
      "inputs": [
        {
          "indexed": true,
          "internalType": "address",
          "name": "owner",
          "type": "address"
        },
        {
          "indexed": true,
          "internalType": "address",
          "name": "approved",
          "type": "address"
        },
        {
          "indexed": true,
          "internalType": "uint256",
          "name": "tokenId",
          "type": "uint256"
        }
      ],
      "name": "Approval",
      "type": "event"
    },
    {
      "anonymous": false,
      "inputs": [
        {
          "indexed": true,
          "internalType": "address",
          "name": "owner",
          "type": "address"
        },
        {
          "indexed": true,
          "internalType": "address",
          "name": "operator",
          "type": "address"
        },
        {
          "indexed": false,
          "internalType": "bool",
          "name": "approved",
          "type": "bool"
        }
      ],
      "name": "ApprovalForAll",
      "type": "event"
    },
    {
      "anonymous": false,
      "inputs": [
        {
          "indexed": false,
          "internalType": "string",
          "name": "baseURI",
          "type": "string"
        }
      ],
      "name": "BaseURISet",
      "type": "event"
    },
    {
      "anonymous": false,
      "inputs": [
        {
          "indexed": false,
          "internalType": "uint256",
          "name": "claimId",
          "type": "uint256"
        },
        {
          "indexed": true,
          "internalType": "address",
          "name": "to",
          "type": "address"
        },
        {
          "indexed": false,
          "internalType": "uint256",
          "name": "punkId",
          "type": "uint256"
        },
        {
          "indexed": false,
          "internalType": "uint256",
          "name": "nftiffId",
          "type": "uint256"
        },
        {
          "indexed": false,
          "internalType": "uint256",
          "name": "timestamp",
          "type": "uint256"
        }
      ],
      "name": "Claimed",
      "type": "event"
    },
    {
      "anonymous": false,
      "inputs": [
        {
          "indexed": false,
          "internalType": "uint256",
          "name": "cost",
          "type": "uint256"
        }
      ],
      "name": "CostChanged",
      "type": "event"
    },
    {
      "anonymous": false,
      "inputs": [
        {
          "indexed": false,
          "internalType": "bool",
          "name": "kycRequired",
          "type": "bool"
        }
      ],
      "name": "KycRequireChanged",
      "type": "event"
    },
    {
      "anonymous": false,
      "inputs": [
        {
          "indexed": false,
          "internalType": "uint256",
          "name": "amount",
          "type": "uint256"
        }
      ],
      "name": "MaxMintAmountChanged",
      "type": "event"
    },
    {
      "anonymous": false,
      "inputs": [
        {
          "indexed": false,
          "internalType": "uint256",
          "name": "maxSupply",
          "type": "uint256"
        }
      ],
      "name": "MaxSupplyChanged",
      "type": "event"
    },
    {
      "anonymous": false,
      "inputs": [
        {
          "indexed": true,
          "internalType": "address",
          "name": "to",
          "type": "address"
        },
        {
          "indexed": true,
          "internalType": "uint256",
          "name": "tokenId",
          "type": "uint256"
        }
      ],
      "name": "NFTiffMinted",
      "type": "event"
    },
    {
      "anonymous": false,
      "inputs": [
        {
          "indexed": false,
          "internalType": "string",
          "name": "uri",
          "type": "string"
        }
      ],
      "name": "NotRevealedUriChanged",
      "type": "event"
    },
    {
      "anonymous": false,
      "inputs": [
        {
          "indexed": true,
          "internalType": "address",
          "name": "previousOwner",
          "type": "address"
        },
        {
          "indexed": true,
          "internalType": "address",
          "name": "newOwner",
          "type": "address"
        }
      ],
      "name": "OwnershipTransferred",
      "type": "event"
    },
    {
      "anonymous": false,
      "inputs": [
        {
          "indexed": false,
          "internalType": "bool",
          "name": "isPaused",
          "type": "bool"
        }
      ],
      "name": "Paused",
      "type": "event"
    },
    {
      "anonymous": false,
      "inputs": [
        {
          "indexed": false,
          "internalType": "uint256",
          "name": "timestamp",
          "type": "uint256"
        }
      ],
      "name": "PresaleEndTimestampChanged",
      "type": "event"
    },
    {
      "anonymous": false,
      "inputs": [
        {
          "indexed": false,
          "internalType": "bool",
          "name": "isActive",
          "type": "bool"
        }
      ],
      "name": "PresaleStatusChanged",
      "type": "event"
    },
    {
      "anonymous": false,
      "inputs": [
        {
          "indexed": false,
          "internalType": "uint256",
          "name": "amount",
          "type": "uint256"
        }
      ],
      "name": "PresaleSupplyChanged",
      "type": "event"
    },
    {
      "anonymous": false,
      "inputs": [
        {
          "indexed": false,
          "internalType": "bool",
          "name": "isActive",
          "type": "bool"
        }
      ],
      "name": "PublicSaleStatusChanged",
      "type": "event"
    },
    {
      "anonymous": false,
      "inputs": [],
      "name": "Revealed",
      "type": "event"
    },
    {
      "anonymous": false,
      "inputs": [
        {
          "indexed": false,
          "internalType": "address",
          "name": "signer",
          "type": "address"
        }
      ],
      "name": "SignerChanged",
      "type": "event"
    },
    {
      "anonymous": false,
      "inputs": [
        {
          "indexed": true,
          "internalType": "uint256",
          "name": "tokenId",
          "type": "uint256"
        },
        {
          "indexed": false,
          "internalType": "string",
          "name": "uri",
          "type": "string"
        }
      ],
      "name": "TokenURIUpdated",
      "type": "event"
    },
    {
      "anonymous": false,
      "inputs": [
        {
          "indexed": true,
          "internalType": "address",
          "name": "from",
          "type": "address"
        },
        {
          "indexed": true,
          "internalType": "address",
          "name": "to",
          "type": "address"
        },
        {
          "indexed": true,
          "internalType": "uint256",
          "name": "tokenId",
          "type": "uint256"
        }
      ],
      "name": "Transfer",
      "type": "event"
    },
    {
      "anonymous": false,
      "inputs": [
        {
          "indexed": false,
          "internalType": "address[]",
          "name": "users",
          "type": "address[]"
        }
      ],
      "name": "UsersBlacklisted",
      "type": "event"
    },
    {
      "anonymous": false,
      "inputs": [
        {
          "indexed": false,
          "internalType": "address[]",
          "name": "users",
          "type": "address[]"
        }
      ],
      "name": "UsersWhitelisted",
      "type": "event"
    },
    {
      "inputs": [
        {
          "internalType": "address",
          "name": "to",
          "type": "address"
        },
        {
          "internalType": "uint256",
          "name": "tokenId",
          "type": "uint256"
        }
      ],
      "name": "approve",
      "outputs": [],
      "stateMutability": "nonpayable",
      "type": "function"
    },
    {
      "inputs": [
        {
          "internalType": "address",
          "name": "owner",
          "type": "address"
        }
      ],
      "name": "balanceOf",
      "outputs": [
        {
          "internalType": "uint256",
          "name": "",
          "type": "uint256"
        }
      ],
      "stateMutability": "view",
      "type": "function"
    },
    {
      "inputs": [
        {
          "internalType": "address[]",
          "name": "addresses",
          "type": "address[]"
        }
      ],
      "name": "blacklistUsers",
      "outputs": [],
      "stateMutability": "nonpayable",
      "type": "function"
    },
    {
      "inputs": [
        {
          "internalType": "address",
          "name": "",
          "type": "address"
        }
      ],
      "name": "blacklistedAddresses",
      "outputs": [
        {
          "internalType": "bool",
          "name": "",
          "type": "bool"
        }
      ],
      "stateMutability": "view",
      "type": "function"
    },
    {
      "inputs": [
        {
          "internalType": "uint256",
          "name": "punk_",
          "type": "uint256"
        },
        {
          "internalType": "uint256",
          "name": "nftiff_",
          "type": "uint256"
        },
        {
          "internalType": "bytes",
          "name": "_signature",
          "type": "bytes"
        }
      ],
      "name": "claim",
      "outputs": [],
      "stateMutability": "payable",
      "type": "function"
    },
    {
      "inputs": [
        {
          "internalType": "uint256",
          "name": "",
          "type": "uint256"
        }
      ],
      "name": "claimInfo",
      "outputs": [
        {
          "internalType": "uint256",
          "name": "punkId",
          "type": "uint256"
        },
        {
          "internalType": "uint256",
          "name": "nftiffId",
          "type": "uint256"
        },
        {
          "internalType": "uint256",
          "name": "timestamp",
          "type": "uint256"
        },
        {
          "internalType": "address",
          "name": "claimer",
          "type": "address"
        }
      ],
      "stateMutability": "view",
      "type": "function"
    },
    {
      "inputs": [],
      "name": "cost",
      "outputs": [
        {
          "internalType": "uint256",
          "name": "",
          "type": "uint256"
        }
      ],
      "stateMutability": "view",
      "type": "function"
    },
    {
      "inputs": [
        {
          "internalType": "uint256",
          "name": "tokenId",
          "type": "uint256"
        }
      ],
      "name": "getApproved",
      "outputs": [
        {
          "internalType": "address",
          "name": "",
          "type": "address"
        }
      ],
      "stateMutability": "view",
      "type": "function"
    },
    {
      "inputs": [],
      "name": "getSigner",
      "outputs": [
        {
          "internalType": "address",
          "name": "",
          "type": "address"
        }
      ],
      "stateMutability": "view",
      "type": "function"
    },
    {
      "inputs": [
        {
          "internalType": "uint256",
          "name": "_mintAmount",
          "type": "uint256"
        },
        {
          "internalType": "address",
          "name": "destination",
          "type": "address"
        }
      ],
      "name": "gift",
      "outputs": [],
      "stateMutability": "nonpayable",
      "type": "function"
    },
    {
      "inputs": [
        {
          "internalType": "address",
          "name": "owner",
          "type": "address"
        },
        {
          "internalType": "address",
          "name": "operator",
          "type": "address"
        }
      ],
      "name": "isApprovedForAll",
      "outputs": [
        {
          "internalType": "bool",
          "name": "",
          "type": "bool"
        }
      ],
      "stateMutability": "view",
      "type": "function"
    },
    {
      "inputs": [],
      "name": "isKycRequired",
      "outputs": [
        {
          "internalType": "bool",
          "name": "",
          "type": "bool"
        }
      ],
      "stateMutability": "view",
      "type": "function"
    },
    {
      "inputs": [],
      "name": "maxMintAmount",
      "outputs": [
        {
          "internalType": "uint256",
          "name": "",
          "type": "uint256"
        }
      ],
      "stateMutability": "view",
      "type": "function"
    },
    {
      "inputs": [],
      "name": "maxSupply",
      "outputs": [
        {
          "internalType": "uint256",
          "name": "",
          "type": "uint256"
        }
      ],
      "stateMutability": "view",
      "type": "function"
    },
    {
      "inputs": [
        {
          "internalType": "uint256",
          "name": "_mintAmount",
          "type": "uint256"
        },
        {
          "internalType": "bytes",
          "name": "_signature",
          "type": "bytes"
        }
      ],
      "name": "mint1",
      "outputs": [],
      "stateMutability": "payable",
      "type": "function"
    },
    {
      "inputs": [
        {
          "internalType": "uint256",
          "name": "_mintAmount",
          "type": "uint256"
        },
        {
          "internalType": "bytes",
          "name": "_signature",
          "type": "bytes"
        }
      ],
      "name": "mintPublic",
      "outputs": [],
      "stateMutability": "payable",
      "type": "function"
    },
    {
      "inputs": [],
      "name": "name",
      "outputs": [
        {
          "internalType": "string",
          "name": "",
          "type": "string"
        }
      ],
      "stateMutability": "view",
      "type": "function"
    },
    {
      "inputs": [
        {
          "internalType": "uint256",
          "name": "",
          "type": "uint256"
        }
      ],
      "name": "nftiffClaims",
      "outputs": [
        {
          "internalType": "uint256",
          "name": "",
          "type": "uint256"
        }
      ],
      "stateMutability": "view",
      "type": "function"
    },
    {
      "inputs": [],
      "name": "notRevealedUri",
      "outputs": [
        {
          "internalType": "string",
          "name": "",
          "type": "string"
        }
      ],
      "stateMutability": "view",
      "type": "function"
    },
    {
      "inputs": [],
      "name": "owner",
      "outputs": [
        {
          "internalType": "address",
          "name": "",
          "type": "address"
        }
      ],
      "stateMutability": "view",
      "type": "function"
    },
    {
      "inputs": [
        {
          "internalType": "uint256",
          "name": "tokenId",
          "type": "uint256"
        }
      ],
      "name": "ownerOf",
      "outputs": [
        {
          "internalType": "address",
          "name": "",
          "type": "address"
        }
      ],
      "stateMutability": "view",
      "type": "function"
    },
    {
      "inputs": [
        {
          "internalType": "bool",
          "name": "_state",
          "type": "bool"
        }
      ],
      "name": "pause",
      "outputs": [],
      "stateMutability": "nonpayable",
      "type": "function"
    },
    {
      "inputs": [],
      "name": "paused",
      "outputs": [
        {
          "internalType": "bool",
          "name": "",
          "type": "bool"
        }
      ],
      "stateMutability": "view",
      "type": "function"
    },
    {
      "inputs": [],
      "name": "presaleActive",
      "outputs": [
        {
          "internalType": "bool",
          "name": "",
          "type": "bool"
        }
      ],
      "stateMutability": "view",
      "type": "function"
    },
    {
      "inputs": [],
      "name": "presaleEndTimestamp",
      "outputs": [
        {
          "internalType": "uint256",
          "name": "",
          "type": "uint256"
        }
      ],
      "stateMutability": "view",
      "type": "function"
    },
    {
      "inputs": [],
      "name": "presaleSupply",
      "outputs": [
        {
          "internalType": "uint256",
          "name": "",
          "type": "uint256"
        }
      ],
      "stateMutability": "view",
      "type": "function"
    },
    {
      "inputs": [],
      "name": "publicSaleActive",
      "outputs": [
        {
          "internalType": "bool",
          "name": "",
          "type": "bool"
        }
      ],
      "stateMutability": "view",
      "type": "function"
    },
    {
      "inputs": [
        {
          "internalType": "uint256",
          "name": "",
          "type": "uint256"
        }
      ],
      "name": "punkClaims",
      "outputs": [
        {
          "internalType": "uint256",
          "name": "",
          "type": "uint256"
        }
      ],
      "stateMutability": "view",
      "type": "function"
    },
    {
      "inputs": [],
      "name": "punksContract",
      "outputs": [
        {
          "internalType": "address",
          "name": "",
          "type": "address"
        }
      ],
      "stateMutability": "view",
      "type": "function"
    },
    {
      "inputs": [],
      "name": "renounceOwnership",
      "outputs": [],
      "stateMutability": "nonpayable",
      "type": "function"
    },
    {
      "inputs": [],
      "name": "reveal",
      "outputs": [],
      "stateMutability": "nonpayable",
      "type": "function"
    },
    {
      "inputs": [],
      "name": "revealed",
      "outputs": [
        {
          "internalType": "bool",
          "name": "",
          "type": "bool"
        }
      ],
      "stateMutability": "view",
      "type": "function"
    },
    {
      "inputs": [
        {
          "internalType": "address",
          "name": "from",
          "type": "address"
        },
        {
          "internalType": "address",
          "name": "to",
          "type": "address"
        },
        {
          "internalType": "uint256",
          "name": "tokenId",
          "type": "uint256"
        }
      ],
      "name": "safeTransferFrom",
      "outputs": [],
      "stateMutability": "nonpayable",
      "type": "function"
    },
    {
      "inputs": [
        {
          "internalType": "address",
          "name": "from",
          "type": "address"
        },
        {
          "internalType": "address",
          "name": "to",
          "type": "address"
        },
        {
          "internalType": "uint256",
          "name": "tokenId",
          "type": "uint256"
        },
        {
          "internalType": "bytes",
          "name": "_data",
          "type": "bytes"
        }
      ],
      "name": "safeTransferFrom",
      "outputs": [],
      "stateMutability": "nonpayable",
      "type": "function"
    },
    {
      "inputs": [
        {
          "internalType": "address",
          "name": "operator",
          "type": "address"
        },
        {
          "internalType": "bool",
          "name": "approved",
          "type": "bool"
        }
      ],
      "name": "setApprovalForAll",
      "outputs": [],
      "stateMutability": "nonpayable",
      "type": "function"
    },
    {
      "inputs": [
        {
          "internalType": "string",
          "name": "baseURI",
          "type": "string"
        }
      ],
      "name": "setBaseURI",
      "outputs": [],
      "stateMutability": "nonpayable",
      "type": "function"
    },
    {
      "inputs": [
        {
          "internalType": "uint256",
          "name": "_newCost",
          "type": "uint256"
        }
      ],
      "name": "setCost",
      "outputs": [],
      "stateMutability": "nonpayable",
      "type": "function"
    },
    {
      "inputs": [
        {
          "internalType": "bool",
          "name": "_required",
          "type": "bool"
        }
      ],
      "name": "setKycRequired",
      "outputs": [],
      "stateMutability": "nonpayable",
      "type": "function"
    },
    {
      "inputs": [
        {
          "internalType": "uint256",
          "name": "_maxSupply",
          "type": "uint256"
        }
      ],
      "name": "setMaxSupply",
      "outputs": [],
      "stateMutability": "nonpayable",
      "type": "function"
    },
    {
      "inputs": [
        {
          "internalType": "string",
          "name": "_notRevealedURI",
          "type": "string"
        }
      ],
      "name": "setNotRevealedURI",
      "outputs": [],
      "stateMutability": "nonpayable",
      "type": "function"
    },
    {
      "inputs": [
        {
          "internalType": "uint256",
          "name": "_timestamp",
          "type": "uint256"
        }
      ],
      "name": "setPresaleEndTimestamp",
      "outputs": [],
      "stateMutability": "nonpayable",
      "type": "function"
    },
    {
      "inputs": [
        {
          "internalType": "bool",
          "name": "_saleActive",
          "type": "bool"
        }
      ],
      "name": "setPresaleStatus",
      "outputs": [],
      "stateMutability": "nonpayable",
      "type": "function"
    },
    {
      "inputs": [
        {
          "internalType": "uint256",
          "name": "_amount",
          "type": "uint256"
        }
      ],
      "name": "setPresaleSupply",
      "outputs": [],
      "stateMutability": "nonpayable",
      "type": "function"
    },
    {
      "inputs": [
        {
          "internalType": "bool",
          "name": "_saleActive",
          "type": "bool"
        }
      ],
      "name": "setPublicSaleStatus",
      "outputs": [],
      "stateMutability": "nonpayable",
      "type": "function"
    },
    {
      "inputs": [
        {
          "internalType": "address",
          "name": "signer_",
          "type": "address"
        }
      ],
      "name": "setSigner",
      "outputs": [],
      "stateMutability": "nonpayable",
      "type": "function"
    },
    {
      "inputs": [
        {
          "internalType": "uint256",
          "name": "tokenId",
          "type": "uint256"
        },
        {
          "internalType": "string",
          "name": "_tokenURI",
          "type": "string"
        }
      ],
      "name": "setTokenURI",
      "outputs": [],
      "stateMutability": "nonpayable",
      "type": "function"
    },
    {
      "inputs": [
        {
          "internalType": "uint256",
          "name": "_newmaxMintAmount",
          "type": "uint256"
        }
      ],
      "name": "setmaxMintAmount",
      "outputs": [],
      "stateMutability": "nonpayable",
      "type": "function"
    },
    {
      "inputs": [
        {
          "internalType": "bytes4",
          "name": "interfaceId",
          "type": "bytes4"
        }
      ],
      "name": "supportsInterface",
      "outputs": [
        {
          "internalType": "bool",
          "name": "",
          "type": "bool"
        }
      ],
      "stateMutability": "view",
      "type": "function"
    },
    {
      "inputs": [],
      "name": "symbol",
      "outputs": [
        {
          "internalType": "string",
          "name": "",
          "type": "string"
        }
      ],
      "stateMutability": "view",
      "type": "function"
    },
    {
      "inputs": [
        {
          "internalType": "uint256",
          "name": "index",
          "type": "uint256"
        }
      ],
      "name": "tokenByIndex",
      "outputs": [
        {
          "internalType": "uint256",
          "name": "",
          "type": "uint256"
        }
      ],
      "stateMutability": "view",
      "type": "function"
    },
    {
      "inputs": [
        {
          "internalType": "address",
          "name": "owner",
          "type": "address"
        },
        {
          "internalType": "uint256",
          "name": "index",
          "type": "uint256"
        }
      ],
      "name": "tokenOfOwnerByIndex",
      "outputs": [
        {
          "internalType": "uint256",
          "name": "",
          "type": "uint256"
        }
      ],
      "stateMutability": "view",
      "type": "function"
    },
    {
      "inputs": [
        {
          "internalType": "uint256",
          "name": "tokenId",
          "type": "uint256"
        }
      ],
      "name": "tokenURI",
      "outputs": [
        {
          "internalType": "string",
          "name": "",
          "type": "string"
        }
      ],
      "stateMutability": "view",
      "type": "function"
    },
    {
      "inputs": [],
      "name": "totalClaimed",
      "outputs": [
        {
          "internalType": "uint256",
          "name": "",
          "type": "uint256"
        }
      ],
      "stateMutability": "view",
      "type": "function"
    },
    {
      "inputs": [],
      "name": "totalSupply",
      "outputs": [
        {
          "internalType": "uint256",
          "name": "",
          "type": "uint256"
        }
      ],
      "stateMutability": "view",
      "type": "function"
    },
    {
      "inputs": [
        {
          "internalType": "address",
          "name": "from",
          "type": "address"
        },
        {
          "internalType": "address",
          "name": "to",
          "type": "address"
        },
        {
          "internalType": "uint256",
          "name": "tokenId",
          "type": "uint256"
        }
      ],
      "name": "transferFrom",
      "outputs": [],
      "stateMutability": "nonpayable",
      "type": "function"
    },
    {
      "inputs": [
        {
          "internalType": "address",
          "name": "newOwner",
          "type": "address"
        }
      ],
      "name": "transferOwnership",
      "outputs": [],
      "stateMutability": "nonpayable",
      "type": "function"
    },
    {
      "inputs": [
        {
          "internalType": "address",
          "name": "_owner",
          "type": "address"
        }
      ],
      "name": "walletOfOwner",
      "outputs": [
        {
          "internalType": "uint256[]",
          "name": "",
          "type": "uint256[]"
        }
      ],
      "stateMutability": "view",
      "type": "function"
    },
    {
      "inputs": [
        {
          "internalType": "address",
          "name": "",
          "type": "address"
        }
      ],
      "name": "whitelistMinted",
      "outputs": [
        {
          "internalType": "uint256",
          "name": "",
          "type": "uint256"
        }
      ],
      "stateMutability": "view",
      "type": "function"
    },
    {
      "inputs": [
        {
          "internalType": "address[]",
          "name": "addresses",
          "type": "address[]"
        }
      ],
      "name": "whitelistUsers",
      "outputs": [],
      "stateMutability": "nonpayable",
      "type": "function"
    },
    {
      "inputs": [
        {
          "internalType": "address",
          "name": "",
          "type": "address"
        }
      ],
      "name": "whitelistedAddresses",
      "outputs": [
        {
          "internalType": "bool",
          "name": "",
          "type": "bool"
        }
      ],
      "stateMutability": "view",
      "type": "function"
    },
    {
      "inputs": [],
      "name": "withdraw",
      "outputs": [],
      "stateMutability": "payable",
      "type": "function"
    }
  ],
  "transactionHash": "0x1f8d946bceb524bab76ee28a9a9debeae1ae64a45acb7fb52d5e84da1e90fa4c",
  "args": [
    "",
    "0x0ece5312f66002b4103FBb6A0ff4ad90aF52f91a"
  ],
  "solcInputHash": "38ff7db2a282861a23f8758590380119",
  "bytecode": "0x60a06040526801a055690d9db80000600e556101f4600f55600260105560966011556013805464ffffffffff19166401000000001790553480156200004357600080fd5b5060405162004d2638038062004d2683398101604081905262000066916200032e565b60408051808201825260068082526527232a34b33360d11b602080840182815285518087019096529285528401528151919291620000a791600091620001fc565b508051620000bd906001906020840190620001fc565b505050620000da620000d46200011e60201b60201c565b62000122565b6001600b55620000ea8262000174565b60138054600160281b600160c81b03191633650100000000000217905560601b6001600160601b031916608052506200054d565b3390565b600a80546001600160a01b038381166001600160a01b0319831681179093556040519116919082907f8be0079c531659141344cd1fd0a4f28419497f9722a3daafe3b4186f6b6457e090600090a35050565b600a546001600160a01b03163314620001aa5760405162461bcd60e51b8152600401620001a190620003db565b60405180910390fd5b8051620001bf90600c906020840190620001fc565b507f5b4603fcb3d3d9b6dba69e8b60ea02082aa1d621d2cc96d5bbfab381f6164e6e81604051620001f19190620003c1565b60405180910390a150565b8280546200020a90620004a7565b90600052602060002090601f0160209004810192826200022e576000855562000279565b82601f106200024957805160ff191683800117855562000279565b8280016001018555821562000279579182015b82811115620002795782518255916020019190600101906200025c565b50620002879291506200028b565b5090565b5b808211156200028757600081556001016200028c565b6000620002b9620002b38462000435565b62000416565b905082815260208101848484011115620002d657620002d6600080fd5b620002e384828562000474565b509392505050565b8051620002f88162000533565b92915050565b600082601f830112620003145762000314600080fd5b815162000326848260208601620002a2565b949350505050565b60008060408385031215620003465762000346600080fd5b82516001600160401b03811115620003615762000361600080fd5b6200036f85828601620002fe565b92505060206200038285828601620002eb565b9150509250929050565b600062000397825190565b808452602084019350620003b081856020860162000474565b601f01601f19169290920192915050565b60208082528101620003d481846200038c565b9392505050565b60208082528181019081527f4f776e61626c653a2063616c6c6572206973206e6f7420746865206f776e6572604083015260608201620002f8565b60006200042260405190565b9050620004308282620004d8565b919050565b60006001600160401b038211156200045157620004516200051d565b601f19601f83011660200192915050565b60006001600160a01b038216620002f8565b60005b838110156200049157818101518382015260200162000477565b83811115620004a1576000848401525b50505050565b600281046001821680620004bc57607f821691505b60208210811415620004d257620004d262000507565b50919050565b601f19601f83011681018181106001600160401b03821117156200050057620005006200051d565b6040525050565b634e487b7160e01b600052602260045260246000fd5b634e487b7160e01b600052604160045260246000fd5b6200053e8162000462565b81146200054a57600080fd5b50565b60805160601c6147b36200057360003960008181610ac9015261155201526147b36000f3fe6080604052600436106103a25760003560e01c806370a08231116101e7578063a475b5dd1161010d578063d54ad2a1116100a0578063e985e9c51161006f578063e985e9c514610aeb578063edec5f2714610b34578063f2c4ce1e14610b54578063f2fde38b14610b7457600080fd5b8063d54ad2a114610a5b578063d5749d4214610a71578063d5abeb0114610aa1578063e46317b514610ab757600080fd5b8063b96502cb116100dc578063b96502cb146109dc578063bb3d676a146109fc578063bc8893b414610a1c578063c87b56dd14610a3b57600080fd5b8063a475b5dd14610971578063b3a196e914610986578063b423fe671461099c578063b88d4fde146109bc57600080fd5b806383a076be1161018557806395d89b411161015457806395d89b41146108e257806398a8cffe146108f7578063a1d557c514610924578063a22cb4651461095157600080fd5b806383a076be146108715780638895283f146108915780638b9a10d7146108b15780638da5cb5b146108c457600080fd5b80637ac3c02f116101c15780637ac3c02f146107df5780637b4b9ddc146108045780637c25d647146108245780637f00c7a61461085157600080fd5b806370a0823114610794578063715018a6146107b457806378da7ba1146107c957600080fd5b80633e4191dc116102cc57806353135ca01161026a5780635eddd157116102395780635eddd157146107215780636352211e146107345780636c19e783146107545780636f8b44b01461077457600080fd5b806353135ca01461066c57806355f804b3146106865780635c362233146106a65780635c975abb1461070157600080fd5b806344a0d68a116102a657806344a0d68a146105f857806344a8715b146106185780634f6ccce71461062b578063518302271461064b57600080fd5b80633e4191dc1461058957806342842e0e146105ab578063438b6300146105cb57600080fd5b806313faede611610344578063239c70ae11610313578063239c70ae1461052b57806323b872dd146105415780632f745c59146105615780633ccfd60b1461058157600080fd5b806313faede6146104b3578063150909f7146104d6578063162094c4146104f657806318160ddd1461051657600080fd5b806306fdde031161038057806306fdde031461042f578063081812fc14610451578063081c8c441461047e578063095ea7b31461049357600080fd5b806301ffc9a7146103a757806302329a29146103dd57806306c933d8146103ff575b600080fd5b3480156103b357600080fd5b506103c76103c236600461338e565b610b94565b6040516103d491906141a1565b60405180910390f35b3480156103e957600080fd5b506103fd6103f836600461336d565b610bbf565b005b34801561040b57600080fd5b506103c761041a36600461317e565b60156020526000908152604090205460ff1681565b34801561043b57600080fd5b50610444610c42565b6040516103d491906141ff565b34801561045d57600080fd5b5061047161046c366004613453565b610cd4565b6040516103d49190614126565b34801561048a57600080fd5b50610444610d24565b34801561049f57600080fd5b506103fd6104ae3660046132ff565b610db2565b3480156104bf57600080fd5b506104c9600e5481565b6040516103d491906144e0565b3480156104e257600080fd5b506103fd6104f136600461336d565b610e38565b34801561050257600080fd5b506103fd610511366004613496565b610eab565b34801561052257600080fd5b506008546104c9565b34801561053757600080fd5b506104c960105481565b34801561054d57600080fd5b506103fd61055c3660046131fd565b610f65565b34801561056d57600080fd5b506104c961057c3660046132ff565b610f96565b6103fd610fe8565b34801561059557600080fd5b506013546103c790640100000000900460ff1681565b3480156105b757600080fd5b506103fd6105c63660046131fd565b611091565b3480156105d757600080fd5b506105eb6105e636600461317e565b6110ac565b6040516103d49190614190565b34801561060457600080fd5b506103fd610613366004613453565b61114e565b6103fd610626366004613496565b6111ad565b34801561063757600080fd5b506104c9610646366004613453565b611376565b34801561065757600080fd5b506013546103c7906301000000900460ff1681565b34801561067857600080fd5b506013546103c79060ff1681565b34801561069257600080fd5b506103fd6106a13660046133d0565b6113c4565b3480156106b257600080fd5b506106f16106c1366004613453565b6018602052600090815260409020805460018201546002830154600390930154919290916001600160a01b031684565b6040516103d494939291906144ee565b34801561070d57600080fd5b506013546103c79062010000900460ff1681565b6103fd61072f3660046134e4565b611438565b34801561074057600080fd5b5061047161074f366004613453565b611767565b34801561076057600080fd5b506103fd61076f36600461317e565b61179c565b34801561078057600080fd5b506103fd61078f366004613453565b61181c565b3480156107a057600080fd5b506104c96107af36600461317e565b61189d565b3480156107c057600080fd5b506103fd6118e1565b3480156107d557600080fd5b506104c960125481565b3480156107eb57600080fd5b50601354600160281b90046001600160a01b0316610471565b34801561081057600080fd5b506103fd61081f366004613453565b611917565b34801561083057600080fd5b506104c961083f366004613453565b60196020526000908152604090205481565b34801561085d57600080fd5b506103fd61086c366004613453565b611995565b34801561087d57600080fd5b506103fd61088c366004613474565b6119f4565b34801561089d57600080fd5b506103fd6108ac36600461336d565b611ae5565b6103fd6108bf366004613496565b611b4d565b3480156108d057600080fd5b50600a546001600160a01b0316610471565b3480156108ee57600080fd5b50610444611d8e565b34801561090357600080fd5b506104c961091236600461317e565b60146020526000908152604090205481565b34801561093057600080fd5b506104c961093f366004613453565b601a6020526000908152604090205481565b34801561095d57600080fd5b506103fd61096c3660046132cc565b611d9d565b34801561097d57600080fd5b506103fd611dac565b34801561099257600080fd5b506104c960115481565b3480156109a857600080fd5b506103fd6109b736600461336d565b611e14565b3480156109c857600080fd5b506103fd6109d736600461324d565b611e81565b3480156109e857600080fd5b506103fd6109f7366004613453565b611eb3565b348015610a0857600080fd5b506103fd610a17366004613332565b611f34565b348015610a2857600080fd5b506013546103c790610100900460ff1681565b348015610a4757600080fd5b50610444610a56366004613453565b611ff6565b348015610a6757600080fd5b506104c960175481565b348015610a7d57600080fd5b506103c7610a8c36600461317e565b60166020526000908152604090205460ff1681565b348015610aad57600080fd5b506104c9600f5481565b348015610ac357600080fd5b506104717f000000000000000000000000000000000000000000000000000000000000000081565b348015610af757600080fd5b506103c7610b063660046131c0565b6001600160a01b03918216600090815260056020908152604080832093909416825291909152205460ff1690565b348015610b4057600080fd5b506103fd610b4f366004613332565b6121d3565b348015610b6057600080fd5b506103fd610b6f366004613418565b612295565b348015610b8057600080fd5b506103fd610b8f36600461317e565b612302565b60006001600160e01b0319821663780e9d6360e01b1480610bb95750610bb98261235b565b92915050565b600a546001600160a01b03163314610bf25760405162461bcd60e51b8152600401610be990614400565b60405180910390fd5b6013805462ff0000191662010000831515021790556040517f0e2fb031ee032dc02d8011dc50b816eb450cf856abd8261680dac74f72165bd290610c379083906141a1565b60405180910390a150565b606060008054610c5190614640565b80601f0160208091040260200160405190810160405280929190818152602001828054610c7d90614640565b8015610cca5780601f10610c9f57610100808354040283529160200191610cca565b820191906000526020600020905b815481529060010190602001808311610cad57829003601f168201915b5050505050905090565b6000818152600260205260408120546001600160a01b0316610d085760405162461bcd60e51b8152600401610be9906143f0565b506000908152600460205260409020546001600160a01b031690565b600c8054610d3190614640565b80601f0160208091040260200160405190810160405280929190818152602001828054610d5d90614640565b8015610daa5780601f10610d7f57610100808354040283529160200191610daa565b820191906000526020600020905b815481529060010190602001808311610d8d57829003601f168201915b505050505081565b6000610dbd82611767565b9050806001600160a01b0316836001600160a01b03161415610df15760405162461bcd60e51b8152600401610be990614450565b336001600160a01b0382161480610e0d5750610e0d8133610b06565b610e295760405162461bcd60e51b8152600401610be990614360565b610e3383836123ab565b505050565b600a546001600160a01b03163314610e625760405162461bcd60e51b8152600401610be990614400565b6013805464ff000000001916640100000000831515021790556040517f9c6bc9b1655d51a0ba04b966dafa4a63b361d41aea8a5bd188e79270ae78498290610c379083906141a1565b600a546001600160a01b03163314610ed55760405162461bcd60e51b8152600401610be990614400565b6000828152600260205260409020546001600160a01b0316610f095760405162461bcd60e51b8152600401610be990614440565b6000828152600d602090815260409091208251610f2892840190612efd565b50817f931f495b9a8e5d8e61946ea5d61e021f636cfe213a801f97589c18c152e408bd82604051610f5991906141ff565b60405180910390a25050565b610f6f3382612419565b610f8b5760405162461bcd60e51b8152600401610be990614460565b610e338383836124cb565b6000610fa18361189d565b8210610fbf5760405162461bcd60e51b8152600401610be990614250565b506001600160a01b03919091166000908152600660209081526040808320938352929052205490565b600a546001600160a01b031633146110125760405162461bcd60e51b8152600401610be990614400565b6000336001600160a01b03164760405161102b9061411e565b60006040518083038185875af1925050503d8060008114611068576040519150601f19603f3d011682016040523d82523d6000602084013e61106d565b606091505b505090508061108e5760405162461bcd60e51b8152600401610be990614280565b50565b610e3383838360405180602001604052806000815250611e81565b606060006110b98361189d565b905060008167ffffffffffffffff8111156110d6576110d6614735565b6040519080825280602002602001820160405280156110ff578160200160208202803683370190505b50905060005b82811015611146576111178582610f96565b8282815181106111295761112961471f565b60209081029190910101528061113e8161469a565b915050611105565b509392505050565b600a546001600160a01b031633146111785760405162461bcd60e51b8152600401610be990614400565b600e8190556040517f5d3cc44bbc86a70941868a14a9f66a647d7f7499d4d3789f68e4486c11ea46da90610c379083906144e0565b60135462010000900460ff16156111d65760405162461bcd60e51b8152600401610be9906142b0565b6002600b5414156111f95760405162461bcd60e51b8152600401610be9906144b0565b6002600b553360008181526016602052604090205460ff161561122e5760405162461bcd60e51b8152600401610be990614310565b601354610100900460ff166112555760405162461bcd60e51b8152600401610be990614220565b82600e5461126391906145c1565b3410156112825760405162461bcd60e51b8152600401610be990614350565b600083116112a25760405162461bcd60e51b8152600401610be9906144c0565b6010548311156112c45760405162461bcd60e51b8152600401610be9906142c0565b60006112cf60085490565b600f549091506112df85836145a9565b11156112fd5760405162461bcd60e51b8152600401610be9906143a0565b611306836125f8565b60015b84811161136a576113233361131e83856145a9565b61267c565b61132d81836145a9565b60405133907fbb06c934d5d088f12f303c757020e73ec03ae3217e26be764425bb34855c8b9490600090a3806113628161469a565b915050611309565b50506001600b55505050565b600061138160085490565b821061139f5760405162461bcd60e51b8152600401610be990614470565b600882815481106113b2576113b261471f565b90600052602060002001549050919050565b600a546001600160a01b031633146113ee5760405162461bcd60e51b8152600401610be990614400565b6113fa601b8383612f81565b507ff9c7803e94e0d3c02900d8a90893a6d5e90dd04d32a4cfe825520f82bf9f32f6828260405161142c9291906141ed565b60405180910390a15050565b60135462010000900460ff16156114615760405162461bcd60e51b8152600401610be9906142b0565b6002600b5414156114845760405162461bcd60e51b8152600401610be9906144b0565b6002600b553360008181526016602052604090205460ff16156114b95760405162461bcd60e51b8152600401610be990614310565b600083815260196020526040902054156114e55760405162461bcd60e51b8152600401610be9906142e0565b6000848152601a6020526040902054156115115760405162461bcd60e51b8152600401610be990614420565b3361151b84611767565b6001600160a01b0316146115415760405162461bcd60e51b8152600401610be9906143b0565b604051630b02f02d60e31b815233907f00000000000000000000000000000000000000000000000000000000000000006001600160a01b03169063581781689061158f9088906004016144e0565b60206040518083038186803b1580156115a757600080fd5b505afa1580156115bb573d6000803e3d6000fd5b505050506040513d601f19601f820116820180604052508101906115df919061319f565b6001600160a01b0316146116055760405162461bcd60e51b8152600401610be9906143d0565b600084843360405160200161161c939291906140a3565b60405160208183030381529060405280519060200120905060006116498461164384612696565b906126c6565b6013549091506001600160a01b03808316600160281b90920416146116805760405162461bcd60e51b8152600401610be9906144d0565b601780549060006116908361469a565b90915550506017805460008781526019602090815260408083208490558a8352601a825280832084905580516080810182528b81528083018b81524282840181815233606085018181529888526018909652958490209251835590516001830155935160028201559351600390940180546001600160a01b0319166001600160a01b0390951694909417909355925491517f528937b330082d892a98d4e428ab2dcca7844b51d227a1c0ae67f0b5261acbd9926117529290918b918b91614523565b60405180910390a250506001600b5550505050565b6000818152600260205260408120546001600160a01b031680610bb95760405162461bcd60e51b8152600401610be990614390565b600a546001600160a01b031633146117c65760405162461bcd60e51b8152600401610be990614400565b6013805465010000000000600160c81b031916600160281b6001600160a01b038416021790556040517f5719a5656c5cfdaafa148ecf366fd3b0a7fae06449ce2a46225977fb7417e29d90610c37908390614126565b600a546001600160a01b031633146118465760405162461bcd60e51b8152600401610be990614400565b6008548110156118685760405162461bcd60e51b8152600401610be990614480565b600f8190556040517f28a10a2e0b5582da7164754cb994f6214b8af6aa7f7e003305fbc09e7106c51390610c379083906144e0565b60006001600160a01b0382166118c55760405162461bcd60e51b8152600401610be990614380565b506001600160a01b031660009081526003602052604090205490565b600a546001600160a01b0316331461190b5760405162461bcd60e51b8152600401610be990614400565b61191560006126e2565b565b600a546001600160a01b031633146119415760405162461bcd60e51b8152600401610be990614400565b4281116119605760405162461bcd60e51b8152600401610be990614300565b60128190556040517fb58f7999ee6aec0a8a4c4c4c4d551dba5d353977562c9daf2eda32fc9c50fa2890610c379083906144e0565b600a546001600160a01b031633146119bf5760405162461bcd60e51b8152600401610be990614400565b60108190556040517f71ef44637f994911a9fa6bc89bc19c9bbf6f510a992e74f90880ffbccd7b2c6b90610c379083906144e0565b600a546001600160a01b03163314611a1e5760405162461bcd60e51b8152600401610be990614400565b60008211611a3e5760405162461bcd60e51b8152600401610be9906144c0565b6000611a4960085490565b600f54909150611a5984836145a9565b1115611a775760405162461bcd60e51b8152600401610be9906143a0565b60015b838111611adf57611a8f8361131e83856145a9565b611a9981836145a9565b6040516001600160a01b038516907fbb06c934d5d088f12f303c757020e73ec03ae3217e26be764425bb34855c8b9490600090a380611ad78161469a565b915050611a7a565b50505050565b600a546001600160a01b03163314611b0f5760405162461bcd60e51b8152600401610be990614400565b6013805460ff19168215151790556040517f1f1a6b0fcc71315f2c3aeddbd1f6d527595d21eea9b73160e78d6fa49b7897a690610c379083906141a1565b60135462010000900460ff1615611b765760405162461bcd60e51b8152600401610be9906142b0565b6002600b541415611b995760405162461bcd60e51b8152600401610be9906144b0565b6002600b553360008181526016602052604090205460ff1615611bce5760405162461bcd60e51b8152600401610be990614310565b60135460ff16611bf05760405162461bcd60e51b8152600401610be990614220565b6012544210611c115760405162461bcd60e51b8152600401610be990614410565b3360009081526015602052604090205460ff16611c405760405162461bcd60e51b8152600401610be990614490565b82600e54611c4e91906145c1565b341015611c6d5760405162461bcd60e51b8152600401610be990614350565b60008311611c8d5760405162461bcd60e51b8152600401610be9906144c0565b60105433600090815260146020526040902054611caa90856145a9565b1115611cc85760405162461bcd60e51b8152600401610be990614370565b6000611cd360085490565b601154909150611ce385836145a9565b1115611d015760405162461bcd60e51b8152600401610be990614430565b611d0a836125f8565b3360009081526014602052604081208054869290611d299084906145a9565b90915550600190505b84811161136a57611d473361131e83856145a9565b611d5181836145a9565b60405133907fbb06c934d5d088f12f303c757020e73ec03ae3217e26be764425bb34855c8b9490600090a380611d868161469a565b915050611d32565b606060018054610c5190614640565b611da8338383612734565b5050565b600a546001600160a01b03163314611dd65760405162461bcd60e51b8152600401610be990614400565b6013805463ff000000191663010000001790556040517fe2a7169cedebe39671840370ae19ca4fc41be6191d4c77f174f189a4d8cd08c890600090a1565b600a546001600160a01b03163314611e3e5760405162461bcd60e51b8152600401610be990614400565b6013805461ff001916610100831515021790556040517f36b97db79058521017a18d3f5261657061fa019ef5637747834f022e588ec07490610c379083906141a1565b611e8b3383612419565b611ea75760405162461bcd60e51b8152600401610be990614460565b611adf848484846127d7565b600a546001600160a01b03163314611edd5760405162461bcd60e51b8152600401610be990614400565b600f54811115611eff5760405162461bcd60e51b8152600401610be990614340565b60118190556040517feb2de784e253e45c726847a619e0b24b8aa3f97f10bd74f94e5264c21786996090610c379083906144e0565b600a546001600160a01b03163314611f5e5760405162461bcd60e51b8152600401610be990614400565b60005b8151811015611fc657600160166000848481518110611f8257611f8261471f565b6020908102919091018101516001600160a01b03168252810191909152604001600020805460ff191691151591909117905580611fbe8161469a565b915050611f61565b507fb0acc561764f1521c892494310b184e20cafc08c4d047edaeeed1b55af37fe3081604051610c379190614178565b6000818152600260205260409020546060906001600160a01b031661202d5760405162461bcd60e51b8152600401610be990614240565b6013546060906301000000900460ff166120d357600c805461204e90614640565b80601f016020809104026020016040519081016040528092919081815260200182805461207a90614640565b80156120c75780601f1061209c576101008083540402835291602001916120c7565b820191906000526020600020905b8154815290600101906020018083116120aa57829003601f168201915b5050505050905061216d565b6000838152600d6020526040902080546120ec90614640565b80601f016020809104026020016040519081016040528092919081815260200182805461211890614640565b80156121655780601f1061213a57610100808354040283529160200191612165565b820191906000526020600020905b81548152906001019060200180831161214857829003601f168201915b505050505090505b600061217761280a565b905080516000141561218a575092915050565b8151156121bc5780826040516020016121a4929190614050565b60405160208183030381529060405292505050919050565b505060408051602081019091526000815292915050565b600a546001600160a01b031633146121fd5760405162461bcd60e51b8152600401610be990614400565b60005b8151811015612265576001601560008484815181106122215761222161471f565b6020908102919091018101516001600160a01b03168252810191909152604001600020805460ff19169115159190911790558061225d8161469a565b915050612200565b507f6141feff42f24e29d1af3d91bffa3d40521e53485e9c92e358c4d946c0adbd3881604051610c379190614178565b600a546001600160a01b031633146122bf5760405162461bcd60e51b8152600401610be990614400565b80516122d290600c906020840190612efd565b507f5b4603fcb3d3d9b6dba69e8b60ea02082aa1d621d2cc96d5bbfab381f6164e6e81604051610c3791906141ff565b600a546001600160a01b0316331461232c5760405162461bcd60e51b8152600401610be990614400565b6001600160a01b0381166123525760405162461bcd60e51b8152600401610be990614270565b61108e816126e2565b60006001600160e01b031982166380ac58cd60e01b148061238c57506001600160e01b03198216635b5e139f60e01b145b80610bb957506301ffc9a760e01b6001600160e01b0319831614610bb9565b600081815260046020526040902080546001600160a01b0319166001600160a01b03841690811790915581906123e082611767565b6001600160a01b03167f8c5be1e5ebec7d5bd14f71427d1e84f3dd0314c0f7b2291e5b200ac8c7c3b92560405160405180910390a45050565b6000818152600260205260408120546001600160a01b031661244d5760405162461bcd60e51b8152600401610be990614330565b600061245883611767565b9050806001600160a01b0316846001600160a01b031614806124935750836001600160a01b031661248884610cd4565b6001600160a01b0316145b806124c357506001600160a01b0380821660009081526005602090815260408083209388168352929052205460ff165b949350505050565b826001600160a01b03166124de82611767565b6001600160a01b0316146125045760405162461bcd60e51b8152600401610be990614290565b6001600160a01b03821661252a5760405162461bcd60e51b8152600401610be9906142d0565b612535838383612819565b6125406000826123ab565b6001600160a01b03831660009081526003602052604081208054600192906125699084906145e0565b90915550506001600160a01b03821660009081526003602052604081208054600192906125979084906145a9565b909155505060008181526002602052604080822080546001600160a01b0319166001600160a01b0386811691821790925591518493918716917fddf252ad1be2c89b69c2b068fc378daa952ba7f163c4a11628f55a4df523b3ef91a4505050565b601354640100000000900460ff161561108e5760003360405160200161261e91906140f4565b60405160208183030381529060405280519060200120905060006126458361164384612696565b6013549091506001600160a01b03808316600160281b9092041614610e335760405162461bcd60e51b8152600401610be9906144a0565b611da88282604051806020016040528060008152506128d1565b6000816040516020016126a99190614068565b604051602081830303815290604052805190602001209050919050565b60008060006126d58585612904565b9150915061114681612974565b600a80546001600160a01b038381166001600160a01b0319831681179093556040519116919082907f8be0079c531659141344cd1fd0a4f28419497f9722a3daafe3b4186f6b6457e090600090a35050565b816001600160a01b0316836001600160a01b031614156127665760405162461bcd60e51b8152600401610be9906142f0565b6001600160a01b0383811660008181526005602090815260408083209487168084529490915290819020805460ff1916851515179055517f17307eab39ab6107e8899845ad3d59bd9653f200f220920489ca2b5937696c31906127ca9085906141a1565b60405180910390a3505050565b6127e28484846124cb565b6127ee84848484612a59565b611adf5760405162461bcd60e51b8152600401610be990614260565b6060601b8054610c5190614640565b6001600160a01b0383166128745761286f81600880546000838152600960205260408120829055600182018355919091527ff3f7a9fe364faab93b216da50a3214154f22a0a2b415b23a84c8169e8b636ee30155565b612897565b816001600160a01b0316836001600160a01b031614612897576128978382612b66565b6001600160a01b0382166128ae57610e3381612c03565b826001600160a01b0316826001600160a01b031614610e3357610e338282612cb2565b6128db8383612cf6565b6128e86000848484612a59565b610e335760405162461bcd60e51b8152600401610be990614260565b60008082516041141561293b5760208301516040840151606085015160001a61292f87828585612de4565b9450945050505061296d565b825160401415612965576020830151604084015161295a868383612ec4565b93509350505061296d565b506000905060025b9250929050565b6000816004811115612988576129886146dd565b14156129915750565b60018160048111156129a5576129a56146dd565b14156129c35760405162461bcd60e51b8152600401610be990614210565b60028160048111156129d7576129d76146dd565b14156129f55760405162461bcd60e51b8152600401610be990614230565b6003816004811115612a0957612a096146dd565b1415612a275760405162461bcd60e51b8152600401610be990614320565b6004816004811115612a3b57612a3b6146dd565b141561108e5760405162461bcd60e51b8152600401610be9906143c0565b60006001600160a01b0384163b15612b5b57604051630a85bd0160e11b81526001600160a01b0385169063150b7a0290612a9d903390899088908890600401614134565b602060405180830381600087803b158015612ab757600080fd5b505af1925050508015612ae7575060408051601f3d908101601f19168201909252612ae4918101906133af565b60015b612b41573d808015612b15576040519150601f19603f3d011682016040523d82523d6000602084013e612b1a565b606091505b508051612b395760405162461bcd60e51b8152600401610be990614260565b805181602001fd5b6001600160e01b031916630a85bd0160e11b1490506124c3565b506001949350505050565b60006001612b738461189d565b612b7d91906145e0565b600083815260076020526040902054909150808214612bd0576001600160a01b03841660009081526006602090815260408083208584528252808320548484528184208190558352600790915290208190555b5060009182526007602090815260408084208490556001600160a01b039094168352600681528383209183525290812055565b600854600090612c15906001906145e0565b60008381526009602052604081205460088054939450909284908110612c3d57612c3d61471f565b906000526020600020015490508060088381548110612c5e57612c5e61471f565b6000918252602080832090910192909255828152600990915260408082208490558582528120556008805480612c9657612c96614709565b6001900381819060005260206000200160009055905550505050565b6000612cbd8361189d565b6001600160a01b039093166000908152600660209081526040808320868452825280832085905593825260079052919091209190915550565b6001600160a01b038216612d1c5760405162461bcd60e51b8152600401610be9906143e0565b6000818152600260205260409020546001600160a01b031615612d515760405162461bcd60e51b8152600401610be9906142a0565b612d5d60008383612819565b6001600160a01b0382166000908152600360205260408120805460019290612d869084906145a9565b909155505060008181526002602052604080822080546001600160a01b0319166001600160a01b03861690811790915590518392907fddf252ad1be2c89b69c2b068fc378daa952ba7f163c4a11628f55a4df523b3ef908290a45050565b6000807f7fffffffffffffffffffffffffffffff5d576e7357a4501ddfe92f46681b20a0831115612e1b5750600090506003612ebb565b8460ff16601b14158015612e3357508460ff16601c14155b15612e445750600090506004612ebb565b600060018787878760405160008152602001604052604051612e6994939291906141af565b6020604051602081039080840390855afa158015612e8b573d6000803e3d6000fd5b5050604051601f1901519150506001600160a01b038116612eb457600060019250925050612ebb565b9150600090505b94509492505050565b6000806001600160ff1b03831681612ee160ff86901c601b6145a9565b9050612eef87828885612de4565b935093505050935093915050565b828054612f0990614640565b90600052602060002090601f016020900481019282612f2b5760008555612f71565b82601f10612f4457805160ff1916838001178555612f71565b82800160010185558215612f71579182015b82811115612f71578251825591602001919060010190612f56565b50612f7d929150612ff5565b5090565b828054612f8d90614640565b90600052602060002090601f016020900481019282612faf5760008555612f71565b82601f10612fc85782800160ff19823516178555612f71565b82800160010185558215612f71579182015b82811115612f71578235825591602001919060010190612fda565b5b80821115612f7d5760008155600101612ff6565b600061301d6130188461455a565b61453e565b9050808382526020820190508285602086028201111561303f5761303f600080fd5b60005b8581101561306b578161305588826130a9565b8452506020928301929190910190600101613042565b5050509392505050565b60006130836130188461457e565b90508281526020810184848401111561309e5761309e600080fd5b611146848285614608565b8035610bb98161474b565b8051610bb98161474b565b600082601f8301126130d3576130d3600080fd5b81356124c384826020860161300a565b8035610bb98161475f565b8035610bb981614767565b8051610bb981614767565b600082601f83011261311857613118600080fd5b81356124c3848260208601613075565b60008083601f84011261313d5761313d600080fd5b50813567ffffffffffffffff81111561315857613158600080fd5b60208301915083600182028301111561296d5761296d600080fd5b8035610bb981614777565b60006020828403121561319357613193600080fd5b60006124c384846130a9565b6000602082840312156131b4576131b4600080fd5b60006124c384846130b4565b600080604083850312156131d6576131d6600080fd5b60006131e285856130a9565b92505060206131f3858286016130a9565b9150509250929050565b60008060006060848603121561321557613215600080fd5b600061322186866130a9565b9350506020613232868287016130a9565b925050604061324386828701613173565b9150509250925092565b6000806000806080858703121561326657613266600080fd5b600061327287876130a9565b9450506020613283878288016130a9565b935050604061329487828801613173565b925050606085013567ffffffffffffffff8111156132b4576132b4600080fd5b6132c087828801613104565b91505092959194509250565b600080604083850312156132e2576132e2600080fd5b60006132ee85856130a9565b92505060206131f3858286016130e3565b6000806040838503121561331557613315600080fd5b600061332185856130a9565b92505060206131f385828601613173565b60006020828403121561334757613347600080fd5b813567ffffffffffffffff81111561336157613361600080fd5b6124c3848285016130bf565b60006020828403121561338257613382600080fd5b60006124c384846130e3565b6000602082840312156133a3576133a3600080fd5b60006124c384846130ee565b6000602082840312156133c4576133c4600080fd5b60006124c384846130f9565b600080602083850312156133e6576133e6600080fd5b823567ffffffffffffffff81111561340057613400600080fd5b61340c85828601613128565b92509250509250929050565b60006020828403121561342d5761342d600080fd5b813567ffffffffffffffff81111561344757613447600080fd5b6124c384828501613104565b60006020828403121561346857613468600080fd5b60006124c38484613173565b6000806040838503121561348a5761348a600080fd5b60006131e28585613173565b600080604083850312156134ac576134ac600080fd5b60006134b88585613173565b925050602083013567ffffffffffffffff8111156134d8576134d8600080fd5b6131f385828601613104565b6000806000606084860312156134fc576134fc600080fd5b60006135088686613173565b935050602061351986828701613173565b925050604084013567ffffffffffffffff81111561353957613539600080fd5b61324386828701613104565b60006135518383613565565b505060200190565b60006135518383613614565b61356e816145f7565b82525050565b61356e613580826145f7565b6146b5565b600061358f825190565b80845260209384019383018060005b838110156135c35781516135b28882613545565b97506020830192505060010161359e565b509495945050505050565b60006135d8825190565b80845260209384019383018060005b838110156135c35781516135fb8882613559565b9750602083019250506001016135e7565b80151561356e565b8061356e565b6000613624825190565b80845260208401935061363b818560208601614614565b601f19601f8201165b9093019392505050565b8183526000602084019350613664838584614608565b601f19601f840116613644565b600061367b825190565b613689818560208601614614565b9290920192915050565b601881526000602082017f45434453413a20696e76616c6964207369676e61747572650000000000000000815291505b5060200190565b601881526000602082017f53616c6520686173206e6f742073746172746564207965740000000000000000815291506136c3565b601f81526000602082017f45434453413a20696e76616c6964207369676e6174757265206c656e67746800815291506136c3565b601f81526000602082017f55524920717565727920666f72206e6f6e6578697374656e7420746f6b656e00815291506136c3565b602b81526000602082017f455243373231456e756d657261626c653a206f776e657220696e646578206f7581526a74206f6620626f756e647360a81b602082015291505b5060400190565b603281526000602082017f4552433732313a207472616e7366657220746f206e6f6e20455243373231526581527131b2b4bb32b91034b6b83632b6b2b73a32b960711b602082015291506137aa565b602681526000602082017f4f776e61626c653a206e6577206f776e657220697320746865207a65726f206181526564647265737360d01b602082015291506137aa565b600f81526000602082016e151c985b9cd9995c8819985a5b1959608a1b815291506136c3565b602581526000602082017f4552433732313a207472616e736665722066726f6d20696e636f72726563742081526437bbb732b960d91b602082015291506137aa565b601c81526000602082017f4552433732313a20746f6b656e20616c7265616479206d696e74656400000000815291506136c3565b600f81526000602082016e10dbdb9d1c9858dd081c185d5cd959608a1b815291506136c3565b602881526000602082017f4d6178206d696e7420616d6f756e7420706572207472616e73616374696f6e20815267195e18d95959195960c21b602082015291506137aa565b602481526000602082017f4552433732313a207472616e7366657220746f20746865207a65726f206164648152637265737360e01b602082015291506137aa565b601681526000602082017520b63932b0b23c9031b630b4b6b2b21037333a34b33360511b815291506136c3565b601981526000602082017f4552433732313a20617070726f766520746f2063616c6c657200000000000000815291506136c3565b60118152600060208201700496e76616c69642074696d657374616d7607c1b815291506136c3565b601081526000602082016f213630b1b5b634b9ba32b2103ab9b2b960811b815291506136c3565b602281526000602082017f45434453413a20696e76616c6964207369676e6174757265202773272076616c815261756560f01b602082015291506137aa565b602c81526000602082017f4552433732313a206f70657261746f7220717565727920666f72206e6f6e657881526b34b9ba32b73a103a37b5b2b760a11b602082015291506137aa565b601981526000602082017f4d617820737570706c79206c696d697420657863656564656400000000000000815291506136c3565b6012815260006020820171496e73756666696369656e742066756e647360701b815291506136c3565b603881526000602082017f4552433732313a20617070726f76652063616c6c6572206973206e6f74206f7781527f6e6572206e6f7220617070726f76656420666f7220616c6c0000000000000000602082015291506137aa565b601881526000602082017f4d6178206d696e7420616d6f756e742065786365656465640000000000000000815291506136c3565b602a81526000602082017f4552433732313a2062616c616e636520717565727920666f7220746865207a65815269726f206164647265737360b01b602082015291506137aa565b602981526000602082017f4552433732313a206f776e657220717565727920666f72206e6f6e657869737481526832b73a103a37b5b2b760b91b602082015291506137aa565b601681526000602082017513585e08139195081b1a5b5a5d08195e18d95959195960521b815291506136c3565b601081526000602082016f2737ba1037333a34b3331037bbb732b960811b815291506136c3565b602281526000602082017f45434453413a20696e76616c6964207369676e6174757265202776272076616c815261756560f01b602082015291506137aa565b600f81526000602082016e2737ba10383ab735b99037bbb732b960891b815291506136c3565b60208082527f4552433732313a206d696e7420746f20746865207a65726f2061646472657373910190815260006136c3565b602c81526000602082017f4552433732313a20617070726f76656420717565727920666f72206e6f6e657881526b34b9ba32b73a103a37b5b2b760a11b602082015291506137aa565b60208082527f4f776e61626c653a2063616c6c6572206973206e6f7420746865206f776e6572910190815260006136c3565b600d81526000602082016c141c995cd85b1948195b991959609a1b815291506136c3565b6014815260006020820173416c726561647920636c61696d65642070756e6b60601b815291506136c3565b601d81526000602082017f50726573616c6520737570706c79206c696d6974206578636565646564000000815291506136c3565b601c81526000602082017f55524920736574206f66206e6f6e6578697374656e7420746f6b656e00000000815291506136c3565b602181526000602082017f4552433732313a20617070726f76616c20746f2063757272656e74206f776e658152603960f91b602082015291506137aa565b603181526000602082017f4552433732313a207472616e736665722063616c6c6572206973206e6f74206f8152701ddb995c881b9bdc88185c1c1c9bdd9959607a1b602082015291506137aa565b602c81526000602082017f455243373231456e756d657261626c653a20676c6f62616c20696e646578206f81526b7574206f6620626f756e647360a01b602082015291506137aa565b601c81526000602082017f4d617820737570706c792073686f756c64206265206772656174657200000000815291506136c3565b60148152600060208201732737ba103bb434ba32b634b9ba32b2103ab9b2b960611b815291506136c3565b601081526000602082016f12de58c81b9bdd08185c1c1c9bdd995960821b815291506136c3565b601f81526000602082017f5265656e7472616e637947756172643a207265656e7472616e742063616c6c00815291506136c3565b601b81526000602082017f4e65656420746f206d696e74206174206c656173742031204e46540000000000815291506136c3565b601581526000602082017414da1a5c1c1a5b99c81b9bdd081d995c9a599a5959605a1b815291506136c3565b60ff811661356e565b600061405c8285613671565b91506124c38284613671565b7f19457468657265756d205369676e6564204d6573736167653a0a3332000000008152601c01600061409a8284613614565b50602001919050565b701cda1a5c1c1a5b99cb5d995c9a599a5959607a1b815260110160006140c98286613614565b6020820191506140d98285613614565b6020820191506140e98284613574565b506014019392505050565b6b1ade58cb585c1c1c9bdd995960a21b8152600c0160006141158284613574565b50601401919050565b600081610bb9565b60208101610bb98284613565565b608081016141428287613565565b61414f6020830186613565565b61415c6040830185613614565b818103606083015261416e818461361a565b9695505050505050565b602080825281016141898184613585565b9392505050565b6020808252810161418981846135ce565b60208101610bb9828461360c565b608081016141bd8287613614565b6141ca6020830186614047565b6141d76040830185613614565b6141e46060830184613614565b95945050505050565b602080825281016124c381848661364e565b60208082528101614189818461361a565b60208082528101610bb981613693565b60208082528101610bb9816136ca565b60208082528101610bb9816136fe565b60208082528101610bb981613732565b60208082528101610bb981613766565b60208082528101610bb9816137b1565b60208082528101610bb981613800565b60208082528101610bb981613843565b60208082528101610bb981613869565b60208082528101610bb9816138ab565b60208082528101610bb9816138df565b60208082528101610bb981613905565b60208082528101610bb98161394a565b60208082528101610bb98161398b565b60208082528101610bb9816139b8565b60208082528101610bb9816139ec565b60208082528101610bb981613a14565b60208082528101610bb981613a3b565b60208082528101610bb981613a7a565b60208082528101610bb981613ac3565b60208082528101610bb981613af7565b60208082528101610bb981613b20565b60208082528101610bb981613b7a565b60208082528101610bb981613bae565b60208082528101610bb981613bf5565b60208082528101610bb981613c3b565b60208082528101610bb981613c68565b60208082528101610bb981613c8f565b60208082528101610bb981613cce565b60208082528101610bb981613cf4565b60208082528101610bb981613d26565b60208082528101610bb981613d6f565b60208082528101610bb981613da1565b60208082528101610bb981613dc5565b60208082528101610bb981613df0565b60208082528101610bb981613e24565b60208082528101610bb981613e58565b60208082528101610bb981613e96565b60208082528101610bb981613ee4565b60208082528101610bb981613f2d565b60208082528101610bb981613f61565b60208082528101610bb981613f8c565b60208082528101610bb981613fb3565b60208082528101610bb981613fe7565b60208082528101610bb98161401b565b60208101610bb98284613614565b608081016144fc8287613614565b6145096020830186613614565b6145166040830185613614565b6141e46060830184613565565b608081016145318287613614565b6141ca6020830186613614565b600061454960405190565b9050614555828261466d565b919050565b600067ffffffffffffffff82111561457457614574614735565b5060209081020190565b600067ffffffffffffffff82111561459857614598614735565b601f19601f83011660200192915050565b600082198211156145bc576145bc6146c7565b500190565b60008160001904831182151516156145db576145db6146c7565b500290565b6000828210156145f2576145f26146c7565b500390565b60006001600160a01b038216610bb9565b82818337506000910152565b60005b8381101561462f578181015183820152602001614617565b83811115611adf5750506000910152565b60028104600182168061465457607f821691505b60208210811415614667576146676146f3565b50919050565b601f19601f830116810181811067ffffffffffffffff8211171561469357614693614735565b6040525050565b60006000198214156146ae576146ae6146c7565b5060010190565b6000610bb9826000610bb98260601b90565b634e487b7160e01b600052601160045260246000fd5b634e487b7160e01b600052602160045260246000fd5b634e487b7160e01b600052602260045260246000fd5b634e487b7160e01b600052603160045260246000fd5b634e487b7160e01b600052603260045260246000fd5b634e487b7160e01b600052604160045260246000fd5b614754816145f7565b811461108e57600080fd5b801515614754565b6001600160e01b03198116614754565b8061475456fea26469706673582212207bb882892714103134d9ddd234297b2e0754cdd7fb7ea230473d06d6977f6b2464736f6c63430008070033",
  "devdoc": {
    "kind": "dev",
    "methods": {
      "approve(address,uint256)": {
        "details": "See {IERC721-approve}."
      },
      "balanceOf(address)": {
        "details": "See {IERC721-balanceOf}."
      },
      "getApproved(uint256)": {
        "details": "See {IERC721-getApproved}."
      },
      "isApprovedForAll(address,address)": {
        "details": "See {IERC721-isApprovedForAll}."
      },
      "name()": {
        "details": "See {IERC721Metadata-name}."
      },
      "owner()": {
        "details": "Returns the address of the current owner."
      },
      "ownerOf(uint256)": {
        "details": "See {IERC721-ownerOf}."
      },
      "renounceOwnership()": {
        "details": "Leaves the contract without owner. It will not be possible to call `onlyOwner` functions anymore. Can only be called by the current owner. NOTE: Renouncing ownership will leave the contract without an owner, thereby removing any functionality that is only available to the owner."
      },
      "safeTransferFrom(address,address,uint256)": {
        "details": "See {IERC721-safeTransferFrom}."
      },
      "safeTransferFrom(address,address,uint256,bytes)": {
        "details": "See {IERC721-safeTransferFrom}."
      },
      "setApprovalForAll(address,bool)": {
        "details": "See {IERC721-setApprovalForAll}."
      },
      "supportsInterface(bytes4)": {
        "details": "See {IERC165-supportsInterface}."
      },
      "symbol()": {
        "details": "See {IERC721Metadata-symbol}."
      },
      "tokenByIndex(uint256)": {
        "details": "See {IERC721Enumerable-tokenByIndex}."
      },
      "tokenOfOwnerByIndex(address,uint256)": {
        "details": "See {IERC721Enumerable-tokenOfOwnerByIndex}."
      },
      "tokenURI(uint256)": {
        "details": "See {IERC721Metadata-tokenURI}."
      },
      "totalSupply()": {
        "details": "See {IERC721Enumerable-totalSupply}."
      },
      "transferFrom(address,address,uint256)": {
        "details": "See {IERC721-transferFrom}."
      },
      "transferOwnership(address)": {
        "details": "Transfers ownership of the contract to a new account (`newOwner`). Can only be called by the current owner."
      }
    },
    "version": 1
  },
  "userdoc": {
    "events": {
      "TokenURIUpdated(uint256,string)": {
        "notice": "EVENTS "
      }
    },
    "kind": "user",
    "methods": {
      "constructor": {
        "notice": "METHODS "
      }
    },
    "version": 1
  },
  "storageLayout": {
    "storage": [
      {
        "astId": 170,
        "contract": "contracts/NFTiff.sol:NFTiff",
        "label": "_name",
        "offset": 0,
        "slot": "0",
        "type": "t_string_storage"
      },
      {
        "astId": 172,
        "contract": "contracts/NFTiff.sol:NFTiff",
        "label": "_symbol",
        "offset": 0,
        "slot": "1",
        "type": "t_string_storage"
      },
      {
        "astId": 176,
        "contract": "contracts/NFTiff.sol:NFTiff",
        "label": "_owners",
        "offset": 0,
        "slot": "2",
        "type": "t_mapping(t_uint256,t_address)"
      },
      {
        "astId": 180,
        "contract": "contracts/NFTiff.sol:NFTiff",
        "label": "_balances",
        "offset": 0,
        "slot": "3",
        "type": "t_mapping(t_address,t_uint256)"
      },
      {
        "astId": 184,
        "contract": "contracts/NFTiff.sol:NFTiff",
        "label": "_tokenApprovals",
        "offset": 0,
        "slot": "4",
        "type": "t_mapping(t_uint256,t_address)"
      },
      {
        "astId": 190,
        "contract": "contracts/NFTiff.sol:NFTiff",
        "label": "_operatorApprovals",
        "offset": 0,
        "slot": "5",
        "type": "t_mapping(t_address,t_mapping(t_address,t_bool))"
      },
      {
        "astId": 1159,
        "contract": "contracts/NFTiff.sol:NFTiff",
        "label": "_ownedTokens",
        "offset": 0,
        "slot": "6",
        "type": "t_mapping(t_address,t_mapping(t_uint256,t_uint256))"
      },
      {
        "astId": 1163,
        "contract": "contracts/NFTiff.sol:NFTiff",
        "label": "_ownedTokensIndex",
        "offset": 0,
        "slot": "7",
        "type": "t_mapping(t_uint256,t_uint256)"
      },
      {
        "astId": 1166,
        "contract": "contracts/NFTiff.sol:NFTiff",
        "label": "_allTokens",
        "offset": 0,
        "slot": "8",
        "type": "t_array(t_uint256)dyn_storage"
      },
      {
        "astId": 1170,
        "contract": "contracts/NFTiff.sol:NFTiff",
        "label": "_allTokensIndex",
        "offset": 0,
        "slot": "9",
        "type": "t_mapping(t_uint256,t_uint256)"
      },
      {
        "astId": 7,
        "contract": "contracts/NFTiff.sol:NFTiff",
        "label": "_owner",
        "offset": 0,
        "slot": "10",
        "type": "t_address"
      },
      {
        "astId": 115,
        "contract": "contracts/NFTiff.sol:NFTiff",
        "label": "_status",
        "offset": 0,
        "slot": "11",
        "type": "t_uint256"
      },
      {
        "astId": 2919,
        "contract": "contracts/NFTiff.sol:NFTiff",
        "label": "notRevealedUri",
        "offset": 0,
        "slot": "12",
        "type": "t_string_storage"
      },
      {
        "astId": 2923,
        "contract": "contracts/NFTiff.sol:NFTiff",
        "label": "_tokenURIs",
        "offset": 0,
        "slot": "13",
        "type": "t_mapping(t_uint256,t_string_storage)"
      },
      {
        "astId": 2926,
        "contract": "contracts/NFTiff.sol:NFTiff",
        "label": "cost",
        "offset": 0,
        "slot": "14",
        "type": "t_uint256"
      },
      {
        "astId": 2929,
        "contract": "contracts/NFTiff.sol:NFTiff",
        "label": "maxSupply",
        "offset": 0,
        "slot": "15",
        "type": "t_uint256"
      },
      {
        "astId": 2932,
        "contract": "contracts/NFTiff.sol:NFTiff",
        "label": "maxMintAmount",
        "offset": 0,
        "slot": "16",
        "type": "t_uint256"
      },
      {
        "astId": 2935,
        "contract": "contracts/NFTiff.sol:NFTiff",
        "label": "presaleSupply",
        "offset": 0,
        "slot": "17",
        "type": "t_uint256"
      },
      {
        "astId": 2937,
        "contract": "contracts/NFTiff.sol:NFTiff",
        "label": "presaleEndTimestamp",
        "offset": 0,
        "slot": "18",
        "type": "t_uint256"
      },
      {
        "astId": 2940,
        "contract": "contracts/NFTiff.sol:NFTiff",
        "label": "presaleActive",
        "offset": 0,
        "slot": "19",
        "type": "t_bool"
      },
      {
        "astId": 2943,
        "contract": "contracts/NFTiff.sol:NFTiff",
        "label": "publicSaleActive",
        "offset": 1,
        "slot": "19",
        "type": "t_bool"
      },
      {
        "astId": 2946,
        "contract": "contracts/NFTiff.sol:NFTiff",
        "label": "paused",
        "offset": 2,
        "slot": "19",
        "type": "t_bool"
      },
      {
        "astId": 2949,
        "contract": "contracts/NFTiff.sol:NFTiff",
        "label": "revealed",
        "offset": 3,
        "slot": "19",
        "type": "t_bool"
      },
      {
        "astId": 2952,
        "contract": "contracts/NFTiff.sol:NFTiff",
        "label": "isKycRequired",
        "offset": 4,
        "slot": "19",
        "type": "t_bool"
      },
      {
        "astId": 2954,
        "contract": "contracts/NFTiff.sol:NFTiff",
        "label": "signer",
        "offset": 5,
        "slot": "19",
        "type": "t_address"
      },
      {
        "astId": 2958,
        "contract": "contracts/NFTiff.sol:NFTiff",
        "label": "whitelistMinted",
        "offset": 0,
        "slot": "20",
        "type": "t_mapping(t_address,t_uint256)"
      },
      {
        "astId": 2962,
        "contract": "contracts/NFTiff.sol:NFTiff",
        "label": "whitelistedAddresses",
        "offset": 0,
        "slot": "21",
        "type": "t_mapping(t_address,t_bool)"
      },
      {
        "astId": 2966,
        "contract": "contracts/NFTiff.sol:NFTiff",
        "label": "blacklistedAddresses",
        "offset": 0,
        "slot": "22",
        "type": "t_mapping(t_address,t_bool)"
      },
      {
        "astId": 2970,
        "contract": "contracts/NFTiff.sol:NFTiff",
        "label": "totalClaimed",
        "offset": 0,
        "slot": "23",
        "type": "t_uint256"
      },
      {
        "astId": 2975,
        "contract": "contracts/NFTiff.sol:NFTiff",
        "label": "claimInfo",
        "offset": 0,
        "slot": "24",
        "type": "t_mapping(t_uint256,t_struct(ClaimInfo)2992_storage)"
      },
      {
        "astId": 2979,
        "contract": "contracts/NFTiff.sol:NFTiff",
        "label": "nftiffClaims",
        "offset": 0,
        "slot": "25",
        "type": "t_mapping(t_uint256,t_uint256)"
      },
      {
        "astId": 2983,
        "contract": "contracts/NFTiff.sol:NFTiff",
        "label": "punkClaims",
        "offset": 0,
        "slot": "26",
        "type": "t_mapping(t_uint256,t_uint256)"
      },
      {
        "astId": 4037,
        "contract": "contracts/NFTiff.sol:NFTiff",
        "label": "_baseTokenURI",
        "offset": 0,
        "slot": "27",
        "type": "t_string_storage"
      }
    ],
    "types": {
      "t_address": {
        "encoding": "inplace",
        "label": "address",
        "numberOfBytes": "20"
      },
      "t_array(t_uint256)dyn_storage": {
        "base": "t_uint256",
        "encoding": "dynamic_array",
        "label": "uint256[]",
        "numberOfBytes": "32"
      },
      "t_bool": {
        "encoding": "inplace",
        "label": "bool",
        "numberOfBytes": "1"
      },
      "t_mapping(t_address,t_bool)": {
        "encoding": "mapping",
        "key": "t_address",
        "label": "mapping(address => bool)",
        "numberOfBytes": "32",
        "value": "t_bool"
      },
      "t_mapping(t_address,t_mapping(t_address,t_bool))": {
        "encoding": "mapping",
        "key": "t_address",
        "label": "mapping(address => mapping(address => bool))",
        "numberOfBytes": "32",
        "value": "t_mapping(t_address,t_bool)"
      },
      "t_mapping(t_address,t_mapping(t_uint256,t_uint256))": {
        "encoding": "mapping",
        "key": "t_address",
        "label": "mapping(address => mapping(uint256 => uint256))",
        "numberOfBytes": "32",
        "value": "t_mapping(t_uint256,t_uint256)"
      },
      "t_mapping(t_address,t_uint256)": {
        "encoding": "mapping",
        "key": "t_address",
        "label": "mapping(address => uint256)",
        "numberOfBytes": "32",
        "value": "t_uint256"
      },
      "t_mapping(t_uint256,t_address)": {
        "encoding": "mapping",
        "key": "t_uint256",
        "label": "mapping(uint256 => address)",
        "numberOfBytes": "32",
        "value": "t_address"
      },
      "t_mapping(t_uint256,t_string_storage)": {
        "encoding": "mapping",
        "key": "t_uint256",
        "label": "mapping(uint256 => string)",
        "numberOfBytes": "32",
        "value": "t_string_storage"
      },
      "t_mapping(t_uint256,t_struct(ClaimInfo)2992_storage)": {
        "encoding": "mapping",
        "key": "t_uint256",
        "label": "mapping(uint256 => struct NFTiff.ClaimInfo)",
        "numberOfBytes": "32",
        "value": "t_struct(ClaimInfo)2992_storage"
      },
      "t_mapping(t_uint256,t_uint256)": {
        "encoding": "mapping",
        "key": "t_uint256",
        "label": "mapping(uint256 => uint256)",
        "numberOfBytes": "32",
        "value": "t_uint256"
      },
      "t_string_storage": {
        "encoding": "bytes",
        "label": "string",
        "numberOfBytes": "32"
      },
      "t_struct(ClaimInfo)2992_storage": {
        "encoding": "inplace",
        "label": "struct NFTiff.ClaimInfo",
        "members": [
          {
            "astId": 2985,
            "contract": "contracts/NFTiff.sol:NFTiff",
            "label": "punkId",
            "offset": 0,
            "slot": "0",
            "type": "t_uint256"
          },
          {
            "astId": 2987,
            "contract": "contracts/NFTiff.sol:NFTiff",
            "label": "nftiffId",
            "offset": 0,
            "slot": "1",
            "type": "t_uint256"
          },
          {
            "astId": 2989,
            "contract": "contracts/NFTiff.sol:NFTiff",
            "label": "timestamp",
            "offset": 0,
            "slot": "2",
            "type": "t_uint256"
          },
          {
            "astId": 2991,
            "contract": "contracts/NFTiff.sol:NFTiff",
            "label": "claimer",
            "offset": 0,
            "slot": "3",
            "type": "t_address"
          }
        ],
        "numberOfBytes": "128"
      },
      "t_uint256": {
        "encoding": "inplace",
        "label": "uint256",
        "numberOfBytes": "32"
      }
    }
  }
}